{
	"contracts/DegenToken.sol": {
		"DegenToken": {
			"abi": [
				{
					"inputs": [
						{
							"internalType": "address",
							"name": "initialOwner",
							"type": "address"
						},
						{
							"internalType": "uint256",
							"name": "tokenSupply",
							"type": "uint256"
						}
					],
					"stateMutability": "nonpayable",
					"type": "constructor"
				},
				{
					"inputs": [
						{
							"internalType": "address",
							"name": "spender",
							"type": "address"
						},
						{
							"internalType": "uint256",
							"name": "allowance",
							"type": "uint256"
						},
						{
							"internalType": "uint256",
							"name": "needed",
							"type": "uint256"
						}
					],
					"name": "ERC20InsufficientAllowance",
					"type": "error"
				},
				{
					"inputs": [
						{
							"internalType": "address",
							"name": "sender",
							"type": "address"
						},
						{
							"internalType": "uint256",
							"name": "balance",
							"type": "uint256"
						},
						{
							"internalType": "uint256",
							"name": "needed",
							"type": "uint256"
						}
					],
					"name": "ERC20InsufficientBalance",
					"type": "error"
				},
				{
					"inputs": [
						{
							"internalType": "address",
							"name": "approver",
							"type": "address"
						}
					],
					"name": "ERC20InvalidApprover",
					"type": "error"
				},
				{
					"inputs": [
						{
							"internalType": "address",
							"name": "receiver",
							"type": "address"
						}
					],
					"name": "ERC20InvalidReceiver",
					"type": "error"
				},
				{
					"inputs": [
						{
							"internalType": "address",
							"name": "sender",
							"type": "address"
						}
					],
					"name": "ERC20InvalidSender",
					"type": "error"
				},
				{
					"inputs": [
						{
							"internalType": "address",
							"name": "spender",
							"type": "address"
						}
					],
					"name": "ERC20InvalidSpender",
					"type": "error"
				},
				{
					"inputs": [
						{
							"internalType": "address",
							"name": "owner",
							"type": "address"
						}
					],
					"name": "OwnableInvalidOwner",
					"type": "error"
				},
				{
					"inputs": [
						{
							"internalType": "address",
							"name": "account",
							"type": "address"
						}
					],
					"name": "OwnableUnauthorizedAccount",
					"type": "error"
				},
				{
					"anonymous": false,
					"inputs": [
						{
							"indexed": true,
							"internalType": "address",
							"name": "owner",
							"type": "address"
						},
						{
							"indexed": true,
							"internalType": "address",
							"name": "spender",
							"type": "address"
						},
						{
							"indexed": false,
							"internalType": "uint256",
							"name": "value",
							"type": "uint256"
						}
					],
					"name": "Approval",
					"type": "event"
				},
				{
					"anonymous": false,
					"inputs": [
						{
							"indexed": true,
							"internalType": "address",
							"name": "player",
							"type": "address"
						},
						{
							"indexed": false,
							"internalType": "uint256",
							"name": "num",
							"type": "uint256"
						},
						{
							"indexed": false,
							"internalType": "bool",
							"name": "won",
							"type": "bool"
						},
						{
							"indexed": false,
							"internalType": "string",
							"name": "result",
							"type": "string"
						}
					],
					"name": "GameOutcome",
					"type": "event"
				},
				{
					"anonymous": false,
					"inputs": [
						{
							"indexed": true,
							"internalType": "address",
							"name": "buyer",
							"type": "address"
						},
						{
							"indexed": false,
							"internalType": "uint8",
							"name": "itemId",
							"type": "uint8"
						},
						{
							"indexed": false,
							"internalType": "string",
							"name": "itemName",
							"type": "string"
						},
						{
							"indexed": false,
							"internalType": "uint256",
							"name": "price",
							"type": "uint256"
						}
					],
					"name": "ItemPurchased",
					"type": "event"
				},
				{
					"anonymous": false,
					"inputs": [
						{
							"indexed": true,
							"internalType": "address",
							"name": "previousOwner",
							"type": "address"
						},
						{
							"indexed": true,
							"internalType": "address",
							"name": "newOwner",
							"type": "address"
						}
					],
					"name": "OwnershipTransferred",
					"type": "event"
				},
				{
					"anonymous": false,
					"inputs": [
						{
							"indexed": true,
							"internalType": "address",
							"name": "from",
							"type": "address"
						},
						{
							"indexed": true,
							"internalType": "address",
							"name": "to",
							"type": "address"
						},
						{
							"indexed": false,
							"internalType": "uint256",
							"name": "value",
							"type": "uint256"
						}
					],
					"name": "Transfer",
					"type": "event"
				},
				{
					"inputs": [
						{
							"internalType": "string",
							"name": "_name",
							"type": "string"
						},
						{
							"internalType": "uint256",
							"name": "_price",
							"type": "uint256"
						}
					],
					"name": "addItem",
					"outputs": [],
					"stateMutability": "nonpayable",
					"type": "function"
				},
				{
					"inputs": [
						{
							"internalType": "address",
							"name": "owner",
							"type": "address"
						},
						{
							"internalType": "address",
							"name": "spender",
							"type": "address"
						}
					],
					"name": "allowance",
					"outputs": [
						{
							"internalType": "uint256",
							"name": "",
							"type": "uint256"
						}
					],
					"stateMutability": "view",
					"type": "function"
				},
				{
					"inputs": [
						{
							"internalType": "address",
							"name": "spender",
							"type": "address"
						},
						{
							"internalType": "uint256",
							"name": "value",
							"type": "uint256"
						}
					],
					"name": "approve",
					"outputs": [
						{
							"internalType": "bool",
							"name": "",
							"type": "bool"
						}
					],
					"stateMutability": "nonpayable",
					"type": "function"
				},
				{
					"inputs": [
						{
							"internalType": "address",
							"name": "account",
							"type": "address"
						}
					],
					"name": "balanceOf",
					"outputs": [
						{
							"internalType": "uint256",
							"name": "",
							"type": "uint256"
						}
					],
					"stateMutability": "view",
					"type": "function"
				},
				{
					"inputs": [
						{
							"internalType": "uint256",
							"name": "value",
							"type": "uint256"
						}
					],
					"name": "burn",
					"outputs": [],
					"stateMutability": "nonpayable",
					"type": "function"
				},
				{
					"inputs": [
						{
							"internalType": "address",
							"name": "account",
							"type": "address"
						},
						{
							"internalType": "uint256",
							"name": "value",
							"type": "uint256"
						}
					],
					"name": "burnFrom",
					"outputs": [],
					"stateMutability": "nonpayable",
					"type": "function"
				},
				{
					"inputs": [
						{
							"internalType": "uint256",
							"name": "_amount",
							"type": "uint256"
						}
					],
					"name": "burnToken",
					"outputs": [],
					"stateMutability": "nonpayable",
					"type": "function"
				},
				{
					"inputs": [],
					"name": "decimals",
					"outputs": [
						{
							"internalType": "uint8",
							"name": "",
							"type": "uint8"
						}
					],
					"stateMutability": "pure",
					"type": "function"
				},
				{
					"inputs": [],
					"name": "getBalance",
					"outputs": [
						{
							"internalType": "uint256",
							"name": "",
							"type": "uint256"
						}
					],
					"stateMutability": "view",
					"type": "function"
				},
				{
					"inputs": [
						{
							"internalType": "bool",
							"name": "_prediction",
							"type": "bool"
						},
						{
							"internalType": "uint256",
							"name": "_betAmount",
							"type": "uint256"
						}
					],
					"name": "isLessThanFive",
					"outputs": [],
					"stateMutability": "nonpayable",
					"type": "function"
				},
				{
					"inputs": [
						{
							"internalType": "uint8",
							"name": "",
							"type": "uint8"
						}
					],
					"name": "items",
					"outputs": [
						{
							"internalType": "string",
							"name": "name",
							"type": "string"
						},
						{
							"internalType": "uint8",
							"name": "itemId",
							"type": "uint8"
						},
						{
							"internalType": "uint256",
							"name": "price",
							"type": "uint256"
						}
					],
					"stateMutability": "view",
					"type": "function"
				},
				{
					"inputs": [
						{
							"internalType": "address",
							"name": "to",
							"type": "address"
						},
						{
							"internalType": "uint256",
							"name": "amount",
							"type": "uint256"
						}
					],
					"name": "mint",
					"outputs": [],
					"stateMutability": "nonpayable",
					"type": "function"
				},
				{
					"inputs": [],
					"name": "name",
					"outputs": [
						{
							"internalType": "string",
							"name": "",
							"type": "string"
						}
					],
					"stateMutability": "view",
					"type": "function"
				},
				{
					"inputs": [],
					"name": "owner",
					"outputs": [
						{
							"internalType": "address",
							"name": "",
							"type": "address"
						}
					],
					"stateMutability": "view",
					"type": "function"
				},
				{
					"inputs": [
						{
							"internalType": "uint8",
							"name": "_itemId",
							"type": "uint8"
						}
					],
					"name": "purchaseItem",
					"outputs": [],
					"stateMutability": "nonpayable",
					"type": "function"
				},
				{
					"inputs": [],
					"name": "renounceOwnership",
					"outputs": [],
					"stateMutability": "nonpayable",
					"type": "function"
				},
				{
					"inputs": [],
					"name": "symbol",
					"outputs": [
						{
							"internalType": "string",
							"name": "",
							"type": "string"
						}
					],
					"stateMutability": "view",
					"type": "function"
				},
				{
					"inputs": [],
					"name": "tokenId",
					"outputs": [
						{
							"internalType": "uint8",
							"name": "",
							"type": "uint8"
						}
					],
					"stateMutability": "view",
					"type": "function"
				},
				{
					"inputs": [],
					"name": "totalSupply",
					"outputs": [
						{
							"internalType": "uint256",
							"name": "",
							"type": "uint256"
						}
					],
					"stateMutability": "view",
					"type": "function"
				},
				{
					"inputs": [
						{
							"internalType": "address",
							"name": "to",
							"type": "address"
						},
						{
							"internalType": "uint256",
							"name": "value",
							"type": "uint256"
						}
					],
					"name": "transfer",
					"outputs": [
						{
							"internalType": "bool",
							"name": "",
							"type": "bool"
						}
					],
					"stateMutability": "nonpayable",
					"type": "function"
				},
				{
					"inputs": [
						{
							"internalType": "address",
							"name": "from",
							"type": "address"
						},
						{
							"internalType": "address",
							"name": "to",
							"type": "address"
						},
						{
							"internalType": "uint256",
							"name": "value",
							"type": "uint256"
						}
					],
					"name": "transferFrom",
					"outputs": [
						{
							"internalType": "bool",
							"name": "",
							"type": "bool"
						}
					],
					"stateMutability": "nonpayable",
					"type": "function"
				},
				{
					"inputs": [
						{
							"internalType": "address",
							"name": "newOwner",
							"type": "address"
						}
					],
					"name": "transferOwnership",
					"outputs": [],
					"stateMutability": "nonpayable",
					"type": "function"
				},
				{
					"inputs": [
						{
							"internalType": "address",
							"name": "_recipient",
							"type": "address"
						},
						{
							"internalType": "uint256",
							"name": "_amount",
							"type": "uint256"
						}
					],
					"name": "transferToken",
					"outputs": [],
					"stateMutability": "nonpayable",
					"type": "function"
				},
				{
					"inputs": [],
					"name": "welcomeBonus",
					"outputs": [],
					"stateMutability": "nonpayable",
					"type": "function"
				}
			],
			"devdoc": {
				"errors": {
					"ERC20InsufficientAllowance(address,uint256,uint256)": [
						{
							"details": "Indicates a failure with the `spender`’s `allowance`. Used in transfers.",
							"params": {
								"allowance": "Amount of tokens a `spender` is allowed to operate with.",
								"needed": "Minimum amount required to perform a transfer.",
								"spender": "Address that may be allowed to operate on tokens without being their owner."
							}
						}
					],
					"ERC20InsufficientBalance(address,uint256,uint256)": [
						{
							"details": "Indicates an error related to the current `balance` of a `sender`. Used in transfers.",
							"params": {
								"balance": "Current balance for the interacting account.",
								"needed": "Minimum amount required to perform a transfer.",
								"sender": "Address whose tokens are being transferred."
							}
						}
					],
					"ERC20InvalidApprover(address)": [
						{
							"details": "Indicates a failure with the `approver` of a token to be approved. Used in approvals.",
							"params": {
								"approver": "Address initiating an approval operation."
							}
						}
					],
					"ERC20InvalidReceiver(address)": [
						{
							"details": "Indicates a failure with the token `receiver`. Used in transfers.",
							"params": {
								"receiver": "Address to which tokens are being transferred."
							}
						}
					],
					"ERC20InvalidSender(address)": [
						{
							"details": "Indicates a failure with the token `sender`. Used in transfers.",
							"params": {
								"sender": "Address whose tokens are being transferred."
							}
						}
					],
					"ERC20InvalidSpender(address)": [
						{
							"details": "Indicates a failure with the `spender` to be approved. Used in approvals.",
							"params": {
								"spender": "Address that may be allowed to operate on tokens without being their owner."
							}
						}
					],
					"OwnableInvalidOwner(address)": [
						{
							"details": "The owner is not a valid owner account. (eg. `address(0)`)"
						}
					],
					"OwnableUnauthorizedAccount(address)": [
						{
							"details": "The caller account is not authorized to perform an operation."
						}
					]
				},
				"events": {
					"Approval(address,address,uint256)": {
						"details": "Emitted when the allowance of a `spender` for an `owner` is set by a call to {approve}. `value` is the new allowance."
					},
					"Transfer(address,address,uint256)": {
						"details": "Emitted when `value` tokens are moved from one account (`from`) to another (`to`). Note that `value` may be zero."
					}
				},
				"kind": "dev",
				"methods": {
					"allowance(address,address)": {
						"details": "See {IERC20-allowance}."
					},
					"approve(address,uint256)": {
						"details": "See {IERC20-approve}. NOTE: If `value` is the maximum `uint256`, the allowance is not updated on `transferFrom`. This is semantically equivalent to an infinite approval. Requirements: - `spender` cannot be the zero address."
					},
					"balanceOf(address)": {
						"details": "See {IERC20-balanceOf}."
					},
					"burn(uint256)": {
						"details": "Destroys a `value` amount of tokens from the caller. See {ERC20-_burn}."
					},
					"burnFrom(address,uint256)": {
						"details": "Destroys a `value` amount of tokens from `account`, deducting from the caller's allowance. See {ERC20-_burn} and {ERC20-allowance}. Requirements: - the caller must have allowance for ``accounts``'s tokens of at least `value`."
					},
					"decimals()": {
						"details": "Returns the number of decimals used to get its user representation. For example, if `decimals` equals `2`, a balance of `505` tokens should be displayed to a user as `5.05` (`505 / 10 ** 2`). Tokens usually opt for a value of 18, imitating the relationship between Ether and Wei. This is the default value returned by this function, unless it's overridden. NOTE: This information is only used for _display_ purposes: it in no way affects any of the arithmetic of the contract, including {IERC20-balanceOf} and {IERC20-transfer}."
					},
					"name()": {
						"details": "Returns the name of the token."
					},
					"owner()": {
						"details": "Returns the address of the current owner."
					},
					"renounceOwnership()": {
						"details": "Leaves the contract without owner. It will not be possible to call `onlyOwner` functions. Can only be called by the current owner. NOTE: Renouncing ownership will leave the contract without an owner, thereby disabling any functionality that is only available to the owner."
					},
					"symbol()": {
						"details": "Returns the symbol of the token, usually a shorter version of the name."
					},
					"totalSupply()": {
						"details": "See {IERC20-totalSupply}."
					},
					"transfer(address,uint256)": {
						"details": "See {IERC20-transfer}. Requirements: - `to` cannot be the zero address. - the caller must have a balance of at least `value`."
					},
					"transferFrom(address,address,uint256)": {
						"details": "See {IERC20-transferFrom}. Emits an {Approval} event indicating the updated allowance. This is not required by the EIP. See the note at the beginning of {ERC20}. NOTE: Does not update the allowance if the current allowance is the maximum `uint256`. Requirements: - `from` and `to` cannot be the zero address. - `from` must have a balance of at least `value`. - the caller must have allowance for ``from``'s tokens of at least `value`."
					},
					"transferOwnership(address)": {
						"details": "Transfers ownership of the contract to a new account (`newOwner`). Can only be called by the current owner."
					}
				},
				"version": 1
			},
			"evm": {
				"assembly": "    /* \"contracts/DegenToken.sol\":785:3600  contract DegenToken is ERC20, Ownable, ERC20Burnable {... */\n  mstore(0x40, 0x80)\n    /* \"contracts/DegenToken.sol\":1199:1636  constructor (address initialOwner, uint tokenSupply) ERC20(\"Degen\", \"DGN\") Ownable(initialOwner) {... */\n  callvalue\n  dup1\n  iszero\n  tag_1\n  jumpi\n  0x00\n  dup1\n  revert\ntag_1:\n  pop\n  mload(0x40)\n  sub(codesize, bytecodeSize)\n  dup1\n  bytecodeSize\n  dup4\n  codecopy\n  dup2\n  dup2\n  add\n  0x40\n  mstore\n  dup2\n  add\n  swap1\n  tag_2\n  swap2\n  swap1\n  tag_3\n  jump\t// in\ntag_2:\n    /* \"contracts/DegenToken.sol\":1282:1294  initialOwner */\n  dup2\n    /* \"@openzeppelin/contracts/token/ERC20/ERC20.sol\":1896:2009  constructor(string memory name_, string memory symbol_) {... */\n  mload(0x40)\n  dup1\n  0x40\n  add\n  0x40\n  mstore\n  dup1\n  0x05\n  dup2\n  mstore\n  0x20\n  add\n  0x446567656e000000000000000000000000000000000000000000000000000000\n  dup2\n  mstore\n  pop\n  mload(0x40)\n  dup1\n  0x40\n  add\n  0x40\n  mstore\n  dup1\n  0x03\n  dup2\n  mstore\n  0x20\n  add\n  0x44474e0000000000000000000000000000000000000000000000000000000000\n  dup2\n  mstore\n  pop\n    /* \"@openzeppelin/contracts/token/ERC20/ERC20.sol\":1970:1975  name_ */\n  dup2\n    /* \"@openzeppelin/contracts/token/ERC20/ERC20.sol\":1962:1967  _name */\n  0x03\n    /* \"@openzeppelin/contracts/token/ERC20/ERC20.sol\":1962:1975  _name = name_ */\n  swap1\n  dup2\n  tag_8\n  swap2\n  swap1\n  tag_9\n  jump\t// in\ntag_8:\n  pop\n    /* \"@openzeppelin/contracts/token/ERC20/ERC20.sol\":1995:2002  symbol_ */\n  dup1\n    /* \"@openzeppelin/contracts/token/ERC20/ERC20.sol\":1985:1992  _symbol */\n  0x04\n    /* \"@openzeppelin/contracts/token/ERC20/ERC20.sol\":1985:2002  _symbol = symbol_ */\n  swap1\n  dup2\n  tag_10\n  swap2\n  swap1\n  tag_9\n  jump\t// in\ntag_10:\n  pop\n    /* \"@openzeppelin/contracts/token/ERC20/ERC20.sol\":1896:2009  constructor(string memory name_, string memory symbol_) {... */\n  pop\n  pop\n    /* \"@openzeppelin/contracts/access/Ownable.sol\":1297:1298  0 */\n  0x00\n    /* \"@openzeppelin/contracts/access/Ownable.sol\":1273:1299  initialOwner == address(0) */\n  0xffffffffffffffffffffffffffffffffffffffff\n  and\n    /* \"@openzeppelin/contracts/access/Ownable.sol\":1273:1285  initialOwner */\n  dup2\n    /* \"@openzeppelin/contracts/access/Ownable.sol\":1273:1299  initialOwner == address(0) */\n  0xffffffffffffffffffffffffffffffffffffffff\n  and\n  sub\n    /* \"@openzeppelin/contracts/access/Ownable.sol\":1269:1364  if (initialOwner == address(0)) {... */\n  tag_12\n  jumpi\n    /* \"@openzeppelin/contracts/access/Ownable.sol\":1350:1351  0 */\n  0x00\n    /* \"@openzeppelin/contracts/access/Ownable.sol\":1322:1353  OwnableInvalidOwner(address(0)) */\n  mload(0x40)\n  0x1e4fbdf700000000000000000000000000000000000000000000000000000000\n  dup2\n  mstore\n  0x04\n  add\n  tag_13\n  swap2\n  swap1\n  tag_14\n  jump\t// in\ntag_13:\n  mload(0x40)\n  dup1\n  swap2\n  sub\n  swap1\n  revert\n    /* \"@openzeppelin/contracts/access/Ownable.sol\":1269:1364  if (initialOwner == address(0)) {... */\ntag_12:\n    /* \"@openzeppelin/contracts/access/Ownable.sol\":1373:1405  _transferOwnership(initialOwner) */\n  tag_15\n    /* \"@openzeppelin/contracts/access/Ownable.sol\":1392:1404  initialOwner */\n  dup2\n    /* \"@openzeppelin/contracts/access/Ownable.sol\":1373:1391  _transferOwnership */\n  shl(0x20, tag_16)\n    /* \"@openzeppelin/contracts/access/Ownable.sol\":1373:1405  _transferOwnership(initialOwner) */\n  0x20\n  shr\n  jump\t// in\ntag_15:\n    /* \"@openzeppelin/contracts/access/Ownable.sol\":1225:1412  constructor(address initialOwner) {... */\n  pop\n    /* \"contracts/DegenToken.sol\":1307:1338  mint(initialOwner, tokenSupply) */\n  tag_18\n    /* \"contracts/DegenToken.sol\":1312:1324  initialOwner */\n  dup3\n    /* \"contracts/DegenToken.sol\":1326:1337  tokenSupply */\n  dup3\n    /* \"contracts/DegenToken.sol\":1307:1311  mint */\n  shl(0x20, tag_19)\n    /* \"contracts/DegenToken.sol\":1307:1338  mint(initialOwner, tokenSupply) */\n  0x20\n  shr\n  jump\t// in\ntag_18:\n    /* \"contracts/DegenToken.sol\":1370:1401  Item(\"Novice Navigator\",1, 100) */\n  mload(0x40)\n  dup1\n  0x60\n  add\n  0x40\n  mstore\n  dup1\n  mload(0x40)\n  dup1\n  0x40\n  add\n  0x40\n  mstore\n  dup1\n  0x10\n  dup2\n  mstore\n  0x20\n  add\n  0x4e6f76696365204e6176696761746f7200000000000000000000000000000000\n  dup2\n  mstore\n  pop\n  dup2\n  mstore\n  0x20\n  add\n    /* \"contracts/DegenToken.sol\":1394:1395  1 */\n  0x01\n    /* \"contracts/DegenToken.sol\":1370:1401  Item(\"Novice Navigator\",1, 100) */\n  0xff\n  and\n  dup2\n  mstore\n  0x20\n  add\n    /* \"contracts/DegenToken.sol\":1397:1400  100 */\n  0x64\n    /* \"contracts/DegenToken.sol\":1370:1401  Item(\"Novice Navigator\",1, 100) */\n  dup2\n  mstore\n  pop\n    /* \"contracts/DegenToken.sol\":1359:1364  items */\n  0x06\n    /* \"contracts/DegenToken.sol\":1359:1367  items[1] */\n  0x00\n    /* \"contracts/DegenToken.sol\":1365:1366  1 */\n  0x01\n    /* \"contracts/DegenToken.sol\":1359:1367  items[1] */\n  0xff\n  and\n  dup2\n  mstore\n  0x20\n  add\n  swap1\n  dup2\n  mstore\n  0x20\n  add\n  0x00\n  keccak256\n    /* \"contracts/DegenToken.sol\":1359:1401  items[1] = Item(\"Novice Navigator\",1, 100) */\n  0x00\n  dup3\n  add\n  mload\n  dup2\n  0x00\n  add\n  swap1\n  dup2\n  tag_20\n  swap2\n  swap1\n  tag_9\n  jump\t// in\ntag_20:\n  pop\n  0x20\n  dup3\n  add\n  mload\n  dup2\n  0x01\n  add\n  exp(0x0100, 0x00)\n  dup2\n  sload\n  dup2\n  0xff\n  mul\n  not\n  and\n  swap1\n  dup4\n  0xff\n  and\n  mul\n  or\n  swap1\n  sstore\n  pop\n  0x40\n  dup3\n  add\n  mload\n  dup2\n  0x02\n  add\n  sstore\n  swap1\n  pop\n  pop\n    /* \"contracts/DegenToken.sol\":1421:1452  Item(\"Mythic Maverick\", 2, 700) */\n  mload(0x40)\n  dup1\n  0x60\n  add\n  0x40\n  mstore\n  dup1\n  mload(0x40)\n  dup1\n  0x40\n  add\n  0x40\n  mstore\n  dup1\n  0x0f\n  dup2\n  mstore\n  0x20\n  add\n  0x4d7974686963204d6176657269636b0000000000000000000000000000000000\n  dup2\n  mstore\n  pop\n  dup2\n  mstore\n  0x20\n  add\n    /* \"contracts/DegenToken.sol\":1445:1446  2 */\n  0x02\n    /* \"contracts/DegenToken.sol\":1421:1452  Item(\"Mythic Maverick\", 2, 700) */\n  0xff\n  and\n  dup2\n  mstore\n  0x20\n  add\n    /* \"contracts/DegenToken.sol\":1448:1451  700 */\n  0x02bc\n    /* \"contracts/DegenToken.sol\":1421:1452  Item(\"Mythic Maverick\", 2, 700) */\n  dup2\n  mstore\n  pop\n    /* \"contracts/DegenToken.sol\":1412:1417  items */\n  0x06\n    /* \"contracts/DegenToken.sol\":1412:1420  items[2] */\n  0x00\n    /* \"contracts/DegenToken.sol\":1418:1419  2 */\n  0x02\n    /* \"contracts/DegenToken.sol\":1412:1420  items[2] */\n  0xff\n  and\n  dup2\n  mstore\n  0x20\n  add\n  swap1\n  dup2\n  mstore\n  0x20\n  add\n  0x00\n  keccak256\n    /* \"contracts/DegenToken.sol\":1412:1452  items[2]=Item(\"Mythic Maverick\", 2, 700) */\n  0x00\n  dup3\n  add\n  mload\n  dup2\n  0x00\n  add\n  swap1\n  dup2\n  tag_21\n  swap2\n  swap1\n  tag_9\n  jump\t// in\ntag_21:\n  pop\n  0x20\n  dup3\n  add\n  mload\n  dup2\n  0x01\n  add\n  exp(0x0100, 0x00)\n  dup2\n  sload\n  dup2\n  0xff\n  mul\n  not\n  and\n  swap1\n  dup4\n  0xff\n  and\n  mul\n  or\n  swap1\n  sstore\n  pop\n  0x40\n  dup3\n  add\n  mload\n  dup2\n  0x02\n  add\n  sstore\n  swap1\n  pop\n  pop\n    /* \"contracts/DegenToken.sol\":1472:1506  Item(\"Celestial Crusher\", 3, 1200) */\n  mload(0x40)\n  dup1\n  0x60\n  add\n  0x40\n  mstore\n  dup1\n  mload(0x40)\n  dup1\n  0x40\n  add\n  0x40\n  mstore\n  dup1\n  0x11\n  dup2\n  mstore\n  0x20\n  add\n  0x43656c65737469616c2043727573686572000000000000000000000000000000\n  dup2\n  mstore\n  pop\n  dup2\n  mstore\n  0x20\n  add\n    /* \"contracts/DegenToken.sol\":1498:1499  3 */\n  0x03\n    /* \"contracts/DegenToken.sol\":1472:1506  Item(\"Celestial Crusher\", 3, 1200) */\n  0xff\n  and\n  dup2\n  mstore\n  0x20\n  add\n    /* \"contracts/DegenToken.sol\":1501:1505  1200 */\n  0x04b0\n    /* \"contracts/DegenToken.sol\":1472:1506  Item(\"Celestial Crusher\", 3, 1200) */\n  dup2\n  mstore\n  pop\n    /* \"contracts/DegenToken.sol\":1463:1468  items */\n  0x06\n    /* \"contracts/DegenToken.sol\":1463:1471  items[3] */\n  0x00\n    /* \"contracts/DegenToken.sol\":1469:1470  3 */\n  0x03\n    /* \"contracts/DegenToken.sol\":1463:1471  items[3] */\n  0xff\n  and\n  dup2\n  mstore\n  0x20\n  add\n  swap1\n  dup2\n  mstore\n  0x20\n  add\n  0x00\n  keccak256\n    /* \"contracts/DegenToken.sol\":1463:1506  items[3]=Item(\"Celestial Crusher\", 3, 1200) */\n  0x00\n  dup3\n  add\n  mload\n  dup2\n  0x00\n  add\n  swap1\n  dup2\n  tag_22\n  swap2\n  swap1\n  tag_9\n  jump\t// in\ntag_22:\n  pop\n  0x20\n  dup3\n  add\n  mload\n  dup2\n  0x01\n  add\n  exp(0x0100, 0x00)\n  dup2\n  sload\n  dup2\n  0xff\n  mul\n  not\n  and\n  swap1\n  dup4\n  0xff\n  and\n  mul\n  or\n  swap1\n  sstore\n  pop\n  0x40\n  dup3\n  add\n  mload\n  dup2\n  0x02\n  add\n  sstore\n  swap1\n  pop\n  pop\n    /* \"contracts/DegenToken.sol\":1526:1553  Item(\"Astral Ace\", 4, 2200) */\n  mload(0x40)\n  dup1\n  0x60\n  add\n  0x40\n  mstore\n  dup1\n  mload(0x40)\n  dup1\n  0x40\n  add\n  0x40\n  mstore\n  dup1\n  0x0a\n  dup2\n  mstore\n  0x20\n  add\n  0x41737472616c2041636500000000000000000000000000000000000000000000\n  dup2\n  mstore\n  pop\n  dup2\n  mstore\n  0x20\n  add\n    /* \"contracts/DegenToken.sol\":1545:1546  4 */\n  0x04\n    /* \"contracts/DegenToken.sol\":1526:1553  Item(\"Astral Ace\", 4, 2200) */\n  0xff\n  and\n  dup2\n  mstore\n  0x20\n  add\n    /* \"contracts/DegenToken.sol\":1548:1552  2200 */\n  0x0898\n    /* \"contracts/DegenToken.sol\":1526:1553  Item(\"Astral Ace\", 4, 2200) */\n  dup2\n  mstore\n  pop\n    /* \"contracts/DegenToken.sol\":1517:1522  items */\n  0x06\n    /* \"contracts/DegenToken.sol\":1517:1525  items[4] */\n  0x00\n    /* \"contracts/DegenToken.sol\":1523:1524  4 */\n  0x04\n    /* \"contracts/DegenToken.sol\":1517:1525  items[4] */\n  0xff\n  and\n  dup2\n  mstore\n  0x20\n  add\n  swap1\n  dup2\n  mstore\n  0x20\n  add\n  0x00\n  keccak256\n    /* \"contracts/DegenToken.sol\":1517:1553  items[4]=Item(\"Astral Ace\", 4, 2200) */\n  0x00\n  dup3\n  add\n  mload\n  dup2\n  0x00\n  add\n  swap1\n  dup2\n  tag_23\n  swap2\n  swap1\n  tag_9\n  jump\t// in\ntag_23:\n  pop\n  0x20\n  dup3\n  add\n  mload\n  dup2\n  0x01\n  add\n  exp(0x0100, 0x00)\n  dup2\n  sload\n  dup2\n  0xff\n  mul\n  not\n  and\n  swap1\n  dup4\n  0xff\n  and\n  mul\n  or\n  swap1\n  sstore\n  pop\n  0x40\n  dup3\n  add\n  mload\n  dup2\n  0x02\n  add\n  sstore\n  swap1\n  pop\n  pop\n    /* \"contracts/DegenToken.sol\":1573:1606  Item(\"Divine Dominator\", 5, 2400) */\n  mload(0x40)\n  dup1\n  0x60\n  add\n  0x40\n  mstore\n  dup1\n  mload(0x40)\n  dup1\n  0x40\n  add\n  0x40\n  mstore\n  dup1\n  0x10\n  dup2\n  mstore\n  0x20\n  add\n  0x446976696e6520446f6d696e61746f7200000000000000000000000000000000\n  dup2\n  mstore\n  pop\n  dup2\n  mstore\n  0x20\n  add\n    /* \"contracts/DegenToken.sol\":1598:1599  5 */\n  0x05\n    /* \"contracts/DegenToken.sol\":1573:1606  Item(\"Divine Dominator\", 5, 2400) */\n  0xff\n  and\n  dup2\n  mstore\n  0x20\n  add\n    /* \"contracts/DegenToken.sol\":1601:1605  2400 */\n  0x0960\n    /* \"contracts/DegenToken.sol\":1573:1606  Item(\"Divine Dominator\", 5, 2400) */\n  dup2\n  mstore\n  pop\n    /* \"contracts/DegenToken.sol\":1564:1569  items */\n  0x06\n    /* \"contracts/DegenToken.sol\":1564:1572  items[5] */\n  0x00\n    /* \"contracts/DegenToken.sol\":1570:1571  5 */\n  0x05\n    /* \"contracts/DegenToken.sol\":1564:1572  items[5] */\n  0xff\n  and\n  dup2\n  mstore\n  0x20\n  add\n  swap1\n  dup2\n  mstore\n  0x20\n  add\n  0x00\n  keccak256\n    /* \"contracts/DegenToken.sol\":1564:1606  items[5]=Item(\"Divine Dominator\", 5, 2400) */\n  0x00\n  dup3\n  add\n  mload\n  dup2\n  0x00\n  add\n  swap1\n  dup2\n  tag_24\n  swap2\n  swap1\n  tag_9\n  jump\t// in\ntag_24:\n  pop\n  0x20\n  dup3\n  add\n  mload\n  dup2\n  0x01\n  add\n  exp(0x0100, 0x00)\n  dup2\n  sload\n  dup2\n  0xff\n  mul\n  not\n  and\n  swap1\n  dup4\n  0xff\n  and\n  mul\n  or\n  swap1\n  sstore\n  pop\n  0x40\n  dup3\n  add\n  mload\n  dup2\n  0x02\n  add\n  sstore\n  swap1\n  pop\n  pop\n    /* \"contracts/DegenToken.sol\":1625:1626  6 */\n  0x06\n    /* \"contracts/DegenToken.sol\":1617:1624  tokenId */\n  0x07\n  0x00\n    /* \"contracts/DegenToken.sol\":1617:1626  tokenId=6 */\n  0x0100\n  exp\n  dup2\n  sload\n  dup2\n  0xff\n  mul\n  not\n  and\n  swap1\n  dup4\n  0xff\n  and\n  mul\n  or\n  swap1\n  sstore\n  pop\n    /* \"contracts/DegenToken.sol\":1199:1636  constructor (address initialOwner, uint tokenSupply) ERC20(\"Degen\", \"DGN\") Ownable(initialOwner) {... */\n  pop\n  pop\n    /* \"contracts/DegenToken.sol\":785:3600  contract DegenToken is ERC20, Ownable, ERC20Burnable {... */\n  jump(tag_25)\n    /* \"@openzeppelin/contracts/access/Ownable.sol\":2912:3099  function _transferOwnership(address newOwner) internal virtual {... */\ntag_16:\n    /* \"@openzeppelin/contracts/access/Ownable.sol\":2985:3001  address oldOwner */\n  0x00\n    /* \"@openzeppelin/contracts/access/Ownable.sol\":3004:3010  _owner */\n  0x05\n  0x00\n  swap1\n  sload\n  swap1\n  0x0100\n  exp\n  swap1\n  div\n  0xffffffffffffffffffffffffffffffffffffffff\n  and\n    /* \"@openzeppelin/contracts/access/Ownable.sol\":2985:3010  address oldOwner = _owner */\n  swap1\n  pop\n    /* \"@openzeppelin/contracts/access/Ownable.sol\":3029:3037  newOwner */\n  dup2\n    /* \"@openzeppelin/contracts/access/Ownable.sol\":3020:3026  _owner */\n  0x05\n  0x00\n    /* \"@openzeppelin/contracts/access/Ownable.sol\":3020:3037  _owner = newOwner */\n  0x0100\n  exp\n  dup2\n  sload\n  dup2\n  0xffffffffffffffffffffffffffffffffffffffff\n  mul\n  not\n  and\n  swap1\n  dup4\n  0xffffffffffffffffffffffffffffffffffffffff\n  and\n  mul\n  or\n  swap1\n  sstore\n  pop\n    /* \"@openzeppelin/contracts/access/Ownable.sol\":3083:3091  newOwner */\n  dup2\n    /* \"@openzeppelin/contracts/access/Ownable.sol\":3052:3092  OwnershipTransferred(oldOwner, newOwner) */\n  0xffffffffffffffffffffffffffffffffffffffff\n  and\n    /* \"@openzeppelin/contracts/access/Ownable.sol\":3073:3081  oldOwner */\n  dup2\n    /* \"@openzeppelin/contracts/access/Ownable.sol\":3052:3092  OwnershipTransferred(oldOwner, newOwner) */\n  0xffffffffffffffffffffffffffffffffffffffff\n  and\n  0x8be0079c531659141344cd1fd0a4f28419497f9722a3daafe3b4186f6b6457e0\n  mload(0x40)\n  mload(0x40)\n  dup1\n  swap2\n  sub\n  swap1\n  log3\n    /* \"@openzeppelin/contracts/access/Ownable.sol\":2975:3099  {... */\n  pop\n    /* \"@openzeppelin/contracts/access/Ownable.sol\":2912:3099  function _transferOwnership(address newOwner) internal virtual {... */\n  pop\n  jump\t// out\n    /* \"contracts/DegenToken.sol\":1760:1855  function mint(address to, uint256 amount) public onlyOwner {... */\ntag_19:\n    /* \"@openzeppelin/contracts/access/Ownable.sol\":1531:1544  _checkOwner() */\n  tag_28\n    /* \"@openzeppelin/contracts/access/Ownable.sol\":1531:1542  _checkOwner */\n  shl(0x20, tag_29)\n    /* \"@openzeppelin/contracts/access/Ownable.sol\":1531:1544  _checkOwner() */\n  0x20\n  shr\n  jump\t// in\ntag_28:\n    /* \"contracts/DegenToken.sol\":1830:1847  _mint(to, amount) */\n  tag_31\n    /* \"contracts/DegenToken.sol\":1836:1838  to */\n  dup3\n    /* \"contracts/DegenToken.sol\":1840:1846  amount */\n  dup3\n    /* \"contracts/DegenToken.sol\":1830:1835  _mint */\n  shl(0x20, tag_32)\n    /* \"contracts/DegenToken.sol\":1830:1847  _mint(to, amount) */\n  0x20\n  shr\n  jump\t// in\ntag_31:\n    /* \"contracts/DegenToken.sol\":1760:1855  function mint(address to, uint256 amount) public onlyOwner {... */\n  pop\n  pop\n  jump\t// out\n    /* \"@openzeppelin/contracts/access/Ownable.sol\":1796:1958  function _checkOwner() internal view virtual {... */\ntag_29:\n    /* \"@openzeppelin/contracts/access/Ownable.sol\":1866:1878  _msgSender() */\n  tag_34\n    /* \"@openzeppelin/contracts/access/Ownable.sol\":1866:1876  _msgSender */\n  shl(0x20, tag_35)\n    /* \"@openzeppelin/contracts/access/Ownable.sol\":1866:1878  _msgSender() */\n  0x20\n  shr\n  jump\t// in\ntag_34:\n    /* \"@openzeppelin/contracts/access/Ownable.sol\":1855:1878  owner() != _msgSender() */\n  0xffffffffffffffffffffffffffffffffffffffff\n  and\n    /* \"@openzeppelin/contracts/access/Ownable.sol\":1855:1862  owner() */\n  tag_36\n    /* \"@openzeppelin/contracts/access/Ownable.sol\":1855:1860  owner */\n  shl(0x20, tag_37)\n    /* \"@openzeppelin/contracts/access/Ownable.sol\":1855:1862  owner() */\n  0x20\n  shr\n  jump\t// in\ntag_36:\n    /* \"@openzeppelin/contracts/access/Ownable.sol\":1855:1878  owner() != _msgSender() */\n  0xffffffffffffffffffffffffffffffffffffffff\n  and\n  eq\n    /* \"@openzeppelin/contracts/access/Ownable.sol\":1851:1952  if (owner() != _msgSender()) {... */\n  tag_38\n  jumpi\n    /* \"@openzeppelin/contracts/access/Ownable.sol\":1928:1940  _msgSender() */\n  tag_39\n    /* \"@openzeppelin/contracts/access/Ownable.sol\":1928:1938  _msgSender */\n  shl(0x20, tag_35)\n    /* \"@openzeppelin/contracts/access/Ownable.sol\":1928:1940  _msgSender() */\n  0x20\n  shr\n  jump\t// in\ntag_39:\n    /* \"@openzeppelin/contracts/access/Ownable.sol\":1901:1941  OwnableUnauthorizedAccount(_msgSender()) */\n  mload(0x40)\n  0x118cdaa700000000000000000000000000000000000000000000000000000000\n  dup2\n  mstore\n  0x04\n  add\n  tag_40\n  swap2\n  swap1\n  tag_14\n  jump\t// in\ntag_40:\n  mload(0x40)\n  dup1\n  swap2\n  sub\n  swap1\n  revert\n    /* \"@openzeppelin/contracts/access/Ownable.sol\":1851:1952  if (owner() != _msgSender()) {... */\ntag_38:\n    /* \"@openzeppelin/contracts/access/Ownable.sol\":1796:1958  function _checkOwner() internal view virtual {... */\n  jump\t// out\n    /* \"@openzeppelin/contracts/token/ERC20/ERC20.sol\":7721:7929  function _mint(address account, uint256 value) internal {... */\ntag_32:\n    /* \"@openzeppelin/contracts/token/ERC20/ERC20.sol\":7810:7811  0 */\n  0x00\n    /* \"@openzeppelin/contracts/token/ERC20/ERC20.sol\":7791:7812  account == address(0) */\n  0xffffffffffffffffffffffffffffffffffffffff\n  and\n    /* \"@openzeppelin/contracts/token/ERC20/ERC20.sol\":7791:7798  account */\n  dup3\n    /* \"@openzeppelin/contracts/token/ERC20/ERC20.sol\":7791:7812  account == address(0) */\n  0xffffffffffffffffffffffffffffffffffffffff\n  and\n  sub\n    /* \"@openzeppelin/contracts/token/ERC20/ERC20.sol\":7787:7878  if (account == address(0)) {... */\n  tag_42\n  jumpi\n    /* \"@openzeppelin/contracts/token/ERC20/ERC20.sol\":7864:7865  0 */\n  0x00\n    /* \"@openzeppelin/contracts/token/ERC20/ERC20.sol\":7835:7867  ERC20InvalidReceiver(address(0)) */\n  mload(0x40)\n  0xec442f0500000000000000000000000000000000000000000000000000000000\n  dup2\n  mstore\n  0x04\n  add\n  tag_43\n  swap2\n  swap1\n  tag_14\n  jump\t// in\ntag_43:\n  mload(0x40)\n  dup1\n  swap2\n  sub\n  swap1\n  revert\n    /* \"@openzeppelin/contracts/token/ERC20/ERC20.sol\":7787:7878  if (account == address(0)) {... */\ntag_42:\n    /* \"@openzeppelin/contracts/token/ERC20/ERC20.sol\":7887:7922  _update(address(0), account, value) */\n  tag_44\n    /* \"@openzeppelin/contracts/token/ERC20/ERC20.sol\":7903:7904  0 */\n  0x00\n    /* \"@openzeppelin/contracts/token/ERC20/ERC20.sol\":7907:7914  account */\n  dup4\n    /* \"@openzeppelin/contracts/token/ERC20/ERC20.sol\":7916:7921  value */\n  dup4\n    /* \"@openzeppelin/contracts/token/ERC20/ERC20.sol\":7887:7894  _update */\n  shl(0x20, tag_45)\n    /* \"@openzeppelin/contracts/token/ERC20/ERC20.sol\":7887:7922  _update(address(0), account, value) */\n  0x20\n  shr\n  jump\t// in\ntag_44:\n    /* \"@openzeppelin/contracts/token/ERC20/ERC20.sol\":7721:7929  function _mint(address account, uint256 value) internal {... */\n  pop\n  pop\n  jump\t// out\n    /* \"@openzeppelin/contracts/utils/Context.sol\":656:752  function _msgSender() internal view virtual returns (address) {... */\ntag_35:\n    /* \"@openzeppelin/contracts/utils/Context.sol\":709:716  address */\n  0x00\n    /* \"@openzeppelin/contracts/utils/Context.sol\":735:745  msg.sender */\n  caller\n    /* \"@openzeppelin/contracts/utils/Context.sol\":728:745  return msg.sender */\n  swap1\n  pop\n    /* \"@openzeppelin/contracts/utils/Context.sol\":656:752  function _msgSender() internal view virtual returns (address) {... */\n  swap1\n  jump\t// out\n    /* \"@openzeppelin/contracts/access/Ownable.sol\":1638:1723  function owner() public view virtual returns (address) {... */\ntag_37:\n    /* \"@openzeppelin/contracts/access/Ownable.sol\":1684:1691  address */\n  0x00\n    /* \"@openzeppelin/contracts/access/Ownable.sol\":1710:1716  _owner */\n  0x05\n  0x00\n  swap1\n  sload\n  swap1\n  0x0100\n  exp\n  swap1\n  div\n  0xffffffffffffffffffffffffffffffffffffffff\n  and\n    /* \"@openzeppelin/contracts/access/Ownable.sol\":1703:1716  return _owner */\n  swap1\n  pop\n    /* \"@openzeppelin/contracts/access/Ownable.sol\":1638:1723  function owner() public view virtual returns (address) {... */\n  swap1\n  jump\t// out\n    /* \"@openzeppelin/contracts/token/ERC20/ERC20.sol\":6271:7378  function _update(address from, address to, uint256 value) internal virtual {... */\ntag_45:\n    /* \"@openzeppelin/contracts/token/ERC20/ERC20.sol\":6376:6377  0 */\n  0x00\n    /* \"@openzeppelin/contracts/token/ERC20/ERC20.sol\":6360:6378  from == address(0) */\n  0xffffffffffffffffffffffffffffffffffffffff\n  and\n    /* \"@openzeppelin/contracts/token/ERC20/ERC20.sol\":6360:6364  from */\n  dup4\n    /* \"@openzeppelin/contracts/token/ERC20/ERC20.sol\":6360:6378  from == address(0) */\n  0xffffffffffffffffffffffffffffffffffffffff\n  and\n  sub\n    /* \"@openzeppelin/contracts/token/ERC20/ERC20.sol\":6356:6896  if (from == address(0)) {... */\n  tag_49\n  jumpi\n    /* \"@openzeppelin/contracts/token/ERC20/ERC20.sol\":6512:6517  value */\n  dup1\n    /* \"@openzeppelin/contracts/token/ERC20/ERC20.sol\":6496:6508  _totalSupply */\n  0x02\n  0x00\n    /* \"@openzeppelin/contracts/token/ERC20/ERC20.sol\":6496:6517  _totalSupply += value */\n  dup3\n  dup3\n  sload\n  tag_50\n  swap2\n  swap1\n  tag_51\n  jump\t// in\ntag_50:\n  swap3\n  pop\n  pop\n  dup2\n  swap1\n  sstore\n  pop\n    /* \"@openzeppelin/contracts/token/ERC20/ERC20.sol\":6356:6896  if (from == address(0)) {... */\n  jump(tag_52)\ntag_49:\n    /* \"@openzeppelin/contracts/token/ERC20/ERC20.sol\":6548:6567  uint256 fromBalance */\n  0x00\n    /* \"@openzeppelin/contracts/token/ERC20/ERC20.sol\":6570:6579  _balances */\n  dup1\n    /* \"@openzeppelin/contracts/token/ERC20/ERC20.sol\":6570:6585  _balances[from] */\n  0x00\n    /* \"@openzeppelin/contracts/token/ERC20/ERC20.sol\":6580:6584  from */\n  dup6\n    /* \"@openzeppelin/contracts/token/ERC20/ERC20.sol\":6570:6585  _balances[from] */\n  0xffffffffffffffffffffffffffffffffffffffff\n  and\n  0xffffffffffffffffffffffffffffffffffffffff\n  and\n  dup2\n  mstore\n  0x20\n  add\n  swap1\n  dup2\n  mstore\n  0x20\n  add\n  0x00\n  keccak256\n  sload\n    /* \"@openzeppelin/contracts/token/ERC20/ERC20.sol\":6548:6585  uint256 fromBalance = _balances[from] */\n  swap1\n  pop\n    /* \"@openzeppelin/contracts/token/ERC20/ERC20.sol\":6617:6622  value */\n  dup2\n    /* \"@openzeppelin/contracts/token/ERC20/ERC20.sol\":6603:6614  fromBalance */\n  dup2\n    /* \"@openzeppelin/contracts/token/ERC20/ERC20.sol\":6603:6622  fromBalance < value */\n  lt\n    /* \"@openzeppelin/contracts/token/ERC20/ERC20.sol\":6599:6714  if (fromBalance < value) {... */\n  iszero\n  tag_53\n  jumpi\n    /* \"@openzeppelin/contracts/token/ERC20/ERC20.sol\":6674:6678  from */\n  dup4\n    /* \"@openzeppelin/contracts/token/ERC20/ERC20.sol\":6680:6691  fromBalance */\n  dup2\n    /* \"@openzeppelin/contracts/token/ERC20/ERC20.sol\":6693:6698  value */\n  dup4\n    /* \"@openzeppelin/contracts/token/ERC20/ERC20.sol\":6649:6699  ERC20InsufficientBalance(from, fromBalance, value) */\n  mload(0x40)\n  0xe450d38c00000000000000000000000000000000000000000000000000000000\n  dup2\n  mstore\n  0x04\n  add\n  tag_54\n  swap4\n  swap3\n  swap2\n  swap1\n  tag_55\n  jump\t// in\ntag_54:\n  mload(0x40)\n  dup1\n  swap2\n  sub\n  swap1\n  revert\n    /* \"@openzeppelin/contracts/token/ERC20/ERC20.sol\":6599:6714  if (fromBalance < value) {... */\ntag_53:\n    /* \"@openzeppelin/contracts/token/ERC20/ERC20.sol\":6866:6871  value */\n  dup2\n    /* \"@openzeppelin/contracts/token/ERC20/ERC20.sol\":6852:6863  fromBalance */\n  dup2\n    /* \"@openzeppelin/contracts/token/ERC20/ERC20.sol\":6852:6871  fromBalance - value */\n  sub\n    /* \"@openzeppelin/contracts/token/ERC20/ERC20.sol\":6834:6843  _balances */\n  0x00\n    /* \"@openzeppelin/contracts/token/ERC20/ERC20.sol\":6834:6849  _balances[from] */\n  dup1\n    /* \"@openzeppelin/contracts/token/ERC20/ERC20.sol\":6844:6848  from */\n  dup7\n    /* \"@openzeppelin/contracts/token/ERC20/ERC20.sol\":6834:6849  _balances[from] */\n  0xffffffffffffffffffffffffffffffffffffffff\n  and\n  0xffffffffffffffffffffffffffffffffffffffff\n  and\n  dup2\n  mstore\n  0x20\n  add\n  swap1\n  dup2\n  mstore\n  0x20\n  add\n  0x00\n  keccak256\n    /* \"@openzeppelin/contracts/token/ERC20/ERC20.sol\":6834:6871  _balances[from] = fromBalance - value */\n  dup2\n  swap1\n  sstore\n  pop\n    /* \"@openzeppelin/contracts/token/ERC20/ERC20.sol\":6534:6896  {... */\n  pop\n    /* \"@openzeppelin/contracts/token/ERC20/ERC20.sol\":6356:6896  if (from == address(0)) {... */\ntag_52:\n    /* \"@openzeppelin/contracts/token/ERC20/ERC20.sol\":6924:6925  0 */\n  0x00\n    /* \"@openzeppelin/contracts/token/ERC20/ERC20.sol\":6910:6926  to == address(0) */\n  0xffffffffffffffffffffffffffffffffffffffff\n  and\n    /* \"@openzeppelin/contracts/token/ERC20/ERC20.sol\":6910:6912  to */\n  dup3\n    /* \"@openzeppelin/contracts/token/ERC20/ERC20.sol\":6910:6926  to == address(0) */\n  0xffffffffffffffffffffffffffffffffffffffff\n  and\n  sub\n    /* \"@openzeppelin/contracts/token/ERC20/ERC20.sol\":6906:7331  if (to == address(0)) {... */\n  tag_56\n  jumpi\n    /* \"@openzeppelin/contracts/token/ERC20/ERC20.sol\":7089:7094  value */\n  dup1\n    /* \"@openzeppelin/contracts/token/ERC20/ERC20.sol\":7073:7085  _totalSupply */\n  0x02\n  0x00\n    /* \"@openzeppelin/contracts/token/ERC20/ERC20.sol\":7073:7094  _totalSupply -= value */\n  dup3\n  dup3\n  sload\n  sub\n  swap3\n  pop\n  pop\n  dup2\n  swap1\n  sstore\n  pop\n    /* \"@openzeppelin/contracts/token/ERC20/ERC20.sol\":6906:7331  if (to == address(0)) {... */\n  jump(tag_57)\ntag_56:\n    /* \"@openzeppelin/contracts/token/ERC20/ERC20.sol\":7301:7306  value */\n  dup1\n    /* \"@openzeppelin/contracts/token/ERC20/ERC20.sol\":7284:7293  _balances */\n  0x00\n    /* \"@openzeppelin/contracts/token/ERC20/ERC20.sol\":7284:7297  _balances[to] */\n  dup1\n    /* \"@openzeppelin/contracts/token/ERC20/ERC20.sol\":7294:7296  to */\n  dup5\n    /* \"@openzeppelin/contracts/token/ERC20/ERC20.sol\":7284:7297  _balances[to] */\n  0xffffffffffffffffffffffffffffffffffffffff\n  and\n  0xffffffffffffffffffffffffffffffffffffffff\n  and\n  dup2\n  mstore\n  0x20\n  add\n  swap1\n  dup2\n  mstore\n  0x20\n  add\n  0x00\n  keccak256\n  0x00\n    /* \"@openzeppelin/contracts/token/ERC20/ERC20.sol\":7284:7306  _balances[to] += value */\n  dup3\n  dup3\n  sload\n  add\n  swap3\n  pop\n  pop\n  dup2\n  swap1\n  sstore\n  pop\n    /* \"@openzeppelin/contracts/token/ERC20/ERC20.sol\":6906:7331  if (to == address(0)) {... */\ntag_57:\n    /* \"@openzeppelin/contracts/token/ERC20/ERC20.sol\":7361:7363  to */\n  dup2\n    /* \"@openzeppelin/contracts/token/ERC20/ERC20.sol\":7346:7371  Transfer(from, to, value) */\n  0xffffffffffffffffffffffffffffffffffffffff\n  and\n    /* \"@openzeppelin/contracts/token/ERC20/ERC20.sol\":7355:7359  from */\n  dup4\n    /* \"@openzeppelin/contracts/token/ERC20/ERC20.sol\":7346:7371  Transfer(from, to, value) */\n  0xffffffffffffffffffffffffffffffffffffffff\n  and\n  0xddf252ad1be2c89b69c2b068fc378daa952ba7f163c4a11628f55a4df523b3ef\n    /* \"@openzeppelin/contracts/token/ERC20/ERC20.sol\":7365:7370  value */\n  dup4\n    /* \"@openzeppelin/contracts/token/ERC20/ERC20.sol\":7346:7371  Transfer(from, to, value) */\n  mload(0x40)\n  tag_58\n  swap2\n  swap1\n  tag_59\n  jump\t// in\ntag_58:\n  mload(0x40)\n  dup1\n  swap2\n  sub\n  swap1\n  log3\n    /* \"@openzeppelin/contracts/token/ERC20/ERC20.sol\":6271:7378  function _update(address from, address to, uint256 value) internal virtual {... */\n  pop\n  pop\n  pop\n  jump\t// out\n    /* \"#utility.yul\":88:205   */\ntag_61:\n    /* \"#utility.yul\":197:198   */\n  0x00\n    /* \"#utility.yul\":194:195   */\n  dup1\n    /* \"#utility.yul\":187:199   */\n  revert\n    /* \"#utility.yul\":334:460   */\ntag_63:\n    /* \"#utility.yul\":371:378   */\n  0x00\n    /* \"#utility.yul\":411:453   */\n  0xffffffffffffffffffffffffffffffffffffffff\n    /* \"#utility.yul\":404:409   */\n  dup3\n    /* \"#utility.yul\":400:454   */\n  and\n    /* \"#utility.yul\":389:454   */\n  swap1\n  pop\n    /* \"#utility.yul\":334:460   */\n  swap2\n  swap1\n  pop\n  jump\t// out\n    /* \"#utility.yul\":466:562   */\ntag_64:\n    /* \"#utility.yul\":503:510   */\n  0x00\n    /* \"#utility.yul\":532:556   */\n  tag_98\n    /* \"#utility.yul\":550:555   */\n  dup3\n    /* \"#utility.yul\":532:556   */\n  tag_63\n  jump\t// in\ntag_98:\n    /* \"#utility.yul\":521:556   */\n  swap1\n  pop\n    /* \"#utility.yul\":466:562   */\n  swap2\n  swap1\n  pop\n  jump\t// out\n    /* \"#utility.yul\":568:690   */\ntag_65:\n    /* \"#utility.yul\":641:665   */\n  tag_100\n    /* \"#utility.yul\":659:664   */\n  dup2\n    /* \"#utility.yul\":641:665   */\n  tag_64\n  jump\t// in\ntag_100:\n    /* \"#utility.yul\":634:639   */\n  dup2\n    /* \"#utility.yul\":631:666   */\n  eq\n    /* \"#utility.yul\":621:684   */\n  tag_101\n  jumpi\n    /* \"#utility.yul\":680:681   */\n  0x00\n    /* \"#utility.yul\":677:678   */\n  dup1\n    /* \"#utility.yul\":670:682   */\n  revert\n    /* \"#utility.yul\":621:684   */\ntag_101:\n    /* \"#utility.yul\":568:690   */\n  pop\n  jump\t// out\n    /* \"#utility.yul\":696:839   */\ntag_66:\n    /* \"#utility.yul\":753:758   */\n  0x00\n    /* \"#utility.yul\":784:790   */\n  dup2\n    /* \"#utility.yul\":778:791   */\n  mload\n    /* \"#utility.yul\":769:791   */\n  swap1\n  pop\n    /* \"#utility.yul\":800:833   */\n  tag_103\n    /* \"#utility.yul\":827:832   */\n  dup2\n    /* \"#utility.yul\":800:833   */\n  tag_65\n  jump\t// in\ntag_103:\n    /* \"#utility.yul\":696:839   */\n  swap3\n  swap2\n  pop\n  pop\n  jump\t// out\n    /* \"#utility.yul\":845:922   */\ntag_67:\n    /* \"#utility.yul\":882:889   */\n  0x00\n    /* \"#utility.yul\":911:916   */\n  dup2\n    /* \"#utility.yul\":900:916   */\n  swap1\n  pop\n    /* \"#utility.yul\":845:922   */\n  swap2\n  swap1\n  pop\n  jump\t// out\n    /* \"#utility.yul\":928:1050   */\ntag_68:\n    /* \"#utility.yul\":1001:1025   */\n  tag_106\n    /* \"#utility.yul\":1019:1024   */\n  dup2\n    /* \"#utility.yul\":1001:1025   */\n  tag_67\n  jump\t// in\ntag_106:\n    /* \"#utility.yul\":994:999   */\n  dup2\n    /* \"#utility.yul\":991:1026   */\n  eq\n    /* \"#utility.yul\":981:1044   */\n  tag_107\n  jumpi\n    /* \"#utility.yul\":1040:1041   */\n  0x00\n    /* \"#utility.yul\":1037:1038   */\n  dup1\n    /* \"#utility.yul\":1030:1042   */\n  revert\n    /* \"#utility.yul\":981:1044   */\ntag_107:\n    /* \"#utility.yul\":928:1050   */\n  pop\n  jump\t// out\n    /* \"#utility.yul\":1056:1199   */\ntag_69:\n    /* \"#utility.yul\":1113:1118   */\n  0x00\n    /* \"#utility.yul\":1144:1150   */\n  dup2\n    /* \"#utility.yul\":1138:1151   */\n  mload\n    /* \"#utility.yul\":1129:1151   */\n  swap1\n  pop\n    /* \"#utility.yul\":1160:1193   */\n  tag_109\n    /* \"#utility.yul\":1187:1192   */\n  dup2\n    /* \"#utility.yul\":1160:1193   */\n  tag_68\n  jump\t// in\ntag_109:\n    /* \"#utility.yul\":1056:1199   */\n  swap3\n  swap2\n  pop\n  pop\n  jump\t// out\n    /* \"#utility.yul\":1205:1712   */\ntag_3:\n    /* \"#utility.yul\":1284:1290   */\n  0x00\n    /* \"#utility.yul\":1292:1298   */\n  dup1\n    /* \"#utility.yul\":1341:1343   */\n  0x40\n    /* \"#utility.yul\":1329:1338   */\n  dup4\n    /* \"#utility.yul\":1320:1327   */\n  dup6\n    /* \"#utility.yul\":1316:1339   */\n  sub\n    /* \"#utility.yul\":1312:1344   */\n  slt\n    /* \"#utility.yul\":1309:1428   */\n  iszero\n  tag_111\n  jumpi\n    /* \"#utility.yul\":1347:1426   */\n  tag_112\n  tag_61\n  jump\t// in\ntag_112:\n    /* \"#utility.yul\":1309:1428   */\ntag_111:\n    /* \"#utility.yul\":1467:1468   */\n  0x00\n    /* \"#utility.yul\":1492:1556   */\n  tag_113\n    /* \"#utility.yul\":1548:1555   */\n  dup6\n    /* \"#utility.yul\":1539:1545   */\n  dup3\n    /* \"#utility.yul\":1528:1537   */\n  dup7\n    /* \"#utility.yul\":1524:1546   */\n  add\n    /* \"#utility.yul\":1492:1556   */\n  tag_66\n  jump\t// in\ntag_113:\n    /* \"#utility.yul\":1482:1556   */\n  swap3\n  pop\n    /* \"#utility.yul\":1438:1566   */\n  pop\n    /* \"#utility.yul\":1605:1607   */\n  0x20\n    /* \"#utility.yul\":1631:1695   */\n  tag_114\n    /* \"#utility.yul\":1687:1694   */\n  dup6\n    /* \"#utility.yul\":1678:1684   */\n  dup3\n    /* \"#utility.yul\":1667:1676   */\n  dup7\n    /* \"#utility.yul\":1663:1685   */\n  add\n    /* \"#utility.yul\":1631:1695   */\n  tag_69\n  jump\t// in\ntag_114:\n    /* \"#utility.yul\":1621:1695   */\n  swap2\n  pop\n    /* \"#utility.yul\":1576:1705   */\n  pop\n    /* \"#utility.yul\":1205:1712   */\n  swap3\n  pop\n  swap3\n  swap1\n  pop\n  jump\t// out\n    /* \"#utility.yul\":1718:1817   */\ntag_70:\n    /* \"#utility.yul\":1770:1776   */\n  0x00\n    /* \"#utility.yul\":1804:1809   */\n  dup2\n    /* \"#utility.yul\":1798:1810   */\n  mload\n    /* \"#utility.yul\":1788:1810   */\n  swap1\n  pop\n    /* \"#utility.yul\":1718:1817   */\n  swap2\n  swap1\n  pop\n  jump\t// out\n    /* \"#utility.yul\":1823:2003   */\ntag_71:\n    /* \"#utility.yul\":1871:1948   */\n  0x4e487b7100000000000000000000000000000000000000000000000000000000\n    /* \"#utility.yul\":1868:1869   */\n  0x00\n    /* \"#utility.yul\":1861:1949   */\n  mstore\n    /* \"#utility.yul\":1968:1972   */\n  0x41\n    /* \"#utility.yul\":1965:1966   */\n  0x04\n    /* \"#utility.yul\":1958:1973   */\n  mstore\n    /* \"#utility.yul\":1992:1996   */\n  0x24\n    /* \"#utility.yul\":1989:1990   */\n  0x00\n    /* \"#utility.yul\":1982:1997   */\n  revert\n    /* \"#utility.yul\":2009:2189   */\ntag_72:\n    /* \"#utility.yul\":2057:2134   */\n  0x4e487b7100000000000000000000000000000000000000000000000000000000\n    /* \"#utility.yul\":2054:2055   */\n  0x00\n    /* \"#utility.yul\":2047:2135   */\n  mstore\n    /* \"#utility.yul\":2154:2158   */\n  0x22\n    /* \"#utility.yul\":2151:2152   */\n  0x04\n    /* \"#utility.yul\":2144:2159   */\n  mstore\n    /* \"#utility.yul\":2178:2182   */\n  0x24\n    /* \"#utility.yul\":2175:2176   */\n  0x00\n    /* \"#utility.yul\":2168:2183   */\n  revert\n    /* \"#utility.yul\":2195:2515   */\ntag_73:\n    /* \"#utility.yul\":2239:2245   */\n  0x00\n    /* \"#utility.yul\":2276:2277   */\n  0x02\n    /* \"#utility.yul\":2270:2274   */\n  dup3\n    /* \"#utility.yul\":2266:2278   */\n  div\n    /* \"#utility.yul\":2256:2278   */\n  swap1\n  pop\n    /* \"#utility.yul\":2323:2324   */\n  0x01\n    /* \"#utility.yul\":2317:2321   */\n  dup3\n    /* \"#utility.yul\":2313:2325   */\n  and\n    /* \"#utility.yul\":2344:2362   */\n  dup1\n    /* \"#utility.yul\":2334:2415   */\n  tag_119\n  jumpi\n    /* \"#utility.yul\":2400:2404   */\n  0x7f\n    /* \"#utility.yul\":2392:2398   */\n  dup3\n    /* \"#utility.yul\":2388:2405   */\n  and\n    /* \"#utility.yul\":2378:2405   */\n  swap2\n  pop\n    /* \"#utility.yul\":2334:2415   */\ntag_119:\n    /* \"#utility.yul\":2462:2464   */\n  0x20\n    /* \"#utility.yul\":2454:2460   */\n  dup3\n    /* \"#utility.yul\":2451:2465   */\n  lt\n    /* \"#utility.yul\":2431:2449   */\n  dup2\n    /* \"#utility.yul\":2428:2466   */\n  sub\n    /* \"#utility.yul\":2425:2509   */\n  tag_120\n  jumpi\n    /* \"#utility.yul\":2481:2499   */\n  tag_121\n  tag_72\n  jump\t// in\ntag_121:\n    /* \"#utility.yul\":2425:2509   */\ntag_120:\n    /* \"#utility.yul\":2246:2515   */\n  pop\n    /* \"#utility.yul\":2195:2515   */\n  swap2\n  swap1\n  pop\n  jump\t// out\n    /* \"#utility.yul\":2521:2662   */\ntag_74:\n    /* \"#utility.yul\":2570:2574   */\n  0x00\n    /* \"#utility.yul\":2593:2596   */\n  dup2\n    /* \"#utility.yul\":2585:2596   */\n  swap1\n  pop\n    /* \"#utility.yul\":2616:2619   */\n  dup2\n    /* \"#utility.yul\":2613:2614   */\n  0x00\n    /* \"#utility.yul\":2606:2620   */\n  mstore\n    /* \"#utility.yul\":2650:2654   */\n  0x20\n    /* \"#utility.yul\":2647:2648   */\n  0x00\n    /* \"#utility.yul\":2637:2655   */\n  keccak256\n    /* \"#utility.yul\":2629:2655   */\n  swap1\n  pop\n    /* \"#utility.yul\":2521:2662   */\n  swap2\n  swap1\n  pop\n  jump\t// out\n    /* \"#utility.yul\":2668:2761   */\ntag_75:\n    /* \"#utility.yul\":2705:2711   */\n  0x00\n    /* \"#utility.yul\":2752:2754   */\n  0x20\n    /* \"#utility.yul\":2747:2749   */\n  0x1f\n    /* \"#utility.yul\":2740:2745   */\n  dup4\n    /* \"#utility.yul\":2736:2750   */\n  add\n    /* \"#utility.yul\":2732:2755   */\n  div\n    /* \"#utility.yul\":2722:2755   */\n  swap1\n  pop\n    /* \"#utility.yul\":2668:2761   */\n  swap2\n  swap1\n  pop\n  jump\t// out\n    /* \"#utility.yul\":2767:2874   */\ntag_76:\n    /* \"#utility.yul\":2811:2819   */\n  0x00\n    /* \"#utility.yul\":2861:2866   */\n  dup3\n    /* \"#utility.yul\":2855:2859   */\n  dup3\n    /* \"#utility.yul\":2851:2867   */\n  shl\n    /* \"#utility.yul\":2830:2867   */\n  swap1\n  pop\n    /* \"#utility.yul\":2767:2874   */\n  swap3\n  swap2\n  pop\n  pop\n  jump\t// out\n    /* \"#utility.yul\":2880:3273   */\ntag_77:\n    /* \"#utility.yul\":2949:2955   */\n  0x00\n    /* \"#utility.yul\":2999:3000   */\n  0x08\n    /* \"#utility.yul\":2987:2997   */\n  dup4\n    /* \"#utility.yul\":2983:3001   */\n  mul\n    /* \"#utility.yul\":3022:3119   */\n  tag_126\n    /* \"#utility.yul\":3052:3118   */\n  0xffffffffffffffffffffffffffffffffffffffffffffffffffffffffffffffff\n    /* \"#utility.yul\":3041:3050   */\n  dup3\n    /* \"#utility.yul\":3022:3119   */\n  tag_76\n  jump\t// in\ntag_126:\n    /* \"#utility.yul\":3140:3179   */\n  tag_127\n    /* \"#utility.yul\":3170:3178   */\n  dup7\n    /* \"#utility.yul\":3159:3168   */\n  dup4\n    /* \"#utility.yul\":3140:3179   */\n  tag_76\n  jump\t// in\ntag_127:\n    /* \"#utility.yul\":3128:3179   */\n  swap6\n  pop\n    /* \"#utility.yul\":3212:3216   */\n  dup1\n    /* \"#utility.yul\":3208:3217   */\n  not\n    /* \"#utility.yul\":3201:3206   */\n  dup5\n    /* \"#utility.yul\":3197:3218   */\n  and\n    /* \"#utility.yul\":3188:3218   */\n  swap4\n  pop\n    /* \"#utility.yul\":3261:3265   */\n  dup1\n    /* \"#utility.yul\":3251:3259   */\n  dup7\n    /* \"#utility.yul\":3247:3266   */\n  and\n    /* \"#utility.yul\":3240:3245   */\n  dup5\n    /* \"#utility.yul\":3237:3267   */\n  or\n    /* \"#utility.yul\":3227:3267   */\n  swap3\n  pop\n    /* \"#utility.yul\":2956:3273   */\n  pop\n  pop\n    /* \"#utility.yul\":2880:3273   */\n  swap4\n  swap3\n  pop\n  pop\n  pop\n  jump\t// out\n    /* \"#utility.yul\":3279:3339   */\ntag_78:\n    /* \"#utility.yul\":3307:3310   */\n  0x00\n    /* \"#utility.yul\":3328:3333   */\n  dup2\n    /* \"#utility.yul\":3321:3333   */\n  swap1\n  pop\n    /* \"#utility.yul\":3279:3339   */\n  swap2\n  swap1\n  pop\n  jump\t// out\n    /* \"#utility.yul\":3345:3487   */\ntag_79:\n    /* \"#utility.yul\":3395:3404   */\n  0x00\n    /* \"#utility.yul\":3428:3481   */\n  tag_130\n    /* \"#utility.yul\":3446:3480   */\n  tag_131\n    /* \"#utility.yul\":3455:3479   */\n  tag_132\n    /* \"#utility.yul\":3473:3478   */\n  dup5\n    /* \"#utility.yul\":3455:3479   */\n  tag_67\n  jump\t// in\ntag_132:\n    /* \"#utility.yul\":3446:3480   */\n  tag_78\n  jump\t// in\ntag_131:\n    /* \"#utility.yul\":3428:3481   */\n  tag_67\n  jump\t// in\ntag_130:\n    /* \"#utility.yul\":3415:3481   */\n  swap1\n  pop\n    /* \"#utility.yul\":3345:3487   */\n  swap2\n  swap1\n  pop\n  jump\t// out\n    /* \"#utility.yul\":3493:3568   */\ntag_80:\n    /* \"#utility.yul\":3536:3539   */\n  0x00\n    /* \"#utility.yul\":3557:3562   */\n  dup2\n    /* \"#utility.yul\":3550:3562   */\n  swap1\n  pop\n    /* \"#utility.yul\":3493:3568   */\n  swap2\n  swap1\n  pop\n  jump\t// out\n    /* \"#utility.yul\":3574:3843   */\ntag_81:\n    /* \"#utility.yul\":3684:3723   */\n  tag_135\n    /* \"#utility.yul\":3715:3722   */\n  dup4\n    /* \"#utility.yul\":3684:3723   */\n  tag_79\n  jump\t// in\ntag_135:\n    /* \"#utility.yul\":3745:3836   */\n  tag_136\n    /* \"#utility.yul\":3794:3835   */\n  tag_137\n    /* \"#utility.yul\":3818:3834   */\n  dup3\n    /* \"#utility.yul\":3794:3835   */\n  tag_80\n  jump\t// in\ntag_137:\n    /* \"#utility.yul\":3786:3792   */\n  dup5\n    /* \"#utility.yul\":3779:3783   */\n  dup5\n    /* \"#utility.yul\":3773:3784   */\n  sload\n    /* \"#utility.yul\":3745:3836   */\n  tag_77\n  jump\t// in\ntag_136:\n    /* \"#utility.yul\":3739:3743   */\n  dup3\n    /* \"#utility.yul\":3732:3837   */\n  sstore\n    /* \"#utility.yul\":3650:3843   */\n  pop\n    /* \"#utility.yul\":3574:3843   */\n  pop\n  pop\n  pop\n  jump\t// out\n    /* \"#utility.yul\":3849:3922   */\ntag_82:\n    /* \"#utility.yul\":3894:3897   */\n  0x00\n    /* \"#utility.yul\":3849:3922   */\n  swap1\n  jump\t// out\n    /* \"#utility.yul\":3928:4117   */\ntag_83:\n    /* \"#utility.yul\":4005:4037   */\n  tag_140\n  tag_82\n  jump\t// in\ntag_140:\n    /* \"#utility.yul\":4046:4111   */\n  tag_141\n    /* \"#utility.yul\":4104:4110   */\n  dup2\n    /* \"#utility.yul\":4096:4102   */\n  dup5\n    /* \"#utility.yul\":4090:4094   */\n  dup5\n    /* \"#utility.yul\":4046:4111   */\n  tag_81\n  jump\t// in\ntag_141:\n    /* \"#utility.yul\":3981:4117   */\n  pop\n    /* \"#utility.yul\":3928:4117   */\n  pop\n  pop\n  jump\t// out\n    /* \"#utility.yul\":4123:4309   */\ntag_84:\n    /* \"#utility.yul\":4183:4303   */\ntag_143:\n    /* \"#utility.yul\":4200:4203   */\n  dup2\n    /* \"#utility.yul\":4193:4198   */\n  dup2\n    /* \"#utility.yul\":4190:4204   */\n  lt\n    /* \"#utility.yul\":4183:4303   */\n  iszero\n  tag_145\n  jumpi\n    /* \"#utility.yul\":4254:4293   */\n  tag_146\n    /* \"#utility.yul\":4291:4292   */\n  0x00\n    /* \"#utility.yul\":4284:4289   */\n  dup3\n    /* \"#utility.yul\":4254:4293   */\n  tag_83\n  jump\t// in\ntag_146:\n    /* \"#utility.yul\":4227:4228   */\n  0x01\n    /* \"#utility.yul\":4220:4225   */\n  dup2\n    /* \"#utility.yul\":4216:4229   */\n  add\n    /* \"#utility.yul\":4207:4229   */\n  swap1\n  pop\n    /* \"#utility.yul\":4183:4303   */\n  jump(tag_143)\ntag_145:\n    /* \"#utility.yul\":4123:4309   */\n  pop\n  pop\n  jump\t// out\n    /* \"#utility.yul\":4315:4858   */\ntag_85:\n    /* \"#utility.yul\":4416:4418   */\n  0x1f\n    /* \"#utility.yul\":4411:4414   */\n  dup3\n    /* \"#utility.yul\":4408:4419   */\n  gt\n    /* \"#utility.yul\":4405:4851   */\n  iszero\n  tag_148\n  jumpi\n    /* \"#utility.yul\":4450:4488   */\n  tag_149\n    /* \"#utility.yul\":4482:4487   */\n  dup2\n    /* \"#utility.yul\":4450:4488   */\n  tag_74\n  jump\t// in\ntag_149:\n    /* \"#utility.yul\":4534:4563   */\n  tag_150\n    /* \"#utility.yul\":4552:4562   */\n  dup5\n    /* \"#utility.yul\":4534:4563   */\n  tag_75\n  jump\t// in\ntag_150:\n    /* \"#utility.yul\":4524:4532   */\n  dup2\n    /* \"#utility.yul\":4520:4564   */\n  add\n    /* \"#utility.yul\":4717:4719   */\n  0x20\n    /* \"#utility.yul\":4705:4715   */\n  dup6\n    /* \"#utility.yul\":4702:4720   */\n  lt\n    /* \"#utility.yul\":4699:4748   */\n  iszero\n  tag_151\n  jumpi\n    /* \"#utility.yul\":4738:4746   */\n  dup2\n    /* \"#utility.yul\":4723:4746   */\n  swap1\n  pop\n    /* \"#utility.yul\":4699:4748   */\ntag_151:\n    /* \"#utility.yul\":4761:4841   */\n  tag_152\n    /* \"#utility.yul\":4817:4839   */\n  tag_153\n    /* \"#utility.yul\":4835:4838   */\n  dup6\n    /* \"#utility.yul\":4817:4839   */\n  tag_75\n  jump\t// in\ntag_153:\n    /* \"#utility.yul\":4807:4815   */\n  dup4\n    /* \"#utility.yul\":4803:4840   */\n  add\n    /* \"#utility.yul\":4790:4801   */\n  dup3\n    /* \"#utility.yul\":4761:4841   */\n  tag_84\n  jump\t// in\ntag_152:\n    /* \"#utility.yul\":4420:4851   */\n  pop\n  pop\n    /* \"#utility.yul\":4405:4851   */\ntag_148:\n    /* \"#utility.yul\":4315:4858   */\n  pop\n  pop\n  pop\n  jump\t// out\n    /* \"#utility.yul\":4864:4981   */\ntag_86:\n    /* \"#utility.yul\":4918:4926   */\n  0x00\n    /* \"#utility.yul\":4968:4973   */\n  dup3\n    /* \"#utility.yul\":4962:4966   */\n  dup3\n    /* \"#utility.yul\":4958:4974   */\n  shr\n    /* \"#utility.yul\":4937:4974   */\n  swap1\n  pop\n    /* \"#utility.yul\":4864:4981   */\n  swap3\n  swap2\n  pop\n  pop\n  jump\t// out\n    /* \"#utility.yul\":4987:5156   */\ntag_87:\n    /* \"#utility.yul\":5031:5037   */\n  0x00\n    /* \"#utility.yul\":5064:5115   */\n  tag_156\n    /* \"#utility.yul\":5112:5113   */\n  0x00\n    /* \"#utility.yul\":5108:5114   */\n  not\n    /* \"#utility.yul\":5100:5105   */\n  dup5\n    /* \"#utility.yul\":5097:5098   */\n  0x08\n    /* \"#utility.yul\":5093:5106   */\n  mul\n    /* \"#utility.yul\":5064:5115   */\n  tag_86\n  jump\t// in\ntag_156:\n    /* \"#utility.yul\":5060:5116   */\n  not\n    /* \"#utility.yul\":5145:5149   */\n  dup1\n    /* \"#utility.yul\":5139:5143   */\n  dup4\n    /* \"#utility.yul\":5135:5150   */\n  and\n    /* \"#utility.yul\":5125:5150   */\n  swap2\n  pop\n    /* \"#utility.yul\":5038:5156   */\n  pop\n    /* \"#utility.yul\":4987:5156   */\n  swap3\n  swap2\n  pop\n  pop\n  jump\t// out\n    /* \"#utility.yul\":5161:5456   */\ntag_88:\n    /* \"#utility.yul\":5237:5241   */\n  0x00\n    /* \"#utility.yul\":5383:5412   */\n  tag_158\n    /* \"#utility.yul\":5408:5411   */\n  dup4\n    /* \"#utility.yul\":5402:5406   */\n  dup4\n    /* \"#utility.yul\":5383:5412   */\n  tag_87\n  jump\t// in\ntag_158:\n    /* \"#utility.yul\":5375:5412   */\n  swap2\n  pop\n    /* \"#utility.yul\":5445:5448   */\n  dup3\n    /* \"#utility.yul\":5442:5443   */\n  0x02\n    /* \"#utility.yul\":5438:5449   */\n  mul\n    /* \"#utility.yul\":5432:5436   */\n  dup3\n    /* \"#utility.yul\":5429:5450   */\n  or\n    /* \"#utility.yul\":5421:5450   */\n  swap1\n  pop\n    /* \"#utility.yul\":5161:5456   */\n  swap3\n  swap2\n  pop\n  pop\n  jump\t// out\n    /* \"#utility.yul\":5461:6856   */\ntag_9:\n    /* \"#utility.yul\":5578:5615   */\n  tag_160\n    /* \"#utility.yul\":5611:5614   */\n  dup3\n    /* \"#utility.yul\":5578:5615   */\n  tag_70\n  jump\t// in\ntag_160:\n    /* \"#utility.yul\":5680:5698   */\n  0xffffffffffffffff\n    /* \"#utility.yul\":5672:5678   */\n  dup2\n    /* \"#utility.yul\":5669:5699   */\n  gt\n    /* \"#utility.yul\":5666:5722   */\n  iszero\n  tag_161\n  jumpi\n    /* \"#utility.yul\":5702:5720   */\n  tag_162\n  tag_71\n  jump\t// in\ntag_162:\n    /* \"#utility.yul\":5666:5722   */\ntag_161:\n    /* \"#utility.yul\":5746:5784   */\n  tag_163\n    /* \"#utility.yul\":5778:5782   */\n  dup3\n    /* \"#utility.yul\":5772:5783   */\n  sload\n    /* \"#utility.yul\":5746:5784   */\n  tag_73\n  jump\t// in\ntag_163:\n    /* \"#utility.yul\":5831:5898   */\n  tag_164\n    /* \"#utility.yul\":5891:5897   */\n  dup3\n    /* \"#utility.yul\":5883:5889   */\n  dup3\n    /* \"#utility.yul\":5877:5881   */\n  dup6\n    /* \"#utility.yul\":5831:5898   */\n  tag_85\n  jump\t// in\ntag_164:\n    /* \"#utility.yul\":5925:5926   */\n  0x00\n    /* \"#utility.yul\":5949:5953   */\n  0x20\n    /* \"#utility.yul\":5936:5953   */\n  swap1\n  pop\n    /* \"#utility.yul\":5981:5983   */\n  0x1f\n    /* \"#utility.yul\":5973:5979   */\n  dup4\n    /* \"#utility.yul\":5970:5984   */\n  gt\n    /* \"#utility.yul\":5998:5999   */\n  0x01\n    /* \"#utility.yul\":5993:6611   */\n  dup2\n  eq\n  tag_166\n  jumpi\n    /* \"#utility.yul\":6655:6656   */\n  0x00\n    /* \"#utility.yul\":6672:6678   */\n  dup5\n    /* \"#utility.yul\":6669:6746   */\n  iszero\n  tag_167\n  jumpi\n    /* \"#utility.yul\":6721:6730   */\n  dup3\n    /* \"#utility.yul\":6716:6719   */\n  dup8\n    /* \"#utility.yul\":6712:6731   */\n  add\n    /* \"#utility.yul\":6706:6732   */\n  mload\n    /* \"#utility.yul\":6697:6732   */\n  swap1\n  pop\n    /* \"#utility.yul\":6669:6746   */\ntag_167:\n    /* \"#utility.yul\":6772:6839   */\n  tag_168\n    /* \"#utility.yul\":6832:6838   */\n  dup6\n    /* \"#utility.yul\":6825:6830   */\n  dup3\n    /* \"#utility.yul\":6772:6839   */\n  tag_88\n  jump\t// in\ntag_168:\n    /* \"#utility.yul\":6766:6770   */\n  dup7\n    /* \"#utility.yul\":6759:6840   */\n  sstore\n    /* \"#utility.yul\":6628:6850   */\n  pop\n    /* \"#utility.yul\":5963:6850   */\n  jump(tag_165)\n    /* \"#utility.yul\":5993:6611   */\ntag_166:\n    /* \"#utility.yul\":6045:6049   */\n  0x1f\n    /* \"#utility.yul\":6041:6050   */\n  not\n    /* \"#utility.yul\":6033:6039   */\n  dup5\n    /* \"#utility.yul\":6029:6051   */\n  and\n    /* \"#utility.yul\":6079:6116   */\n  tag_169\n    /* \"#utility.yul\":6111:6115   */\n  dup7\n    /* \"#utility.yul\":6079:6116   */\n  tag_74\n  jump\t// in\ntag_169:\n    /* \"#utility.yul\":6138:6139   */\n  0x00\n    /* \"#utility.yul\":6152:6360   */\ntag_170:\n    /* \"#utility.yul\":6166:6173   */\n  dup3\n    /* \"#utility.yul\":6163:6164   */\n  dup2\n    /* \"#utility.yul\":6160:6174   */\n  lt\n    /* \"#utility.yul\":6152:6360   */\n  iszero\n  tag_172\n  jumpi\n    /* \"#utility.yul\":6245:6254   */\n  dup5\n    /* \"#utility.yul\":6240:6243   */\n  dup10\n    /* \"#utility.yul\":6236:6255   */\n  add\n    /* \"#utility.yul\":6230:6256   */\n  mload\n    /* \"#utility.yul\":6222:6228   */\n  dup3\n    /* \"#utility.yul\":6215:6257   */\n  sstore\n    /* \"#utility.yul\":6296:6297   */\n  0x01\n    /* \"#utility.yul\":6288:6294   */\n  dup3\n    /* \"#utility.yul\":6284:6298   */\n  add\n    /* \"#utility.yul\":6274:6298   */\n  swap2\n  pop\n    /* \"#utility.yul\":6343:6345   */\n  0x20\n    /* \"#utility.yul\":6332:6341   */\n  dup6\n    /* \"#utility.yul\":6328:6346   */\n  add\n    /* \"#utility.yul\":6315:6346   */\n  swap5\n  pop\n    /* \"#utility.yul\":6189:6193   */\n  0x20\n    /* \"#utility.yul\":6186:6187   */\n  dup2\n    /* \"#utility.yul\":6182:6194   */\n  add\n    /* \"#utility.yul\":6177:6194   */\n  swap1\n  pop\n    /* \"#utility.yul\":6152:6360   */\n  jump(tag_170)\ntag_172:\n    /* \"#utility.yul\":6388:6394   */\n  dup7\n    /* \"#utility.yul\":6379:6386   */\n  dup4\n    /* \"#utility.yul\":6376:6395   */\n  lt\n    /* \"#utility.yul\":6373:6552   */\n  iszero\n  tag_173\n  jumpi\n    /* \"#utility.yul\":6446:6455   */\n  dup5\n    /* \"#utility.yul\":6441:6444   */\n  dup10\n    /* \"#utility.yul\":6437:6456   */\n  add\n    /* \"#utility.yul\":6431:6457   */\n  mload\n    /* \"#utility.yul\":6489:6537   */\n  tag_174\n    /* \"#utility.yul\":6531:6535   */\n  0x1f\n    /* \"#utility.yul\":6523:6529   */\n  dup10\n    /* \"#utility.yul\":6519:6536   */\n  and\n    /* \"#utility.yul\":6508:6517   */\n  dup3\n    /* \"#utility.yul\":6489:6537   */\n  tag_87\n  jump\t// in\ntag_174:\n    /* \"#utility.yul\":6481:6487   */\n  dup4\n    /* \"#utility.yul\":6474:6538   */\n  sstore\n    /* \"#utility.yul\":6396:6552   */\n  pop\n    /* \"#utility.yul\":6373:6552   */\ntag_173:\n    /* \"#utility.yul\":6598:6599   */\n  0x01\n    /* \"#utility.yul\":6594:6595   */\n  0x02\n    /* \"#utility.yul\":6586:6592   */\n  dup9\n    /* \"#utility.yul\":6582:6596   */\n  mul\n    /* \"#utility.yul\":6578:6600   */\n  add\n    /* \"#utility.yul\":6572:6576   */\n  dup9\n    /* \"#utility.yul\":6565:6601   */\n  sstore\n    /* \"#utility.yul\":6000:6611   */\n  pop\n  pop\n  pop\n    /* \"#utility.yul\":5963:6850   */\ntag_165:\n  pop\n    /* \"#utility.yul\":5553:6856   */\n  pop\n  pop\n  pop\n    /* \"#utility.yul\":5461:6856   */\n  pop\n  pop\n  jump\t// out\n    /* \"#utility.yul\":6862:6980   */\ntag_89:\n    /* \"#utility.yul\":6949:6973   */\n  tag_176\n    /* \"#utility.yul\":6967:6972   */\n  dup2\n    /* \"#utility.yul\":6949:6973   */\n  tag_64\n  jump\t// in\ntag_176:\n    /* \"#utility.yul\":6944:6947   */\n  dup3\n    /* \"#utility.yul\":6937:6974   */\n  mstore\n    /* \"#utility.yul\":6862:6980   */\n  pop\n  pop\n  jump\t// out\n    /* \"#utility.yul\":6986:7208   */\ntag_14:\n    /* \"#utility.yul\":7079:7083   */\n  0x00\n    /* \"#utility.yul\":7117:7119   */\n  0x20\n    /* \"#utility.yul\":7106:7115   */\n  dup3\n    /* \"#utility.yul\":7102:7120   */\n  add\n    /* \"#utility.yul\":7094:7120   */\n  swap1\n  pop\n    /* \"#utility.yul\":7130:7201   */\n  tag_178\n    /* \"#utility.yul\":7198:7199   */\n  0x00\n    /* \"#utility.yul\":7187:7196   */\n  dup4\n    /* \"#utility.yul\":7183:7200   */\n  add\n    /* \"#utility.yul\":7174:7180   */\n  dup5\n    /* \"#utility.yul\":7130:7201   */\n  tag_89\n  jump\t// in\ntag_178:\n    /* \"#utility.yul\":6986:7208   */\n  swap3\n  swap2\n  pop\n  pop\n  jump\t// out\n    /* \"#utility.yul\":7214:7394   */\ntag_90:\n    /* \"#utility.yul\":7262:7339   */\n  0x4e487b7100000000000000000000000000000000000000000000000000000000\n    /* \"#utility.yul\":7259:7260   */\n  0x00\n    /* \"#utility.yul\":7252:7340   */\n  mstore\n    /* \"#utility.yul\":7359:7363   */\n  0x11\n    /* \"#utility.yul\":7356:7357   */\n  0x04\n    /* \"#utility.yul\":7349:7364   */\n  mstore\n    /* \"#utility.yul\":7383:7387   */\n  0x24\n    /* \"#utility.yul\":7380:7381   */\n  0x00\n    /* \"#utility.yul\":7373:7388   */\n  revert\n    /* \"#utility.yul\":7400:7591   */\ntag_51:\n    /* \"#utility.yul\":7440:7443   */\n  0x00\n    /* \"#utility.yul\":7459:7479   */\n  tag_181\n    /* \"#utility.yul\":7477:7478   */\n  dup3\n    /* \"#utility.yul\":7459:7479   */\n  tag_67\n  jump\t// in\ntag_181:\n    /* \"#utility.yul\":7454:7479   */\n  swap2\n  pop\n    /* \"#utility.yul\":7493:7513   */\n  tag_182\n    /* \"#utility.yul\":7511:7512   */\n  dup4\n    /* \"#utility.yul\":7493:7513   */\n  tag_67\n  jump\t// in\ntag_182:\n    /* \"#utility.yul\":7488:7513   */\n  swap3\n  pop\n    /* \"#utility.yul\":7536:7537   */\n  dup3\n    /* \"#utility.yul\":7533:7534   */\n  dup3\n    /* \"#utility.yul\":7529:7538   */\n  add\n    /* \"#utility.yul\":7522:7538   */\n  swap1\n  pop\n    /* \"#utility.yul\":7557:7560   */\n  dup1\n    /* \"#utility.yul\":7554:7555   */\n  dup3\n    /* \"#utility.yul\":7551:7561   */\n  gt\n    /* \"#utility.yul\":7548:7584   */\n  iszero\n  tag_183\n  jumpi\n    /* \"#utility.yul\":7564:7582   */\n  tag_184\n  tag_90\n  jump\t// in\ntag_184:\n    /* \"#utility.yul\":7548:7584   */\ntag_183:\n    /* \"#utility.yul\":7400:7591   */\n  swap3\n  swap2\n  pop\n  pop\n  jump\t// out\n    /* \"#utility.yul\":7597:7715   */\ntag_91:\n    /* \"#utility.yul\":7684:7708   */\n  tag_186\n    /* \"#utility.yul\":7702:7707   */\n  dup2\n    /* \"#utility.yul\":7684:7708   */\n  tag_67\n  jump\t// in\ntag_186:\n    /* \"#utility.yul\":7679:7682   */\n  dup3\n    /* \"#utility.yul\":7672:7709   */\n  mstore\n    /* \"#utility.yul\":7597:7715   */\n  pop\n  pop\n  jump\t// out\n    /* \"#utility.yul\":7721:8163   */\ntag_55:\n    /* \"#utility.yul\":7870:7874   */\n  0x00\n    /* \"#utility.yul\":7908:7910   */\n  0x60\n    /* \"#utility.yul\":7897:7906   */\n  dup3\n    /* \"#utility.yul\":7893:7911   */\n  add\n    /* \"#utility.yul\":7885:7911   */\n  swap1\n  pop\n    /* \"#utility.yul\":7921:7992   */\n  tag_188\n    /* \"#utility.yul\":7989:7990   */\n  0x00\n    /* \"#utility.yul\":7978:7987   */\n  dup4\n    /* \"#utility.yul\":7974:7991   */\n  add\n    /* \"#utility.yul\":7965:7971   */\n  dup7\n    /* \"#utility.yul\":7921:7992   */\n  tag_89\n  jump\t// in\ntag_188:\n    /* \"#utility.yul\":8002:8074   */\n  tag_189\n    /* \"#utility.yul\":8070:8072   */\n  0x20\n    /* \"#utility.yul\":8059:8068   */\n  dup4\n    /* \"#utility.yul\":8055:8073   */\n  add\n    /* \"#utility.yul\":8046:8052   */\n  dup6\n    /* \"#utility.yul\":8002:8074   */\n  tag_91\n  jump\t// in\ntag_189:\n    /* \"#utility.yul\":8084:8156   */\n  tag_190\n    /* \"#utility.yul\":8152:8154   */\n  0x40\n    /* \"#utility.yul\":8141:8150   */\n  dup4\n    /* \"#utility.yul\":8137:8155   */\n  add\n    /* \"#utility.yul\":8128:8134   */\n  dup5\n    /* \"#utility.yul\":8084:8156   */\n  tag_91\n  jump\t// in\ntag_190:\n    /* \"#utility.yul\":7721:8163   */\n  swap5\n  swap4\n  pop\n  pop\n  pop\n  pop\n  jump\t// out\n    /* \"#utility.yul\":8169:8391   */\ntag_59:\n    /* \"#utility.yul\":8262:8266   */\n  0x00\n    /* \"#utility.yul\":8300:8302   */\n  0x20\n    /* \"#utility.yul\":8289:8298   */\n  dup3\n    /* \"#utility.yul\":8285:8303   */\n  add\n    /* \"#utility.yul\":8277:8303   */\n  swap1\n  pop\n    /* \"#utility.yul\":8313:8384   */\n  tag_192\n    /* \"#utility.yul\":8381:8382   */\n  0x00\n    /* \"#utility.yul\":8370:8379   */\n  dup4\n    /* \"#utility.yul\":8366:8383   */\n  add\n    /* \"#utility.yul\":8357:8363   */\n  dup5\n    /* \"#utility.yul\":8313:8384   */\n  tag_91\n  jump\t// in\ntag_192:\n    /* \"#utility.yul\":8169:8391   */\n  swap3\n  swap2\n  pop\n  pop\n  jump\t// out\n    /* \"contracts/DegenToken.sol\":785:3600  contract DegenToken is ERC20, Ownable, ERC20Burnable {... */\ntag_25:\n  dataSize(sub_0)\n  dup1\n  dataOffset(sub_0)\n  0x00\n  codecopy\n  0x00\n  return\nstop\n\nsub_0: assembly {\n        /* \"contracts/DegenToken.sol\":785:3600  contract DegenToken is ERC20, Ownable, ERC20Burnable {... */\n      mstore(0x40, 0x80)\n      callvalue\n      dup1\n      iszero\n      tag_1\n      jumpi\n      0x00\n      dup1\n      revert\n    tag_1:\n      pop\n      jumpi(tag_2, lt(calldatasize, 0x04))\n      shr(0xe0, calldataload(0x00))\n      dup1\n      0x715018a6\n      gt\n      tag_27\n      jumpi\n      dup1\n      0xaf3bcb7d\n      gt\n      tag_28\n      jumpi\n      dup1\n      0xaf3bcb7d\n      eq\n      tag_21\n      jumpi\n      dup1\n      0xdd62ed3e\n      eq\n      tag_22\n      jumpi\n      dup1\n      0xea5e65e0\n      eq\n      tag_23\n      jumpi\n      dup1\n      0xf2fde38b\n      eq\n      tag_24\n      jumpi\n      dup1\n      0xf5112f87\n      eq\n      tag_25\n      jumpi\n      dup1\n      0xfbd1a97b\n      eq\n      tag_26\n      jumpi\n      jump(tag_2)\n    tag_28:\n      dup1\n      0x715018a6\n      eq\n      tag_15\n      jumpi\n      dup1\n      0x79cc6790\n      eq\n      tag_16\n      jumpi\n      dup1\n      0x7b47ec1a\n      eq\n      tag_17\n      jumpi\n      dup1\n      0x8da5cb5b\n      eq\n      tag_18\n      jumpi\n      dup1\n      0x95d89b41\n      eq\n      tag_19\n      jumpi\n      dup1\n      0xa9059cbb\n      eq\n      tag_20\n      jumpi\n      jump(tag_2)\n    tag_27:\n      dup1\n      0x23b872dd\n      gt\n      tag_29\n      jumpi\n      dup1\n      0x23b872dd\n      eq\n      tag_9\n      jumpi\n      dup1\n      0x313ce567\n      eq\n      tag_10\n      jumpi\n      dup1\n      0x40c10f19\n      eq\n      tag_11\n      jumpi\n      dup1\n      0x42966c68\n      eq\n      tag_12\n      jumpi\n      dup1\n      0x62d6bbdf\n      eq\n      tag_13\n      jumpi\n      dup1\n      0x70a08231\n      eq\n      tag_14\n      jumpi\n      jump(tag_2)\n    tag_29:\n      dup1\n      0x06fdde03\n      eq\n      tag_3\n      jumpi\n      dup1\n      0x095ea7b3\n      eq\n      tag_4\n      jumpi\n      dup1\n      0x1072cbea\n      eq\n      tag_5\n      jumpi\n      dup1\n      0x12065fe0\n      eq\n      tag_6\n      jumpi\n      dup1\n      0x17d70f7c\n      eq\n      tag_7\n      jumpi\n      dup1\n      0x18160ddd\n      eq\n      tag_8\n      jumpi\n    tag_2:\n      0x00\n      dup1\n      revert\n        /* \"@openzeppelin/contracts/token/ERC20/ERC20.sol\":2074:2163  function name() public view virtual returns (string memory) {... */\n    tag_3:\n      tag_30\n      tag_31\n      jump\t// in\n    tag_30:\n      mload(0x40)\n      tag_32\n      swap2\n      swap1\n      tag_33\n      jump\t// in\n    tag_32:\n      mload(0x40)\n      dup1\n      swap2\n      sub\n      swap1\n      return\n        /* \"@openzeppelin/contracts/token/ERC20/ERC20.sol\":4293:4479  function approve(address spender, uint256 value) public virtual returns (bool) {... */\n    tag_4:\n      tag_34\n      0x04\n      dup1\n      calldatasize\n      sub\n      dup2\n      add\n      swap1\n      tag_35\n      swap2\n      swap1\n      tag_36\n      jump\t// in\n    tag_35:\n      tag_37\n      jump\t// in\n    tag_34:\n      mload(0x40)\n      tag_38\n      swap2\n      swap1\n      tag_39\n      jump\t// in\n    tag_38:\n      mload(0x40)\n      dup1\n      swap2\n      sub\n      swap1\n      return\n        /* \"contracts/DegenToken.sol\":1893:2081  function transferToken(address _recipient, uint _amount) external {... */\n    tag_5:\n      tag_40\n      0x04\n      dup1\n      calldatasize\n      sub\n      dup2\n      add\n      swap1\n      tag_41\n      swap2\n      swap1\n      tag_36\n      jump\t// in\n    tag_41:\n      tag_42\n      jump\t// in\n    tag_40:\n      stop\n        /* \"contracts/DegenToken.sol\":3316:3415  function getBalance() external view returns(uint256){... */\n    tag_6:\n      tag_43\n      tag_44\n      jump\t// in\n    tag_43:\n      mload(0x40)\n      tag_45\n      swap2\n      swap1\n      tag_46\n      jump\t// in\n    tag_45:\n      mload(0x40)\n      dup1\n      swap2\n      sub\n      swap1\n      return\n        /* \"contracts/DegenToken.sol\":983:1003  uint8 public tokenId */\n    tag_7:\n      tag_47\n      tag_48\n      jump\t// in\n    tag_47:\n      mload(0x40)\n      tag_49\n      swap2\n      swap1\n      tag_50\n      jump\t// in\n    tag_49:\n      mload(0x40)\n      dup1\n      swap2\n      sub\n      swap1\n      return\n        /* \"@openzeppelin/contracts/token/ERC20/ERC20.sol\":3144:3241  function totalSupply() public view virtual returns (uint256) {... */\n    tag_8:\n      tag_51\n      tag_52\n      jump\t// in\n    tag_51:\n      mload(0x40)\n      tag_53\n      swap2\n      swap1\n      tag_46\n      jump\t// in\n    tag_53:\n      mload(0x40)\n      dup1\n      swap2\n      sub\n      swap1\n      return\n        /* \"@openzeppelin/contracts/token/ERC20/ERC20.sol\":5039:5283  function transferFrom(address from, address to, uint256 value) public virtual returns (bool) {... */\n    tag_9:\n      tag_54\n      0x04\n      dup1\n      calldatasize\n      sub\n      dup2\n      add\n      swap1\n      tag_55\n      swap2\n      swap1\n      tag_56\n      jump\t// in\n    tag_55:\n      tag_57\n      jump\t// in\n    tag_54:\n      mload(0x40)\n      tag_58\n      swap2\n      swap1\n      tag_39\n      jump\t// in\n    tag_58:\n      mload(0x40)\n      dup1\n      swap2\n      sub\n      swap1\n      return\n        /* \"contracts/DegenToken.sol\":1644:1727  function decimals() override public pure returns (uint8){... */\n    tag_10:\n      tag_59\n      tag_60\n      jump\t// in\n    tag_59:\n      mload(0x40)\n      tag_61\n      swap2\n      swap1\n      tag_50\n      jump\t// in\n    tag_61:\n      mload(0x40)\n      dup1\n      swap2\n      sub\n      swap1\n      return\n        /* \"contracts/DegenToken.sol\":1760:1855  function mint(address to, uint256 amount) public onlyOwner {... */\n    tag_11:\n      tag_62\n      0x04\n      dup1\n      calldatasize\n      sub\n      dup2\n      add\n      swap1\n      tag_63\n      swap2\n      swap1\n      tag_36\n      jump\t// in\n    tag_63:\n      tag_64\n      jump\t// in\n    tag_62:\n      stop\n        /* \"@openzeppelin/contracts/token/ERC20/extensions/ERC20Burnable.sol\":618:705  function burn(uint256 value) public virtual {... */\n    tag_12:\n      tag_65\n      0x04\n      dup1\n      calldatasize\n      sub\n      dup2\n      add\n      swap1\n      tag_66\n      swap2\n      swap1\n      tag_67\n      jump\t// in\n    tag_66:\n      tag_68\n      jump\t// in\n    tag_65:\n      stop\n        /* \"contracts/DegenToken.sol\":2286:2440  function addItem(string memory _name, uint256 _price) public onlyOwner {... */\n    tag_13:\n      tag_69\n      0x04\n      dup1\n      calldatasize\n      sub\n      dup2\n      add\n      swap1\n      tag_70\n      swap2\n      swap1\n      tag_71\n      jump\t// in\n    tag_70:\n      tag_72\n      jump\t// in\n    tag_69:\n      stop\n        /* \"@openzeppelin/contracts/token/ERC20/ERC20.sol\":3299:3415  function balanceOf(address account) public view virtual returns (uint256) {... */\n    tag_14:\n      tag_73\n      0x04\n      dup1\n      calldatasize\n      sub\n      dup2\n      add\n      swap1\n      tag_74\n      swap2\n      swap1\n      tag_75\n      jump\t// in\n    tag_74:\n      tag_76\n      jump\t// in\n    tag_73:\n      mload(0x40)\n      tag_77\n      swap2\n      swap1\n      tag_46\n      jump\t// in\n    tag_77:\n      mload(0x40)\n      dup1\n      swap2\n      sub\n      swap1\n      return\n        /* \"@openzeppelin/contracts/access/Ownable.sol\":2293:2394  function renounceOwnership() public virtual onlyOwner {... */\n    tag_15:\n      tag_78\n      tag_79\n      jump\t// in\n    tag_78:\n      stop\n        /* \"@openzeppelin/contracts/token/ERC20/extensions/ERC20Burnable.sol\":1021:1179  function burnFrom(address account, uint256 value) public virtual {... */\n    tag_16:\n      tag_80\n      0x04\n      dup1\n      calldatasize\n      sub\n      dup2\n      add\n      swap1\n      tag_81\n      swap2\n      swap1\n      tag_36\n      jump\t// in\n    tag_81:\n      tag_82\n      jump\t// in\n    tag_80:\n      stop\n        /* \"contracts/DegenToken.sol\":3448:3595  function burnToken(uint _amount) external {... */\n    tag_17:\n      tag_83\n      0x04\n      dup1\n      calldatasize\n      sub\n      dup2\n      add\n      swap1\n      tag_84\n      swap2\n      swap1\n      tag_67\n      jump\t// in\n    tag_84:\n      tag_85\n      jump\t// in\n    tag_83:\n      stop\n        /* \"@openzeppelin/contracts/access/Ownable.sol\":1638:1723  function owner() public view virtual returns (address) {... */\n    tag_18:\n      tag_86\n      tag_87\n      jump\t// in\n    tag_86:\n      mload(0x40)\n      tag_88\n      swap2\n      swap1\n      tag_89\n      jump\t// in\n    tag_88:\n      mload(0x40)\n      dup1\n      swap2\n      sub\n      swap1\n      return\n        /* \"@openzeppelin/contracts/token/ERC20/ERC20.sol\":2276:2369  function symbol() public view virtual returns (string memory) {... */\n    tag_19:\n      tag_90\n      tag_91\n      jump\t// in\n    tag_90:\n      mload(0x40)\n      tag_92\n      swap2\n      swap1\n      tag_33\n      jump\t// in\n    tag_92:\n      mload(0x40)\n      dup1\n      swap2\n      sub\n      swap1\n      return\n        /* \"@openzeppelin/contracts/token/ERC20/ERC20.sol\":3610:3788  function transfer(address to, uint256 value) public virtual returns (bool) {... */\n    tag_20:\n      tag_93\n      0x04\n      dup1\n      calldatasize\n      sub\n      dup2\n      add\n      swap1\n      tag_94\n      swap2\n      swap1\n      tag_36\n      jump\t// in\n    tag_94:\n      tag_95\n      jump\t// in\n    tag_93:\n      mload(0x40)\n      tag_96\n      swap2\n      swap1\n      tag_39\n      jump\t// in\n    tag_96:\n      mload(0x40)\n      dup1\n      swap2\n      sub\n      swap1\n      return\n        /* \"contracts/DegenToken.sol\":2935:3275  function purchaseItem(uint8 _itemId) external {... */\n    tag_21:\n      tag_97\n      0x04\n      dup1\n      calldatasize\n      sub\n      dup2\n      add\n      swap1\n      tag_98\n      swap2\n      swap1\n      tag_99\n      jump\t// in\n    tag_98:\n      tag_100\n      jump\t// in\n    tag_97:\n      stop\n        /* \"@openzeppelin/contracts/token/ERC20/ERC20.sol\":3846:3986  function allowance(address owner, address spender) public view virtual returns (uint256) {... */\n    tag_22:\n      tag_101\n      0x04\n      dup1\n      calldatasize\n      sub\n      dup2\n      add\n      swap1\n      tag_102\n      swap2\n      swap1\n      tag_103\n      jump\t// in\n    tag_102:\n      tag_104\n      jump\t// in\n    tag_101:\n      mload(0x40)\n      tag_105\n      swap2\n      swap1\n      tag_46\n      jump\t// in\n    tag_105:\n      mload(0x40)\n      dup1\n      swap2\n      sub\n      swap1\n      return\n        /* \"contracts/DegenToken.sol\":2449:2923  function isLessThanFive(bool _prediction, uint256 _betAmount) public {... */\n    tag_23:\n      tag_106\n      0x04\n      dup1\n      calldatasize\n      sub\n      dup2\n      add\n      swap1\n      tag_107\n      swap2\n      swap1\n      tag_108\n      jump\t// in\n    tag_107:\n      tag_109\n      jump\t// in\n    tag_106:\n      stop\n        /* \"@openzeppelin/contracts/access/Ownable.sol\":2543:2758  function transferOwnership(address newOwner) public virtual onlyOwner {... */\n    tag_24:\n      tag_110\n      0x04\n      dup1\n      calldatasize\n      sub\n      dup2\n      add\n      swap1\n      tag_111\n      swap2\n      swap1\n      tag_75\n      jump\t// in\n    tag_111:\n      tag_112\n      jump\t// in\n    tag_110:\n      stop\n        /* \"contracts/DegenToken.sol\":2116:2278  function welcomeBonus() public {... */\n    tag_25:\n      tag_113\n      tag_114\n      jump\t// in\n    tag_113:\n      stop\n        /* \"contracts/DegenToken.sol\":942:976  mapping (uint8=>Item) public items */\n    tag_26:\n      tag_115\n      0x04\n      dup1\n      calldatasize\n      sub\n      dup2\n      add\n      swap1\n      tag_116\n      swap2\n      swap1\n      tag_99\n      jump\t// in\n    tag_116:\n      tag_117\n      jump\t// in\n    tag_115:\n      mload(0x40)\n      tag_118\n      swap4\n      swap3\n      swap2\n      swap1\n      tag_119\n      jump\t// in\n    tag_118:\n      mload(0x40)\n      dup1\n      swap2\n      sub\n      swap1\n      return\n        /* \"@openzeppelin/contracts/token/ERC20/ERC20.sol\":2074:2163  function name() public view virtual returns (string memory) {... */\n    tag_31:\n        /* \"@openzeppelin/contracts/token/ERC20/ERC20.sol\":2119:2132  string memory */\n      0x60\n        /* \"@openzeppelin/contracts/token/ERC20/ERC20.sol\":2151:2156  _name */\n      0x03\n        /* \"@openzeppelin/contracts/token/ERC20/ERC20.sol\":2144:2156  return _name */\n      dup1\n      sload\n      tag_121\n      swap1\n      tag_122\n      jump\t// in\n    tag_121:\n      dup1\n      0x1f\n      add\n      0x20\n      dup1\n      swap2\n      div\n      mul\n      0x20\n      add\n      mload(0x40)\n      swap1\n      dup2\n      add\n      0x40\n      mstore\n      dup1\n      swap3\n      swap2\n      swap1\n      dup2\n      dup2\n      mstore\n      0x20\n      add\n      dup3\n      dup1\n      sload\n      tag_123\n      swap1\n      tag_122\n      jump\t// in\n    tag_123:\n      dup1\n      iszero\n      tag_124\n      jumpi\n      dup1\n      0x1f\n      lt\n      tag_125\n      jumpi\n      0x0100\n      dup1\n      dup4\n      sload\n      div\n      mul\n      dup4\n      mstore\n      swap2\n      0x20\n      add\n      swap2\n      jump(tag_124)\n    tag_125:\n      dup3\n      add\n      swap2\n      swap1\n      0x00\n      mstore\n      keccak256(0x00, 0x20)\n      swap1\n    tag_126:\n      dup2\n      sload\n      dup2\n      mstore\n      swap1\n      0x01\n      add\n      swap1\n      0x20\n      add\n      dup1\n      dup4\n      gt\n      tag_126\n      jumpi\n      dup3\n      swap1\n      sub\n      0x1f\n      and\n      dup3\n      add\n      swap2\n    tag_124:\n      pop\n      pop\n      pop\n      pop\n      pop\n      swap1\n      pop\n        /* \"@openzeppelin/contracts/token/ERC20/ERC20.sol\":2074:2163  function name() public view virtual returns (string memory) {... */\n      swap1\n      jump\t// out\n        /* \"@openzeppelin/contracts/token/ERC20/ERC20.sol\":4293:4479  function approve(address spender, uint256 value) public virtual returns (bool) {... */\n    tag_37:\n        /* \"@openzeppelin/contracts/token/ERC20/ERC20.sol\":4366:4370  bool */\n      0x00\n        /* \"@openzeppelin/contracts/token/ERC20/ERC20.sol\":4382:4395  address owner */\n      dup1\n        /* \"@openzeppelin/contracts/token/ERC20/ERC20.sol\":4398:4410  _msgSender() */\n      tag_128\n        /* \"@openzeppelin/contracts/token/ERC20/ERC20.sol\":4398:4408  _msgSender */\n      tag_129\n        /* \"@openzeppelin/contracts/token/ERC20/ERC20.sol\":4398:4410  _msgSender() */\n      jump\t// in\n    tag_128:\n        /* \"@openzeppelin/contracts/token/ERC20/ERC20.sol\":4382:4410  address owner = _msgSender() */\n      swap1\n      pop\n        /* \"@openzeppelin/contracts/token/ERC20/ERC20.sol\":4420:4451  _approve(owner, spender, value) */\n      tag_130\n        /* \"@openzeppelin/contracts/token/ERC20/ERC20.sol\":4429:4434  owner */\n      dup2\n        /* \"@openzeppelin/contracts/token/ERC20/ERC20.sol\":4436:4443  spender */\n      dup6\n        /* \"@openzeppelin/contracts/token/ERC20/ERC20.sol\":4445:4450  value */\n      dup6\n        /* \"@openzeppelin/contracts/token/ERC20/ERC20.sol\":4420:4428  _approve */\n      tag_131\n        /* \"@openzeppelin/contracts/token/ERC20/ERC20.sol\":4420:4451  _approve(owner, spender, value) */\n      jump\t// in\n    tag_130:\n        /* \"@openzeppelin/contracts/token/ERC20/ERC20.sol\":4468:4472  true */\n      0x01\n        /* \"@openzeppelin/contracts/token/ERC20/ERC20.sol\":4461:4472  return true */\n      swap2\n      pop\n      pop\n        /* \"@openzeppelin/contracts/token/ERC20/ERC20.sol\":4293:4479  function approve(address spender, uint256 value) public virtual returns (bool) {... */\n      swap3\n      swap2\n      pop\n      pop\n      jump\t// out\n        /* \"contracts/DegenToken.sol\":1893:2081  function transferToken(address _recipient, uint _amount) external {... */\n    tag_42:\n        /* \"contracts/DegenToken.sol\":2001:2008  _amount */\n      dup1\n        /* \"contracts/DegenToken.sol\":1978:1999  balanceOf(msg.sender) */\n      tag_133\n        /* \"contracts/DegenToken.sol\":1988:1998  msg.sender */\n      caller\n        /* \"contracts/DegenToken.sol\":1978:1987  balanceOf */\n      tag_76\n        /* \"contracts/DegenToken.sol\":1978:1999  balanceOf(msg.sender) */\n      jump\t// in\n    tag_133:\n        /* \"contracts/DegenToken.sol\":1978:2008  balanceOf(msg.sender)>=_amount */\n      lt\n      iszero\n        /* \"contracts/DegenToken.sol\":1970:2033  require(balanceOf(msg.sender)>=_amount, \"Insufficient balance\") */\n      tag_134\n      jumpi\n      mload(0x40)\n      0x08c379a000000000000000000000000000000000000000000000000000000000\n      dup2\n      mstore\n      0x04\n      add\n      tag_135\n      swap1\n      tag_136\n      jump\t// in\n    tag_135:\n      mload(0x40)\n      dup1\n      swap2\n      sub\n      swap1\n      revert\n    tag_134:\n        /* \"contracts/DegenToken.sol\":2044:2073  transfer(_recipient, _amount) */\n      tag_137\n        /* \"contracts/DegenToken.sol\":2053:2063  _recipient */\n      dup3\n        /* \"contracts/DegenToken.sol\":2065:2072  _amount */\n      dup3\n        /* \"contracts/DegenToken.sol\":2044:2052  transfer */\n      tag_95\n        /* \"contracts/DegenToken.sol\":2044:2073  transfer(_recipient, _amount) */\n      jump\t// in\n    tag_137:\n      pop\n        /* \"contracts/DegenToken.sol\":1893:2081  function transferToken(address _recipient, uint _amount) external {... */\n      pop\n      pop\n      jump\t// out\n        /* \"contracts/DegenToken.sol\":3316:3415  function getBalance() external view returns(uint256){... */\n    tag_44:\n        /* \"contracts/DegenToken.sol\":3360:3367  uint256 */\n      0x00\n        /* \"contracts/DegenToken.sol\":3386:3407  balanceOf(msg.sender) */\n      tag_139\n        /* \"contracts/DegenToken.sol\":3396:3406  msg.sender */\n      caller\n        /* \"contracts/DegenToken.sol\":3386:3395  balanceOf */\n      tag_76\n        /* \"contracts/DegenToken.sol\":3386:3407  balanceOf(msg.sender) */\n      jump\t// in\n    tag_139:\n        /* \"contracts/DegenToken.sol\":3379:3407  return balanceOf(msg.sender) */\n      swap1\n      pop\n        /* \"contracts/DegenToken.sol\":3316:3415  function getBalance() external view returns(uint256){... */\n      swap1\n      jump\t// out\n        /* \"contracts/DegenToken.sol\":983:1003  uint8 public tokenId */\n    tag_48:\n      0x07\n      0x00\n      swap1\n      sload\n      swap1\n      0x0100\n      exp\n      swap1\n      div\n      0xff\n      and\n      dup2\n      jump\t// out\n        /* \"@openzeppelin/contracts/token/ERC20/ERC20.sol\":3144:3241  function totalSupply() public view virtual returns (uint256) {... */\n    tag_52:\n        /* \"@openzeppelin/contracts/token/ERC20/ERC20.sol\":3196:3203  uint256 */\n      0x00\n        /* \"@openzeppelin/contracts/token/ERC20/ERC20.sol\":3222:3234  _totalSupply */\n      sload(0x02)\n        /* \"@openzeppelin/contracts/token/ERC20/ERC20.sol\":3215:3234  return _totalSupply */\n      swap1\n      pop\n        /* \"@openzeppelin/contracts/token/ERC20/ERC20.sol\":3144:3241  function totalSupply() public view virtual returns (uint256) {... */\n      swap1\n      jump\t// out\n        /* \"@openzeppelin/contracts/token/ERC20/ERC20.sol\":5039:5283  function transferFrom(address from, address to, uint256 value) public virtual returns (bool) {... */\n    tag_57:\n        /* \"@openzeppelin/contracts/token/ERC20/ERC20.sol\":5126:5130  bool */\n      0x00\n        /* \"@openzeppelin/contracts/token/ERC20/ERC20.sol\":5142:5157  address spender */\n      dup1\n        /* \"@openzeppelin/contracts/token/ERC20/ERC20.sol\":5160:5172  _msgSender() */\n      tag_142\n        /* \"@openzeppelin/contracts/token/ERC20/ERC20.sol\":5160:5170  _msgSender */\n      tag_129\n        /* \"@openzeppelin/contracts/token/ERC20/ERC20.sol\":5160:5172  _msgSender() */\n      jump\t// in\n    tag_142:\n        /* \"@openzeppelin/contracts/token/ERC20/ERC20.sol\":5142:5172  address spender = _msgSender() */\n      swap1\n      pop\n        /* \"@openzeppelin/contracts/token/ERC20/ERC20.sol\":5182:5219  _spendAllowance(from, spender, value) */\n      tag_143\n        /* \"@openzeppelin/contracts/token/ERC20/ERC20.sol\":5198:5202  from */\n      dup6\n        /* \"@openzeppelin/contracts/token/ERC20/ERC20.sol\":5204:5211  spender */\n      dup3\n        /* \"@openzeppelin/contracts/token/ERC20/ERC20.sol\":5213:5218  value */\n      dup6\n        /* \"@openzeppelin/contracts/token/ERC20/ERC20.sol\":5182:5197  _spendAllowance */\n      tag_144\n        /* \"@openzeppelin/contracts/token/ERC20/ERC20.sol\":5182:5219  _spendAllowance(from, spender, value) */\n      jump\t// in\n    tag_143:\n        /* \"@openzeppelin/contracts/token/ERC20/ERC20.sol\":5229:5255  _transfer(from, to, value) */\n      tag_145\n        /* \"@openzeppelin/contracts/token/ERC20/ERC20.sol\":5239:5243  from */\n      dup6\n        /* \"@openzeppelin/contracts/token/ERC20/ERC20.sol\":5245:5247  to */\n      dup6\n        /* \"@openzeppelin/contracts/token/ERC20/ERC20.sol\":5249:5254  value */\n      dup6\n        /* \"@openzeppelin/contracts/token/ERC20/ERC20.sol\":5229:5238  _transfer */\n      tag_146\n        /* \"@openzeppelin/contracts/token/ERC20/ERC20.sol\":5229:5255  _transfer(from, to, value) */\n      jump\t// in\n    tag_145:\n        /* \"@openzeppelin/contracts/token/ERC20/ERC20.sol\":5272:5276  true */\n      0x01\n        /* \"@openzeppelin/contracts/token/ERC20/ERC20.sol\":5265:5276  return true */\n      swap2\n      pop\n      pop\n        /* \"@openzeppelin/contracts/token/ERC20/ERC20.sol\":5039:5283  function transferFrom(address from, address to, uint256 value) public virtual returns (bool) {... */\n      swap4\n      swap3\n      pop\n      pop\n      pop\n      jump\t// out\n        /* \"contracts/DegenToken.sol\":1644:1727  function decimals() override public pure returns (uint8){... */\n    tag_60:\n        /* \"contracts/DegenToken.sol\":1694:1699  uint8 */\n      0x00\n        /* \"contracts/DegenToken.sol\":1644:1727  function decimals() override public pure returns (uint8){... */\n      swap1\n      jump\t// out\n        /* \"contracts/DegenToken.sol\":1760:1855  function mint(address to, uint256 amount) public onlyOwner {... */\n    tag_64:\n        /* \"@openzeppelin/contracts/access/Ownable.sol\":1531:1544  _checkOwner() */\n      tag_149\n        /* \"@openzeppelin/contracts/access/Ownable.sol\":1531:1542  _checkOwner */\n      tag_150\n        /* \"@openzeppelin/contracts/access/Ownable.sol\":1531:1544  _checkOwner() */\n      jump\t// in\n    tag_149:\n        /* \"contracts/DegenToken.sol\":1830:1847  _mint(to, amount) */\n      tag_152\n        /* \"contracts/DegenToken.sol\":1836:1838  to */\n      dup3\n        /* \"contracts/DegenToken.sol\":1840:1846  amount */\n      dup3\n        /* \"contracts/DegenToken.sol\":1830:1835  _mint */\n      tag_153\n        /* \"contracts/DegenToken.sol\":1830:1847  _mint(to, amount) */\n      jump\t// in\n    tag_152:\n        /* \"contracts/DegenToken.sol\":1760:1855  function mint(address to, uint256 amount) public onlyOwner {... */\n      pop\n      pop\n      jump\t// out\n        /* \"@openzeppelin/contracts/token/ERC20/extensions/ERC20Burnable.sol\":618:705  function burn(uint256 value) public virtual {... */\n    tag_68:\n        /* \"@openzeppelin/contracts/token/ERC20/extensions/ERC20Burnable.sol\":672:698  _burn(_msgSender(), value) */\n      tag_155\n        /* \"@openzeppelin/contracts/token/ERC20/extensions/ERC20Burnable.sol\":678:690  _msgSender() */\n      tag_156\n        /* \"@openzeppelin/contracts/token/ERC20/extensions/ERC20Burnable.sol\":678:688  _msgSender */\n      tag_129\n        /* \"@openzeppelin/contracts/token/ERC20/extensions/ERC20Burnable.sol\":678:690  _msgSender() */\n      jump\t// in\n    tag_156:\n        /* \"@openzeppelin/contracts/token/ERC20/extensions/ERC20Burnable.sol\":692:697  value */\n      dup3\n        /* \"@openzeppelin/contracts/token/ERC20/extensions/ERC20Burnable.sol\":672:677  _burn */\n      tag_157\n        /* \"@openzeppelin/contracts/token/ERC20/extensions/ERC20Burnable.sol\":672:698  _burn(_msgSender(), value) */\n      jump\t// in\n    tag_155:\n        /* \"@openzeppelin/contracts/token/ERC20/extensions/ERC20Burnable.sol\":618:705  function burn(uint256 value) public virtual {... */\n      pop\n      jump\t// out\n        /* \"contracts/DegenToken.sol\":2286:2440  function addItem(string memory _name, uint256 _price) public onlyOwner {... */\n    tag_72:\n        /* \"@openzeppelin/contracts/access/Ownable.sol\":1531:1544  _checkOwner() */\n      tag_159\n        /* \"@openzeppelin/contracts/access/Ownable.sol\":1531:1542  _checkOwner */\n      tag_150\n        /* \"@openzeppelin/contracts/access/Ownable.sol\":1531:1544  _checkOwner() */\n      jump\t// in\n    tag_159:\n        /* \"contracts/DegenToken.sol\":2385:2412  Item(_name, tokenId,_price) */\n      mload(0x40)\n      dup1\n      0x60\n      add\n      0x40\n      mstore\n      dup1\n        /* \"contracts/DegenToken.sol\":2390:2395  _name */\n      dup4\n        /* \"contracts/DegenToken.sol\":2385:2412  Item(_name, tokenId,_price) */\n      dup2\n      mstore\n      0x20\n      add\n        /* \"contracts/DegenToken.sol\":2397:2404  tokenId */\n      0x07\n      0x00\n      swap1\n      sload\n      swap1\n      0x0100\n      exp\n      swap1\n      div\n      0xff\n      and\n        /* \"contracts/DegenToken.sol\":2385:2412  Item(_name, tokenId,_price) */\n      0xff\n      and\n      dup2\n      mstore\n      0x20\n      add\n        /* \"contracts/DegenToken.sol\":2405:2411  _price */\n      dup3\n        /* \"contracts/DegenToken.sol\":2385:2412  Item(_name, tokenId,_price) */\n      dup2\n      mstore\n      pop\n        /* \"contracts/DegenToken.sol\":2368:2373  items */\n      0x06\n        /* \"contracts/DegenToken.sol\":2368:2382  items[tokenId] */\n      0x00\n        /* \"contracts/DegenToken.sol\":2374:2381  tokenId */\n      0x07\n      0x00\n      swap1\n      sload\n      swap1\n      0x0100\n      exp\n      swap1\n      div\n      0xff\n      and\n        /* \"contracts/DegenToken.sol\":2368:2382  items[tokenId] */\n      0xff\n      and\n      0xff\n      and\n      dup2\n      mstore\n      0x20\n      add\n      swap1\n      dup2\n      mstore\n      0x20\n      add\n      0x00\n      keccak256\n        /* \"contracts/DegenToken.sol\":2368:2412  items[tokenId] = Item(_name, tokenId,_price) */\n      0x00\n      dup3\n      add\n      mload\n      dup2\n      0x00\n      add\n      swap1\n      dup2\n      tag_161\n      swap2\n      swap1\n      tag_162\n      jump\t// in\n    tag_161:\n      pop\n      0x20\n      dup3\n      add\n      mload\n      dup2\n      0x01\n      add\n      exp(0x0100, 0x00)\n      dup2\n      sload\n      dup2\n      0xff\n      mul\n      not\n      and\n      swap1\n      dup4\n      0xff\n      and\n      mul\n      or\n      swap1\n      sstore\n      pop\n      0x40\n      dup3\n      add\n      mload\n      dup2\n      0x02\n      add\n      sstore\n      swap1\n      pop\n      pop\n        /* \"contracts/DegenToken.sol\":2423:2430  tokenId */\n      0x07\n      0x00\n        /* \"contracts/DegenToken.sol\":2423:2432  tokenId++ */\n      dup2\n      dup2\n      swap1\n      sload\n      swap1\n      0x0100\n      exp\n      swap1\n      div\n      0xff\n      and\n      dup1\n      swap3\n      swap2\n      swap1\n      tag_163\n      swap1\n      tag_164\n      jump\t// in\n    tag_163:\n      swap2\n      swap1\n      0x0100\n      exp\n      dup2\n      sload\n      dup2\n      0xff\n      mul\n      not\n      and\n      swap1\n      dup4\n      0xff\n      and\n      mul\n      or\n      swap1\n      sstore\n      pop\n      pop\n        /* \"contracts/DegenToken.sol\":2286:2440  function addItem(string memory _name, uint256 _price) public onlyOwner {... */\n      pop\n      pop\n      jump\t// out\n        /* \"@openzeppelin/contracts/token/ERC20/ERC20.sol\":3299:3415  function balanceOf(address account) public view virtual returns (uint256) {... */\n    tag_76:\n        /* \"@openzeppelin/contracts/token/ERC20/ERC20.sol\":3364:3371  uint256 */\n      0x00\n        /* \"@openzeppelin/contracts/token/ERC20/ERC20.sol\":3390:3399  _balances */\n      dup1\n        /* \"@openzeppelin/contracts/token/ERC20/ERC20.sol\":3390:3408  _balances[account] */\n      0x00\n        /* \"@openzeppelin/contracts/token/ERC20/ERC20.sol\":3400:3407  account */\n      dup4\n        /* \"@openzeppelin/contracts/token/ERC20/ERC20.sol\":3390:3408  _balances[account] */\n      0xffffffffffffffffffffffffffffffffffffffff\n      and\n      0xffffffffffffffffffffffffffffffffffffffff\n      and\n      dup2\n      mstore\n      0x20\n      add\n      swap1\n      dup2\n      mstore\n      0x20\n      add\n      0x00\n      keccak256\n      sload\n        /* \"@openzeppelin/contracts/token/ERC20/ERC20.sol\":3383:3408  return _balances[account] */\n      swap1\n      pop\n        /* \"@openzeppelin/contracts/token/ERC20/ERC20.sol\":3299:3415  function balanceOf(address account) public view virtual returns (uint256) {... */\n      swap2\n      swap1\n      pop\n      jump\t// out\n        /* \"@openzeppelin/contracts/access/Ownable.sol\":2293:2394  function renounceOwnership() public virtual onlyOwner {... */\n    tag_79:\n        /* \"@openzeppelin/contracts/access/Ownable.sol\":1531:1544  _checkOwner() */\n      tag_167\n        /* \"@openzeppelin/contracts/access/Ownable.sol\":1531:1542  _checkOwner */\n      tag_150\n        /* \"@openzeppelin/contracts/access/Ownable.sol\":1531:1544  _checkOwner() */\n      jump\t// in\n    tag_167:\n        /* \"@openzeppelin/contracts/access/Ownable.sol\":2357:2387  _transferOwnership(address(0)) */\n      tag_169\n        /* \"@openzeppelin/contracts/access/Ownable.sol\":2384:2385  0 */\n      0x00\n        /* \"@openzeppelin/contracts/access/Ownable.sol\":2357:2375  _transferOwnership */\n      tag_170\n        /* \"@openzeppelin/contracts/access/Ownable.sol\":2357:2387  _transferOwnership(address(0)) */\n      jump\t// in\n    tag_169:\n        /* \"@openzeppelin/contracts/access/Ownable.sol\":2293:2394  function renounceOwnership() public virtual onlyOwner {... */\n      jump\t// out\n        /* \"@openzeppelin/contracts/token/ERC20/extensions/ERC20Burnable.sol\":1021:1179  function burnFrom(address account, uint256 value) public virtual {... */\n    tag_82:\n        /* \"@openzeppelin/contracts/token/ERC20/extensions/ERC20Burnable.sol\":1096:1141  _spendAllowance(account, _msgSender(), value) */\n      tag_172\n        /* \"@openzeppelin/contracts/token/ERC20/extensions/ERC20Burnable.sol\":1112:1119  account */\n      dup3\n        /* \"@openzeppelin/contracts/token/ERC20/extensions/ERC20Burnable.sol\":1121:1133  _msgSender() */\n      tag_173\n        /* \"@openzeppelin/contracts/token/ERC20/extensions/ERC20Burnable.sol\":1121:1131  _msgSender */\n      tag_129\n        /* \"@openzeppelin/contracts/token/ERC20/extensions/ERC20Burnable.sol\":1121:1133  _msgSender() */\n      jump\t// in\n    tag_173:\n        /* \"@openzeppelin/contracts/token/ERC20/extensions/ERC20Burnable.sol\":1135:1140  value */\n      dup4\n        /* \"@openzeppelin/contracts/token/ERC20/extensions/ERC20Burnable.sol\":1096:1111  _spendAllowance */\n      tag_144\n        /* \"@openzeppelin/contracts/token/ERC20/extensions/ERC20Burnable.sol\":1096:1141  _spendAllowance(account, _msgSender(), value) */\n      jump\t// in\n    tag_172:\n        /* \"@openzeppelin/contracts/token/ERC20/extensions/ERC20Burnable.sol\":1151:1172  _burn(account, value) */\n      tag_174\n        /* \"@openzeppelin/contracts/token/ERC20/extensions/ERC20Burnable.sol\":1157:1164  account */\n      dup3\n        /* \"@openzeppelin/contracts/token/ERC20/extensions/ERC20Burnable.sol\":1166:1171  value */\n      dup3\n        /* \"@openzeppelin/contracts/token/ERC20/extensions/ERC20Burnable.sol\":1151:1156  _burn */\n      tag_157\n        /* \"@openzeppelin/contracts/token/ERC20/extensions/ERC20Burnable.sol\":1151:1172  _burn(account, value) */\n      jump\t// in\n    tag_174:\n        /* \"@openzeppelin/contracts/token/ERC20/extensions/ERC20Burnable.sol\":1021:1179  function burnFrom(address account, uint256 value) public virtual {... */\n      pop\n      pop\n      jump\t// out\n        /* \"contracts/DegenToken.sol\":3448:3595  function burnToken(uint _amount) external {... */\n    tag_85:\n        /* \"contracts/DegenToken.sol\":3532:3539  _amount */\n      dup1\n        /* \"contracts/DegenToken.sol\":3509:3530  balanceOf(msg.sender) */\n      tag_176\n        /* \"contracts/DegenToken.sol\":3519:3529  msg.sender */\n      caller\n        /* \"contracts/DegenToken.sol\":3509:3518  balanceOf */\n      tag_76\n        /* \"contracts/DegenToken.sol\":3509:3530  balanceOf(msg.sender) */\n      jump\t// in\n    tag_176:\n        /* \"contracts/DegenToken.sol\":3509:3539  balanceOf(msg.sender)>=_amount */\n      lt\n      iszero\n        /* \"contracts/DegenToken.sol\":3501:3563  require(balanceOf(msg.sender)>=_amount, \"Insufficient amount\") */\n      tag_177\n      jumpi\n      mload(0x40)\n      0x08c379a000000000000000000000000000000000000000000000000000000000\n      dup2\n      mstore\n      0x04\n      add\n      tag_178\n      swap1\n      tag_179\n      jump\t// in\n    tag_178:\n      mload(0x40)\n      dup1\n      swap2\n      sub\n      swap1\n      revert\n    tag_177:\n        /* \"contracts/DegenToken.sol\":3574:3587  burn(_amount) */\n      tag_180\n        /* \"contracts/DegenToken.sol\":3579:3586  _amount */\n      dup2\n        /* \"contracts/DegenToken.sol\":3574:3578  burn */\n      tag_68\n        /* \"contracts/DegenToken.sol\":3574:3587  burn(_amount) */\n      jump\t// in\n    tag_180:\n        /* \"contracts/DegenToken.sol\":3448:3595  function burnToken(uint _amount) external {... */\n      pop\n      jump\t// out\n        /* \"@openzeppelin/contracts/access/Ownable.sol\":1638:1723  function owner() public view virtual returns (address) {... */\n    tag_87:\n        /* \"@openzeppelin/contracts/access/Ownable.sol\":1684:1691  address */\n      0x00\n        /* \"@openzeppelin/contracts/access/Ownable.sol\":1710:1716  _owner */\n      0x05\n      0x00\n      swap1\n      sload\n      swap1\n      0x0100\n      exp\n      swap1\n      div\n      0xffffffffffffffffffffffffffffffffffffffff\n      and\n        /* \"@openzeppelin/contracts/access/Ownable.sol\":1703:1716  return _owner */\n      swap1\n      pop\n        /* \"@openzeppelin/contracts/access/Ownable.sol\":1638:1723  function owner() public view virtual returns (address) {... */\n      swap1\n      jump\t// out\n        /* \"@openzeppelin/contracts/token/ERC20/ERC20.sol\":2276:2369  function symbol() public view virtual returns (string memory) {... */\n    tag_91:\n        /* \"@openzeppelin/contracts/token/ERC20/ERC20.sol\":2323:2336  string memory */\n      0x60\n        /* \"@openzeppelin/contracts/token/ERC20/ERC20.sol\":2355:2362  _symbol */\n      0x04\n        /* \"@openzeppelin/contracts/token/ERC20/ERC20.sol\":2348:2362  return _symbol */\n      dup1\n      sload\n      tag_183\n      swap1\n      tag_122\n      jump\t// in\n    tag_183:\n      dup1\n      0x1f\n      add\n      0x20\n      dup1\n      swap2\n      div\n      mul\n      0x20\n      add\n      mload(0x40)\n      swap1\n      dup2\n      add\n      0x40\n      mstore\n      dup1\n      swap3\n      swap2\n      swap1\n      dup2\n      dup2\n      mstore\n      0x20\n      add\n      dup3\n      dup1\n      sload\n      tag_184\n      swap1\n      tag_122\n      jump\t// in\n    tag_184:\n      dup1\n      iszero\n      tag_185\n      jumpi\n      dup1\n      0x1f\n      lt\n      tag_186\n      jumpi\n      0x0100\n      dup1\n      dup4\n      sload\n      div\n      mul\n      dup4\n      mstore\n      swap2\n      0x20\n      add\n      swap2\n      jump(tag_185)\n    tag_186:\n      dup3\n      add\n      swap2\n      swap1\n      0x00\n      mstore\n      keccak256(0x00, 0x20)\n      swap1\n    tag_187:\n      dup2\n      sload\n      dup2\n      mstore\n      swap1\n      0x01\n      add\n      swap1\n      0x20\n      add\n      dup1\n      dup4\n      gt\n      tag_187\n      jumpi\n      dup3\n      swap1\n      sub\n      0x1f\n      and\n      dup3\n      add\n      swap2\n    tag_185:\n      pop\n      pop\n      pop\n      pop\n      pop\n      swap1\n      pop\n        /* \"@openzeppelin/contracts/token/ERC20/ERC20.sol\":2276:2369  function symbol() public view virtual returns (string memory) {... */\n      swap1\n      jump\t// out\n        /* \"@openzeppelin/contracts/token/ERC20/ERC20.sol\":3610:3788  function transfer(address to, uint256 value) public virtual returns (bool) {... */\n    tag_95:\n        /* \"@openzeppelin/contracts/token/ERC20/ERC20.sol\":3679:3683  bool */\n      0x00\n        /* \"@openzeppelin/contracts/token/ERC20/ERC20.sol\":3695:3708  address owner */\n      dup1\n        /* \"@openzeppelin/contracts/token/ERC20/ERC20.sol\":3711:3723  _msgSender() */\n      tag_189\n        /* \"@openzeppelin/contracts/token/ERC20/ERC20.sol\":3711:3721  _msgSender */\n      tag_129\n        /* \"@openzeppelin/contracts/token/ERC20/ERC20.sol\":3711:3723  _msgSender() */\n      jump\t// in\n    tag_189:\n        /* \"@openzeppelin/contracts/token/ERC20/ERC20.sol\":3695:3723  address owner = _msgSender() */\n      swap1\n      pop\n        /* \"@openzeppelin/contracts/token/ERC20/ERC20.sol\":3733:3760  _transfer(owner, to, value) */\n      tag_190\n        /* \"@openzeppelin/contracts/token/ERC20/ERC20.sol\":3743:3748  owner */\n      dup2\n        /* \"@openzeppelin/contracts/token/ERC20/ERC20.sol\":3750:3752  to */\n      dup6\n        /* \"@openzeppelin/contracts/token/ERC20/ERC20.sol\":3754:3759  value */\n      dup6\n        /* \"@openzeppelin/contracts/token/ERC20/ERC20.sol\":3733:3742  _transfer */\n      tag_146\n        /* \"@openzeppelin/contracts/token/ERC20/ERC20.sol\":3733:3760  _transfer(owner, to, value) */\n      jump\t// in\n    tag_190:\n        /* \"@openzeppelin/contracts/token/ERC20/ERC20.sol\":3777:3781  true */\n      0x01\n        /* \"@openzeppelin/contracts/token/ERC20/ERC20.sol\":3770:3781  return true */\n      swap2\n      pop\n      pop\n        /* \"@openzeppelin/contracts/token/ERC20/ERC20.sol\":3610:3788  function transfer(address to, uint256 value) public virtual returns (bool) {... */\n      swap3\n      swap2\n      pop\n      pop\n      jump\t// out\n        /* \"contracts/DegenToken.sol\":2935:3275  function purchaseItem(uint8 _itemId) external {... */\n    tag_100:\n        /* \"contracts/DegenToken.sol\":3024:3025  0 */\n      0x00\n        /* \"contracts/DegenToken.sol\":3000:3005  items */\n      0x06\n        /* \"contracts/DegenToken.sol\":3000:3014  items[_itemId] */\n      0x00\n        /* \"contracts/DegenToken.sol\":3006:3013  _itemId */\n      dup4\n        /* \"contracts/DegenToken.sol\":3000:3014  items[_itemId] */\n      0xff\n      and\n      0xff\n      and\n      dup2\n      mstore\n      0x20\n      add\n      swap1\n      dup2\n      mstore\n      0x20\n      add\n      0x00\n      keccak256\n        /* \"contracts/DegenToken.sol\":3000:3020  items[_itemId].price */\n      0x02\n      add\n      sload\n        /* \"contracts/DegenToken.sol\":3000:3025  items[_itemId].price != 0 */\n      sub\n        /* \"contracts/DegenToken.sol\":2992:3044  require(items[_itemId].price != 0, \"Item not found\") */\n      tag_192\n      jumpi\n      mload(0x40)\n      0x08c379a000000000000000000000000000000000000000000000000000000000\n      dup2\n      mstore\n      0x04\n      add\n      tag_193\n      swap1\n      tag_194\n      jump\t// in\n    tag_193:\n      mload(0x40)\n      dup1\n      swap2\n      sub\n      swap1\n      revert\n    tag_192:\n        /* \"contracts/DegenToken.sol\":3088:3093  items */\n      0x06\n        /* \"contracts/DegenToken.sol\":3088:3102  items[_itemId] */\n      0x00\n        /* \"contracts/DegenToken.sol\":3094:3101  _itemId */\n      dup3\n        /* \"contracts/DegenToken.sol\":3088:3102  items[_itemId] */\n      0xff\n      and\n      0xff\n      and\n      dup2\n      mstore\n      0x20\n      add\n      swap1\n      dup2\n      mstore\n      0x20\n      add\n      0x00\n      keccak256\n        /* \"contracts/DegenToken.sol\":3088:3108  items[_itemId].price */\n      0x02\n      add\n      sload\n        /* \"contracts/DegenToken.sol\":3063:3084  balanceOf(msg.sender) */\n      tag_195\n        /* \"contracts/DegenToken.sol\":3073:3083  msg.sender */\n      caller\n        /* \"contracts/DegenToken.sol\":3063:3072  balanceOf */\n      tag_76\n        /* \"contracts/DegenToken.sol\":3063:3084  balanceOf(msg.sender) */\n      jump\t// in\n    tag_195:\n        /* \"contracts/DegenToken.sol\":3063:3108  balanceOf(msg.sender) >= items[_itemId].price */\n      lt\n      iszero\n        /* \"contracts/DegenToken.sol\":3055:3133  require(balanceOf(msg.sender) >= items[_itemId].price, \"Insufficient balance\") */\n      tag_196\n      jumpi\n      mload(0x40)\n      0x08c379a000000000000000000000000000000000000000000000000000000000\n      dup2\n      mstore\n      0x04\n      add\n      tag_197\n      swap1\n      tag_136\n      jump\t// in\n    tag_197:\n      mload(0x40)\n      dup1\n      swap2\n      sub\n      swap1\n      revert\n    tag_196:\n        /* \"contracts/DegenToken.sol\":3146:3172  burn(items[_itemId].price) */\n      tag_198\n        /* \"contracts/DegenToken.sol\":3151:3156  items */\n      0x06\n        /* \"contracts/DegenToken.sol\":3151:3165  items[_itemId] */\n      0x00\n        /* \"contracts/DegenToken.sol\":3157:3164  _itemId */\n      dup4\n        /* \"contracts/DegenToken.sol\":3151:3165  items[_itemId] */\n      0xff\n      and\n      0xff\n      and\n      dup2\n      mstore\n      0x20\n      add\n      swap1\n      dup2\n      mstore\n      0x20\n      add\n      0x00\n      keccak256\n        /* \"contracts/DegenToken.sol\":3151:3171  items[_itemId].price */\n      0x02\n      add\n      sload\n        /* \"contracts/DegenToken.sol\":3146:3150  burn */\n      tag_68\n        /* \"contracts/DegenToken.sol\":3146:3172  burn(items[_itemId].price) */\n      jump\t// in\n    tag_198:\n        /* \"contracts/DegenToken.sol\":3204:3214  msg.sender */\n      caller\n        /* \"contracts/DegenToken.sol\":3190:3267  ItemPurchased(msg.sender, _itemId, items[_itemId].name, items[_itemId].price) */\n      0xffffffffffffffffffffffffffffffffffffffff\n      and\n      0x8bedd141782c49139782bd92bd7a760a0bcb544ffecfd2b25f00366fae06598e\n        /* \"contracts/DegenToken.sol\":3216:3223  _itemId */\n      dup3\n        /* \"contracts/DegenToken.sol\":3225:3230  items */\n      0x06\n        /* \"contracts/DegenToken.sol\":3225:3239  items[_itemId] */\n      0x00\n        /* \"contracts/DegenToken.sol\":3231:3238  _itemId */\n      dup6\n        /* \"contracts/DegenToken.sol\":3225:3239  items[_itemId] */\n      0xff\n      and\n      0xff\n      and\n      dup2\n      mstore\n      0x20\n      add\n      swap1\n      dup2\n      mstore\n      0x20\n      add\n      0x00\n      keccak256\n        /* \"contracts/DegenToken.sol\":3225:3244  items[_itemId].name */\n      0x00\n      add\n        /* \"contracts/DegenToken.sol\":3246:3251  items */\n      0x06\n        /* \"contracts/DegenToken.sol\":3246:3260  items[_itemId] */\n      0x00\n        /* \"contracts/DegenToken.sol\":3252:3259  _itemId */\n      dup7\n        /* \"contracts/DegenToken.sol\":3246:3260  items[_itemId] */\n      0xff\n      and\n      0xff\n      and\n      dup2\n      mstore\n      0x20\n      add\n      swap1\n      dup2\n      mstore\n      0x20\n      add\n      0x00\n      keccak256\n        /* \"contracts/DegenToken.sol\":3246:3266  items[_itemId].price */\n      0x02\n      add\n      sload\n        /* \"contracts/DegenToken.sol\":3190:3267  ItemPurchased(msg.sender, _itemId, items[_itemId].name, items[_itemId].price) */\n      mload(0x40)\n      tag_199\n      swap4\n      swap3\n      swap2\n      swap1\n      tag_200\n      jump\t// in\n    tag_199:\n      mload(0x40)\n      dup1\n      swap2\n      sub\n      swap1\n      log2\n        /* \"contracts/DegenToken.sol\":2935:3275  function purchaseItem(uint8 _itemId) external {... */\n      pop\n      jump\t// out\n        /* \"@openzeppelin/contracts/token/ERC20/ERC20.sol\":3846:3986  function allowance(address owner, address spender) public view virtual returns (uint256) {... */\n    tag_104:\n        /* \"@openzeppelin/contracts/token/ERC20/ERC20.sol\":3926:3933  uint256 */\n      0x00\n        /* \"@openzeppelin/contracts/token/ERC20/ERC20.sol\":3952:3963  _allowances */\n      0x01\n        /* \"@openzeppelin/contracts/token/ERC20/ERC20.sol\":3952:3970  _allowances[owner] */\n      0x00\n        /* \"@openzeppelin/contracts/token/ERC20/ERC20.sol\":3964:3969  owner */\n      dup5\n        /* \"@openzeppelin/contracts/token/ERC20/ERC20.sol\":3952:3970  _allowances[owner] */\n      0xffffffffffffffffffffffffffffffffffffffff\n      and\n      0xffffffffffffffffffffffffffffffffffffffff\n      and\n      dup2\n      mstore\n      0x20\n      add\n      swap1\n      dup2\n      mstore\n      0x20\n      add\n      0x00\n      keccak256\n        /* \"@openzeppelin/contracts/token/ERC20/ERC20.sol\":3952:3979  _allowances[owner][spender] */\n      0x00\n        /* \"@openzeppelin/contracts/token/ERC20/ERC20.sol\":3971:3978  spender */\n      dup4\n        /* \"@openzeppelin/contracts/token/ERC20/ERC20.sol\":3952:3979  _allowances[owner][spender] */\n      0xffffffffffffffffffffffffffffffffffffffff\n      and\n      0xffffffffffffffffffffffffffffffffffffffff\n      and\n      dup2\n      mstore\n      0x20\n      add\n      swap1\n      dup2\n      mstore\n      0x20\n      add\n      0x00\n      keccak256\n      sload\n        /* \"@openzeppelin/contracts/token/ERC20/ERC20.sol\":3945:3979  return _allowances[owner][spender] */\n      swap1\n      pop\n        /* \"@openzeppelin/contracts/token/ERC20/ERC20.sol\":3846:3986  function allowance(address owner, address spender) public view virtual returns (uint256) {... */\n      swap3\n      swap2\n      pop\n      pop\n      jump\t// out\n        /* \"contracts/DegenToken.sol\":2449:2923  function isLessThanFive(bool _prediction, uint256 _betAmount) public {... */\n    tag_109:\n        /* \"contracts/DegenToken.sol\":2529:2546  uint randomNumber */\n      0x00\n        /* \"contracts/DegenToken.sol\":2614:2616  10 */\n      0x0a\n        /* \"contracts/DegenToken.sol\":2581:2596  block.timestamp */\n      timestamp\n        /* \"contracts/DegenToken.sol\":2598:2608  msg.sender */\n      caller\n        /* \"contracts/DegenToken.sol\":2564:2609  abi.encodePacked(block.timestamp, msg.sender) */\n      add(0x20, mload(0x40))\n      tag_203\n      swap3\n      swap2\n      swap1\n      tag_204\n      jump\t// in\n    tag_203:\n      mload(0x40)\n      0x20\n      dup2\n      dup4\n      sub\n      sub\n      dup2\n      mstore\n      swap1\n      0x40\n      mstore\n        /* \"contracts/DegenToken.sol\":2554:2610  keccak256(abi.encodePacked(block.timestamp, msg.sender)) */\n      dup1\n      mload\n      swap1\n      0x20\n      add\n      keccak256\n        /* \"contracts/DegenToken.sol\":2549:2611  uint(keccak256(abi.encodePacked(block.timestamp, msg.sender))) */\n      0x00\n      shr\n        /* \"contracts/DegenToken.sol\":2549:2616  uint(keccak256(abi.encodePacked(block.timestamp, msg.sender))) % 10 */\n      tag_205\n      swap2\n      swap1\n      tag_206\n      jump\t// in\n    tag_205:\n        /* \"contracts/DegenToken.sol\":2529:2616  uint randomNumber = uint(keccak256(abi.encodePacked(block.timestamp, msg.sender))) % 10 */\n      swap1\n      pop\n        /* \"contracts/DegenToken.sol\":2661:2662  5 */\n      0x05\n        /* \"contracts/DegenToken.sol\":2648:2660  randomNumber */\n      dup2\n        /* \"contracts/DegenToken.sol\":2648:2662  randomNumber<5 */\n      lt\n        /* \"contracts/DegenToken.sol\":2633:2663  _prediction ==(randomNumber<5) */\n      iszero\n      iszero\n        /* \"contracts/DegenToken.sol\":2633:2644  _prediction */\n      dup4\n        /* \"contracts/DegenToken.sol\":2633:2663  _prediction ==(randomNumber<5) */\n      iszero\n      iszero\n      sub\n        /* \"contracts/DegenToken.sol\":2629:2916  if (_prediction ==(randomNumber<5)) {... */\n      tag_207\n      jumpi\n        /* \"contracts/DegenToken.sol\":2680:2711  _mint(msg.sender, _betAmount*2) */\n      tag_208\n        /* \"contracts/DegenToken.sol\":2686:2696  msg.sender */\n      caller\n        /* \"contracts/DegenToken.sol\":2709:2710  2 */\n      0x02\n        /* \"contracts/DegenToken.sol\":2698:2708  _betAmount */\n      dup5\n        /* \"contracts/DegenToken.sol\":2698:2710  _betAmount*2 */\n      tag_209\n      swap2\n      swap1\n      tag_210\n      jump\t// in\n    tag_209:\n        /* \"contracts/DegenToken.sol\":2680:2685  _mint */\n      tag_153\n        /* \"contracts/DegenToken.sol\":2680:2711  _mint(msg.sender, _betAmount*2) */\n      jump\t// in\n    tag_208:\n        /* \"contracts/DegenToken.sol\":2743:2753  msg.sender */\n      caller\n        /* \"contracts/DegenToken.sol\":2731:2781  GameOutcome(msg.sender, randomNumber, true, \"won\") */\n      0xffffffffffffffffffffffffffffffffffffffff\n      and\n      0xd04d9689d8e43bc0bacea67661ef472dcf321f34f08af72f651af30c4c866587\n        /* \"contracts/DegenToken.sol\":2755:2767  randomNumber */\n      dup3\n        /* \"contracts/DegenToken.sol\":2769:2773  true */\n      0x01\n        /* \"contracts/DegenToken.sol\":2731:2781  GameOutcome(msg.sender, randomNumber, true, \"won\") */\n      mload(0x40)\n      tag_211\n      swap3\n      swap2\n      swap1\n      tag_212\n      jump\t// in\n    tag_211:\n      mload(0x40)\n      dup1\n      swap2\n      sub\n      swap1\n      log2\n        /* \"contracts/DegenToken.sol\":2629:2916  if (_prediction ==(randomNumber<5)) {... */\n      jump(tag_213)\n    tag_207:\n        /* \"contracts/DegenToken.sol\":2816:2832  burn(_betAmount) */\n      tag_214\n        /* \"contracts/DegenToken.sol\":2821:2831  _betAmount */\n      dup3\n        /* \"contracts/DegenToken.sol\":2816:2820  burn */\n      tag_68\n        /* \"contracts/DegenToken.sol\":2816:2832  burn(_betAmount) */\n      jump\t// in\n    tag_214:\n        /* \"contracts/DegenToken.sol\":2864:2874  msg.sender */\n      caller\n        /* \"contracts/DegenToken.sol\":2852:2904  GameOutcome(msg.sender, randomNumber, false, \"lost\") */\n      0xffffffffffffffffffffffffffffffffffffffff\n      and\n      0xd04d9689d8e43bc0bacea67661ef472dcf321f34f08af72f651af30c4c866587\n        /* \"contracts/DegenToken.sol\":2876:2888  randomNumber */\n      dup3\n        /* \"contracts/DegenToken.sol\":2890:2895  false */\n      0x00\n        /* \"contracts/DegenToken.sol\":2852:2904  GameOutcome(msg.sender, randomNumber, false, \"lost\") */\n      mload(0x40)\n      tag_215\n      swap3\n      swap2\n      swap1\n      tag_216\n      jump\t// in\n    tag_215:\n      mload(0x40)\n      dup1\n      swap2\n      sub\n      swap1\n      log2\n        /* \"contracts/DegenToken.sol\":2629:2916  if (_prediction ==(randomNumber<5)) {... */\n    tag_213:\n        /* \"contracts/DegenToken.sol\":2518:2923  {... */\n      pop\n        /* \"contracts/DegenToken.sol\":2449:2923  function isLessThanFive(bool _prediction, uint256 _betAmount) public {... */\n      pop\n      pop\n      jump\t// out\n        /* \"@openzeppelin/contracts/access/Ownable.sol\":2543:2758  function transferOwnership(address newOwner) public virtual onlyOwner {... */\n    tag_112:\n        /* \"@openzeppelin/contracts/access/Ownable.sol\":1531:1544  _checkOwner() */\n      tag_218\n        /* \"@openzeppelin/contracts/access/Ownable.sol\":1531:1542  _checkOwner */\n      tag_150\n        /* \"@openzeppelin/contracts/access/Ownable.sol\":1531:1544  _checkOwner() */\n      jump\t// in\n    tag_218:\n        /* \"@openzeppelin/contracts/access/Ownable.sol\":2647:2648  0 */\n      0x00\n        /* \"@openzeppelin/contracts/access/Ownable.sol\":2627:2649  newOwner == address(0) */\n      0xffffffffffffffffffffffffffffffffffffffff\n      and\n        /* \"@openzeppelin/contracts/access/Ownable.sol\":2627:2635  newOwner */\n      dup2\n        /* \"@openzeppelin/contracts/access/Ownable.sol\":2627:2649  newOwner == address(0) */\n      0xffffffffffffffffffffffffffffffffffffffff\n      and\n      sub\n        /* \"@openzeppelin/contracts/access/Ownable.sol\":2623:2714  if (newOwner == address(0)) {... */\n      tag_220\n      jumpi\n        /* \"@openzeppelin/contracts/access/Ownable.sol\":2700:2701  0 */\n      0x00\n        /* \"@openzeppelin/contracts/access/Ownable.sol\":2672:2703  OwnableInvalidOwner(address(0)) */\n      mload(0x40)\n      0x1e4fbdf700000000000000000000000000000000000000000000000000000000\n      dup2\n      mstore\n      0x04\n      add\n      tag_221\n      swap2\n      swap1\n      tag_89\n      jump\t// in\n    tag_221:\n      mload(0x40)\n      dup1\n      swap2\n      sub\n      swap1\n      revert\n        /* \"@openzeppelin/contracts/access/Ownable.sol\":2623:2714  if (newOwner == address(0)) {... */\n    tag_220:\n        /* \"@openzeppelin/contracts/access/Ownable.sol\":2723:2751  _transferOwnership(newOwner) */\n      tag_222\n        /* \"@openzeppelin/contracts/access/Ownable.sol\":2742:2750  newOwner */\n      dup2\n        /* \"@openzeppelin/contracts/access/Ownable.sol\":2723:2741  _transferOwnership */\n      tag_170\n        /* \"@openzeppelin/contracts/access/Ownable.sol\":2723:2751  _transferOwnership(newOwner) */\n      jump\t// in\n    tag_222:\n        /* \"@openzeppelin/contracts/access/Ownable.sol\":2543:2758  function transferOwnership(address newOwner) public virtual onlyOwner {... */\n      pop\n      jump\t// out\n        /* \"contracts/DegenToken.sol\":2116:2278  function welcomeBonus() public {... */\n    tag_114:\n        /* \"contracts/DegenToken.sol\":2191:2192  0 */\n      0x00\n        /* \"contracts/DegenToken.sol\":2166:2187  balanceOf(msg.sender) */\n      tag_224\n        /* \"contracts/DegenToken.sol\":2176:2186  msg.sender */\n      caller\n        /* \"contracts/DegenToken.sol\":2166:2175  balanceOf */\n      tag_76\n        /* \"contracts/DegenToken.sol\":2166:2187  balanceOf(msg.sender) */\n      jump\t// in\n    tag_224:\n        /* \"contracts/DegenToken.sol\":2166:2192  balanceOf(msg.sender) == 0 */\n      eq\n        /* \"contracts/DegenToken.sol\":2158:2238  require(balanceOf(msg.sender) == 0, \"You've already claimed your welcome bonus\") */\n      tag_225\n      jumpi\n      mload(0x40)\n      0x08c379a000000000000000000000000000000000000000000000000000000000\n      dup2\n      mstore\n      0x04\n      add\n      tag_226\n      swap1\n      tag_227\n      jump\t// in\n    tag_226:\n      mload(0x40)\n      dup1\n      swap2\n      sub\n      swap1\n      revert\n    tag_225:\n        /* \"contracts/DegenToken.sol\":2249:2270  _mint(msg.sender, 50) */\n      tag_228\n        /* \"contracts/DegenToken.sol\":2255:2265  msg.sender */\n      caller\n        /* \"contracts/DegenToken.sol\":2267:2269  50 */\n      0x32\n        /* \"contracts/DegenToken.sol\":2249:2254  _mint */\n      tag_153\n        /* \"contracts/DegenToken.sol\":2249:2270  _mint(msg.sender, 50) */\n      jump\t// in\n    tag_228:\n        /* \"contracts/DegenToken.sol\":2116:2278  function welcomeBonus() public {... */\n      jump\t// out\n        /* \"contracts/DegenToken.sol\":942:976  mapping (uint8=>Item) public items */\n    tag_117:\n      mstore(0x20, 0x06)\n      dup1\n      0x00\n      mstore\n      keccak256(0x00, 0x40)\n      0x00\n      swap2\n      pop\n      swap1\n      pop\n      dup1\n      0x00\n      add\n      dup1\n      sload\n      tag_229\n      swap1\n      tag_122\n      jump\t// in\n    tag_229:\n      dup1\n      0x1f\n      add\n      0x20\n      dup1\n      swap2\n      div\n      mul\n      0x20\n      add\n      mload(0x40)\n      swap1\n      dup2\n      add\n      0x40\n      mstore\n      dup1\n      swap3\n      swap2\n      swap1\n      dup2\n      dup2\n      mstore\n      0x20\n      add\n      dup3\n      dup1\n      sload\n      tag_230\n      swap1\n      tag_122\n      jump\t// in\n    tag_230:\n      dup1\n      iszero\n      tag_231\n      jumpi\n      dup1\n      0x1f\n      lt\n      tag_232\n      jumpi\n      0x0100\n      dup1\n      dup4\n      sload\n      div\n      mul\n      dup4\n      mstore\n      swap2\n      0x20\n      add\n      swap2\n      jump(tag_231)\n    tag_232:\n      dup3\n      add\n      swap2\n      swap1\n      0x00\n      mstore\n      keccak256(0x00, 0x20)\n      swap1\n    tag_233:\n      dup2\n      sload\n      dup2\n      mstore\n      swap1\n      0x01\n      add\n      swap1\n      0x20\n      add\n      dup1\n      dup4\n      gt\n      tag_233\n      jumpi\n      dup3\n      swap1\n      sub\n      0x1f\n      and\n      dup3\n      add\n      swap2\n    tag_231:\n      pop\n      pop\n      pop\n      pop\n      pop\n      swap1\n      dup1\n      0x01\n      add\n      0x00\n      swap1\n      sload\n      swap1\n      0x0100\n      exp\n      swap1\n      div\n      0xff\n      and\n      swap1\n      dup1\n      0x02\n      add\n      sload\n      swap1\n      pop\n      dup4\n      jump\t// out\n        /* \"@openzeppelin/contracts/utils/Context.sol\":656:752  function _msgSender() internal view virtual returns (address) {... */\n    tag_129:\n        /* \"@openzeppelin/contracts/utils/Context.sol\":709:716  address */\n      0x00\n        /* \"@openzeppelin/contracts/utils/Context.sol\":735:745  msg.sender */\n      caller\n        /* \"@openzeppelin/contracts/utils/Context.sol\":728:745  return msg.sender */\n      swap1\n      pop\n        /* \"@openzeppelin/contracts/utils/Context.sol\":656:752  function _msgSender() internal view virtual returns (address) {... */\n      swap1\n      jump\t// out\n        /* \"@openzeppelin/contracts/token/ERC20/ERC20.sol\":8989:9117  function _approve(address owner, address spender, uint256 value) internal {... */\n    tag_131:\n        /* \"@openzeppelin/contracts/token/ERC20/ERC20.sol\":9073:9110  _approve(owner, spender, value, true) */\n      tag_236\n        /* \"@openzeppelin/contracts/token/ERC20/ERC20.sol\":9082:9087  owner */\n      dup4\n        /* \"@openzeppelin/contracts/token/ERC20/ERC20.sol\":9089:9096  spender */\n      dup4\n        /* \"@openzeppelin/contracts/token/ERC20/ERC20.sol\":9098:9103  value */\n      dup4\n        /* \"@openzeppelin/contracts/token/ERC20/ERC20.sol\":9105:9109  true */\n      0x01\n        /* \"@openzeppelin/contracts/token/ERC20/ERC20.sol\":9073:9081  _approve */\n      tag_237\n        /* \"@openzeppelin/contracts/token/ERC20/ERC20.sol\":9073:9110  _approve(owner, spender, value, true) */\n      jump\t// in\n    tag_236:\n        /* \"@openzeppelin/contracts/token/ERC20/ERC20.sol\":8989:9117  function _approve(address owner, address spender, uint256 value) internal {... */\n      pop\n      pop\n      pop\n      jump\t// out\n        /* \"@openzeppelin/contracts/token/ERC20/ERC20.sol\":10663:11140  function _spendAllowance(address owner, address spender, uint256 value) internal virtual {... */\n    tag_144:\n        /* \"@openzeppelin/contracts/token/ERC20/ERC20.sol\":10762:10786  uint256 currentAllowance */\n      0x00\n        /* \"@openzeppelin/contracts/token/ERC20/ERC20.sol\":10789:10814  allowance(owner, spender) */\n      tag_239\n        /* \"@openzeppelin/contracts/token/ERC20/ERC20.sol\":10799:10804  owner */\n      dup5\n        /* \"@openzeppelin/contracts/token/ERC20/ERC20.sol\":10806:10813  spender */\n      dup5\n        /* \"@openzeppelin/contracts/token/ERC20/ERC20.sol\":10789:10798  allowance */\n      tag_104\n        /* \"@openzeppelin/contracts/token/ERC20/ERC20.sol\":10789:10814  allowance(owner, spender) */\n      jump\t// in\n    tag_239:\n        /* \"@openzeppelin/contracts/token/ERC20/ERC20.sol\":10762:10814  uint256 currentAllowance = allowance(owner, spender) */\n      swap1\n      pop\n        /* \"@openzeppelin/contracts/token/ERC20/ERC20.sol\":10848:10865  type(uint256).max */\n      0xffffffffffffffffffffffffffffffffffffffffffffffffffffffffffffffff\n        /* \"@openzeppelin/contracts/token/ERC20/ERC20.sol\":10828:10844  currentAllowance */\n      dup2\n        /* \"@openzeppelin/contracts/token/ERC20/ERC20.sol\":10828:10865  currentAllowance != type(uint256).max */\n      eq\n        /* \"@openzeppelin/contracts/token/ERC20/ERC20.sol\":10824:11134  if (currentAllowance != type(uint256).max) {... */\n      tag_240\n      jumpi\n        /* \"@openzeppelin/contracts/token/ERC20/ERC20.sol\":10904:10909  value */\n      dup2\n        /* \"@openzeppelin/contracts/token/ERC20/ERC20.sol\":10885:10901  currentAllowance */\n      dup2\n        /* \"@openzeppelin/contracts/token/ERC20/ERC20.sol\":10885:10909  currentAllowance < value */\n      lt\n        /* \"@openzeppelin/contracts/token/ERC20/ERC20.sol\":10881:11011  if (currentAllowance < value) {... */\n      iszero\n      tag_241\n      jumpi\n        /* \"@openzeppelin/contracts/token/ERC20/ERC20.sol\":10963:10970  spender */\n      dup3\n        /* \"@openzeppelin/contracts/token/ERC20/ERC20.sol\":10972:10988  currentAllowance */\n      dup2\n        /* \"@openzeppelin/contracts/token/ERC20/ERC20.sol\":10990:10995  value */\n      dup4\n        /* \"@openzeppelin/contracts/token/ERC20/ERC20.sol\":10936:10996  ERC20InsufficientAllowance(spender, currentAllowance, value) */\n      mload(0x40)\n      0xfb8f41b200000000000000000000000000000000000000000000000000000000\n      dup2\n      mstore\n      0x04\n      add\n      tag_242\n      swap4\n      swap3\n      swap2\n      swap1\n      tag_243\n      jump\t// in\n    tag_242:\n      mload(0x40)\n      dup1\n      swap2\n      sub\n      swap1\n      revert\n        /* \"@openzeppelin/contracts/token/ERC20/ERC20.sol\":10881:11011  if (currentAllowance < value) {... */\n    tag_241:\n        /* \"@openzeppelin/contracts/token/ERC20/ERC20.sol\":11052:11109  _approve(owner, spender, currentAllowance - value, false) */\n      tag_244\n        /* \"@openzeppelin/contracts/token/ERC20/ERC20.sol\":11061:11066  owner */\n      dup5\n        /* \"@openzeppelin/contracts/token/ERC20/ERC20.sol\":11068:11075  spender */\n      dup5\n        /* \"@openzeppelin/contracts/token/ERC20/ERC20.sol\":11096:11101  value */\n      dup5\n        /* \"@openzeppelin/contracts/token/ERC20/ERC20.sol\":11077:11093  currentAllowance */\n      dup5\n        /* \"@openzeppelin/contracts/token/ERC20/ERC20.sol\":11077:11101  currentAllowance - value */\n      sub\n        /* \"@openzeppelin/contracts/token/ERC20/ERC20.sol\":11103:11108  false */\n      0x00\n        /* \"@openzeppelin/contracts/token/ERC20/ERC20.sol\":11052:11060  _approve */\n      tag_237\n        /* \"@openzeppelin/contracts/token/ERC20/ERC20.sol\":11052:11109  _approve(owner, spender, currentAllowance - value, false) */\n      jump\t// in\n    tag_244:\n        /* \"@openzeppelin/contracts/token/ERC20/ERC20.sol\":10824:11134  if (currentAllowance != type(uint256).max) {... */\n    tag_240:\n        /* \"@openzeppelin/contracts/token/ERC20/ERC20.sol\":10752:11140  {... */\n      pop\n        /* \"@openzeppelin/contracts/token/ERC20/ERC20.sol\":10663:11140  function _spendAllowance(address owner, address spender, uint256 value) internal virtual {... */\n      pop\n      pop\n      pop\n      jump\t// out\n        /* \"@openzeppelin/contracts/token/ERC20/ERC20.sol\":5656:5956  function _transfer(address from, address to, uint256 value) internal {... */\n    tag_146:\n        /* \"@openzeppelin/contracts/token/ERC20/ERC20.sol\":5755:5756  0 */\n      0x00\n        /* \"@openzeppelin/contracts/token/ERC20/ERC20.sol\":5739:5757  from == address(0) */\n      0xffffffffffffffffffffffffffffffffffffffff\n      and\n        /* \"@openzeppelin/contracts/token/ERC20/ERC20.sol\":5739:5743  from */\n      dup4\n        /* \"@openzeppelin/contracts/token/ERC20/ERC20.sol\":5739:5757  from == address(0) */\n      0xffffffffffffffffffffffffffffffffffffffff\n      and\n      sub\n        /* \"@openzeppelin/contracts/token/ERC20/ERC20.sol\":5735:5821  if (from == address(0)) {... */\n      tag_246\n      jumpi\n        /* \"@openzeppelin/contracts/token/ERC20/ERC20.sol\":5807:5808  0 */\n      0x00\n        /* \"@openzeppelin/contracts/token/ERC20/ERC20.sol\":5780:5810  ERC20InvalidSender(address(0)) */\n      mload(0x40)\n      0x96c6fd1e00000000000000000000000000000000000000000000000000000000\n      dup2\n      mstore\n      0x04\n      add\n      tag_247\n      swap2\n      swap1\n      tag_89\n      jump\t// in\n    tag_247:\n      mload(0x40)\n      dup1\n      swap2\n      sub\n      swap1\n      revert\n        /* \"@openzeppelin/contracts/token/ERC20/ERC20.sol\":5735:5821  if (from == address(0)) {... */\n    tag_246:\n        /* \"@openzeppelin/contracts/token/ERC20/ERC20.sol\":5848:5849  0 */\n      0x00\n        /* \"@openzeppelin/contracts/token/ERC20/ERC20.sol\":5834:5850  to == address(0) */\n      0xffffffffffffffffffffffffffffffffffffffff\n      and\n        /* \"@openzeppelin/contracts/token/ERC20/ERC20.sol\":5834:5836  to */\n      dup3\n        /* \"@openzeppelin/contracts/token/ERC20/ERC20.sol\":5834:5850  to == address(0) */\n      0xffffffffffffffffffffffffffffffffffffffff\n      and\n      sub\n        /* \"@openzeppelin/contracts/token/ERC20/ERC20.sol\":5830:5916  if (to == address(0)) {... */\n      tag_248\n      jumpi\n        /* \"@openzeppelin/contracts/token/ERC20/ERC20.sol\":5902:5903  0 */\n      0x00\n        /* \"@openzeppelin/contracts/token/ERC20/ERC20.sol\":5873:5905  ERC20InvalidReceiver(address(0)) */\n      mload(0x40)\n      0xec442f0500000000000000000000000000000000000000000000000000000000\n      dup2\n      mstore\n      0x04\n      add\n      tag_249\n      swap2\n      swap1\n      tag_89\n      jump\t// in\n    tag_249:\n      mload(0x40)\n      dup1\n      swap2\n      sub\n      swap1\n      revert\n        /* \"@openzeppelin/contracts/token/ERC20/ERC20.sol\":5830:5916  if (to == address(0)) {... */\n    tag_248:\n        /* \"@openzeppelin/contracts/token/ERC20/ERC20.sol\":5925:5949  _update(from, to, value) */\n      tag_250\n        /* \"@openzeppelin/contracts/token/ERC20/ERC20.sol\":5933:5937  from */\n      dup4\n        /* \"@openzeppelin/contracts/token/ERC20/ERC20.sol\":5939:5941  to */\n      dup4\n        /* \"@openzeppelin/contracts/token/ERC20/ERC20.sol\":5943:5948  value */\n      dup4\n        /* \"@openzeppelin/contracts/token/ERC20/ERC20.sol\":5925:5932  _update */\n      tag_251\n        /* \"@openzeppelin/contracts/token/ERC20/ERC20.sol\":5925:5949  _update(from, to, value) */\n      jump\t// in\n    tag_250:\n        /* \"@openzeppelin/contracts/token/ERC20/ERC20.sol\":5656:5956  function _transfer(address from, address to, uint256 value) internal {... */\n      pop\n      pop\n      pop\n      jump\t// out\n        /* \"@openzeppelin/contracts/access/Ownable.sol\":1796:1958  function _checkOwner() internal view virtual {... */\n    tag_150:\n        /* \"@openzeppelin/contracts/access/Ownable.sol\":1866:1878  _msgSender() */\n      tag_253\n        /* \"@openzeppelin/contracts/access/Ownable.sol\":1866:1876  _msgSender */\n      tag_129\n        /* \"@openzeppelin/contracts/access/Ownable.sol\":1866:1878  _msgSender() */\n      jump\t// in\n    tag_253:\n        /* \"@openzeppelin/contracts/access/Ownable.sol\":1855:1878  owner() != _msgSender() */\n      0xffffffffffffffffffffffffffffffffffffffff\n      and\n        /* \"@openzeppelin/contracts/access/Ownable.sol\":1855:1862  owner() */\n      tag_254\n        /* \"@openzeppelin/contracts/access/Ownable.sol\":1855:1860  owner */\n      tag_87\n        /* \"@openzeppelin/contracts/access/Ownable.sol\":1855:1862  owner() */\n      jump\t// in\n    tag_254:\n        /* \"@openzeppelin/contracts/access/Ownable.sol\":1855:1878  owner() != _msgSender() */\n      0xffffffffffffffffffffffffffffffffffffffff\n      and\n      eq\n        /* \"@openzeppelin/contracts/access/Ownable.sol\":1851:1952  if (owner() != _msgSender()) {... */\n      tag_255\n      jumpi\n        /* \"@openzeppelin/contracts/access/Ownable.sol\":1928:1940  _msgSender() */\n      tag_256\n        /* \"@openzeppelin/contracts/access/Ownable.sol\":1928:1938  _msgSender */\n      tag_129\n        /* \"@openzeppelin/contracts/access/Ownable.sol\":1928:1940  _msgSender() */\n      jump\t// in\n    tag_256:\n        /* \"@openzeppelin/contracts/access/Ownable.sol\":1901:1941  OwnableUnauthorizedAccount(_msgSender()) */\n      mload(0x40)\n      0x118cdaa700000000000000000000000000000000000000000000000000000000\n      dup2\n      mstore\n      0x04\n      add\n      tag_257\n      swap2\n      swap1\n      tag_89\n      jump\t// in\n    tag_257:\n      mload(0x40)\n      dup1\n      swap2\n      sub\n      swap1\n      revert\n        /* \"@openzeppelin/contracts/access/Ownable.sol\":1851:1952  if (owner() != _msgSender()) {... */\n    tag_255:\n        /* \"@openzeppelin/contracts/access/Ownable.sol\":1796:1958  function _checkOwner() internal view virtual {... */\n      jump\t// out\n        /* \"@openzeppelin/contracts/token/ERC20/ERC20.sol\":7721:7929  function _mint(address account, uint256 value) internal {... */\n    tag_153:\n        /* \"@openzeppelin/contracts/token/ERC20/ERC20.sol\":7810:7811  0 */\n      0x00\n        /* \"@openzeppelin/contracts/token/ERC20/ERC20.sol\":7791:7812  account == address(0) */\n      0xffffffffffffffffffffffffffffffffffffffff\n      and\n        /* \"@openzeppelin/contracts/token/ERC20/ERC20.sol\":7791:7798  account */\n      dup3\n        /* \"@openzeppelin/contracts/token/ERC20/ERC20.sol\":7791:7812  account == address(0) */\n      0xffffffffffffffffffffffffffffffffffffffff\n      and\n      sub\n        /* \"@openzeppelin/contracts/token/ERC20/ERC20.sol\":7787:7878  if (account == address(0)) {... */\n      tag_259\n      jumpi\n        /* \"@openzeppelin/contracts/token/ERC20/ERC20.sol\":7864:7865  0 */\n      0x00\n        /* \"@openzeppelin/contracts/token/ERC20/ERC20.sol\":7835:7867  ERC20InvalidReceiver(address(0)) */\n      mload(0x40)\n      0xec442f0500000000000000000000000000000000000000000000000000000000\n      dup2\n      mstore\n      0x04\n      add\n      tag_260\n      swap2\n      swap1\n      tag_89\n      jump\t// in\n    tag_260:\n      mload(0x40)\n      dup1\n      swap2\n      sub\n      swap1\n      revert\n        /* \"@openzeppelin/contracts/token/ERC20/ERC20.sol\":7787:7878  if (account == address(0)) {... */\n    tag_259:\n        /* \"@openzeppelin/contracts/token/ERC20/ERC20.sol\":7887:7922  _update(address(0), account, value) */\n      tag_261\n        /* \"@openzeppelin/contracts/token/ERC20/ERC20.sol\":7903:7904  0 */\n      0x00\n        /* \"@openzeppelin/contracts/token/ERC20/ERC20.sol\":7907:7914  account */\n      dup4\n        /* \"@openzeppelin/contracts/token/ERC20/ERC20.sol\":7916:7921  value */\n      dup4\n        /* \"@openzeppelin/contracts/token/ERC20/ERC20.sol\":7887:7894  _update */\n      tag_251\n        /* \"@openzeppelin/contracts/token/ERC20/ERC20.sol\":7887:7922  _update(address(0), account, value) */\n      jump\t// in\n    tag_261:\n        /* \"@openzeppelin/contracts/token/ERC20/ERC20.sol\":7721:7929  function _mint(address account, uint256 value) internal {... */\n      pop\n      pop\n      jump\t// out\n        /* \"@openzeppelin/contracts/token/ERC20/ERC20.sol\":8247:8453  function _burn(address account, uint256 value) internal {... */\n    tag_157:\n        /* \"@openzeppelin/contracts/token/ERC20/ERC20.sol\":8336:8337  0 */\n      0x00\n        /* \"@openzeppelin/contracts/token/ERC20/ERC20.sol\":8317:8338  account == address(0) */\n      0xffffffffffffffffffffffffffffffffffffffff\n      and\n        /* \"@openzeppelin/contracts/token/ERC20/ERC20.sol\":8317:8324  account */\n      dup3\n        /* \"@openzeppelin/contracts/token/ERC20/ERC20.sol\":8317:8338  account == address(0) */\n      0xffffffffffffffffffffffffffffffffffffffff\n      and\n      sub\n        /* \"@openzeppelin/contracts/token/ERC20/ERC20.sol\":8313:8402  if (account == address(0)) {... */\n      tag_263\n      jumpi\n        /* \"@openzeppelin/contracts/token/ERC20/ERC20.sol\":8388:8389  0 */\n      0x00\n        /* \"@openzeppelin/contracts/token/ERC20/ERC20.sol\":8361:8391  ERC20InvalidSender(address(0)) */\n      mload(0x40)\n      0x96c6fd1e00000000000000000000000000000000000000000000000000000000\n      dup2\n      mstore\n      0x04\n      add\n      tag_264\n      swap2\n      swap1\n      tag_89\n      jump\t// in\n    tag_264:\n      mload(0x40)\n      dup1\n      swap2\n      sub\n      swap1\n      revert\n        /* \"@openzeppelin/contracts/token/ERC20/ERC20.sol\":8313:8402  if (account == address(0)) {... */\n    tag_263:\n        /* \"@openzeppelin/contracts/token/ERC20/ERC20.sol\":8411:8446  _update(account, address(0), value) */\n      tag_265\n        /* \"@openzeppelin/contracts/token/ERC20/ERC20.sol\":8419:8426  account */\n      dup3\n        /* \"@openzeppelin/contracts/token/ERC20/ERC20.sol\":8436:8437  0 */\n      0x00\n        /* \"@openzeppelin/contracts/token/ERC20/ERC20.sol\":8440:8445  value */\n      dup4\n        /* \"@openzeppelin/contracts/token/ERC20/ERC20.sol\":8411:8418  _update */\n      tag_251\n        /* \"@openzeppelin/contracts/token/ERC20/ERC20.sol\":8411:8446  _update(account, address(0), value) */\n      jump\t// in\n    tag_265:\n        /* \"@openzeppelin/contracts/token/ERC20/ERC20.sol\":8247:8453  function _burn(address account, uint256 value) internal {... */\n      pop\n      pop\n      jump\t// out\n        /* \"@openzeppelin/contracts/access/Ownable.sol\":2912:3099  function _transferOwnership(address newOwner) internal virtual {... */\n    tag_170:\n        /* \"@openzeppelin/contracts/access/Ownable.sol\":2985:3001  address oldOwner */\n      0x00\n        /* \"@openzeppelin/contracts/access/Ownable.sol\":3004:3010  _owner */\n      0x05\n      0x00\n      swap1\n      sload\n      swap1\n      0x0100\n      exp\n      swap1\n      div\n      0xffffffffffffffffffffffffffffffffffffffff\n      and\n        /* \"@openzeppelin/contracts/access/Ownable.sol\":2985:3010  address oldOwner = _owner */\n      swap1\n      pop\n        /* \"@openzeppelin/contracts/access/Ownable.sol\":3029:3037  newOwner */\n      dup2\n        /* \"@openzeppelin/contracts/access/Ownable.sol\":3020:3026  _owner */\n      0x05\n      0x00\n        /* \"@openzeppelin/contracts/access/Ownable.sol\":3020:3037  _owner = newOwner */\n      0x0100\n      exp\n      dup2\n      sload\n      dup2\n      0xffffffffffffffffffffffffffffffffffffffff\n      mul\n      not\n      and\n      swap1\n      dup4\n      0xffffffffffffffffffffffffffffffffffffffff\n      and\n      mul\n      or\n      swap1\n      sstore\n      pop\n        /* \"@openzeppelin/contracts/access/Ownable.sol\":3083:3091  newOwner */\n      dup2\n        /* \"@openzeppelin/contracts/access/Ownable.sol\":3052:3092  OwnershipTransferred(oldOwner, newOwner) */\n      0xffffffffffffffffffffffffffffffffffffffff\n      and\n        /* \"@openzeppelin/contracts/access/Ownable.sol\":3073:3081  oldOwner */\n      dup2\n        /* \"@openzeppelin/contracts/access/Ownable.sol\":3052:3092  OwnershipTransferred(oldOwner, newOwner) */\n      0xffffffffffffffffffffffffffffffffffffffff\n      and\n      0x8be0079c531659141344cd1fd0a4f28419497f9722a3daafe3b4186f6b6457e0\n      mload(0x40)\n      mload(0x40)\n      dup1\n      swap2\n      sub\n      swap1\n      log3\n        /* \"@openzeppelin/contracts/access/Ownable.sol\":2975:3099  {... */\n      pop\n        /* \"@openzeppelin/contracts/access/Ownable.sol\":2912:3099  function _transferOwnership(address newOwner) internal virtual {... */\n      pop\n      jump\t// out\n        /* \"@openzeppelin/contracts/token/ERC20/ERC20.sol\":9949:10381  function _approve(address owner, address spender, uint256 value, bool emitEvent) internal virtual {... */\n    tag_237:\n        /* \"@openzeppelin/contracts/token/ERC20/ERC20.sol\":10078:10079  0 */\n      0x00\n        /* \"@openzeppelin/contracts/token/ERC20/ERC20.sol\":10061:10080  owner == address(0) */\n      0xffffffffffffffffffffffffffffffffffffffff\n      and\n        /* \"@openzeppelin/contracts/token/ERC20/ERC20.sol\":10061:10066  owner */\n      dup5\n        /* \"@openzeppelin/contracts/token/ERC20/ERC20.sol\":10061:10080  owner == address(0) */\n      0xffffffffffffffffffffffffffffffffffffffff\n      and\n      sub\n        /* \"@openzeppelin/contracts/token/ERC20/ERC20.sol\":10057:10146  if (owner == address(0)) {... */\n      tag_268\n      jumpi\n        /* \"@openzeppelin/contracts/token/ERC20/ERC20.sol\":10132:10133  0 */\n      0x00\n        /* \"@openzeppelin/contracts/token/ERC20/ERC20.sol\":10103:10135  ERC20InvalidApprover(address(0)) */\n      mload(0x40)\n      0xe602df0500000000000000000000000000000000000000000000000000000000\n      dup2\n      mstore\n      0x04\n      add\n      tag_269\n      swap2\n      swap1\n      tag_89\n      jump\t// in\n    tag_269:\n      mload(0x40)\n      dup1\n      swap2\n      sub\n      swap1\n      revert\n        /* \"@openzeppelin/contracts/token/ERC20/ERC20.sol\":10057:10146  if (owner == address(0)) {... */\n    tag_268:\n        /* \"@openzeppelin/contracts/token/ERC20/ERC20.sol\":10178:10179  0 */\n      0x00\n        /* \"@openzeppelin/contracts/token/ERC20/ERC20.sol\":10159:10180  spender == address(0) */\n      0xffffffffffffffffffffffffffffffffffffffff\n      and\n        /* \"@openzeppelin/contracts/token/ERC20/ERC20.sol\":10159:10166  spender */\n      dup4\n        /* \"@openzeppelin/contracts/token/ERC20/ERC20.sol\":10159:10180  spender == address(0) */\n      0xffffffffffffffffffffffffffffffffffffffff\n      and\n      sub\n        /* \"@openzeppelin/contracts/token/ERC20/ERC20.sol\":10155:10245  if (spender == address(0)) {... */\n      tag_270\n      jumpi\n        /* \"@openzeppelin/contracts/token/ERC20/ERC20.sol\":10231:10232  0 */\n      0x00\n        /* \"@openzeppelin/contracts/token/ERC20/ERC20.sol\":10203:10234  ERC20InvalidSpender(address(0)) */\n      mload(0x40)\n      0x94280d6200000000000000000000000000000000000000000000000000000000\n      dup2\n      mstore\n      0x04\n      add\n      tag_271\n      swap2\n      swap1\n      tag_89\n      jump\t// in\n    tag_271:\n      mload(0x40)\n      dup1\n      swap2\n      sub\n      swap1\n      revert\n        /* \"@openzeppelin/contracts/token/ERC20/ERC20.sol\":10155:10245  if (spender == address(0)) {... */\n    tag_270:\n        /* \"@openzeppelin/contracts/token/ERC20/ERC20.sol\":10284:10289  value */\n      dup2\n        /* \"@openzeppelin/contracts/token/ERC20/ERC20.sol\":10254:10265  _allowances */\n      0x01\n        /* \"@openzeppelin/contracts/token/ERC20/ERC20.sol\":10254:10272  _allowances[owner] */\n      0x00\n        /* \"@openzeppelin/contracts/token/ERC20/ERC20.sol\":10266:10271  owner */\n      dup7\n        /* \"@openzeppelin/contracts/token/ERC20/ERC20.sol\":10254:10272  _allowances[owner] */\n      0xffffffffffffffffffffffffffffffffffffffff\n      and\n      0xffffffffffffffffffffffffffffffffffffffff\n      and\n      dup2\n      mstore\n      0x20\n      add\n      swap1\n      dup2\n      mstore\n      0x20\n      add\n      0x00\n      keccak256\n        /* \"@openzeppelin/contracts/token/ERC20/ERC20.sol\":10254:10281  _allowances[owner][spender] */\n      0x00\n        /* \"@openzeppelin/contracts/token/ERC20/ERC20.sol\":10273:10280  spender */\n      dup6\n        /* \"@openzeppelin/contracts/token/ERC20/ERC20.sol\":10254:10281  _allowances[owner][spender] */\n      0xffffffffffffffffffffffffffffffffffffffff\n      and\n      0xffffffffffffffffffffffffffffffffffffffff\n      and\n      dup2\n      mstore\n      0x20\n      add\n      swap1\n      dup2\n      mstore\n      0x20\n      add\n      0x00\n      keccak256\n        /* \"@openzeppelin/contracts/token/ERC20/ERC20.sol\":10254:10289  _allowances[owner][spender] = value */\n      dup2\n      swap1\n      sstore\n      pop\n        /* \"@openzeppelin/contracts/token/ERC20/ERC20.sol\":10303:10312  emitEvent */\n      dup1\n        /* \"@openzeppelin/contracts/token/ERC20/ERC20.sol\":10299:10375  if (emitEvent) {... */\n      iszero\n      tag_272\n      jumpi\n        /* \"@openzeppelin/contracts/token/ERC20/ERC20.sol\":10349:10356  spender */\n      dup3\n        /* \"@openzeppelin/contracts/token/ERC20/ERC20.sol\":10333:10364  Approval(owner, spender, value) */\n      0xffffffffffffffffffffffffffffffffffffffff\n      and\n        /* \"@openzeppelin/contracts/token/ERC20/ERC20.sol\":10342:10347  owner */\n      dup5\n        /* \"@openzeppelin/contracts/token/ERC20/ERC20.sol\":10333:10364  Approval(owner, spender, value) */\n      0xffffffffffffffffffffffffffffffffffffffff\n      and\n      0x8c5be1e5ebec7d5bd14f71427d1e84f3dd0314c0f7b2291e5b200ac8c7c3b925\n        /* \"@openzeppelin/contracts/token/ERC20/ERC20.sol\":10358:10363  value */\n      dup5\n        /* \"@openzeppelin/contracts/token/ERC20/ERC20.sol\":10333:10364  Approval(owner, spender, value) */\n      mload(0x40)\n      tag_273\n      swap2\n      swap1\n      tag_46\n      jump\t// in\n    tag_273:\n      mload(0x40)\n      dup1\n      swap2\n      sub\n      swap1\n      log3\n        /* \"@openzeppelin/contracts/token/ERC20/ERC20.sol\":10299:10375  if (emitEvent) {... */\n    tag_272:\n        /* \"@openzeppelin/contracts/token/ERC20/ERC20.sol\":9949:10381  function _approve(address owner, address spender, uint256 value, bool emitEvent) internal virtual {... */\n      pop\n      pop\n      pop\n      pop\n      jump\t// out\n        /* \"@openzeppelin/contracts/token/ERC20/ERC20.sol\":6271:7378  function _update(address from, address to, uint256 value) internal virtual {... */\n    tag_251:\n        /* \"@openzeppelin/contracts/token/ERC20/ERC20.sol\":6376:6377  0 */\n      0x00\n        /* \"@openzeppelin/contracts/token/ERC20/ERC20.sol\":6360:6378  from == address(0) */\n      0xffffffffffffffffffffffffffffffffffffffff\n      and\n        /* \"@openzeppelin/contracts/token/ERC20/ERC20.sol\":6360:6364  from */\n      dup4\n        /* \"@openzeppelin/contracts/token/ERC20/ERC20.sol\":6360:6378  from == address(0) */\n      0xffffffffffffffffffffffffffffffffffffffff\n      and\n      sub\n        /* \"@openzeppelin/contracts/token/ERC20/ERC20.sol\":6356:6896  if (from == address(0)) {... */\n      tag_275\n      jumpi\n        /* \"@openzeppelin/contracts/token/ERC20/ERC20.sol\":6512:6517  value */\n      dup1\n        /* \"@openzeppelin/contracts/token/ERC20/ERC20.sol\":6496:6508  _totalSupply */\n      0x02\n      0x00\n        /* \"@openzeppelin/contracts/token/ERC20/ERC20.sol\":6496:6517  _totalSupply += value */\n      dup3\n      dup3\n      sload\n      tag_276\n      swap2\n      swap1\n      tag_277\n      jump\t// in\n    tag_276:\n      swap3\n      pop\n      pop\n      dup2\n      swap1\n      sstore\n      pop\n        /* \"@openzeppelin/contracts/token/ERC20/ERC20.sol\":6356:6896  if (from == address(0)) {... */\n      jump(tag_278)\n    tag_275:\n        /* \"@openzeppelin/contracts/token/ERC20/ERC20.sol\":6548:6567  uint256 fromBalance */\n      0x00\n        /* \"@openzeppelin/contracts/token/ERC20/ERC20.sol\":6570:6579  _balances */\n      dup1\n        /* \"@openzeppelin/contracts/token/ERC20/ERC20.sol\":6570:6585  _balances[from] */\n      0x00\n        /* \"@openzeppelin/contracts/token/ERC20/ERC20.sol\":6580:6584  from */\n      dup6\n        /* \"@openzeppelin/contracts/token/ERC20/ERC20.sol\":6570:6585  _balances[from] */\n      0xffffffffffffffffffffffffffffffffffffffff\n      and\n      0xffffffffffffffffffffffffffffffffffffffff\n      and\n      dup2\n      mstore\n      0x20\n      add\n      swap1\n      dup2\n      mstore\n      0x20\n      add\n      0x00\n      keccak256\n      sload\n        /* \"@openzeppelin/contracts/token/ERC20/ERC20.sol\":6548:6585  uint256 fromBalance = _balances[from] */\n      swap1\n      pop\n        /* \"@openzeppelin/contracts/token/ERC20/ERC20.sol\":6617:6622  value */\n      dup2\n        /* \"@openzeppelin/contracts/token/ERC20/ERC20.sol\":6603:6614  fromBalance */\n      dup2\n        /* \"@openzeppelin/contracts/token/ERC20/ERC20.sol\":6603:6622  fromBalance < value */\n      lt\n        /* \"@openzeppelin/contracts/token/ERC20/ERC20.sol\":6599:6714  if (fromBalance < value) {... */\n      iszero\n      tag_279\n      jumpi\n        /* \"@openzeppelin/contracts/token/ERC20/ERC20.sol\":6674:6678  from */\n      dup4\n        /* \"@openzeppelin/contracts/token/ERC20/ERC20.sol\":6680:6691  fromBalance */\n      dup2\n        /* \"@openzeppelin/contracts/token/ERC20/ERC20.sol\":6693:6698  value */\n      dup4\n        /* \"@openzeppelin/contracts/token/ERC20/ERC20.sol\":6649:6699  ERC20InsufficientBalance(from, fromBalance, value) */\n      mload(0x40)\n      0xe450d38c00000000000000000000000000000000000000000000000000000000\n      dup2\n      mstore\n      0x04\n      add\n      tag_280\n      swap4\n      swap3\n      swap2\n      swap1\n      tag_243\n      jump\t// in\n    tag_280:\n      mload(0x40)\n      dup1\n      swap2\n      sub\n      swap1\n      revert\n        /* \"@openzeppelin/contracts/token/ERC20/ERC20.sol\":6599:6714  if (fromBalance < value) {... */\n    tag_279:\n        /* \"@openzeppelin/contracts/token/ERC20/ERC20.sol\":6866:6871  value */\n      dup2\n        /* \"@openzeppelin/contracts/token/ERC20/ERC20.sol\":6852:6863  fromBalance */\n      dup2\n        /* \"@openzeppelin/contracts/token/ERC20/ERC20.sol\":6852:6871  fromBalance - value */\n      sub\n        /* \"@openzeppelin/contracts/token/ERC20/ERC20.sol\":6834:6843  _balances */\n      0x00\n        /* \"@openzeppelin/contracts/token/ERC20/ERC20.sol\":6834:6849  _balances[from] */\n      dup1\n        /* \"@openzeppelin/contracts/token/ERC20/ERC20.sol\":6844:6848  from */\n      dup7\n        /* \"@openzeppelin/contracts/token/ERC20/ERC20.sol\":6834:6849  _balances[from] */\n      0xffffffffffffffffffffffffffffffffffffffff\n      and\n      0xffffffffffffffffffffffffffffffffffffffff\n      and\n      dup2\n      mstore\n      0x20\n      add\n      swap1\n      dup2\n      mstore\n      0x20\n      add\n      0x00\n      keccak256\n        /* \"@openzeppelin/contracts/token/ERC20/ERC20.sol\":6834:6871  _balances[from] = fromBalance - value */\n      dup2\n      swap1\n      sstore\n      pop\n        /* \"@openzeppelin/contracts/token/ERC20/ERC20.sol\":6534:6896  {... */\n      pop\n        /* \"@openzeppelin/contracts/token/ERC20/ERC20.sol\":6356:6896  if (from == address(0)) {... */\n    tag_278:\n        /* \"@openzeppelin/contracts/token/ERC20/ERC20.sol\":6924:6925  0 */\n      0x00\n        /* \"@openzeppelin/contracts/token/ERC20/ERC20.sol\":6910:6926  to == address(0) */\n      0xffffffffffffffffffffffffffffffffffffffff\n      and\n        /* \"@openzeppelin/contracts/token/ERC20/ERC20.sol\":6910:6912  to */\n      dup3\n        /* \"@openzeppelin/contracts/token/ERC20/ERC20.sol\":6910:6926  to == address(0) */\n      0xffffffffffffffffffffffffffffffffffffffff\n      and\n      sub\n        /* \"@openzeppelin/contracts/token/ERC20/ERC20.sol\":6906:7331  if (to == address(0)) {... */\n      tag_281\n      jumpi\n        /* \"@openzeppelin/contracts/token/ERC20/ERC20.sol\":7089:7094  value */\n      dup1\n        /* \"@openzeppelin/contracts/token/ERC20/ERC20.sol\":7073:7085  _totalSupply */\n      0x02\n      0x00\n        /* \"@openzeppelin/contracts/token/ERC20/ERC20.sol\":7073:7094  _totalSupply -= value */\n      dup3\n      dup3\n      sload\n      sub\n      swap3\n      pop\n      pop\n      dup2\n      swap1\n      sstore\n      pop\n        /* \"@openzeppelin/contracts/token/ERC20/ERC20.sol\":6906:7331  if (to == address(0)) {... */\n      jump(tag_282)\n    tag_281:\n        /* \"@openzeppelin/contracts/token/ERC20/ERC20.sol\":7301:7306  value */\n      dup1\n        /* \"@openzeppelin/contracts/token/ERC20/ERC20.sol\":7284:7293  _balances */\n      0x00\n        /* \"@openzeppelin/contracts/token/ERC20/ERC20.sol\":7284:7297  _balances[to] */\n      dup1\n        /* \"@openzeppelin/contracts/token/ERC20/ERC20.sol\":7294:7296  to */\n      dup5\n        /* \"@openzeppelin/contracts/token/ERC20/ERC20.sol\":7284:7297  _balances[to] */\n      0xffffffffffffffffffffffffffffffffffffffff\n      and\n      0xffffffffffffffffffffffffffffffffffffffff\n      and\n      dup2\n      mstore\n      0x20\n      add\n      swap1\n      dup2\n      mstore\n      0x20\n      add\n      0x00\n      keccak256\n      0x00\n        /* \"@openzeppelin/contracts/token/ERC20/ERC20.sol\":7284:7306  _balances[to] += value */\n      dup3\n      dup3\n      sload\n      add\n      swap3\n      pop\n      pop\n      dup2\n      swap1\n      sstore\n      pop\n        /* \"@openzeppelin/contracts/token/ERC20/ERC20.sol\":6906:7331  if (to == address(0)) {... */\n    tag_282:\n        /* \"@openzeppelin/contracts/token/ERC20/ERC20.sol\":7361:7363  to */\n      dup2\n        /* \"@openzeppelin/contracts/token/ERC20/ERC20.sol\":7346:7371  Transfer(from, to, value) */\n      0xffffffffffffffffffffffffffffffffffffffff\n      and\n        /* \"@openzeppelin/contracts/token/ERC20/ERC20.sol\":7355:7359  from */\n      dup4\n        /* \"@openzeppelin/contracts/token/ERC20/ERC20.sol\":7346:7371  Transfer(from, to, value) */\n      0xffffffffffffffffffffffffffffffffffffffff\n      and\n      0xddf252ad1be2c89b69c2b068fc378daa952ba7f163c4a11628f55a4df523b3ef\n        /* \"@openzeppelin/contracts/token/ERC20/ERC20.sol\":7365:7370  value */\n      dup4\n        /* \"@openzeppelin/contracts/token/ERC20/ERC20.sol\":7346:7371  Transfer(from, to, value) */\n      mload(0x40)\n      tag_283\n      swap2\n      swap1\n      tag_46\n      jump\t// in\n    tag_283:\n      mload(0x40)\n      dup1\n      swap2\n      sub\n      swap1\n      log3\n        /* \"@openzeppelin/contracts/token/ERC20/ERC20.sol\":6271:7378  function _update(address from, address to, uint256 value) internal virtual {... */\n      pop\n      pop\n      pop\n      jump\t// out\n        /* \"#utility.yul\":7:106   */\n    tag_284:\n        /* \"#utility.yul\":59:65   */\n      0x00\n        /* \"#utility.yul\":93:98   */\n      dup2\n        /* \"#utility.yul\":87:99   */\n      mload\n        /* \"#utility.yul\":77:99   */\n      swap1\n      pop\n        /* \"#utility.yul\":7:106   */\n      swap2\n      swap1\n      pop\n      jump\t// out\n        /* \"#utility.yul\":112:281   */\n    tag_285:\n        /* \"#utility.yul\":196:207   */\n      0x00\n        /* \"#utility.yul\":230:236   */\n      dup3\n        /* \"#utility.yul\":225:228   */\n      dup3\n        /* \"#utility.yul\":218:237   */\n      mstore\n        /* \"#utility.yul\":270:274   */\n      0x20\n        /* \"#utility.yul\":265:268   */\n      dup3\n        /* \"#utility.yul\":261:275   */\n      add\n        /* \"#utility.yul\":246:275   */\n      swap1\n      pop\n        /* \"#utility.yul\":112:281   */\n      swap3\n      swap2\n      pop\n      pop\n      jump\t// out\n        /* \"#utility.yul\":287:426   */\n    tag_286:\n        /* \"#utility.yul\":376:382   */\n      dup3\n        /* \"#utility.yul\":371:374   */\n      dup2\n        /* \"#utility.yul\":366:369   */\n      dup4\n        /* \"#utility.yul\":360:383   */\n      mcopy\n        /* \"#utility.yul\":417:418   */\n      0x00\n        /* \"#utility.yul\":408:414   */\n      dup4\n        /* \"#utility.yul\":403:406   */\n      dup4\n        /* \"#utility.yul\":399:415   */\n      add\n        /* \"#utility.yul\":392:419   */\n      mstore\n        /* \"#utility.yul\":287:426   */\n      pop\n      pop\n      pop\n      jump\t// out\n        /* \"#utility.yul\":432:534   */\n    tag_287:\n        /* \"#utility.yul\":473:479   */\n      0x00\n        /* \"#utility.yul\":524:526   */\n      0x1f\n        /* \"#utility.yul\":520:527   */\n      not\n        /* \"#utility.yul\":515:517   */\n      0x1f\n        /* \"#utility.yul\":508:513   */\n      dup4\n        /* \"#utility.yul\":504:518   */\n      add\n        /* \"#utility.yul\":500:528   */\n      and\n        /* \"#utility.yul\":490:528   */\n      swap1\n      pop\n        /* \"#utility.yul\":432:534   */\n      swap2\n      swap1\n      pop\n      jump\t// out\n        /* \"#utility.yul\":540:917   */\n    tag_288:\n        /* \"#utility.yul\":628:631   */\n      0x00\n        /* \"#utility.yul\":656:695   */\n      tag_361\n        /* \"#utility.yul\":689:694   */\n      dup3\n        /* \"#utility.yul\":656:695   */\n      tag_284\n      jump\t// in\n    tag_361:\n        /* \"#utility.yul\":711:782   */\n      tag_362\n        /* \"#utility.yul\":775:781   */\n      dup2\n        /* \"#utility.yul\":770:773   */\n      dup6\n        /* \"#utility.yul\":711:782   */\n      tag_285\n      jump\t// in\n    tag_362:\n        /* \"#utility.yul\":704:782   */\n      swap4\n      pop\n        /* \"#utility.yul\":791:856   */\n      tag_363\n        /* \"#utility.yul\":849:855   */\n      dup2\n        /* \"#utility.yul\":844:847   */\n      dup6\n        /* \"#utility.yul\":837:841   */\n      0x20\n        /* \"#utility.yul\":830:835   */\n      dup7\n        /* \"#utility.yul\":826:842   */\n      add\n        /* \"#utility.yul\":791:856   */\n      tag_286\n      jump\t// in\n    tag_363:\n        /* \"#utility.yul\":881:910   */\n      tag_364\n        /* \"#utility.yul\":903:909   */\n      dup2\n        /* \"#utility.yul\":881:910   */\n      tag_287\n      jump\t// in\n    tag_364:\n        /* \"#utility.yul\":876:879   */\n      dup5\n        /* \"#utility.yul\":872:911   */\n      add\n        /* \"#utility.yul\":865:911   */\n      swap2\n      pop\n        /* \"#utility.yul\":632:917   */\n      pop\n        /* \"#utility.yul\":540:917   */\n      swap3\n      swap2\n      pop\n      pop\n      jump\t// out\n        /* \"#utility.yul\":923:1236   */\n    tag_33:\n        /* \"#utility.yul\":1036:1040   */\n      0x00\n        /* \"#utility.yul\":1074:1076   */\n      0x20\n        /* \"#utility.yul\":1063:1072   */\n      dup3\n        /* \"#utility.yul\":1059:1077   */\n      add\n        /* \"#utility.yul\":1051:1077   */\n      swap1\n      pop\n        /* \"#utility.yul\":1123:1132   */\n      dup2\n        /* \"#utility.yul\":1117:1121   */\n      dup2\n        /* \"#utility.yul\":1113:1133   */\n      sub\n        /* \"#utility.yul\":1109:1110   */\n      0x00\n        /* \"#utility.yul\":1098:1107   */\n      dup4\n        /* \"#utility.yul\":1094:1111   */\n      add\n        /* \"#utility.yul\":1087:1134   */\n      mstore\n        /* \"#utility.yul\":1151:1229   */\n      tag_366\n        /* \"#utility.yul\":1224:1228   */\n      dup2\n        /* \"#utility.yul\":1215:1221   */\n      dup5\n        /* \"#utility.yul\":1151:1229   */\n      tag_288\n      jump\t// in\n    tag_366:\n        /* \"#utility.yul\":1143:1229   */\n      swap1\n      pop\n        /* \"#utility.yul\":923:1236   */\n      swap3\n      swap2\n      pop\n      pop\n      jump\t// out\n        /* \"#utility.yul\":1242:1317   */\n    tag_289:\n        /* \"#utility.yul\":1275:1281   */\n      0x00\n        /* \"#utility.yul\":1308:1310   */\n      0x40\n        /* \"#utility.yul\":1302:1311   */\n      mload\n        /* \"#utility.yul\":1292:1311   */\n      swap1\n      pop\n        /* \"#utility.yul\":1242:1317   */\n      swap1\n      jump\t// out\n        /* \"#utility.yul\":1323:1440   */\n    tag_290:\n        /* \"#utility.yul\":1432:1433   */\n      0x00\n        /* \"#utility.yul\":1429:1430   */\n      dup1\n        /* \"#utility.yul\":1422:1434   */\n      revert\n        /* \"#utility.yul\":1446:1563   */\n    tag_291:\n        /* \"#utility.yul\":1555:1556   */\n      0x00\n        /* \"#utility.yul\":1552:1553   */\n      dup1\n        /* \"#utility.yul\":1545:1557   */\n      revert\n        /* \"#utility.yul\":1569:1695   */\n    tag_292:\n        /* \"#utility.yul\":1606:1613   */\n      0x00\n        /* \"#utility.yul\":1646:1688   */\n      0xffffffffffffffffffffffffffffffffffffffff\n        /* \"#utility.yul\":1639:1644   */\n      dup3\n        /* \"#utility.yul\":1635:1689   */\n      and\n        /* \"#utility.yul\":1624:1689   */\n      swap1\n      pop\n        /* \"#utility.yul\":1569:1695   */\n      swap2\n      swap1\n      pop\n      jump\t// out\n        /* \"#utility.yul\":1701:1797   */\n    tag_293:\n        /* \"#utility.yul\":1738:1745   */\n      0x00\n        /* \"#utility.yul\":1767:1791   */\n      tag_372\n        /* \"#utility.yul\":1785:1790   */\n      dup3\n        /* \"#utility.yul\":1767:1791   */\n      tag_292\n      jump\t// in\n    tag_372:\n        /* \"#utility.yul\":1756:1791   */\n      swap1\n      pop\n        /* \"#utility.yul\":1701:1797   */\n      swap2\n      swap1\n      pop\n      jump\t// out\n        /* \"#utility.yul\":1803:1925   */\n    tag_294:\n        /* \"#utility.yul\":1876:1900   */\n      tag_374\n        /* \"#utility.yul\":1894:1899   */\n      dup2\n        /* \"#utility.yul\":1876:1900   */\n      tag_293\n      jump\t// in\n    tag_374:\n        /* \"#utility.yul\":1869:1874   */\n      dup2\n        /* \"#utility.yul\":1866:1901   */\n      eq\n        /* \"#utility.yul\":1856:1919   */\n      tag_375\n      jumpi\n        /* \"#utility.yul\":1915:1916   */\n      0x00\n        /* \"#utility.yul\":1912:1913   */\n      dup1\n        /* \"#utility.yul\":1905:1917   */\n      revert\n        /* \"#utility.yul\":1856:1919   */\n    tag_375:\n        /* \"#utility.yul\":1803:1925   */\n      pop\n      jump\t// out\n        /* \"#utility.yul\":1931:2070   */\n    tag_295:\n        /* \"#utility.yul\":1977:1982   */\n      0x00\n        /* \"#utility.yul\":2015:2021   */\n      dup2\n        /* \"#utility.yul\":2002:2022   */\n      calldataload\n        /* \"#utility.yul\":1993:2022   */\n      swap1\n      pop\n        /* \"#utility.yul\":2031:2064   */\n      tag_377\n        /* \"#utility.yul\":2058:2063   */\n      dup2\n        /* \"#utility.yul\":2031:2064   */\n      tag_294\n      jump\t// in\n    tag_377:\n        /* \"#utility.yul\":1931:2070   */\n      swap3\n      swap2\n      pop\n      pop\n      jump\t// out\n        /* \"#utility.yul\":2076:2153   */\n    tag_296:\n        /* \"#utility.yul\":2113:2120   */\n      0x00\n        /* \"#utility.yul\":2142:2147   */\n      dup2\n        /* \"#utility.yul\":2131:2147   */\n      swap1\n      pop\n        /* \"#utility.yul\":2076:2153   */\n      swap2\n      swap1\n      pop\n      jump\t// out\n        /* \"#utility.yul\":2159:2281   */\n    tag_297:\n        /* \"#utility.yul\":2232:2256   */\n      tag_380\n        /* \"#utility.yul\":2250:2255   */\n      dup2\n        /* \"#utility.yul\":2232:2256   */\n      tag_296\n      jump\t// in\n    tag_380:\n        /* \"#utility.yul\":2225:2230   */\n      dup2\n        /* \"#utility.yul\":2222:2257   */\n      eq\n        /* \"#utility.yul\":2212:2275   */\n      tag_381\n      jumpi\n        /* \"#utility.yul\":2271:2272   */\n      0x00\n        /* \"#utility.yul\":2268:2269   */\n      dup1\n        /* \"#utility.yul\":2261:2273   */\n      revert\n        /* \"#utility.yul\":2212:2275   */\n    tag_381:\n        /* \"#utility.yul\":2159:2281   */\n      pop\n      jump\t// out\n        /* \"#utility.yul\":2287:2426   */\n    tag_298:\n        /* \"#utility.yul\":2333:2338   */\n      0x00\n        /* \"#utility.yul\":2371:2377   */\n      dup2\n        /* \"#utility.yul\":2358:2378   */\n      calldataload\n        /* \"#utility.yul\":2349:2378   */\n      swap1\n      pop\n        /* \"#utility.yul\":2387:2420   */\n      tag_383\n        /* \"#utility.yul\":2414:2419   */\n      dup2\n        /* \"#utility.yul\":2387:2420   */\n      tag_297\n      jump\t// in\n    tag_383:\n        /* \"#utility.yul\":2287:2426   */\n      swap3\n      swap2\n      pop\n      pop\n      jump\t// out\n        /* \"#utility.yul\":2432:2906   */\n    tag_36:\n        /* \"#utility.yul\":2500:2506   */\n      0x00\n        /* \"#utility.yul\":2508:2514   */\n      dup1\n        /* \"#utility.yul\":2557:2559   */\n      0x40\n        /* \"#utility.yul\":2545:2554   */\n      dup4\n        /* \"#utility.yul\":2536:2543   */\n      dup6\n        /* \"#utility.yul\":2532:2555   */\n      sub\n        /* \"#utility.yul\":2528:2560   */\n      slt\n        /* \"#utility.yul\":2525:2644   */\n      iszero\n      tag_385\n      jumpi\n        /* \"#utility.yul\":2563:2642   */\n      tag_386\n      tag_290\n      jump\t// in\n    tag_386:\n        /* \"#utility.yul\":2525:2644   */\n    tag_385:\n        /* \"#utility.yul\":2683:2684   */\n      0x00\n        /* \"#utility.yul\":2708:2761   */\n      tag_387\n        /* \"#utility.yul\":2753:2760   */\n      dup6\n        /* \"#utility.yul\":2744:2750   */\n      dup3\n        /* \"#utility.yul\":2733:2742   */\n      dup7\n        /* \"#utility.yul\":2729:2751   */\n      add\n        /* \"#utility.yul\":2708:2761   */\n      tag_295\n      jump\t// in\n    tag_387:\n        /* \"#utility.yul\":2698:2761   */\n      swap3\n      pop\n        /* \"#utility.yul\":2654:2771   */\n      pop\n        /* \"#utility.yul\":2810:2812   */\n      0x20\n        /* \"#utility.yul\":2836:2889   */\n      tag_388\n        /* \"#utility.yul\":2881:2888   */\n      dup6\n        /* \"#utility.yul\":2872:2878   */\n      dup3\n        /* \"#utility.yul\":2861:2870   */\n      dup7\n        /* \"#utility.yul\":2857:2879   */\n      add\n        /* \"#utility.yul\":2836:2889   */\n      tag_298\n      jump\t// in\n    tag_388:\n        /* \"#utility.yul\":2826:2889   */\n      swap2\n      pop\n        /* \"#utility.yul\":2781:2899   */\n      pop\n        /* \"#utility.yul\":2432:2906   */\n      swap3\n      pop\n      swap3\n      swap1\n      pop\n      jump\t// out\n        /* \"#utility.yul\":2912:3002   */\n    tag_299:\n        /* \"#utility.yul\":2946:2953   */\n      0x00\n        /* \"#utility.yul\":2989:2994   */\n      dup2\n        /* \"#utility.yul\":2982:2995   */\n      iszero\n        /* \"#utility.yul\":2975:2996   */\n      iszero\n        /* \"#utility.yul\":2964:2996   */\n      swap1\n      pop\n        /* \"#utility.yul\":2912:3002   */\n      swap2\n      swap1\n      pop\n      jump\t// out\n        /* \"#utility.yul\":3008:3117   */\n    tag_300:\n        /* \"#utility.yul\":3089:3110   */\n      tag_391\n        /* \"#utility.yul\":3104:3109   */\n      dup2\n        /* \"#utility.yul\":3089:3110   */\n      tag_299\n      jump\t// in\n    tag_391:\n        /* \"#utility.yul\":3084:3087   */\n      dup3\n        /* \"#utility.yul\":3077:3111   */\n      mstore\n        /* \"#utility.yul\":3008:3117   */\n      pop\n      pop\n      jump\t// out\n        /* \"#utility.yul\":3123:3333   */\n    tag_39:\n        /* \"#utility.yul\":3210:3214   */\n      0x00\n        /* \"#utility.yul\":3248:3250   */\n      0x20\n        /* \"#utility.yul\":3237:3246   */\n      dup3\n        /* \"#utility.yul\":3233:3251   */\n      add\n        /* \"#utility.yul\":3225:3251   */\n      swap1\n      pop\n        /* \"#utility.yul\":3261:3326   */\n      tag_393\n        /* \"#utility.yul\":3323:3324   */\n      0x00\n        /* \"#utility.yul\":3312:3321   */\n      dup4\n        /* \"#utility.yul\":3308:3325   */\n      add\n        /* \"#utility.yul\":3299:3305   */\n      dup5\n        /* \"#utility.yul\":3261:3326   */\n      tag_300\n      jump\t// in\n    tag_393:\n        /* \"#utility.yul\":3123:3333   */\n      swap3\n      swap2\n      pop\n      pop\n      jump\t// out\n        /* \"#utility.yul\":3339:3457   */\n    tag_301:\n        /* \"#utility.yul\":3426:3450   */\n      tag_395\n        /* \"#utility.yul\":3444:3449   */\n      dup2\n        /* \"#utility.yul\":3426:3450   */\n      tag_296\n      jump\t// in\n    tag_395:\n        /* \"#utility.yul\":3421:3424   */\n      dup3\n        /* \"#utility.yul\":3414:3451   */\n      mstore\n        /* \"#utility.yul\":3339:3457   */\n      pop\n      pop\n      jump\t// out\n        /* \"#utility.yul\":3463:3685   */\n    tag_46:\n        /* \"#utility.yul\":3556:3560   */\n      0x00\n        /* \"#utility.yul\":3594:3596   */\n      0x20\n        /* \"#utility.yul\":3583:3592   */\n      dup3\n        /* \"#utility.yul\":3579:3597   */\n      add\n        /* \"#utility.yul\":3571:3597   */\n      swap1\n      pop\n        /* \"#utility.yul\":3607:3678   */\n      tag_397\n        /* \"#utility.yul\":3675:3676   */\n      0x00\n        /* \"#utility.yul\":3664:3673   */\n      dup4\n        /* \"#utility.yul\":3660:3677   */\n      add\n        /* \"#utility.yul\":3651:3657   */\n      dup5\n        /* \"#utility.yul\":3607:3678   */\n      tag_301\n      jump\t// in\n    tag_397:\n        /* \"#utility.yul\":3463:3685   */\n      swap3\n      swap2\n      pop\n      pop\n      jump\t// out\n        /* \"#utility.yul\":3691:3777   */\n    tag_302:\n        /* \"#utility.yul\":3726:3733   */\n      0x00\n        /* \"#utility.yul\":3766:3770   */\n      0xff\n        /* \"#utility.yul\":3759:3764   */\n      dup3\n        /* \"#utility.yul\":3755:3771   */\n      and\n        /* \"#utility.yul\":3744:3771   */\n      swap1\n      pop\n        /* \"#utility.yul\":3691:3777   */\n      swap2\n      swap1\n      pop\n      jump\t// out\n        /* \"#utility.yul\":3783:3895   */\n    tag_303:\n        /* \"#utility.yul\":3866:3888   */\n      tag_400\n        /* \"#utility.yul\":3882:3887   */\n      dup2\n        /* \"#utility.yul\":3866:3888   */\n      tag_302\n      jump\t// in\n    tag_400:\n        /* \"#utility.yul\":3861:3864   */\n      dup3\n        /* \"#utility.yul\":3854:3889   */\n      mstore\n        /* \"#utility.yul\":3783:3895   */\n      pop\n      pop\n      jump\t// out\n        /* \"#utility.yul\":3901:4115   */\n    tag_50:\n        /* \"#utility.yul\":3990:3994   */\n      0x00\n        /* \"#utility.yul\":4028:4030   */\n      0x20\n        /* \"#utility.yul\":4017:4026   */\n      dup3\n        /* \"#utility.yul\":4013:4031   */\n      add\n        /* \"#utility.yul\":4005:4031   */\n      swap1\n      pop\n        /* \"#utility.yul\":4041:4108   */\n      tag_402\n        /* \"#utility.yul\":4105:4106   */\n      0x00\n        /* \"#utility.yul\":4094:4103   */\n      dup4\n        /* \"#utility.yul\":4090:4107   */\n      add\n        /* \"#utility.yul\":4081:4087   */\n      dup5\n        /* \"#utility.yul\":4041:4108   */\n      tag_303\n      jump\t// in\n    tag_402:\n        /* \"#utility.yul\":3901:4115   */\n      swap3\n      swap2\n      pop\n      pop\n      jump\t// out\n        /* \"#utility.yul\":4121:4740   */\n    tag_56:\n        /* \"#utility.yul\":4198:4204   */\n      0x00\n        /* \"#utility.yul\":4206:4212   */\n      dup1\n        /* \"#utility.yul\":4214:4220   */\n      0x00\n        /* \"#utility.yul\":4263:4265   */\n      0x60\n        /* \"#utility.yul\":4251:4260   */\n      dup5\n        /* \"#utility.yul\":4242:4249   */\n      dup7\n        /* \"#utility.yul\":4238:4261   */\n      sub\n        /* \"#utility.yul\":4234:4266   */\n      slt\n        /* \"#utility.yul\":4231:4350   */\n      iszero\n      tag_404\n      jumpi\n        /* \"#utility.yul\":4269:4348   */\n      tag_405\n      tag_290\n      jump\t// in\n    tag_405:\n        /* \"#utility.yul\":4231:4350   */\n    tag_404:\n        /* \"#utility.yul\":4389:4390   */\n      0x00\n        /* \"#utility.yul\":4414:4467   */\n      tag_406\n        /* \"#utility.yul\":4459:4466   */\n      dup7\n        /* \"#utility.yul\":4450:4456   */\n      dup3\n        /* \"#utility.yul\":4439:4448   */\n      dup8\n        /* \"#utility.yul\":4435:4457   */\n      add\n        /* \"#utility.yul\":4414:4467   */\n      tag_295\n      jump\t// in\n    tag_406:\n        /* \"#utility.yul\":4404:4467   */\n      swap4\n      pop\n        /* \"#utility.yul\":4360:4477   */\n      pop\n        /* \"#utility.yul\":4516:4518   */\n      0x20\n        /* \"#utility.yul\":4542:4595   */\n      tag_407\n        /* \"#utility.yul\":4587:4594   */\n      dup7\n        /* \"#utility.yul\":4578:4584   */\n      dup3\n        /* \"#utility.yul\":4567:4576   */\n      dup8\n        /* \"#utility.yul\":4563:4585   */\n      add\n        /* \"#utility.yul\":4542:4595   */\n      tag_295\n      jump\t// in\n    tag_407:\n        /* \"#utility.yul\":4532:4595   */\n      swap3\n      pop\n        /* \"#utility.yul\":4487:4605   */\n      pop\n        /* \"#utility.yul\":4644:4646   */\n      0x40\n        /* \"#utility.yul\":4670:4723   */\n      tag_408\n        /* \"#utility.yul\":4715:4722   */\n      dup7\n        /* \"#utility.yul\":4706:4712   */\n      dup3\n        /* \"#utility.yul\":4695:4704   */\n      dup8\n        /* \"#utility.yul\":4691:4713   */\n      add\n        /* \"#utility.yul\":4670:4723   */\n      tag_298\n      jump\t// in\n    tag_408:\n        /* \"#utility.yul\":4660:4723   */\n      swap2\n      pop\n        /* \"#utility.yul\":4615:4733   */\n      pop\n        /* \"#utility.yul\":4121:4740   */\n      swap3\n      pop\n      swap3\n      pop\n      swap3\n      jump\t// out\n        /* \"#utility.yul\":4746:5075   */\n    tag_67:\n        /* \"#utility.yul\":4805:4811   */\n      0x00\n        /* \"#utility.yul\":4854:4856   */\n      0x20\n        /* \"#utility.yul\":4842:4851   */\n      dup3\n        /* \"#utility.yul\":4833:4840   */\n      dup5\n        /* \"#utility.yul\":4829:4852   */\n      sub\n        /* \"#utility.yul\":4825:4857   */\n      slt\n        /* \"#utility.yul\":4822:4941   */\n      iszero\n      tag_410\n      jumpi\n        /* \"#utility.yul\":4860:4939   */\n      tag_411\n      tag_290\n      jump\t// in\n    tag_411:\n        /* \"#utility.yul\":4822:4941   */\n    tag_410:\n        /* \"#utility.yul\":4980:4981   */\n      0x00\n        /* \"#utility.yul\":5005:5058   */\n      tag_412\n        /* \"#utility.yul\":5050:5057   */\n      dup5\n        /* \"#utility.yul\":5041:5047   */\n      dup3\n        /* \"#utility.yul\":5030:5039   */\n      dup6\n        /* \"#utility.yul\":5026:5048   */\n      add\n        /* \"#utility.yul\":5005:5058   */\n      tag_298\n      jump\t// in\n    tag_412:\n        /* \"#utility.yul\":4995:5058   */\n      swap2\n      pop\n        /* \"#utility.yul\":4951:5068   */\n      pop\n        /* \"#utility.yul\":4746:5075   */\n      swap3\n      swap2\n      pop\n      pop\n      jump\t// out\n        /* \"#utility.yul\":5081:5198   */\n    tag_304:\n        /* \"#utility.yul\":5190:5191   */\n      0x00\n        /* \"#utility.yul\":5187:5188   */\n      dup1\n        /* \"#utility.yul\":5180:5192   */\n      revert\n        /* \"#utility.yul\":5204:5321   */\n    tag_305:\n        /* \"#utility.yul\":5313:5314   */\n      0x00\n        /* \"#utility.yul\":5310:5311   */\n      dup1\n        /* \"#utility.yul\":5303:5315   */\n      revert\n        /* \"#utility.yul\":5327:5507   */\n    tag_306:\n        /* \"#utility.yul\":5375:5452   */\n      0x4e487b7100000000000000000000000000000000000000000000000000000000\n        /* \"#utility.yul\":5372:5373   */\n      0x00\n        /* \"#utility.yul\":5365:5453   */\n      mstore\n        /* \"#utility.yul\":5472:5476   */\n      0x41\n        /* \"#utility.yul\":5469:5470   */\n      0x04\n        /* \"#utility.yul\":5462:5477   */\n      mstore\n        /* \"#utility.yul\":5496:5500   */\n      0x24\n        /* \"#utility.yul\":5493:5494   */\n      0x00\n        /* \"#utility.yul\":5486:5501   */\n      revert\n        /* \"#utility.yul\":5513:5794   */\n    tag_307:\n        /* \"#utility.yul\":5596:5623   */\n      tag_417\n        /* \"#utility.yul\":5618:5622   */\n      dup3\n        /* \"#utility.yul\":5596:5623   */\n      tag_287\n      jump\t// in\n    tag_417:\n        /* \"#utility.yul\":5588:5594   */\n      dup2\n        /* \"#utility.yul\":5584:5624   */\n      add\n        /* \"#utility.yul\":5726:5732   */\n      dup2\n        /* \"#utility.yul\":5714:5724   */\n      dup2\n        /* \"#utility.yul\":5711:5733   */\n      lt\n        /* \"#utility.yul\":5690:5708   */\n      0xffffffffffffffff\n        /* \"#utility.yul\":5678:5688   */\n      dup3\n        /* \"#utility.yul\":5675:5709   */\n      gt\n        /* \"#utility.yul\":5672:5734   */\n      or\n        /* \"#utility.yul\":5669:5757   */\n      iszero\n      tag_418\n      jumpi\n        /* \"#utility.yul\":5737:5755   */\n      tag_419\n      tag_306\n      jump\t// in\n    tag_419:\n        /* \"#utility.yul\":5669:5757   */\n    tag_418:\n        /* \"#utility.yul\":5777:5787   */\n      dup1\n        /* \"#utility.yul\":5773:5775   */\n      0x40\n        /* \"#utility.yul\":5766:5788   */\n      mstore\n        /* \"#utility.yul\":5556:5794   */\n      pop\n        /* \"#utility.yul\":5513:5794   */\n      pop\n      pop\n      jump\t// out\n        /* \"#utility.yul\":5800:5929   */\n    tag_308:\n        /* \"#utility.yul\":5834:5840   */\n      0x00\n        /* \"#utility.yul\":5861:5881   */\n      tag_421\n      tag_289\n      jump\t// in\n    tag_421:\n        /* \"#utility.yul\":5851:5881   */\n      swap1\n      pop\n        /* \"#utility.yul\":5890:5923   */\n      tag_422\n        /* \"#utility.yul\":5918:5922   */\n      dup3\n        /* \"#utility.yul\":5910:5916   */\n      dup3\n        /* \"#utility.yul\":5890:5923   */\n      tag_307\n      jump\t// in\n    tag_422:\n        /* \"#utility.yul\":5800:5929   */\n      swap2\n      swap1\n      pop\n      jump\t// out\n        /* \"#utility.yul\":5935:6243   */\n    tag_309:\n        /* \"#utility.yul\":5997:6001   */\n      0x00\n        /* \"#utility.yul\":6087:6105   */\n      0xffffffffffffffff\n        /* \"#utility.yul\":6079:6085   */\n      dup3\n        /* \"#utility.yul\":6076:6106   */\n      gt\n        /* \"#utility.yul\":6073:6129   */\n      iszero\n      tag_424\n      jumpi\n        /* \"#utility.yul\":6109:6127   */\n      tag_425\n      tag_306\n      jump\t// in\n    tag_425:\n        /* \"#utility.yul\":6073:6129   */\n    tag_424:\n        /* \"#utility.yul\":6147:6176   */\n      tag_426\n        /* \"#utility.yul\":6169:6175   */\n      dup3\n        /* \"#utility.yul\":6147:6176   */\n      tag_287\n      jump\t// in\n    tag_426:\n        /* \"#utility.yul\":6139:6176   */\n      swap1\n      pop\n        /* \"#utility.yul\":6231:6235   */\n      0x20\n        /* \"#utility.yul\":6225:6229   */\n      dup2\n        /* \"#utility.yul\":6221:6236   */\n      add\n        /* \"#utility.yul\":6213:6236   */\n      swap1\n      pop\n        /* \"#utility.yul\":5935:6243   */\n      swap2\n      swap1\n      pop\n      jump\t// out\n        /* \"#utility.yul\":6249:6397   */\n    tag_310:\n        /* \"#utility.yul\":6347:6353   */\n      dup3\n        /* \"#utility.yul\":6342:6345   */\n      dup2\n        /* \"#utility.yul\":6337:6340   */\n      dup4\n        /* \"#utility.yul\":6324:6354   */\n      calldatacopy\n        /* \"#utility.yul\":6388:6389   */\n      0x00\n        /* \"#utility.yul\":6379:6385   */\n      dup4\n        /* \"#utility.yul\":6374:6377   */\n      dup4\n        /* \"#utility.yul\":6370:6386   */\n      add\n        /* \"#utility.yul\":6363:6390   */\n      mstore\n        /* \"#utility.yul\":6249:6397   */\n      pop\n      pop\n      pop\n      jump\t// out\n        /* \"#utility.yul\":6403:6828   */\n    tag_311:\n        /* \"#utility.yul\":6481:6486   */\n      0x00\n        /* \"#utility.yul\":6506:6572   */\n      tag_429\n        /* \"#utility.yul\":6522:6571   */\n      tag_430\n        /* \"#utility.yul\":6564:6570   */\n      dup5\n        /* \"#utility.yul\":6522:6571   */\n      tag_309\n      jump\t// in\n    tag_430:\n        /* \"#utility.yul\":6506:6572   */\n      tag_308\n      jump\t// in\n    tag_429:\n        /* \"#utility.yul\":6497:6572   */\n      swap1\n      pop\n        /* \"#utility.yul\":6595:6601   */\n      dup3\n        /* \"#utility.yul\":6588:6593   */\n      dup2\n        /* \"#utility.yul\":6581:6602   */\n      mstore\n        /* \"#utility.yul\":6633:6637   */\n      0x20\n        /* \"#utility.yul\":6626:6631   */\n      dup2\n        /* \"#utility.yul\":6622:6638   */\n      add\n        /* \"#utility.yul\":6671:6674   */\n      dup5\n        /* \"#utility.yul\":6662:6668   */\n      dup5\n        /* \"#utility.yul\":6657:6660   */\n      dup5\n        /* \"#utility.yul\":6653:6669   */\n      add\n        /* \"#utility.yul\":6650:6675   */\n      gt\n        /* \"#utility.yul\":6647:6759   */\n      iszero\n      tag_431\n      jumpi\n        /* \"#utility.yul\":6678:6757   */\n      tag_432\n      tag_305\n      jump\t// in\n    tag_432:\n        /* \"#utility.yul\":6647:6759   */\n    tag_431:\n        /* \"#utility.yul\":6768:6822   */\n      tag_433\n        /* \"#utility.yul\":6815:6821   */\n      dup5\n        /* \"#utility.yul\":6810:6813   */\n      dup3\n        /* \"#utility.yul\":6805:6808   */\n      dup6\n        /* \"#utility.yul\":6768:6822   */\n      tag_310\n      jump\t// in\n    tag_433:\n        /* \"#utility.yul\":6487:6828   */\n      pop\n        /* \"#utility.yul\":6403:6828   */\n      swap4\n      swap3\n      pop\n      pop\n      pop\n      jump\t// out\n        /* \"#utility.yul\":6848:7188   */\n    tag_312:\n        /* \"#utility.yul\":6904:6909   */\n      0x00\n        /* \"#utility.yul\":6953:6956   */\n      dup3\n        /* \"#utility.yul\":6946:6950   */\n      0x1f\n        /* \"#utility.yul\":6938:6944   */\n      dup4\n        /* \"#utility.yul\":6934:6951   */\n      add\n        /* \"#utility.yul\":6930:6957   */\n      slt\n        /* \"#utility.yul\":6920:7042   */\n      tag_435\n      jumpi\n        /* \"#utility.yul\":6961:7040   */\n      tag_436\n      tag_304\n      jump\t// in\n    tag_436:\n        /* \"#utility.yul\":6920:7042   */\n    tag_435:\n        /* \"#utility.yul\":7078:7084   */\n      dup2\n        /* \"#utility.yul\":7065:7085   */\n      calldataload\n        /* \"#utility.yul\":7103:7182   */\n      tag_437\n        /* \"#utility.yul\":7178:7181   */\n      dup5\n        /* \"#utility.yul\":7170:7176   */\n      dup3\n        /* \"#utility.yul\":7163:7167   */\n      0x20\n        /* \"#utility.yul\":7155:7161   */\n      dup7\n        /* \"#utility.yul\":7151:7168   */\n      add\n        /* \"#utility.yul\":7103:7182   */\n      tag_311\n      jump\t// in\n    tag_437:\n        /* \"#utility.yul\":7094:7182   */\n      swap2\n      pop\n        /* \"#utility.yul\":6910:7188   */\n      pop\n        /* \"#utility.yul\":6848:7188   */\n      swap3\n      swap2\n      pop\n      pop\n      jump\t// out\n        /* \"#utility.yul\":7194:7848   */\n    tag_71:\n        /* \"#utility.yul\":7272:7278   */\n      0x00\n        /* \"#utility.yul\":7280:7286   */\n      dup1\n        /* \"#utility.yul\":7329:7331   */\n      0x40\n        /* \"#utility.yul\":7317:7326   */\n      dup4\n        /* \"#utility.yul\":7308:7315   */\n      dup6\n        /* \"#utility.yul\":7304:7327   */\n      sub\n        /* \"#utility.yul\":7300:7332   */\n      slt\n        /* \"#utility.yul\":7297:7416   */\n      iszero\n      tag_439\n      jumpi\n        /* \"#utility.yul\":7335:7414   */\n      tag_440\n      tag_290\n      jump\t// in\n    tag_440:\n        /* \"#utility.yul\":7297:7416   */\n    tag_439:\n        /* \"#utility.yul\":7483:7484   */\n      0x00\n        /* \"#utility.yul\":7472:7481   */\n      dup4\n        /* \"#utility.yul\":7468:7485   */\n      add\n        /* \"#utility.yul\":7455:7486   */\n      calldataload\n        /* \"#utility.yul\":7513:7531   */\n      0xffffffffffffffff\n        /* \"#utility.yul\":7505:7511   */\n      dup2\n        /* \"#utility.yul\":7502:7532   */\n      gt\n        /* \"#utility.yul\":7499:7616   */\n      iszero\n      tag_441\n      jumpi\n        /* \"#utility.yul\":7535:7614   */\n      tag_442\n      tag_291\n      jump\t// in\n    tag_442:\n        /* \"#utility.yul\":7499:7616   */\n    tag_441:\n        /* \"#utility.yul\":7640:7703   */\n      tag_443\n        /* \"#utility.yul\":7695:7702   */\n      dup6\n        /* \"#utility.yul\":7686:7692   */\n      dup3\n        /* \"#utility.yul\":7675:7684   */\n      dup7\n        /* \"#utility.yul\":7671:7693   */\n      add\n        /* \"#utility.yul\":7640:7703   */\n      tag_312\n      jump\t// in\n    tag_443:\n        /* \"#utility.yul\":7630:7703   */\n      swap3\n      pop\n        /* \"#utility.yul\":7426:7713   */\n      pop\n        /* \"#utility.yul\":7752:7754   */\n      0x20\n        /* \"#utility.yul\":7778:7831   */\n      tag_444\n        /* \"#utility.yul\":7823:7830   */\n      dup6\n        /* \"#utility.yul\":7814:7820   */\n      dup3\n        /* \"#utility.yul\":7803:7812   */\n      dup7\n        /* \"#utility.yul\":7799:7821   */\n      add\n        /* \"#utility.yul\":7778:7831   */\n      tag_298\n      jump\t// in\n    tag_444:\n        /* \"#utility.yul\":7768:7831   */\n      swap2\n      pop\n        /* \"#utility.yul\":7723:7841   */\n      pop\n        /* \"#utility.yul\":7194:7848   */\n      swap3\n      pop\n      swap3\n      swap1\n      pop\n      jump\t// out\n        /* \"#utility.yul\":7854:8183   */\n    tag_75:\n        /* \"#utility.yul\":7913:7919   */\n      0x00\n        /* \"#utility.yul\":7962:7964   */\n      0x20\n        /* \"#utility.yul\":7950:7959   */\n      dup3\n        /* \"#utility.yul\":7941:7948   */\n      dup5\n        /* \"#utility.yul\":7937:7960   */\n      sub\n        /* \"#utility.yul\":7933:7965   */\n      slt\n        /* \"#utility.yul\":7930:8049   */\n      iszero\n      tag_446\n      jumpi\n        /* \"#utility.yul\":7968:8047   */\n      tag_447\n      tag_290\n      jump\t// in\n    tag_447:\n        /* \"#utility.yul\":7930:8049   */\n    tag_446:\n        /* \"#utility.yul\":8088:8089   */\n      0x00\n        /* \"#utility.yul\":8113:8166   */\n      tag_448\n        /* \"#utility.yul\":8158:8165   */\n      dup5\n        /* \"#utility.yul\":8149:8155   */\n      dup3\n        /* \"#utility.yul\":8138:8147   */\n      dup6\n        /* \"#utility.yul\":8134:8156   */\n      add\n        /* \"#utility.yul\":8113:8166   */\n      tag_295\n      jump\t// in\n    tag_448:\n        /* \"#utility.yul\":8103:8166   */\n      swap2\n      pop\n        /* \"#utility.yul\":8059:8176   */\n      pop\n        /* \"#utility.yul\":7854:8183   */\n      swap3\n      swap2\n      pop\n      pop\n      jump\t// out\n        /* \"#utility.yul\":8189:8307   */\n    tag_313:\n        /* \"#utility.yul\":8276:8300   */\n      tag_450\n        /* \"#utility.yul\":8294:8299   */\n      dup2\n        /* \"#utility.yul\":8276:8300   */\n      tag_293\n      jump\t// in\n    tag_450:\n        /* \"#utility.yul\":8271:8274   */\n      dup3\n        /* \"#utility.yul\":8264:8301   */\n      mstore\n        /* \"#utility.yul\":8189:8307   */\n      pop\n      pop\n      jump\t// out\n        /* \"#utility.yul\":8313:8535   */\n    tag_89:\n        /* \"#utility.yul\":8406:8410   */\n      0x00\n        /* \"#utility.yul\":8444:8446   */\n      0x20\n        /* \"#utility.yul\":8433:8442   */\n      dup3\n        /* \"#utility.yul\":8429:8447   */\n      add\n        /* \"#utility.yul\":8421:8447   */\n      swap1\n      pop\n        /* \"#utility.yul\":8457:8528   */\n      tag_452\n        /* \"#utility.yul\":8525:8526   */\n      0x00\n        /* \"#utility.yul\":8514:8523   */\n      dup4\n        /* \"#utility.yul\":8510:8527   */\n      add\n        /* \"#utility.yul\":8501:8507   */\n      dup5\n        /* \"#utility.yul\":8457:8528   */\n      tag_313\n      jump\t// in\n    tag_452:\n        /* \"#utility.yul\":8313:8535   */\n      swap3\n      swap2\n      pop\n      pop\n      jump\t// out\n        /* \"#utility.yul\":8541:8659   */\n    tag_314:\n        /* \"#utility.yul\":8612:8634   */\n      tag_454\n        /* \"#utility.yul\":8628:8633   */\n      dup2\n        /* \"#utility.yul\":8612:8634   */\n      tag_302\n      jump\t// in\n    tag_454:\n        /* \"#utility.yul\":8605:8610   */\n      dup2\n        /* \"#utility.yul\":8602:8635   */\n      eq\n        /* \"#utility.yul\":8592:8653   */\n      tag_455\n      jumpi\n        /* \"#utility.yul\":8649:8650   */\n      0x00\n        /* \"#utility.yul\":8646:8647   */\n      dup1\n        /* \"#utility.yul\":8639:8651   */\n      revert\n        /* \"#utility.yul\":8592:8653   */\n    tag_455:\n        /* \"#utility.yul\":8541:8659   */\n      pop\n      jump\t// out\n        /* \"#utility.yul\":8665:8800   */\n    tag_315:\n        /* \"#utility.yul\":8709:8714   */\n      0x00\n        /* \"#utility.yul\":8747:8753   */\n      dup2\n        /* \"#utility.yul\":8734:8754   */\n      calldataload\n        /* \"#utility.yul\":8725:8754   */\n      swap1\n      pop\n        /* \"#utility.yul\":8763:8794   */\n      tag_457\n        /* \"#utility.yul\":8788:8793   */\n      dup2\n        /* \"#utility.yul\":8763:8794   */\n      tag_314\n      jump\t// in\n    tag_457:\n        /* \"#utility.yul\":8665:8800   */\n      swap3\n      swap2\n      pop\n      pop\n      jump\t// out\n        /* \"#utility.yul\":8806:9131   */\n    tag_99:\n        /* \"#utility.yul\":8863:8869   */\n      0x00\n        /* \"#utility.yul\":8912:8914   */\n      0x20\n        /* \"#utility.yul\":8900:8909   */\n      dup3\n        /* \"#utility.yul\":8891:8898   */\n      dup5\n        /* \"#utility.yul\":8887:8910   */\n      sub\n        /* \"#utility.yul\":8883:8915   */\n      slt\n        /* \"#utility.yul\":8880:8999   */\n      iszero\n      tag_459\n      jumpi\n        /* \"#utility.yul\":8918:8997   */\n      tag_460\n      tag_290\n      jump\t// in\n    tag_460:\n        /* \"#utility.yul\":8880:8999   */\n    tag_459:\n        /* \"#utility.yul\":9038:9039   */\n      0x00\n        /* \"#utility.yul\":9063:9114   */\n      tag_461\n        /* \"#utility.yul\":9106:9113   */\n      dup5\n        /* \"#utility.yul\":9097:9103   */\n      dup3\n        /* \"#utility.yul\":9086:9095   */\n      dup6\n        /* \"#utility.yul\":9082:9104   */\n      add\n        /* \"#utility.yul\":9063:9114   */\n      tag_315\n      jump\t// in\n    tag_461:\n        /* \"#utility.yul\":9053:9114   */\n      swap2\n      pop\n        /* \"#utility.yul\":9009:9124   */\n      pop\n        /* \"#utility.yul\":8806:9131   */\n      swap3\n      swap2\n      pop\n      pop\n      jump\t// out\n        /* \"#utility.yul\":9137:9611   */\n    tag_103:\n        /* \"#utility.yul\":9205:9211   */\n      0x00\n        /* \"#utility.yul\":9213:9219   */\n      dup1\n        /* \"#utility.yul\":9262:9264   */\n      0x40\n        /* \"#utility.yul\":9250:9259   */\n      dup4\n        /* \"#utility.yul\":9241:9248   */\n      dup6\n        /* \"#utility.yul\":9237:9260   */\n      sub\n        /* \"#utility.yul\":9233:9265   */\n      slt\n        /* \"#utility.yul\":9230:9349   */\n      iszero\n      tag_463\n      jumpi\n        /* \"#utility.yul\":9268:9347   */\n      tag_464\n      tag_290\n      jump\t// in\n    tag_464:\n        /* \"#utility.yul\":9230:9349   */\n    tag_463:\n        /* \"#utility.yul\":9388:9389   */\n      0x00\n        /* \"#utility.yul\":9413:9466   */\n      tag_465\n        /* \"#utility.yul\":9458:9465   */\n      dup6\n        /* \"#utility.yul\":9449:9455   */\n      dup3\n        /* \"#utility.yul\":9438:9447   */\n      dup7\n        /* \"#utility.yul\":9434:9456   */\n      add\n        /* \"#utility.yul\":9413:9466   */\n      tag_295\n      jump\t// in\n    tag_465:\n        /* \"#utility.yul\":9403:9466   */\n      swap3\n      pop\n        /* \"#utility.yul\":9359:9476   */\n      pop\n        /* \"#utility.yul\":9515:9517   */\n      0x20\n        /* \"#utility.yul\":9541:9594   */\n      tag_466\n        /* \"#utility.yul\":9586:9593   */\n      dup6\n        /* \"#utility.yul\":9577:9583   */\n      dup3\n        /* \"#utility.yul\":9566:9575   */\n      dup7\n        /* \"#utility.yul\":9562:9584   */\n      add\n        /* \"#utility.yul\":9541:9594   */\n      tag_295\n      jump\t// in\n    tag_466:\n        /* \"#utility.yul\":9531:9594   */\n      swap2\n      pop\n        /* \"#utility.yul\":9486:9604   */\n      pop\n        /* \"#utility.yul\":9137:9611   */\n      swap3\n      pop\n      swap3\n      swap1\n      pop\n      jump\t// out\n        /* \"#utility.yul\":9617:9733   */\n    tag_316:\n        /* \"#utility.yul\":9687:9708   */\n      tag_468\n        /* \"#utility.yul\":9702:9707   */\n      dup2\n        /* \"#utility.yul\":9687:9708   */\n      tag_299\n      jump\t// in\n    tag_468:\n        /* \"#utility.yul\":9680:9685   */\n      dup2\n        /* \"#utility.yul\":9677:9709   */\n      eq\n        /* \"#utility.yul\":9667:9727   */\n      tag_469\n      jumpi\n        /* \"#utility.yul\":9723:9724   */\n      0x00\n        /* \"#utility.yul\":9720:9721   */\n      dup1\n        /* \"#utility.yul\":9713:9725   */\n      revert\n        /* \"#utility.yul\":9667:9727   */\n    tag_469:\n        /* \"#utility.yul\":9617:9733   */\n      pop\n      jump\t// out\n        /* \"#utility.yul\":9739:9872   */\n    tag_317:\n        /* \"#utility.yul\":9782:9787   */\n      0x00\n        /* \"#utility.yul\":9820:9826   */\n      dup2\n        /* \"#utility.yul\":9807:9827   */\n      calldataload\n        /* \"#utility.yul\":9798:9827   */\n      swap1\n      pop\n        /* \"#utility.yul\":9836:9866   */\n      tag_471\n        /* \"#utility.yul\":9860:9865   */\n      dup2\n        /* \"#utility.yul\":9836:9866   */\n      tag_316\n      jump\t// in\n    tag_471:\n        /* \"#utility.yul\":9739:9872   */\n      swap3\n      swap2\n      pop\n      pop\n      jump\t// out\n        /* \"#utility.yul\":9878:10346   */\n    tag_108:\n        /* \"#utility.yul\":9943:9949   */\n      0x00\n        /* \"#utility.yul\":9951:9957   */\n      dup1\n        /* \"#utility.yul\":10000:10002   */\n      0x40\n        /* \"#utility.yul\":9988:9997   */\n      dup4\n        /* \"#utility.yul\":9979:9986   */\n      dup6\n        /* \"#utility.yul\":9975:9998   */\n      sub\n        /* \"#utility.yul\":9971:10003   */\n      slt\n        /* \"#utility.yul\":9968:10087   */\n      iszero\n      tag_473\n      jumpi\n        /* \"#utility.yul\":10006:10085   */\n      tag_474\n      tag_290\n      jump\t// in\n    tag_474:\n        /* \"#utility.yul\":9968:10087   */\n    tag_473:\n        /* \"#utility.yul\":10126:10127   */\n      0x00\n        /* \"#utility.yul\":10151:10201   */\n      tag_475\n        /* \"#utility.yul\":10193:10200   */\n      dup6\n        /* \"#utility.yul\":10184:10190   */\n      dup3\n        /* \"#utility.yul\":10173:10182   */\n      dup7\n        /* \"#utility.yul\":10169:10191   */\n      add\n        /* \"#utility.yul\":10151:10201   */\n      tag_317\n      jump\t// in\n    tag_475:\n        /* \"#utility.yul\":10141:10201   */\n      swap3\n      pop\n        /* \"#utility.yul\":10097:10211   */\n      pop\n        /* \"#utility.yul\":10250:10252   */\n      0x20\n        /* \"#utility.yul\":10276:10329   */\n      tag_476\n        /* \"#utility.yul\":10321:10328   */\n      dup6\n        /* \"#utility.yul\":10312:10318   */\n      dup3\n        /* \"#utility.yul\":10301:10310   */\n      dup7\n        /* \"#utility.yul\":10297:10319   */\n      add\n        /* \"#utility.yul\":10276:10329   */\n      tag_298\n      jump\t// in\n    tag_476:\n        /* \"#utility.yul\":10266:10329   */\n      swap2\n      pop\n        /* \"#utility.yul\":10221:10339   */\n      pop\n        /* \"#utility.yul\":9878:10346   */\n      swap3\n      pop\n      swap3\n      swap1\n      pop\n      jump\t// out\n        /* \"#utility.yul\":10352:10877   */\n    tag_119:\n        /* \"#utility.yul\":10517:10521   */\n      0x00\n        /* \"#utility.yul\":10555:10557   */\n      0x60\n        /* \"#utility.yul\":10544:10553   */\n      dup3\n        /* \"#utility.yul\":10540:10558   */\n      add\n        /* \"#utility.yul\":10532:10558   */\n      swap1\n      pop\n        /* \"#utility.yul\":10604:10613   */\n      dup2\n        /* \"#utility.yul\":10598:10602   */\n      dup2\n        /* \"#utility.yul\":10594:10614   */\n      sub\n        /* \"#utility.yul\":10590:10591   */\n      0x00\n        /* \"#utility.yul\":10579:10588   */\n      dup4\n        /* \"#utility.yul\":10575:10592   */\n      add\n        /* \"#utility.yul\":10568:10615   */\n      mstore\n        /* \"#utility.yul\":10632:10710   */\n      tag_478\n        /* \"#utility.yul\":10705:10709   */\n      dup2\n        /* \"#utility.yul\":10696:10702   */\n      dup7\n        /* \"#utility.yul\":10632:10710   */\n      tag_288\n      jump\t// in\n    tag_478:\n        /* \"#utility.yul\":10624:10710   */\n      swap1\n      pop\n        /* \"#utility.yul\":10720:10788   */\n      tag_479\n        /* \"#utility.yul\":10784:10786   */\n      0x20\n        /* \"#utility.yul\":10773:10782   */\n      dup4\n        /* \"#utility.yul\":10769:10787   */\n      add\n        /* \"#utility.yul\":10760:10766   */\n      dup6\n        /* \"#utility.yul\":10720:10788   */\n      tag_303\n      jump\t// in\n    tag_479:\n        /* \"#utility.yul\":10798:10870   */\n      tag_480\n        /* \"#utility.yul\":10866:10868   */\n      0x40\n        /* \"#utility.yul\":10855:10864   */\n      dup4\n        /* \"#utility.yul\":10851:10869   */\n      add\n        /* \"#utility.yul\":10842:10848   */\n      dup5\n        /* \"#utility.yul\":10798:10870   */\n      tag_301\n      jump\t// in\n    tag_480:\n        /* \"#utility.yul\":10352:10877   */\n      swap5\n      swap4\n      pop\n      pop\n      pop\n      pop\n      jump\t// out\n        /* \"#utility.yul\":10883:11063   */\n    tag_318:\n        /* \"#utility.yul\":10931:11008   */\n      0x4e487b7100000000000000000000000000000000000000000000000000000000\n        /* \"#utility.yul\":10928:10929   */\n      0x00\n        /* \"#utility.yul\":10921:11009   */\n      mstore\n        /* \"#utility.yul\":11028:11032   */\n      0x22\n        /* \"#utility.yul\":11025:11026   */\n      0x04\n        /* \"#utility.yul\":11018:11033   */\n      mstore\n        /* \"#utility.yul\":11052:11056   */\n      0x24\n        /* \"#utility.yul\":11049:11050   */\n      0x00\n        /* \"#utility.yul\":11042:11057   */\n      revert\n        /* \"#utility.yul\":11069:11389   */\n    tag_122:\n        /* \"#utility.yul\":11113:11119   */\n      0x00\n        /* \"#utility.yul\":11150:11151   */\n      0x02\n        /* \"#utility.yul\":11144:11148   */\n      dup3\n        /* \"#utility.yul\":11140:11152   */\n      div\n        /* \"#utility.yul\":11130:11152   */\n      swap1\n      pop\n        /* \"#utility.yul\":11197:11198   */\n      0x01\n        /* \"#utility.yul\":11191:11195   */\n      dup3\n        /* \"#utility.yul\":11187:11199   */\n      and\n        /* \"#utility.yul\":11218:11236   */\n      dup1\n        /* \"#utility.yul\":11208:11289   */\n      tag_483\n      jumpi\n        /* \"#utility.yul\":11274:11278   */\n      0x7f\n        /* \"#utility.yul\":11266:11272   */\n      dup3\n        /* \"#utility.yul\":11262:11279   */\n      and\n        /* \"#utility.yul\":11252:11279   */\n      swap2\n      pop\n        /* \"#utility.yul\":11208:11289   */\n    tag_483:\n        /* \"#utility.yul\":11336:11338   */\n      0x20\n        /* \"#utility.yul\":11328:11334   */\n      dup3\n        /* \"#utility.yul\":11325:11339   */\n      lt\n        /* \"#utility.yul\":11305:11323   */\n      dup2\n        /* \"#utility.yul\":11302:11340   */\n      sub\n        /* \"#utility.yul\":11299:11383   */\n      tag_484\n      jumpi\n        /* \"#utility.yul\":11355:11373   */\n      tag_485\n      tag_318\n      jump\t// in\n    tag_485:\n        /* \"#utility.yul\":11299:11383   */\n    tag_484:\n        /* \"#utility.yul\":11120:11389   */\n      pop\n        /* \"#utility.yul\":11069:11389   */\n      swap2\n      swap1\n      pop\n      jump\t// out\n        /* \"#utility.yul\":11395:11565   */\n    tag_319:\n        /* \"#utility.yul\":11535:11557   */\n      0x496e73756666696369656e742062616c616e6365000000000000000000000000\n        /* \"#utility.yul\":11531:11532   */\n      0x00\n        /* \"#utility.yul\":11523:11529   */\n      dup3\n        /* \"#utility.yul\":11519:11533   */\n      add\n        /* \"#utility.yul\":11512:11558   */\n      mstore\n        /* \"#utility.yul\":11395:11565   */\n      pop\n      jump\t// out\n        /* \"#utility.yul\":11571:11937   */\n    tag_320:\n        /* \"#utility.yul\":11713:11716   */\n      0x00\n        /* \"#utility.yul\":11734:11801   */\n      tag_488\n        /* \"#utility.yul\":11798:11800   */\n      0x14\n        /* \"#utility.yul\":11793:11796   */\n      dup4\n        /* \"#utility.yul\":11734:11801   */\n      tag_285\n      jump\t// in\n    tag_488:\n        /* \"#utility.yul\":11727:11801   */\n      swap2\n      pop\n        /* \"#utility.yul\":11810:11903   */\n      tag_489\n        /* \"#utility.yul\":11899:11902   */\n      dup3\n        /* \"#utility.yul\":11810:11903   */\n      tag_319\n      jump\t// in\n    tag_489:\n        /* \"#utility.yul\":11928:11930   */\n      0x20\n        /* \"#utility.yul\":11923:11926   */\n      dup3\n        /* \"#utility.yul\":11919:11931   */\n      add\n        /* \"#utility.yul\":11912:11931   */\n      swap1\n      pop\n        /* \"#utility.yul\":11571:11937   */\n      swap2\n      swap1\n      pop\n      jump\t// out\n        /* \"#utility.yul\":11943:12362   */\n    tag_136:\n        /* \"#utility.yul\":12109:12113   */\n      0x00\n        /* \"#utility.yul\":12147:12149   */\n      0x20\n        /* \"#utility.yul\":12136:12145   */\n      dup3\n        /* \"#utility.yul\":12132:12150   */\n      add\n        /* \"#utility.yul\":12124:12150   */\n      swap1\n      pop\n        /* \"#utility.yul\":12196:12205   */\n      dup2\n        /* \"#utility.yul\":12190:12194   */\n      dup2\n        /* \"#utility.yul\":12186:12206   */\n      sub\n        /* \"#utility.yul\":12182:12183   */\n      0x00\n        /* \"#utility.yul\":12171:12180   */\n      dup4\n        /* \"#utility.yul\":12167:12184   */\n      add\n        /* \"#utility.yul\":12160:12207   */\n      mstore\n        /* \"#utility.yul\":12224:12355   */\n      tag_491\n        /* \"#utility.yul\":12350:12354   */\n      dup2\n        /* \"#utility.yul\":12224:12355   */\n      tag_320\n      jump\t// in\n    tag_491:\n        /* \"#utility.yul\":12216:12355   */\n      swap1\n      pop\n        /* \"#utility.yul\":11943:12362   */\n      swap2\n      swap1\n      pop\n      jump\t// out\n        /* \"#utility.yul\":12368:12509   */\n    tag_321:\n        /* \"#utility.yul\":12417:12421   */\n      0x00\n        /* \"#utility.yul\":12440:12443   */\n      dup2\n        /* \"#utility.yul\":12432:12443   */\n      swap1\n      pop\n        /* \"#utility.yul\":12463:12466   */\n      dup2\n        /* \"#utility.yul\":12460:12461   */\n      0x00\n        /* \"#utility.yul\":12453:12467   */\n      mstore\n        /* \"#utility.yul\":12497:12501   */\n      0x20\n        /* \"#utility.yul\":12494:12495   */\n      0x00\n        /* \"#utility.yul\":12484:12502   */\n      keccak256\n        /* \"#utility.yul\":12476:12502   */\n      swap1\n      pop\n        /* \"#utility.yul\":12368:12509   */\n      swap2\n      swap1\n      pop\n      jump\t// out\n        /* \"#utility.yul\":12515:12608   */\n    tag_322:\n        /* \"#utility.yul\":12552:12558   */\n      0x00\n        /* \"#utility.yul\":12599:12601   */\n      0x20\n        /* \"#utility.yul\":12594:12596   */\n      0x1f\n        /* \"#utility.yul\":12587:12592   */\n      dup4\n        /* \"#utility.yul\":12583:12597   */\n      add\n        /* \"#utility.yul\":12579:12602   */\n      div\n        /* \"#utility.yul\":12569:12602   */\n      swap1\n      pop\n        /* \"#utility.yul\":12515:12608   */\n      swap2\n      swap1\n      pop\n      jump\t// out\n        /* \"#utility.yul\":12614:12721   */\n    tag_323:\n        /* \"#utility.yul\":12658:12666   */\n      0x00\n        /* \"#utility.yul\":12708:12713   */\n      dup3\n        /* \"#utility.yul\":12702:12706   */\n      dup3\n        /* \"#utility.yul\":12698:12714   */\n      shl\n        /* \"#utility.yul\":12677:12714   */\n      swap1\n      pop\n        /* \"#utility.yul\":12614:12721   */\n      swap3\n      swap2\n      pop\n      pop\n      jump\t// out\n        /* \"#utility.yul\":12727:13120   */\n    tag_324:\n        /* \"#utility.yul\":12796:12802   */\n      0x00\n        /* \"#utility.yul\":12846:12847   */\n      0x08\n        /* \"#utility.yul\":12834:12844   */\n      dup4\n        /* \"#utility.yul\":12830:12848   */\n      mul\n        /* \"#utility.yul\":12869:12966   */\n      tag_496\n        /* \"#utility.yul\":12899:12965   */\n      0xffffffffffffffffffffffffffffffffffffffffffffffffffffffffffffffff\n        /* \"#utility.yul\":12888:12897   */\n      dup3\n        /* \"#utility.yul\":12869:12966   */\n      tag_323\n      jump\t// in\n    tag_496:\n        /* \"#utility.yul\":12987:13026   */\n      tag_497\n        /* \"#utility.yul\":13017:13025   */\n      dup7\n        /* \"#utility.yul\":13006:13015   */\n      dup4\n        /* \"#utility.yul\":12987:13026   */\n      tag_323\n      jump\t// in\n    tag_497:\n        /* \"#utility.yul\":12975:13026   */\n      swap6\n      pop\n        /* \"#utility.yul\":13059:13063   */\n      dup1\n        /* \"#utility.yul\":13055:13064   */\n      not\n        /* \"#utility.yul\":13048:13053   */\n      dup5\n        /* \"#utility.yul\":13044:13065   */\n      and\n        /* \"#utility.yul\":13035:13065   */\n      swap4\n      pop\n        /* \"#utility.yul\":13108:13112   */\n      dup1\n        /* \"#utility.yul\":13098:13106   */\n      dup7\n        /* \"#utility.yul\":13094:13113   */\n      and\n        /* \"#utility.yul\":13087:13092   */\n      dup5\n        /* \"#utility.yul\":13084:13114   */\n      or\n        /* \"#utility.yul\":13074:13114   */\n      swap3\n      pop\n        /* \"#utility.yul\":12803:13120   */\n      pop\n      pop\n        /* \"#utility.yul\":12727:13120   */\n      swap4\n      swap3\n      pop\n      pop\n      pop\n      jump\t// out\n        /* \"#utility.yul\":13126:13186   */\n    tag_325:\n        /* \"#utility.yul\":13154:13157   */\n      0x00\n        /* \"#utility.yul\":13175:13180   */\n      dup2\n        /* \"#utility.yul\":13168:13180   */\n      swap1\n      pop\n        /* \"#utility.yul\":13126:13186   */\n      swap2\n      swap1\n      pop\n      jump\t// out\n        /* \"#utility.yul\":13192:13334   */\n    tag_326:\n        /* \"#utility.yul\":13242:13251   */\n      0x00\n        /* \"#utility.yul\":13275:13328   */\n      tag_500\n        /* \"#utility.yul\":13293:13327   */\n      tag_501\n        /* \"#utility.yul\":13302:13326   */\n      tag_502\n        /* \"#utility.yul\":13320:13325   */\n      dup5\n        /* \"#utility.yul\":13302:13326   */\n      tag_296\n      jump\t// in\n    tag_502:\n        /* \"#utility.yul\":13293:13327   */\n      tag_325\n      jump\t// in\n    tag_501:\n        /* \"#utility.yul\":13275:13328   */\n      tag_296\n      jump\t// in\n    tag_500:\n        /* \"#utility.yul\":13262:13328   */\n      swap1\n      pop\n        /* \"#utility.yul\":13192:13334   */\n      swap2\n      swap1\n      pop\n      jump\t// out\n        /* \"#utility.yul\":13340:13415   */\n    tag_327:\n        /* \"#utility.yul\":13383:13386   */\n      0x00\n        /* \"#utility.yul\":13404:13409   */\n      dup2\n        /* \"#utility.yul\":13397:13409   */\n      swap1\n      pop\n        /* \"#utility.yul\":13340:13415   */\n      swap2\n      swap1\n      pop\n      jump\t// out\n        /* \"#utility.yul\":13421:13690   */\n    tag_328:\n        /* \"#utility.yul\":13531:13570   */\n      tag_505\n        /* \"#utility.yul\":13562:13569   */\n      dup4\n        /* \"#utility.yul\":13531:13570   */\n      tag_326\n      jump\t// in\n    tag_505:\n        /* \"#utility.yul\":13592:13683   */\n      tag_506\n        /* \"#utility.yul\":13641:13682   */\n      tag_507\n        /* \"#utility.yul\":13665:13681   */\n      dup3\n        /* \"#utility.yul\":13641:13682   */\n      tag_327\n      jump\t// in\n    tag_507:\n        /* \"#utility.yul\":13633:13639   */\n      dup5\n        /* \"#utility.yul\":13626:13630   */\n      dup5\n        /* \"#utility.yul\":13620:13631   */\n      sload\n        /* \"#utility.yul\":13592:13683   */\n      tag_324\n      jump\t// in\n    tag_506:\n        /* \"#utility.yul\":13586:13590   */\n      dup3\n        /* \"#utility.yul\":13579:13684   */\n      sstore\n        /* \"#utility.yul\":13497:13690   */\n      pop\n        /* \"#utility.yul\":13421:13690   */\n      pop\n      pop\n      pop\n      jump\t// out\n        /* \"#utility.yul\":13696:13769   */\n    tag_329:\n        /* \"#utility.yul\":13741:13744   */\n      0x00\n        /* \"#utility.yul\":13696:13769   */\n      swap1\n      jump\t// out\n        /* \"#utility.yul\":13775:13964   */\n    tag_330:\n        /* \"#utility.yul\":13852:13884   */\n      tag_510\n      tag_329\n      jump\t// in\n    tag_510:\n        /* \"#utility.yul\":13893:13958   */\n      tag_511\n        /* \"#utility.yul\":13951:13957   */\n      dup2\n        /* \"#utility.yul\":13943:13949   */\n      dup5\n        /* \"#utility.yul\":13937:13941   */\n      dup5\n        /* \"#utility.yul\":13893:13958   */\n      tag_328\n      jump\t// in\n    tag_511:\n        /* \"#utility.yul\":13828:13964   */\n      pop\n        /* \"#utility.yul\":13775:13964   */\n      pop\n      pop\n      jump\t// out\n        /* \"#utility.yul\":13970:14156   */\n    tag_331:\n        /* \"#utility.yul\":14030:14150   */\n    tag_513:\n        /* \"#utility.yul\":14047:14050   */\n      dup2\n        /* \"#utility.yul\":14040:14045   */\n      dup2\n        /* \"#utility.yul\":14037:14051   */\n      lt\n        /* \"#utility.yul\":14030:14150   */\n      iszero\n      tag_515\n      jumpi\n        /* \"#utility.yul\":14101:14140   */\n      tag_516\n        /* \"#utility.yul\":14138:14139   */\n      0x00\n        /* \"#utility.yul\":14131:14136   */\n      dup3\n        /* \"#utility.yul\":14101:14140   */\n      tag_330\n      jump\t// in\n    tag_516:\n        /* \"#utility.yul\":14074:14075   */\n      0x01\n        /* \"#utility.yul\":14067:14072   */\n      dup2\n        /* \"#utility.yul\":14063:14076   */\n      add\n        /* \"#utility.yul\":14054:14076   */\n      swap1\n      pop\n        /* \"#utility.yul\":14030:14150   */\n      jump(tag_513)\n    tag_515:\n        /* \"#utility.yul\":13970:14156   */\n      pop\n      pop\n      jump\t// out\n        /* \"#utility.yul\":14162:14705   */\n    tag_332:\n        /* \"#utility.yul\":14263:14265   */\n      0x1f\n        /* \"#utility.yul\":14258:14261   */\n      dup3\n        /* \"#utility.yul\":14255:14266   */\n      gt\n        /* \"#utility.yul\":14252:14698   */\n      iszero\n      tag_518\n      jumpi\n        /* \"#utility.yul\":14297:14335   */\n      tag_519\n        /* \"#utility.yul\":14329:14334   */\n      dup2\n        /* \"#utility.yul\":14297:14335   */\n      tag_321\n      jump\t// in\n    tag_519:\n        /* \"#utility.yul\":14381:14410   */\n      tag_520\n        /* \"#utility.yul\":14399:14409   */\n      dup5\n        /* \"#utility.yul\":14381:14410   */\n      tag_322\n      jump\t// in\n    tag_520:\n        /* \"#utility.yul\":14371:14379   */\n      dup2\n        /* \"#utility.yul\":14367:14411   */\n      add\n        /* \"#utility.yul\":14564:14566   */\n      0x20\n        /* \"#utility.yul\":14552:14562   */\n      dup6\n        /* \"#utility.yul\":14549:14567   */\n      lt\n        /* \"#utility.yul\":14546:14595   */\n      iszero\n      tag_521\n      jumpi\n        /* \"#utility.yul\":14585:14593   */\n      dup2\n        /* \"#utility.yul\":14570:14593   */\n      swap1\n      pop\n        /* \"#utility.yul\":14546:14595   */\n    tag_521:\n        /* \"#utility.yul\":14608:14688   */\n      tag_522\n        /* \"#utility.yul\":14664:14686   */\n      tag_523\n        /* \"#utility.yul\":14682:14685   */\n      dup6\n        /* \"#utility.yul\":14664:14686   */\n      tag_322\n      jump\t// in\n    tag_523:\n        /* \"#utility.yul\":14654:14662   */\n      dup4\n        /* \"#utility.yul\":14650:14687   */\n      add\n        /* \"#utility.yul\":14637:14648   */\n      dup3\n        /* \"#utility.yul\":14608:14688   */\n      tag_331\n      jump\t// in\n    tag_522:\n        /* \"#utility.yul\":14267:14698   */\n      pop\n      pop\n        /* \"#utility.yul\":14252:14698   */\n    tag_518:\n        /* \"#utility.yul\":14162:14705   */\n      pop\n      pop\n      pop\n      jump\t// out\n        /* \"#utility.yul\":14711:14828   */\n    tag_333:\n        /* \"#utility.yul\":14765:14773   */\n      0x00\n        /* \"#utility.yul\":14815:14820   */\n      dup3\n        /* \"#utility.yul\":14809:14813   */\n      dup3\n        /* \"#utility.yul\":14805:14821   */\n      shr\n        /* \"#utility.yul\":14784:14821   */\n      swap1\n      pop\n        /* \"#utility.yul\":14711:14828   */\n      swap3\n      swap2\n      pop\n      pop\n      jump\t// out\n        /* \"#utility.yul\":14834:15003   */\n    tag_334:\n        /* \"#utility.yul\":14878:14884   */\n      0x00\n        /* \"#utility.yul\":14911:14962   */\n      tag_526\n        /* \"#utility.yul\":14959:14960   */\n      0x00\n        /* \"#utility.yul\":14955:14961   */\n      not\n        /* \"#utility.yul\":14947:14952   */\n      dup5\n        /* \"#utility.yul\":14944:14945   */\n      0x08\n        /* \"#utility.yul\":14940:14953   */\n      mul\n        /* \"#utility.yul\":14911:14962   */\n      tag_333\n      jump\t// in\n    tag_526:\n        /* \"#utility.yul\":14907:14963   */\n      not\n        /* \"#utility.yul\":14992:14996   */\n      dup1\n        /* \"#utility.yul\":14986:14990   */\n      dup4\n        /* \"#utility.yul\":14982:14997   */\n      and\n        /* \"#utility.yul\":14972:14997   */\n      swap2\n      pop\n        /* \"#utility.yul\":14885:15003   */\n      pop\n        /* \"#utility.yul\":14834:15003   */\n      swap3\n      swap2\n      pop\n      pop\n      jump\t// out\n        /* \"#utility.yul\":15008:15303   */\n    tag_335:\n        /* \"#utility.yul\":15084:15088   */\n      0x00\n        /* \"#utility.yul\":15230:15259   */\n      tag_528\n        /* \"#utility.yul\":15255:15258   */\n      dup4\n        /* \"#utility.yul\":15249:15253   */\n      dup4\n        /* \"#utility.yul\":15230:15259   */\n      tag_334\n      jump\t// in\n    tag_528:\n        /* \"#utility.yul\":15222:15259   */\n      swap2\n      pop\n        /* \"#utility.yul\":15292:15295   */\n      dup3\n        /* \"#utility.yul\":15289:15290   */\n      0x02\n        /* \"#utility.yul\":15285:15296   */\n      mul\n        /* \"#utility.yul\":15279:15283   */\n      dup3\n        /* \"#utility.yul\":15276:15297   */\n      or\n        /* \"#utility.yul\":15268:15297   */\n      swap1\n      pop\n        /* \"#utility.yul\":15008:15303   */\n      swap3\n      swap2\n      pop\n      pop\n      jump\t// out\n        /* \"#utility.yul\":15308:16703   */\n    tag_162:\n        /* \"#utility.yul\":15425:15462   */\n      tag_530\n        /* \"#utility.yul\":15458:15461   */\n      dup3\n        /* \"#utility.yul\":15425:15462   */\n      tag_284\n      jump\t// in\n    tag_530:\n        /* \"#utility.yul\":15527:15545   */\n      0xffffffffffffffff\n        /* \"#utility.yul\":15519:15525   */\n      dup2\n        /* \"#utility.yul\":15516:15546   */\n      gt\n        /* \"#utility.yul\":15513:15569   */\n      iszero\n      tag_531\n      jumpi\n        /* \"#utility.yul\":15549:15567   */\n      tag_532\n      tag_306\n      jump\t// in\n    tag_532:\n        /* \"#utility.yul\":15513:15569   */\n    tag_531:\n        /* \"#utility.yul\":15593:15631   */\n      tag_533\n        /* \"#utility.yul\":15625:15629   */\n      dup3\n        /* \"#utility.yul\":15619:15630   */\n      sload\n        /* \"#utility.yul\":15593:15631   */\n      tag_122\n      jump\t// in\n    tag_533:\n        /* \"#utility.yul\":15678:15745   */\n      tag_534\n        /* \"#utility.yul\":15738:15744   */\n      dup3\n        /* \"#utility.yul\":15730:15736   */\n      dup3\n        /* \"#utility.yul\":15724:15728   */\n      dup6\n        /* \"#utility.yul\":15678:15745   */\n      tag_332\n      jump\t// in\n    tag_534:\n        /* \"#utility.yul\":15772:15773   */\n      0x00\n        /* \"#utility.yul\":15796:15800   */\n      0x20\n        /* \"#utility.yul\":15783:15800   */\n      swap1\n      pop\n        /* \"#utility.yul\":15828:15830   */\n      0x1f\n        /* \"#utility.yul\":15820:15826   */\n      dup4\n        /* \"#utility.yul\":15817:15831   */\n      gt\n        /* \"#utility.yul\":15845:15846   */\n      0x01\n        /* \"#utility.yul\":15840:16458   */\n      dup2\n      eq\n      tag_536\n      jumpi\n        /* \"#utility.yul\":16502:16503   */\n      0x00\n        /* \"#utility.yul\":16519:16525   */\n      dup5\n        /* \"#utility.yul\":16516:16593   */\n      iszero\n      tag_537\n      jumpi\n        /* \"#utility.yul\":16568:16577   */\n      dup3\n        /* \"#utility.yul\":16563:16566   */\n      dup8\n        /* \"#utility.yul\":16559:16578   */\n      add\n        /* \"#utility.yul\":16553:16579   */\n      mload\n        /* \"#utility.yul\":16544:16579   */\n      swap1\n      pop\n        /* \"#utility.yul\":16516:16593   */\n    tag_537:\n        /* \"#utility.yul\":16619:16686   */\n      tag_538\n        /* \"#utility.yul\":16679:16685   */\n      dup6\n        /* \"#utility.yul\":16672:16677   */\n      dup3\n        /* \"#utility.yul\":16619:16686   */\n      tag_335\n      jump\t// in\n    tag_538:\n        /* \"#utility.yul\":16613:16617   */\n      dup7\n        /* \"#utility.yul\":16606:16687   */\n      sstore\n        /* \"#utility.yul\":16475:16697   */\n      pop\n        /* \"#utility.yul\":15810:16697   */\n      jump(tag_535)\n        /* \"#utility.yul\":15840:16458   */\n    tag_536:\n        /* \"#utility.yul\":15892:15896   */\n      0x1f\n        /* \"#utility.yul\":15888:15897   */\n      not\n        /* \"#utility.yul\":15880:15886   */\n      dup5\n        /* \"#utility.yul\":15876:15898   */\n      and\n        /* \"#utility.yul\":15926:15963   */\n      tag_539\n        /* \"#utility.yul\":15958:15962   */\n      dup7\n        /* \"#utility.yul\":15926:15963   */\n      tag_321\n      jump\t// in\n    tag_539:\n        /* \"#utility.yul\":15985:15986   */\n      0x00\n        /* \"#utility.yul\":15999:16207   */\n    tag_540:\n        /* \"#utility.yul\":16013:16020   */\n      dup3\n        /* \"#utility.yul\":16010:16011   */\n      dup2\n        /* \"#utility.yul\":16007:16021   */\n      lt\n        /* \"#utility.yul\":15999:16207   */\n      iszero\n      tag_542\n      jumpi\n        /* \"#utility.yul\":16092:16101   */\n      dup5\n        /* \"#utility.yul\":16087:16090   */\n      dup10\n        /* \"#utility.yul\":16083:16102   */\n      add\n        /* \"#utility.yul\":16077:16103   */\n      mload\n        /* \"#utility.yul\":16069:16075   */\n      dup3\n        /* \"#utility.yul\":16062:16104   */\n      sstore\n        /* \"#utility.yul\":16143:16144   */\n      0x01\n        /* \"#utility.yul\":16135:16141   */\n      dup3\n        /* \"#utility.yul\":16131:16145   */\n      add\n        /* \"#utility.yul\":16121:16145   */\n      swap2\n      pop\n        /* \"#utility.yul\":16190:16192   */\n      0x20\n        /* \"#utility.yul\":16179:16188   */\n      dup6\n        /* \"#utility.yul\":16175:16193   */\n      add\n        /* \"#utility.yul\":16162:16193   */\n      swap5\n      pop\n        /* \"#utility.yul\":16036:16040   */\n      0x20\n        /* \"#utility.yul\":16033:16034   */\n      dup2\n        /* \"#utility.yul\":16029:16041   */\n      add\n        /* \"#utility.yul\":16024:16041   */\n      swap1\n      pop\n        /* \"#utility.yul\":15999:16207   */\n      jump(tag_540)\n    tag_542:\n        /* \"#utility.yul\":16235:16241   */\n      dup7\n        /* \"#utility.yul\":16226:16233   */\n      dup4\n        /* \"#utility.yul\":16223:16242   */\n      lt\n        /* \"#utility.yul\":16220:16399   */\n      iszero\n      tag_543\n      jumpi\n        /* \"#utility.yul\":16293:16302   */\n      dup5\n        /* \"#utility.yul\":16288:16291   */\n      dup10\n        /* \"#utility.yul\":16284:16303   */\n      add\n        /* \"#utility.yul\":16278:16304   */\n      mload\n        /* \"#utility.yul\":16336:16384   */\n      tag_544\n        /* \"#utility.yul\":16378:16382   */\n      0x1f\n        /* \"#utility.yul\":16370:16376   */\n      dup10\n        /* \"#utility.yul\":16366:16383   */\n      and\n        /* \"#utility.yul\":16355:16364   */\n      dup3\n        /* \"#utility.yul\":16336:16384   */\n      tag_334\n      jump\t// in\n    tag_544:\n        /* \"#utility.yul\":16328:16334   */\n      dup4\n        /* \"#utility.yul\":16321:16385   */\n      sstore\n        /* \"#utility.yul\":16243:16399   */\n      pop\n        /* \"#utility.yul\":16220:16399   */\n    tag_543:\n        /* \"#utility.yul\":16445:16446   */\n      0x01\n        /* \"#utility.yul\":16441:16442   */\n      0x02\n        /* \"#utility.yul\":16433:16439   */\n      dup9\n        /* \"#utility.yul\":16429:16443   */\n      mul\n        /* \"#utility.yul\":16425:16447   */\n      add\n        /* \"#utility.yul\":16419:16423   */\n      dup9\n        /* \"#utility.yul\":16412:16448   */\n      sstore\n        /* \"#utility.yul\":15847:16458   */\n      pop\n      pop\n      pop\n        /* \"#utility.yul\":15810:16697   */\n    tag_535:\n      pop\n        /* \"#utility.yul\":15400:16703   */\n      pop\n      pop\n      pop\n        /* \"#utility.yul\":15308:16703   */\n      pop\n      pop\n      jump\t// out\n        /* \"#utility.yul\":16709:16889   */\n    tag_336:\n        /* \"#utility.yul\":16757:16834   */\n      0x4e487b7100000000000000000000000000000000000000000000000000000000\n        /* \"#utility.yul\":16754:16755   */\n      0x00\n        /* \"#utility.yul\":16747:16835   */\n      mstore\n        /* \"#utility.yul\":16854:16858   */\n      0x11\n        /* \"#utility.yul\":16851:16852   */\n      0x04\n        /* \"#utility.yul\":16844:16859   */\n      mstore\n        /* \"#utility.yul\":16878:16882   */\n      0x24\n        /* \"#utility.yul\":16875:16876   */\n      0x00\n        /* \"#utility.yul\":16868:16883   */\n      revert\n        /* \"#utility.yul\":16895:17062   */\n    tag_164:\n        /* \"#utility.yul\":16932:16935   */\n      0x00\n        /* \"#utility.yul\":16955:16977   */\n      tag_547\n        /* \"#utility.yul\":16971:16976   */\n      dup3\n        /* \"#utility.yul\":16955:16977   */\n      tag_302\n      jump\t// in\n    tag_547:\n        /* \"#utility.yul\":16946:16977   */\n      swap2\n      pop\n        /* \"#utility.yul\":16999:17003   */\n      0xff\n        /* \"#utility.yul\":16992:16997   */\n      dup3\n        /* \"#utility.yul\":16989:17004   */\n      sub\n        /* \"#utility.yul\":16986:17027   */\n      tag_548\n      jumpi\n        /* \"#utility.yul\":17007:17025   */\n      tag_549\n      tag_336\n      jump\t// in\n    tag_549:\n        /* \"#utility.yul\":16986:17027   */\n    tag_548:\n        /* \"#utility.yul\":17054:17055   */\n      0x01\n        /* \"#utility.yul\":17047:17052   */\n      dup3\n        /* \"#utility.yul\":17043:17056   */\n      add\n        /* \"#utility.yul\":17036:17056   */\n      swap1\n      pop\n        /* \"#utility.yul\":16895:17062   */\n      swap2\n      swap1\n      pop\n      jump\t// out\n        /* \"#utility.yul\":17068:17237   */\n    tag_337:\n        /* \"#utility.yul\":17208:17229   */\n      0x496e73756666696369656e7420616d6f756e7400000000000000000000000000\n        /* \"#utility.yul\":17204:17205   */\n      0x00\n        /* \"#utility.yul\":17196:17202   */\n      dup3\n        /* \"#utility.yul\":17192:17206   */\n      add\n        /* \"#utility.yul\":17185:17230   */\n      mstore\n        /* \"#utility.yul\":17068:17237   */\n      pop\n      jump\t// out\n        /* \"#utility.yul\":17243:17609   */\n    tag_338:\n        /* \"#utility.yul\":17385:17388   */\n      0x00\n        /* \"#utility.yul\":17406:17473   */\n      tag_552\n        /* \"#utility.yul\":17470:17472   */\n      0x13\n        /* \"#utility.yul\":17465:17468   */\n      dup4\n        /* \"#utility.yul\":17406:17473   */\n      tag_285\n      jump\t// in\n    tag_552:\n        /* \"#utility.yul\":17399:17473   */\n      swap2\n      pop\n        /* \"#utility.yul\":17482:17575   */\n      tag_553\n        /* \"#utility.yul\":17571:17574   */\n      dup3\n        /* \"#utility.yul\":17482:17575   */\n      tag_337\n      jump\t// in\n    tag_553:\n        /* \"#utility.yul\":17600:17602   */\n      0x20\n        /* \"#utility.yul\":17595:17598   */\n      dup3\n        /* \"#utility.yul\":17591:17603   */\n      add\n        /* \"#utility.yul\":17584:17603   */\n      swap1\n      pop\n        /* \"#utility.yul\":17243:17609   */\n      swap2\n      swap1\n      pop\n      jump\t// out\n        /* \"#utility.yul\":17615:18034   */\n    tag_179:\n        /* \"#utility.yul\":17781:17785   */\n      0x00\n        /* \"#utility.yul\":17819:17821   */\n      0x20\n        /* \"#utility.yul\":17808:17817   */\n      dup3\n        /* \"#utility.yul\":17804:17822   */\n      add\n        /* \"#utility.yul\":17796:17822   */\n      swap1\n      pop\n        /* \"#utility.yul\":17868:17877   */\n      dup2\n        /* \"#utility.yul\":17862:17866   */\n      dup2\n        /* \"#utility.yul\":17858:17878   */\n      sub\n        /* \"#utility.yul\":17854:17855   */\n      0x00\n        /* \"#utility.yul\":17843:17852   */\n      dup4\n        /* \"#utility.yul\":17839:17856   */\n      add\n        /* \"#utility.yul\":17832:17879   */\n      mstore\n        /* \"#utility.yul\":17896:18027   */\n      tag_555\n        /* \"#utility.yul\":18022:18026   */\n      dup2\n        /* \"#utility.yul\":17896:18027   */\n      tag_338\n      jump\t// in\n    tag_555:\n        /* \"#utility.yul\":17888:18027   */\n      swap1\n      pop\n        /* \"#utility.yul\":17615:18034   */\n      swap2\n      swap1\n      pop\n      jump\t// out\n        /* \"#utility.yul\":18040:18204   */\n    tag_339:\n        /* \"#utility.yul\":18180:18196   */\n      0x4974656d206e6f7420666f756e64000000000000000000000000000000000000\n        /* \"#utility.yul\":18176:18177   */\n      0x00\n        /* \"#utility.yul\":18168:18174   */\n      dup3\n        /* \"#utility.yul\":18164:18178   */\n      add\n        /* \"#utility.yul\":18157:18197   */\n      mstore\n        /* \"#utility.yul\":18040:18204   */\n      pop\n      jump\t// out\n        /* \"#utility.yul\":18210:18576   */\n    tag_340:\n        /* \"#utility.yul\":18352:18355   */\n      0x00\n        /* \"#utility.yul\":18373:18440   */\n      tag_558\n        /* \"#utility.yul\":18437:18439   */\n      0x0e\n        /* \"#utility.yul\":18432:18435   */\n      dup4\n        /* \"#utility.yul\":18373:18440   */\n      tag_285\n      jump\t// in\n    tag_558:\n        /* \"#utility.yul\":18366:18440   */\n      swap2\n      pop\n        /* \"#utility.yul\":18449:18542   */\n      tag_559\n        /* \"#utility.yul\":18538:18541   */\n      dup3\n        /* \"#utility.yul\":18449:18542   */\n      tag_339\n      jump\t// in\n    tag_559:\n        /* \"#utility.yul\":18567:18569   */\n      0x20\n        /* \"#utility.yul\":18562:18565   */\n      dup3\n        /* \"#utility.yul\":18558:18570   */\n      add\n        /* \"#utility.yul\":18551:18570   */\n      swap1\n      pop\n        /* \"#utility.yul\":18210:18576   */\n      swap2\n      swap1\n      pop\n      jump\t// out\n        /* \"#utility.yul\":18582:19001   */\n    tag_194:\n        /* \"#utility.yul\":18748:18752   */\n      0x00\n        /* \"#utility.yul\":18786:18788   */\n      0x20\n        /* \"#utility.yul\":18775:18784   */\n      dup3\n        /* \"#utility.yul\":18771:18789   */\n      add\n        /* \"#utility.yul\":18763:18789   */\n      swap1\n      pop\n        /* \"#utility.yul\":18835:18844   */\n      dup2\n        /* \"#utility.yul\":18829:18833   */\n      dup2\n        /* \"#utility.yul\":18825:18845   */\n      sub\n        /* \"#utility.yul\":18821:18822   */\n      0x00\n        /* \"#utility.yul\":18810:18819   */\n      dup4\n        /* \"#utility.yul\":18806:18823   */\n      add\n        /* \"#utility.yul\":18799:18846   */\n      mstore\n        /* \"#utility.yul\":18863:18994   */\n      tag_561\n        /* \"#utility.yul\":18989:18993   */\n      dup2\n        /* \"#utility.yul\":18863:18994   */\n      tag_340\n      jump\t// in\n    tag_561:\n        /* \"#utility.yul\":18855:18994   */\n      swap1\n      pop\n        /* \"#utility.yul\":18582:19001   */\n      swap2\n      swap1\n      pop\n      jump\t// out\n        /* \"#utility.yul\":19031:19862   */\n    tag_341:\n        /* \"#utility.yul\":19116:19119   */\n      0x00\n        /* \"#utility.yul\":19153:19158   */\n      dup2\n        /* \"#utility.yul\":19147:19159   */\n      sload\n        /* \"#utility.yul\":19182:19218   */\n      tag_563\n        /* \"#utility.yul\":19208:19217   */\n      dup2\n        /* \"#utility.yul\":19182:19218   */\n      tag_122\n      jump\t// in\n    tag_563:\n        /* \"#utility.yul\":19234:19305   */\n      tag_564\n        /* \"#utility.yul\":19298:19304   */\n      dup2\n        /* \"#utility.yul\":19293:19296   */\n      dup7\n        /* \"#utility.yul\":19234:19305   */\n      tag_285\n      jump\t// in\n    tag_564:\n        /* \"#utility.yul\":19227:19305   */\n      swap5\n      pop\n        /* \"#utility.yul\":19336:19337   */\n      0x01\n        /* \"#utility.yul\":19325:19334   */\n      dup3\n        /* \"#utility.yul\":19321:19338   */\n      and\n        /* \"#utility.yul\":19352:19353   */\n      0x00\n        /* \"#utility.yul\":19347:19511   */\n      dup2\n      eq\n      tag_566\n      jumpi\n        /* \"#utility.yul\":19525:19526   */\n      0x01\n        /* \"#utility.yul\":19520:19856   */\n      dup2\n      eq\n      tag_567\n      jumpi\n        /* \"#utility.yul\":19314:19856   */\n      jump(tag_565)\n        /* \"#utility.yul\":19347:19511   */\n    tag_566:\n        /* \"#utility.yul\":19431:19435   */\n      0xff\n        /* \"#utility.yul\":19427:19436   */\n      not\n        /* \"#utility.yul\":19416:19425   */\n      dup4\n        /* \"#utility.yul\":19412:19437   */\n      and\n        /* \"#utility.yul\":19407:19410   */\n      dup7\n        /* \"#utility.yul\":19400:19438   */\n      mstore\n        /* \"#utility.yul\":19491:19497   */\n      dup2\n        /* \"#utility.yul\":19484:19498   */\n      iszero\n        /* \"#utility.yul\":19477:19499   */\n      iszero\n        /* \"#utility.yul\":19471:19475   */\n      0x20\n        /* \"#utility.yul\":19467:19500   */\n      mul\n        /* \"#utility.yul\":19462:19465   */\n      dup7\n        /* \"#utility.yul\":19458:19501   */\n      add\n        /* \"#utility.yul\":19451:19501   */\n      swap4\n      pop\n        /* \"#utility.yul\":19347:19511   */\n      jump(tag_565)\n        /* \"#utility.yul\":19520:19856   */\n    tag_567:\n        /* \"#utility.yul\":19587:19625   */\n      tag_568\n        /* \"#utility.yul\":19619:19624   */\n      dup6\n        /* \"#utility.yul\":19587:19625   */\n      tag_321\n      jump\t// in\n    tag_568:\n        /* \"#utility.yul\":19647:19648   */\n      0x00\n        /* \"#utility.yul\":19661:19815   */\n    tag_569:\n        /* \"#utility.yul\":19675:19681   */\n      dup4\n        /* \"#utility.yul\":19672:19673   */\n      dup2\n        /* \"#utility.yul\":19669:19682   */\n      lt\n        /* \"#utility.yul\":19661:19815   */\n      iszero\n      tag_571\n      jumpi\n        /* \"#utility.yul\":19749:19756   */\n      dup2\n        /* \"#utility.yul\":19743:19757   */\n      sload\n        /* \"#utility.yul\":19739:19740   */\n      dup2\n        /* \"#utility.yul\":19734:19737   */\n      dup10\n        /* \"#utility.yul\":19730:19741   */\n      add\n        /* \"#utility.yul\":19723:19758   */\n      mstore\n        /* \"#utility.yul\":19799:19800   */\n      0x01\n        /* \"#utility.yul\":19790:19797   */\n      dup3\n        /* \"#utility.yul\":19786:19801   */\n      add\n        /* \"#utility.yul\":19775:19801   */\n      swap2\n      pop\n        /* \"#utility.yul\":19697:19701   */\n      0x20\n        /* \"#utility.yul\":19694:19695   */\n      dup2\n        /* \"#utility.yul\":19690:19702   */\n      add\n        /* \"#utility.yul\":19685:19702   */\n      swap1\n      pop\n        /* \"#utility.yul\":19661:19815   */\n      jump(tag_569)\n    tag_571:\n        /* \"#utility.yul\":19844:19845   */\n      dup1\n        /* \"#utility.yul\":19839:19842   */\n      dup9\n        /* \"#utility.yul\":19835:19846   */\n      add\n        /* \"#utility.yul\":19828:19846   */\n      swap6\n      pop\n        /* \"#utility.yul\":19527:19856   */\n      pop\n      pop\n        /* \"#utility.yul\":19314:19856   */\n    tag_565:\n      pop\n        /* \"#utility.yul\":19120:19862   */\n      pop\n      pop\n        /* \"#utility.yul\":19031:19862   */\n      swap3\n      swap2\n      pop\n      pop\n      jump\t// out\n        /* \"#utility.yul\":19868:20387   */\n    tag_200:\n        /* \"#utility.yul\":20030:20034   */\n      0x00\n        /* \"#utility.yul\":20068:20070   */\n      0x60\n        /* \"#utility.yul\":20057:20066   */\n      dup3\n        /* \"#utility.yul\":20053:20071   */\n      add\n        /* \"#utility.yul\":20045:20071   */\n      swap1\n      pop\n        /* \"#utility.yul\":20081:20148   */\n      tag_573\n        /* \"#utility.yul\":20145:20146   */\n      0x00\n        /* \"#utility.yul\":20134:20143   */\n      dup4\n        /* \"#utility.yul\":20130:20147   */\n      add\n        /* \"#utility.yul\":20121:20127   */\n      dup7\n        /* \"#utility.yul\":20081:20148   */\n      tag_303\n      jump\t// in\n    tag_573:\n        /* \"#utility.yul\":20195:20204   */\n      dup2\n        /* \"#utility.yul\":20189:20193   */\n      dup2\n        /* \"#utility.yul\":20185:20205   */\n      sub\n        /* \"#utility.yul\":20180:20182   */\n      0x20\n        /* \"#utility.yul\":20169:20178   */\n      dup4\n        /* \"#utility.yul\":20165:20183   */\n      add\n        /* \"#utility.yul\":20158:20206   */\n      mstore\n        /* \"#utility.yul\":20223:20298   */\n      tag_574\n        /* \"#utility.yul\":20293:20297   */\n      dup2\n        /* \"#utility.yul\":20284:20290   */\n      dup6\n        /* \"#utility.yul\":20223:20298   */\n      tag_341\n      jump\t// in\n    tag_574:\n        /* \"#utility.yul\":20215:20298   */\n      swap1\n      pop\n        /* \"#utility.yul\":20308:20380   */\n      tag_575\n        /* \"#utility.yul\":20376:20378   */\n      0x40\n        /* \"#utility.yul\":20365:20374   */\n      dup4\n        /* \"#utility.yul\":20361:20379   */\n      add\n        /* \"#utility.yul\":20352:20358   */\n      dup5\n        /* \"#utility.yul\":20308:20380   */\n      tag_301\n      jump\t// in\n    tag_575:\n        /* \"#utility.yul\":19868:20387   */\n      swap5\n      swap4\n      pop\n      pop\n      pop\n      pop\n      jump\t// out\n        /* \"#utility.yul\":20393:20472   */\n    tag_342:\n        /* \"#utility.yul\":20432:20439   */\n      0x00\n        /* \"#utility.yul\":20461:20466   */\n      dup2\n        /* \"#utility.yul\":20450:20466   */\n      swap1\n      pop\n        /* \"#utility.yul\":20393:20472   */\n      swap2\n      swap1\n      pop\n      jump\t// out\n        /* \"#utility.yul\":20478:20635   */\n    tag_343:\n        /* \"#utility.yul\":20583:20628   */\n      tag_578\n        /* \"#utility.yul\":20603:20627   */\n      tag_579\n        /* \"#utility.yul\":20621:20626   */\n      dup3\n        /* \"#utility.yul\":20603:20627   */\n      tag_296\n      jump\t// in\n    tag_579:\n        /* \"#utility.yul\":20583:20628   */\n      tag_342\n      jump\t// in\n    tag_578:\n        /* \"#utility.yul\":20578:20581   */\n      dup3\n        /* \"#utility.yul\":20571:20629   */\n      mstore\n        /* \"#utility.yul\":20478:20635   */\n      pop\n      pop\n      jump\t// out\n        /* \"#utility.yul\":20641:20735   */\n    tag_344:\n        /* \"#utility.yul\":20674:20682   */\n      0x00\n        /* \"#utility.yul\":20722:20727   */\n      dup2\n        /* \"#utility.yul\":20718:20720   */\n      0x60\n        /* \"#utility.yul\":20714:20728   */\n      shl\n        /* \"#utility.yul\":20693:20728   */\n      swap1\n      pop\n        /* \"#utility.yul\":20641:20735   */\n      swap2\n      swap1\n      pop\n      jump\t// out\n        /* \"#utility.yul\":20741:20835   */\n    tag_345:\n        /* \"#utility.yul\":20780:20787   */\n      0x00\n        /* \"#utility.yul\":20809:20829   */\n      tag_582\n        /* \"#utility.yul\":20823:20828   */\n      dup3\n        /* \"#utility.yul\":20809:20829   */\n      tag_344\n      jump\t// in\n    tag_582:\n        /* \"#utility.yul\":20798:20829   */\n      swap1\n      pop\n        /* \"#utility.yul\":20741:20835   */\n      swap2\n      swap1\n      pop\n      jump\t// out\n        /* \"#utility.yul\":20841:20941   */\n    tag_346:\n        /* \"#utility.yul\":20880:20887   */\n      0x00\n        /* \"#utility.yul\":20909:20935   */\n      tag_584\n        /* \"#utility.yul\":20929:20934   */\n      dup3\n        /* \"#utility.yul\":20909:20935   */\n      tag_345\n      jump\t// in\n    tag_584:\n        /* \"#utility.yul\":20898:20935   */\n      swap1\n      pop\n        /* \"#utility.yul\":20841:20941   */\n      swap2\n      swap1\n      pop\n      jump\t// out\n        /* \"#utility.yul\":20947:21104   */\n    tag_347:\n        /* \"#utility.yul\":21052:21097   */\n      tag_586\n        /* \"#utility.yul\":21072:21096   */\n      tag_587\n        /* \"#utility.yul\":21090:21095   */\n      dup3\n        /* \"#utility.yul\":21072:21096   */\n      tag_293\n      jump\t// in\n    tag_587:\n        /* \"#utility.yul\":21052:21097   */\n      tag_346\n      jump\t// in\n    tag_586:\n        /* \"#utility.yul\":21047:21050   */\n      dup3\n        /* \"#utility.yul\":21040:21098   */\n      mstore\n        /* \"#utility.yul\":20947:21104   */\n      pop\n      pop\n      jump\t// out\n        /* \"#utility.yul\":21110:21507   */\n    tag_204:\n        /* \"#utility.yul\":21250:21253   */\n      0x00\n        /* \"#utility.yul\":21265:21340   */\n      tag_589\n        /* \"#utility.yul\":21336:21339   */\n      dup3\n        /* \"#utility.yul\":21327:21333   */\n      dup6\n        /* \"#utility.yul\":21265:21340   */\n      tag_343\n      jump\t// in\n    tag_589:\n        /* \"#utility.yul\":21365:21367   */\n      0x20\n        /* \"#utility.yul\":21360:21363   */\n      dup3\n        /* \"#utility.yul\":21356:21368   */\n      add\n        /* \"#utility.yul\":21349:21368   */\n      swap2\n      pop\n        /* \"#utility.yul\":21378:21453   */\n      tag_590\n        /* \"#utility.yul\":21449:21452   */\n      dup3\n        /* \"#utility.yul\":21440:21446   */\n      dup5\n        /* \"#utility.yul\":21378:21453   */\n      tag_347\n      jump\t// in\n    tag_590:\n        /* \"#utility.yul\":21478:21480   */\n      0x14\n        /* \"#utility.yul\":21473:21476   */\n      dup3\n        /* \"#utility.yul\":21469:21481   */\n      add\n        /* \"#utility.yul\":21462:21481   */\n      swap2\n      pop\n        /* \"#utility.yul\":21498:21501   */\n      dup2\n        /* \"#utility.yul\":21491:21501   */\n      swap1\n      pop\n        /* \"#utility.yul\":21110:21507   */\n      swap4\n      swap3\n      pop\n      pop\n      pop\n      jump\t// out\n        /* \"#utility.yul\":21513:21693   */\n    tag_348:\n        /* \"#utility.yul\":21561:21638   */\n      0x4e487b7100000000000000000000000000000000000000000000000000000000\n        /* \"#utility.yul\":21558:21559   */\n      0x00\n        /* \"#utility.yul\":21551:21639   */\n      mstore\n        /* \"#utility.yul\":21658:21662   */\n      0x12\n        /* \"#utility.yul\":21655:21656   */\n      0x04\n        /* \"#utility.yul\":21648:21663   */\n      mstore\n        /* \"#utility.yul\":21682:21686   */\n      0x24\n        /* \"#utility.yul\":21679:21680   */\n      0x00\n        /* \"#utility.yul\":21672:21687   */\n      revert\n        /* \"#utility.yul\":21699:21875   */\n    tag_206:\n        /* \"#utility.yul\":21731:21732   */\n      0x00\n        /* \"#utility.yul\":21748:21768   */\n      tag_593\n        /* \"#utility.yul\":21766:21767   */\n      dup3\n        /* \"#utility.yul\":21748:21768   */\n      tag_296\n      jump\t// in\n    tag_593:\n        /* \"#utility.yul\":21743:21768   */\n      swap2\n      pop\n        /* \"#utility.yul\":21782:21802   */\n      tag_594\n        /* \"#utility.yul\":21800:21801   */\n      dup4\n        /* \"#utility.yul\":21782:21802   */\n      tag_296\n      jump\t// in\n    tag_594:\n        /* \"#utility.yul\":21777:21802   */\n      swap3\n      pop\n        /* \"#utility.yul\":21821:21822   */\n      dup3\n        /* \"#utility.yul\":21811:21846   */\n      tag_595\n      jumpi\n        /* \"#utility.yul\":21826:21844   */\n      tag_596\n      tag_348\n      jump\t// in\n    tag_596:\n        /* \"#utility.yul\":21811:21846   */\n    tag_595:\n        /* \"#utility.yul\":21867:21868   */\n      dup3\n        /* \"#utility.yul\":21864:21865   */\n      dup3\n        /* \"#utility.yul\":21860:21869   */\n      mod\n        /* \"#utility.yul\":21855:21869   */\n      swap1\n      pop\n        /* \"#utility.yul\":21699:21875   */\n      swap3\n      swap2\n      pop\n      pop\n      jump\t// out\n        /* \"#utility.yul\":21881:22291   */\n    tag_210:\n        /* \"#utility.yul\":21921:21928   */\n      0x00\n        /* \"#utility.yul\":21944:21964   */\n      tag_598\n        /* \"#utility.yul\":21962:21963   */\n      dup3\n        /* \"#utility.yul\":21944:21964   */\n      tag_296\n      jump\t// in\n    tag_598:\n        /* \"#utility.yul\":21939:21964   */\n      swap2\n      pop\n        /* \"#utility.yul\":21978:21998   */\n      tag_599\n        /* \"#utility.yul\":21996:21997   */\n      dup4\n        /* \"#utility.yul\":21978:21998   */\n      tag_296\n      jump\t// in\n    tag_599:\n        /* \"#utility.yul\":21973:21998   */\n      swap3\n      pop\n        /* \"#utility.yul\":22033:22034   */\n      dup3\n        /* \"#utility.yul\":22030:22031   */\n      dup3\n        /* \"#utility.yul\":22026:22035   */\n      mul\n        /* \"#utility.yul\":22055:22085   */\n      tag_600\n        /* \"#utility.yul\":22073:22084   */\n      dup2\n        /* \"#utility.yul\":22055:22085   */\n      tag_296\n      jump\t// in\n    tag_600:\n        /* \"#utility.yul\":22044:22085   */\n      swap2\n      pop\n        /* \"#utility.yul\":22234:22235   */\n      dup3\n        /* \"#utility.yul\":22225:22232   */\n      dup3\n        /* \"#utility.yul\":22221:22236   */\n      div\n        /* \"#utility.yul\":22218:22219   */\n      dup5\n        /* \"#utility.yul\":22215:22237   */\n      eq\n        /* \"#utility.yul\":22195:22196   */\n      dup4\n        /* \"#utility.yul\":22188:22197   */\n      iszero\n        /* \"#utility.yul\":22168:22251   */\n      or\n        /* \"#utility.yul\":22145:22284   */\n      tag_601\n      jumpi\n        /* \"#utility.yul\":22264:22282   */\n      tag_602\n      tag_336\n      jump\t// in\n    tag_602:\n        /* \"#utility.yul\":22145:22284   */\n    tag_601:\n        /* \"#utility.yul\":21929:22291   */\n      pop\n        /* \"#utility.yul\":21881:22291   */\n      swap3\n      swap2\n      pop\n      pop\n      jump\t// out\n        /* \"#utility.yul\":22297:22450   */\n    tag_349:\n        /* \"#utility.yul\":22437:22442   */\n      0x776f6e0000000000000000000000000000000000000000000000000000000000\n        /* \"#utility.yul\":22433:22434   */\n      0x00\n        /* \"#utility.yul\":22425:22431   */\n      dup3\n        /* \"#utility.yul\":22421:22435   */\n      add\n        /* \"#utility.yul\":22414:22443   */\n      mstore\n        /* \"#utility.yul\":22297:22450   */\n      pop\n      jump\t// out\n        /* \"#utility.yul\":22456:22821   */\n    tag_350:\n        /* \"#utility.yul\":22598:22601   */\n      0x00\n        /* \"#utility.yul\":22619:22685   */\n      tag_605\n        /* \"#utility.yul\":22683:22684   */\n      0x03\n        /* \"#utility.yul\":22678:22681   */\n      dup4\n        /* \"#utility.yul\":22619:22685   */\n      tag_285\n      jump\t// in\n    tag_605:\n        /* \"#utility.yul\":22612:22685   */\n      swap2\n      pop\n        /* \"#utility.yul\":22694:22787   */\n      tag_606\n        /* \"#utility.yul\":22783:22786   */\n      dup3\n        /* \"#utility.yul\":22694:22787   */\n      tag_349\n      jump\t// in\n    tag_606:\n        /* \"#utility.yul\":22812:22814   */\n      0x20\n        /* \"#utility.yul\":22807:22810   */\n      dup3\n        /* \"#utility.yul\":22803:22815   */\n      add\n        /* \"#utility.yul\":22796:22815   */\n      swap1\n      pop\n        /* \"#utility.yul\":22456:22821   */\n      swap2\n      swap1\n      pop\n      jump\t// out\n        /* \"#utility.yul\":22827:23454   */\n    tag_212:\n        /* \"#utility.yul\":23043:23047   */\n      0x00\n        /* \"#utility.yul\":23081:23083   */\n      0x60\n        /* \"#utility.yul\":23070:23079   */\n      dup3\n        /* \"#utility.yul\":23066:23084   */\n      add\n        /* \"#utility.yul\":23058:23084   */\n      swap1\n      pop\n        /* \"#utility.yul\":23094:23165   */\n      tag_608\n        /* \"#utility.yul\":23162:23163   */\n      0x00\n        /* \"#utility.yul\":23151:23160   */\n      dup4\n        /* \"#utility.yul\":23147:23164   */\n      add\n        /* \"#utility.yul\":23138:23144   */\n      dup6\n        /* \"#utility.yul\":23094:23165   */\n      tag_301\n      jump\t// in\n    tag_608:\n        /* \"#utility.yul\":23175:23241   */\n      tag_609\n        /* \"#utility.yul\":23237:23239   */\n      0x20\n        /* \"#utility.yul\":23226:23235   */\n      dup4\n        /* \"#utility.yul\":23222:23240   */\n      add\n        /* \"#utility.yul\":23213:23219   */\n      dup5\n        /* \"#utility.yul\":23175:23241   */\n      tag_300\n      jump\t// in\n    tag_609:\n        /* \"#utility.yul\":23288:23297   */\n      dup2\n        /* \"#utility.yul\":23282:23286   */\n      dup2\n        /* \"#utility.yul\":23278:23298   */\n      sub\n        /* \"#utility.yul\":23273:23275   */\n      0x40\n        /* \"#utility.yul\":23262:23271   */\n      dup4\n        /* \"#utility.yul\":23258:23276   */\n      add\n        /* \"#utility.yul\":23251:23299   */\n      mstore\n        /* \"#utility.yul\":23316:23447   */\n      tag_610\n        /* \"#utility.yul\":23442:23446   */\n      dup2\n        /* \"#utility.yul\":23316:23447   */\n      tag_350\n      jump\t// in\n    tag_610:\n        /* \"#utility.yul\":23308:23447   */\n      swap1\n      pop\n        /* \"#utility.yul\":22827:23454   */\n      swap4\n      swap3\n      pop\n      pop\n      pop\n      jump\t// out\n        /* \"#utility.yul\":23460:23614   */\n    tag_351:\n        /* \"#utility.yul\":23600:23606   */\n      0x6c6f737400000000000000000000000000000000000000000000000000000000\n        /* \"#utility.yul\":23596:23597   */\n      0x00\n        /* \"#utility.yul\":23588:23594   */\n      dup3\n        /* \"#utility.yul\":23584:23598   */\n      add\n        /* \"#utility.yul\":23577:23607   */\n      mstore\n        /* \"#utility.yul\":23460:23614   */\n      pop\n      jump\t// out\n        /* \"#utility.yul\":23620:23985   */\n    tag_352:\n        /* \"#utility.yul\":23762:23765   */\n      0x00\n        /* \"#utility.yul\":23783:23849   */\n      tag_613\n        /* \"#utility.yul\":23847:23848   */\n      0x04\n        /* \"#utility.yul\":23842:23845   */\n      dup4\n        /* \"#utility.yul\":23783:23849   */\n      tag_285\n      jump\t// in\n    tag_613:\n        /* \"#utility.yul\":23776:23849   */\n      swap2\n      pop\n        /* \"#utility.yul\":23858:23951   */\n      tag_614\n        /* \"#utility.yul\":23947:23950   */\n      dup3\n        /* \"#utility.yul\":23858:23951   */\n      tag_351\n      jump\t// in\n    tag_614:\n        /* \"#utility.yul\":23976:23978   */\n      0x20\n        /* \"#utility.yul\":23971:23974   */\n      dup3\n        /* \"#utility.yul\":23967:23979   */\n      add\n        /* \"#utility.yul\":23960:23979   */\n      swap1\n      pop\n        /* \"#utility.yul\":23620:23985   */\n      swap2\n      swap1\n      pop\n      jump\t// out\n        /* \"#utility.yul\":23991:24618   */\n    tag_216:\n        /* \"#utility.yul\":24207:24211   */\n      0x00\n        /* \"#utility.yul\":24245:24247   */\n      0x60\n        /* \"#utility.yul\":24234:24243   */\n      dup3\n        /* \"#utility.yul\":24230:24248   */\n      add\n        /* \"#utility.yul\":24222:24248   */\n      swap1\n      pop\n        /* \"#utility.yul\":24258:24329   */\n      tag_616\n        /* \"#utility.yul\":24326:24327   */\n      0x00\n        /* \"#utility.yul\":24315:24324   */\n      dup4\n        /* \"#utility.yul\":24311:24328   */\n      add\n        /* \"#utility.yul\":24302:24308   */\n      dup6\n        /* \"#utility.yul\":24258:24329   */\n      tag_301\n      jump\t// in\n    tag_616:\n        /* \"#utility.yul\":24339:24405   */\n      tag_617\n        /* \"#utility.yul\":24401:24403   */\n      0x20\n        /* \"#utility.yul\":24390:24399   */\n      dup4\n        /* \"#utility.yul\":24386:24404   */\n      add\n        /* \"#utility.yul\":24377:24383   */\n      dup5\n        /* \"#utility.yul\":24339:24405   */\n      tag_300\n      jump\t// in\n    tag_617:\n        /* \"#utility.yul\":24452:24461   */\n      dup2\n        /* \"#utility.yul\":24446:24450   */\n      dup2\n        /* \"#utility.yul\":24442:24462   */\n      sub\n        /* \"#utility.yul\":24437:24439   */\n      0x40\n        /* \"#utility.yul\":24426:24435   */\n      dup4\n        /* \"#utility.yul\":24422:24440   */\n      add\n        /* \"#utility.yul\":24415:24463   */\n      mstore\n        /* \"#utility.yul\":24480:24611   */\n      tag_618\n        /* \"#utility.yul\":24606:24610   */\n      dup2\n        /* \"#utility.yul\":24480:24611   */\n      tag_352\n      jump\t// in\n    tag_618:\n        /* \"#utility.yul\":24472:24611   */\n      swap1\n      pop\n        /* \"#utility.yul\":23991:24618   */\n      swap4\n      swap3\n      pop\n      pop\n      pop\n      jump\t// out\n        /* \"#utility.yul\":24624:24852   */\n    tag_353:\n        /* \"#utility.yul\":24764:24798   */\n      0x596f7527766520616c726561647920636c61696d656420796f75722077656c63\n        /* \"#utility.yul\":24760:24761   */\n      0x00\n        /* \"#utility.yul\":24752:24758   */\n      dup3\n        /* \"#utility.yul\":24748:24762   */\n      add\n        /* \"#utility.yul\":24741:24799   */\n      mstore\n        /* \"#utility.yul\":24833:24844   */\n      0x6f6d6520626f6e75730000000000000000000000000000000000000000000000\n        /* \"#utility.yul\":24828:24830   */\n      0x20\n        /* \"#utility.yul\":24820:24826   */\n      dup3\n        /* \"#utility.yul\":24816:24831   */\n      add\n        /* \"#utility.yul\":24809:24845   */\n      mstore\n        /* \"#utility.yul\":24624:24852   */\n      pop\n      jump\t// out\n        /* \"#utility.yul\":24858:25224   */\n    tag_354:\n        /* \"#utility.yul\":25000:25003   */\n      0x00\n        /* \"#utility.yul\":25021:25088   */\n      tag_621\n        /* \"#utility.yul\":25085:25087   */\n      0x29\n        /* \"#utility.yul\":25080:25083   */\n      dup4\n        /* \"#utility.yul\":25021:25088   */\n      tag_285\n      jump\t// in\n    tag_621:\n        /* \"#utility.yul\":25014:25088   */\n      swap2\n      pop\n        /* \"#utility.yul\":25097:25190   */\n      tag_622\n        /* \"#utility.yul\":25186:25189   */\n      dup3\n        /* \"#utility.yul\":25097:25190   */\n      tag_353\n      jump\t// in\n    tag_622:\n        /* \"#utility.yul\":25215:25217   */\n      0x40\n        /* \"#utility.yul\":25210:25213   */\n      dup3\n        /* \"#utility.yul\":25206:25218   */\n      add\n        /* \"#utility.yul\":25199:25218   */\n      swap1\n      pop\n        /* \"#utility.yul\":24858:25224   */\n      swap2\n      swap1\n      pop\n      jump\t// out\n        /* \"#utility.yul\":25230:25649   */\n    tag_227:\n        /* \"#utility.yul\":25396:25400   */\n      0x00\n        /* \"#utility.yul\":25434:25436   */\n      0x20\n        /* \"#utility.yul\":25423:25432   */\n      dup3\n        /* \"#utility.yul\":25419:25437   */\n      add\n        /* \"#utility.yul\":25411:25437   */\n      swap1\n      pop\n        /* \"#utility.yul\":25483:25492   */\n      dup2\n        /* \"#utility.yul\":25477:25481   */\n      dup2\n        /* \"#utility.yul\":25473:25493   */\n      sub\n        /* \"#utility.yul\":25469:25470   */\n      0x00\n        /* \"#utility.yul\":25458:25467   */\n      dup4\n        /* \"#utility.yul\":25454:25471   */\n      add\n        /* \"#utility.yul\":25447:25494   */\n      mstore\n        /* \"#utility.yul\":25511:25642   */\n      tag_624\n        /* \"#utility.yul\":25637:25641   */\n      dup2\n        /* \"#utility.yul\":25511:25642   */\n      tag_354\n      jump\t// in\n    tag_624:\n        /* \"#utility.yul\":25503:25642   */\n      swap1\n      pop\n        /* \"#utility.yul\":25230:25649   */\n      swap2\n      swap1\n      pop\n      jump\t// out\n        /* \"#utility.yul\":25655:26097   */\n    tag_243:\n        /* \"#utility.yul\":25804:25808   */\n      0x00\n        /* \"#utility.yul\":25842:25844   */\n      0x60\n        /* \"#utility.yul\":25831:25840   */\n      dup3\n        /* \"#utility.yul\":25827:25845   */\n      add\n        /* \"#utility.yul\":25819:25845   */\n      swap1\n      pop\n        /* \"#utility.yul\":25855:25926   */\n      tag_626\n        /* \"#utility.yul\":25923:25924   */\n      0x00\n        /* \"#utility.yul\":25912:25921   */\n      dup4\n        /* \"#utility.yul\":25908:25925   */\n      add\n        /* \"#utility.yul\":25899:25905   */\n      dup7\n        /* \"#utility.yul\":25855:25926   */\n      tag_313\n      jump\t// in\n    tag_626:\n        /* \"#utility.yul\":25936:26008   */\n      tag_627\n        /* \"#utility.yul\":26004:26006   */\n      0x20\n        /* \"#utility.yul\":25993:26002   */\n      dup4\n        /* \"#utility.yul\":25989:26007   */\n      add\n        /* \"#utility.yul\":25980:25986   */\n      dup6\n        /* \"#utility.yul\":25936:26008   */\n      tag_301\n      jump\t// in\n    tag_627:\n        /* \"#utility.yul\":26018:26090   */\n      tag_628\n        /* \"#utility.yul\":26086:26088   */\n      0x40\n        /* \"#utility.yul\":26075:26084   */\n      dup4\n        /* \"#utility.yul\":26071:26089   */\n      add\n        /* \"#utility.yul\":26062:26068   */\n      dup5\n        /* \"#utility.yul\":26018:26090   */\n      tag_301\n      jump\t// in\n    tag_628:\n        /* \"#utility.yul\":25655:26097   */\n      swap5\n      swap4\n      pop\n      pop\n      pop\n      pop\n      jump\t// out\n        /* \"#utility.yul\":26103:26294   */\n    tag_277:\n        /* \"#utility.yul\":26143:26146   */\n      0x00\n        /* \"#utility.yul\":26162:26182   */\n      tag_630\n        /* \"#utility.yul\":26180:26181   */\n      dup3\n        /* \"#utility.yul\":26162:26182   */\n      tag_296\n      jump\t// in\n    tag_630:\n        /* \"#utility.yul\":26157:26182   */\n      swap2\n      pop\n        /* \"#utility.yul\":26196:26216   */\n      tag_631\n        /* \"#utility.yul\":26214:26215   */\n      dup4\n        /* \"#utility.yul\":26196:26216   */\n      tag_296\n      jump\t// in\n    tag_631:\n        /* \"#utility.yul\":26191:26216   */\n      swap3\n      pop\n        /* \"#utility.yul\":26239:26240   */\n      dup3\n        /* \"#utility.yul\":26236:26237   */\n      dup3\n        /* \"#utility.yul\":26232:26241   */\n      add\n        /* \"#utility.yul\":26225:26241   */\n      swap1\n      pop\n        /* \"#utility.yul\":26260:26263   */\n      dup1\n        /* \"#utility.yul\":26257:26258   */\n      dup3\n        /* \"#utility.yul\":26254:26264   */\n      gt\n        /* \"#utility.yul\":26251:26287   */\n      iszero\n      tag_632\n      jumpi\n        /* \"#utility.yul\":26267:26285   */\n      tag_633\n      tag_336\n      jump\t// in\n    tag_633:\n        /* \"#utility.yul\":26251:26287   */\n    tag_632:\n        /* \"#utility.yul\":26103:26294   */\n      swap3\n      swap2\n      pop\n      pop\n      jump\t// out\n\n    auxdata: 0xa2646970667358221220734a6cf9e06dc311b3d7f15bc77b99713861ae9e2851185954254059e2e24ffd64736f6c634300081a0033\n}\n",
				"bytecode": {
					"linkReferences": {},
					"object": "608060405234801561000f575f80fd5b506040516130a03803806130a0833981810160405281019061003191906109a9565b816040518060400160405280600581526020017f446567656e0000000000000000000000000000000000000000000000000000008152506040518060400160405280600381526020017f44474e000000000000000000000000000000000000000000000000000000000081525081600390816100ad9190610c18565b5080600490816100bd9190610c18565b5050505f73ffffffffffffffffffffffffffffffffffffffff168173ffffffffffffffffffffffffffffffffffffffff1603610130575f6040517f1e4fbdf70000000000000000000000000000000000000000000000000000000081526004016101279190610cf6565b60405180910390fd5b61013f816104cd60201b60201c565b50610150828261059060201b60201c565b60405180606001604052806040518060400160405280601081526020017f4e6f76696365204e6176696761746f72000000000000000000000000000000008152508152602001600160ff168152602001606481525060065f600160ff1681526020019081526020015f205f820151815f0190816101cd9190610c18565b506020820151816001015f6101000a81548160ff021916908360ff1602179055506040820151816002015590505060405180606001604052806040518060400160405280600f81526020017f4d7974686963204d6176657269636b00000000000000000000000000000000008152508152602001600260ff1681526020016102bc81525060065f600260ff1681526020019081526020015f205f820151815f0190816102799190610c18565b506020820151816001015f6101000a81548160ff021916908360ff1602179055506040820151816002015590505060405180606001604052806040518060400160405280601181526020017f43656c65737469616c20437275736865720000000000000000000000000000008152508152602001600360ff1681526020016104b081525060065f600360ff1681526020019081526020015f205f820151815f0190816103259190610c18565b506020820151816001015f6101000a81548160ff021916908360ff1602179055506040820151816002015590505060405180606001604052806040518060400160405280600a81526020017f41737472616c20416365000000000000000000000000000000000000000000008152508152602001600460ff16815260200161089881525060065f600460ff1681526020019081526020015f205f820151815f0190816103d19190610c18565b506020820151816001015f6101000a81548160ff021916908360ff1602179055506040820151816002015590505060405180606001604052806040518060400160405280601081526020017f446976696e6520446f6d696e61746f72000000000000000000000000000000008152508152602001600560ff16815260200161096081525060065f600560ff1681526020019081526020015f205f820151815f01908161047d9190610c18565b506020820151816001015f6101000a81548160ff021916908360ff16021790555060408201518160020155905050600660075f6101000a81548160ff021916908360ff1602179055505050610dcc565b5f60055f9054906101000a900473ffffffffffffffffffffffffffffffffffffffff1690508160055f6101000a81548173ffffffffffffffffffffffffffffffffffffffff021916908373ffffffffffffffffffffffffffffffffffffffff1602179055508173ffffffffffffffffffffffffffffffffffffffff168173ffffffffffffffffffffffffffffffffffffffff167f8be0079c531659141344cd1fd0a4f28419497f9722a3daafe3b4186f6b6457e060405160405180910390a35050565b61059e6105b260201b60201c565b6105ae828261064b60201b60201c565b5050565b6105c06106d060201b60201c565b73ffffffffffffffffffffffffffffffffffffffff166105e46106d760201b60201c565b73ffffffffffffffffffffffffffffffffffffffff16146106495761060d6106d060201b60201c565b6040517f118cdaa70000000000000000000000000000000000000000000000000000000081526004016106409190610cf6565b60405180910390fd5b565b5f73ffffffffffffffffffffffffffffffffffffffff168273ffffffffffffffffffffffffffffffffffffffff16036106bb575f6040517fec442f050000000000000000000000000000000000000000000000000000000081526004016106b29190610cf6565b60405180910390fd5b6106cc5f83836106ff60201b60201c565b5050565b5f33905090565b5f60055f9054906101000a900473ffffffffffffffffffffffffffffffffffffffff16905090565b5f73ffffffffffffffffffffffffffffffffffffffff168373ffffffffffffffffffffffffffffffffffffffff160361074f578060025f8282546107439190610d3c565b9250508190555061081d565b5f805f8573ffffffffffffffffffffffffffffffffffffffff1673ffffffffffffffffffffffffffffffffffffffff1681526020019081526020015f20549050818110156107d8578381836040517fe450d38c0000000000000000000000000000000000000000000000000000000081526004016107cf93929190610d7e565b60405180910390fd5b8181035f808673ffffffffffffffffffffffffffffffffffffffff1673ffffffffffffffffffffffffffffffffffffffff1681526020019081526020015f2081905550505b5f73ffffffffffffffffffffffffffffffffffffffff168273ffffffffffffffffffffffffffffffffffffffff1603610864578060025f82825403925050819055506108ae565b805f808473ffffffffffffffffffffffffffffffffffffffff1673ffffffffffffffffffffffffffffffffffffffff1681526020019081526020015f205f82825401925050819055505b8173ffffffffffffffffffffffffffffffffffffffff168373ffffffffffffffffffffffffffffffffffffffff167fddf252ad1be2c89b69c2b068fc378daa952ba7f163c4a11628f55a4df523b3ef8360405161090b9190610db3565b60405180910390a3505050565b5f80fd5b5f73ffffffffffffffffffffffffffffffffffffffff82169050919050565b5f6109458261091c565b9050919050565b6109558161093b565b811461095f575f80fd5b50565b5f815190506109708161094c565b92915050565b5f819050919050565b61098881610976565b8114610992575f80fd5b50565b5f815190506109a38161097f565b92915050565b5f80604083850312156109bf576109be610918565b5b5f6109cc85828601610962565b92505060206109dd85828601610995565b9150509250929050565b5f81519050919050565b7f4e487b71000000000000000000000000000000000000000000000000000000005f52604160045260245ffd5b7f4e487b71000000000000000000000000000000000000000000000000000000005f52602260045260245ffd5b5f6002820490506001821680610a6257607f821691505b602082108103610a7557610a74610a1e565b5b50919050565b5f819050815f5260205f209050919050565b5f6020601f8301049050919050565b5f82821b905092915050565b5f60088302610ad77fffffffffffffffffffffffffffffffffffffffffffffffffffffffffffffffff82610a9c565b610ae18683610a9c565b95508019841693508086168417925050509392505050565b5f819050919050565b5f610b1c610b17610b1284610976565b610af9565b610976565b9050919050565b5f819050919050565b610b3583610b02565b610b49610b4182610b23565b848454610aa8565b825550505050565b5f90565b610b5d610b51565b610b68818484610b2c565b505050565b5b81811015610b8b57610b805f82610b55565b600181019050610b6e565b5050565b601f821115610bd057610ba181610a7b565b610baa84610a8d565b81016020851015610bb9578190505b610bcd610bc585610a8d565b830182610b6d565b50505b505050565b5f82821c905092915050565b5f610bf05f1984600802610bd5565b1980831691505092915050565b5f610c088383610be1565b9150826002028217905092915050565b610c21826109e7565b67ffffffffffffffff811115610c3a57610c396109f1565b5b610c448254610a4b565b610c4f828285610b8f565b5f60209050601f831160018114610c80575f8415610c6e578287015190505b610c788582610bfd565b865550610cdf565b601f198416610c8e86610a7b565b5f5b82811015610cb557848901518255600182019150602085019450602081019050610c90565b86831015610cd25784890151610cce601f891682610be1565b8355505b6001600288020188555050505b505050505050565b610cf08161093b565b82525050565b5f602082019050610d095f830184610ce7565b92915050565b7f4e487b71000000000000000000000000000000000000000000000000000000005f52601160045260245ffd5b5f610d4682610976565b9150610d5183610976565b9250828201905080821115610d6957610d68610d0f565b5b92915050565b610d7881610976565b82525050565b5f606082019050610d915f830186610ce7565b610d9e6020830185610d6f565b610dab6040830184610d6f565b949350505050565b5f602082019050610dc65f830184610d6f565b92915050565b6122c780610dd95f395ff3fe608060405234801561000f575f80fd5b5060043610610156575f3560e01c8063715018a6116100c1578063af3bcb7d1161007a578063af3bcb7d1461039e578063dd62ed3e146103ba578063ea5e65e0146103ea578063f2fde38b14610406578063f5112f8714610422578063fbd1a97b1461042c57610156565b8063715018a6146102f057806379cc6790146102fa5780637b47ec1a146103165780638da5cb5b1461033257806395d89b4114610350578063a9059cbb1461036e57610156565b806323b872dd1161011357806323b872dd1461021e578063313ce5671461024e57806340c10f191461026c57806342966c681461028857806362d6bbdf146102a457806370a08231146102c057610156565b806306fdde031461015a578063095ea7b3146101785780631072cbea146101a857806312065fe0146101c457806317d70f7c146101e257806318160ddd14610200575b5f80fd5b61016261045e565b60405161016f919061153c565b60405180910390f35b610192600480360381019061018d91906115fa565b6104ee565b60405161019f9190611652565b60405180910390f35b6101c260048036038101906101bd91906115fa565b610510565b005b6101cc61056a565b6040516101d9919061167a565b60405180910390f35b6101ea610579565b6040516101f791906116ae565b60405180910390f35b61020861058b565b604051610215919061167a565b60405180910390f35b610238600480360381019061023391906116c7565b610594565b6040516102459190611652565b60405180910390f35b6102566105c2565b60405161026391906116ae565b60405180910390f35b610286600480360381019061028191906115fa565b6105c6565b005b6102a2600480360381019061029d9190611717565b6105dc565b005b6102be60048036038101906102b9919061186e565b6105f0565b005b6102da60048036038101906102d591906118c8565b6106c5565b6040516102e7919061167a565b60405180910390f35b6102f861070a565b005b610314600480360381019061030f91906115fa565b61071d565b005b610330600480360381019061032b9190611717565b61073d565b005b61033a610794565b6040516103479190611902565b60405180910390f35b6103586107bc565b604051610365919061153c565b60405180910390f35b610388600480360381019061038391906115fa565b61084c565b6040516103959190611652565b60405180910390f35b6103b860048036038101906103b39190611945565b61086e565b005b6103d460048036038101906103cf9190611970565b6109d9565b6040516103e1919061167a565b60405180910390f35b61040460048036038101906103ff91906119d8565b610a5b565b005b610420600480360381019061041b91906118c8565b610b6e565b005b61042a610bf2565b005b61044660048036038101906104419190611945565b610c49565b60405161045593929190611a16565b60405180910390f35b60606003805461046d90611a7f565b80601f016020809104026020016040519081016040528092919081815260200182805461049990611a7f565b80156104e45780601f106104bb576101008083540402835291602001916104e4565b820191905f5260205f20905b8154815290600101906020018083116104c757829003601f168201915b5050505050905090565b5f806104f8610d01565b9050610505818585610d08565b600191505092915050565b8061051a336106c5565b101561055b576040517f08c379a000000000000000000000000000000000000000000000000000000000815260040161055290611af9565b60405180910390fd5b610565828261084c565b505050565b5f610574336106c5565b905090565b60075f9054906101000a900460ff1681565b5f600254905090565b5f8061059e610d01565b90506105ab858285610d1a565b6105b6858585610dac565b60019150509392505050565b5f90565b6105ce610e9c565b6105d88282610f23565b5050565b6105ed6105e7610d01565b82610fa2565b50565b6105f8610e9c565b604051806060016040528083815260200160075f9054906101000a900460ff1660ff1681526020018281525060065f60075f9054906101000a900460ff1660ff1660ff1681526020019081526020015f205f820151815f01908161065c9190611cb4565b506020820151816001015f6101000a81548160ff021916908360ff1602179055506040820151816002015590505060075f81819054906101000a900460ff16809291906106a890611db0565b91906101000a81548160ff021916908360ff160217905550505050565b5f805f8373ffffffffffffffffffffffffffffffffffffffff1673ffffffffffffffffffffffffffffffffffffffff1681526020019081526020015f20549050919050565b610712610e9c565b61071b5f611021565b565b61072f82610729610d01565b83610d1a565b6107398282610fa2565b5050565b80610747336106c5565b1015610788576040517f08c379a000000000000000000000000000000000000000000000000000000000815260040161077f90611e22565b60405180910390fd5b610791816105dc565b50565b5f60055f9054906101000a900473ffffffffffffffffffffffffffffffffffffffff16905090565b6060600480546107cb90611a7f565b80601f01602080910402602001604051908101604052809291908181526020018280546107f790611a7f565b80156108425780601f1061081957610100808354040283529160200191610842565b820191905f5260205f20905b81548152906001019060200180831161082557829003601f168201915b5050505050905090565b5f80610856610d01565b9050610863818585610dac565b600191505092915050565b5f60065f8360ff1660ff1681526020019081526020015f2060020154036108ca576040517f08c379a00000000000000000000000000000000000000000000000000000000081526004016108c190611e8a565b60405180910390fd5b60065f8260ff1660ff1681526020019081526020015f20600201546108ee336106c5565b101561092f576040517f08c379a000000000000000000000000000000000000000000000000000000000815260040161092690611af9565b60405180910390fd5b61095260065f8360ff1660ff1681526020019081526020015f20600201546105dc565b3373ffffffffffffffffffffffffffffffffffffffff167f8bedd141782c49139782bd92bd7a760a0bcb544ffecfd2b25f00366fae06598e8260065f8560ff1660ff1681526020019081526020015f205f0160065f8660ff1660ff1681526020019081526020015f20600201546040516109ce93929190611f29565b60405180910390a250565b5f60015f8473ffffffffffffffffffffffffffffffffffffffff1673ffffffffffffffffffffffffffffffffffffffff1681526020019081526020015f205f8373ffffffffffffffffffffffffffffffffffffffff1673ffffffffffffffffffffffffffffffffffffffff1681526020019081526020015f2054905092915050565b5f600a4233604051602001610a71929190611fca565b604051602081830303815290604052805190602001205f1c610a939190612022565b905060058110151583151503610b0f57610ab933600284610ab49190612052565b610f23565b3373ffffffffffffffffffffffffffffffffffffffff167fd04d9689d8e43bc0bacea67661ef472dcf321f34f08af72f651af30c4c866587826001604051610b029291906120dd565b60405180910390a2610b69565b610b18826105dc565b3373ffffffffffffffffffffffffffffffffffffffff167fd04d9689d8e43bc0bacea67661ef472dcf321f34f08af72f651af30c4c866587825f604051610b60929190612161565b60405180910390a25b505050565b610b76610e9c565b5f73ffffffffffffffffffffffffffffffffffffffff168173ffffffffffffffffffffffffffffffffffffffff1603610be6575f6040517f1e4fbdf7000000000000000000000000000000000000000000000000000000008152600401610bdd9190611902565b60405180910390fd5b610bef81611021565b50565b5f610bfc336106c5565b14610c3c576040517f08c379a0000000000000000000000000000000000000000000000000000000008152600401610c339061220b565b60405180910390fd5b610c47336032610f23565b565b6006602052805f5260405f205f91509050805f018054610c6890611a7f565b80601f0160208091040260200160405190810160405280929190818152602001828054610c9490611a7f565b8015610cdf5780601f10610cb657610100808354040283529160200191610cdf565b820191905f5260205f20905b815481529060010190602001808311610cc257829003601f168201915b505050505090806001015f9054906101000a900460ff16908060020154905083565b5f33905090565b610d1583838360016110e4565b505050565b5f610d2584846109d9565b90507fffffffffffffffffffffffffffffffffffffffffffffffffffffffffffffffff8114610da65781811015610d97578281836040517ffb8f41b2000000000000000000000000000000000000000000000000000000008152600401610d8e93929190612229565b60405180910390fd5b610da584848484035f6110e4565b5b50505050565b5f73ffffffffffffffffffffffffffffffffffffffff168373ffffffffffffffffffffffffffffffffffffffff1603610e1c575f6040517f96c6fd1e000000000000000000000000000000000000000000000000000000008152600401610e139190611902565b60405180910390fd5b5f73ffffffffffffffffffffffffffffffffffffffff168273ffffffffffffffffffffffffffffffffffffffff1603610e8c575f6040517fec442f05000000000000000000000000000000000000000000000000000000008152600401610e839190611902565b60405180910390fd5b610e978383836112b3565b505050565b610ea4610d01565b73ffffffffffffffffffffffffffffffffffffffff16610ec2610794565b73ffffffffffffffffffffffffffffffffffffffff1614610f2157610ee5610d01565b6040517f118cdaa7000000000000000000000000000000000000000000000000000000008152600401610f189190611902565b60405180910390fd5b565b5f73ffffffffffffffffffffffffffffffffffffffff168273ffffffffffffffffffffffffffffffffffffffff1603610f93575f6040517fec442f05000000000000000000000000000000000000000000000000000000008152600401610f8a9190611902565b60405180910390fd5b610f9e5f83836112b3565b5050565b5f73ffffffffffffffffffffffffffffffffffffffff168273ffffffffffffffffffffffffffffffffffffffff1603611012575f6040517f96c6fd1e0000000000000000000000000000000000000000000000000000000081526004016110099190611902565b60405180910390fd5b61101d825f836112b3565b5050565b5f60055f9054906101000a900473ffffffffffffffffffffffffffffffffffffffff1690508160055f6101000a81548173ffffffffffffffffffffffffffffffffffffffff021916908373ffffffffffffffffffffffffffffffffffffffff1602179055508173ffffffffffffffffffffffffffffffffffffffff168173ffffffffffffffffffffffffffffffffffffffff167f8be0079c531659141344cd1fd0a4f28419497f9722a3daafe3b4186f6b6457e060405160405180910390a35050565b5f73ffffffffffffffffffffffffffffffffffffffff168473ffffffffffffffffffffffffffffffffffffffff1603611154575f6040517fe602df0500000000000000000000000000000000000000000000000000000000815260040161114b9190611902565b60405180910390fd5b5f73ffffffffffffffffffffffffffffffffffffffff168373ffffffffffffffffffffffffffffffffffffffff16036111c4575f6040517f94280d620000000000000000000000000000000000000000000000000000000081526004016111bb9190611902565b60405180910390fd5b8160015f8673ffffffffffffffffffffffffffffffffffffffff1673ffffffffffffffffffffffffffffffffffffffff1681526020019081526020015f205f8573ffffffffffffffffffffffffffffffffffffffff1673ffffffffffffffffffffffffffffffffffffffff1681526020019081526020015f208190555080156112ad578273ffffffffffffffffffffffffffffffffffffffff168473ffffffffffffffffffffffffffffffffffffffff167f8c5be1e5ebec7d5bd14f71427d1e84f3dd0314c0f7b2291e5b200ac8c7c3b925846040516112a4919061167a565b60405180910390a35b50505050565b5f73ffffffffffffffffffffffffffffffffffffffff168373ffffffffffffffffffffffffffffffffffffffff1603611303578060025f8282546112f7919061225e565b925050819055506113d1565b5f805f8573ffffffffffffffffffffffffffffffffffffffff1673ffffffffffffffffffffffffffffffffffffffff1681526020019081526020015f205490508181101561138c578381836040517fe450d38c00000000000000000000000000000000000000000000000000000000815260040161138393929190612229565b60405180910390fd5b8181035f808673ffffffffffffffffffffffffffffffffffffffff1673ffffffffffffffffffffffffffffffffffffffff1681526020019081526020015f2081905550505b5f73ffffffffffffffffffffffffffffffffffffffff168273ffffffffffffffffffffffffffffffffffffffff1603611418578060025f8282540392505081905550611462565b805f808473ffffffffffffffffffffffffffffffffffffffff1673ffffffffffffffffffffffffffffffffffffffff1681526020019081526020015f205f82825401925050819055505b8173ffffffffffffffffffffffffffffffffffffffff168373ffffffffffffffffffffffffffffffffffffffff167fddf252ad1be2c89b69c2b068fc378daa952ba7f163c4a11628f55a4df523b3ef836040516114bf919061167a565b60405180910390a3505050565b5f81519050919050565b5f82825260208201905092915050565b8281835e5f83830152505050565b5f601f19601f8301169050919050565b5f61150e826114cc565b61151881856114d6565b93506115288185602086016114e6565b611531816114f4565b840191505092915050565b5f6020820190508181035f8301526115548184611504565b905092915050565b5f604051905090565b5f80fd5b5f80fd5b5f73ffffffffffffffffffffffffffffffffffffffff82169050919050565b5f6115968261156d565b9050919050565b6115a68161158c565b81146115b0575f80fd5b50565b5f813590506115c18161159d565b92915050565b5f819050919050565b6115d9816115c7565b81146115e3575f80fd5b50565b5f813590506115f4816115d0565b92915050565b5f80604083850312156116105761160f611565565b5b5f61161d858286016115b3565b925050602061162e858286016115e6565b9150509250929050565b5f8115159050919050565b61164c81611638565b82525050565b5f6020820190506116655f830184611643565b92915050565b611674816115c7565b82525050565b5f60208201905061168d5f83018461166b565b92915050565b5f60ff82169050919050565b6116a881611693565b82525050565b5f6020820190506116c15f83018461169f565b92915050565b5f805f606084860312156116de576116dd611565565b5b5f6116eb868287016115b3565b93505060206116fc868287016115b3565b925050604061170d868287016115e6565b9150509250925092565b5f6020828403121561172c5761172b611565565b5b5f611739848285016115e6565b91505092915050565b5f80fd5b5f80fd5b7f4e487b71000000000000000000000000000000000000000000000000000000005f52604160045260245ffd5b611780826114f4565b810181811067ffffffffffffffff8211171561179f5761179e61174a565b5b80604052505050565b5f6117b161155c565b90506117bd8282611777565b919050565b5f67ffffffffffffffff8211156117dc576117db61174a565b5b6117e5826114f4565b9050602081019050919050565b828183375f83830152505050565b5f61181261180d846117c2565b6117a8565b90508281526020810184848401111561182e5761182d611746565b5b6118398482856117f2565b509392505050565b5f82601f83011261185557611854611742565b5b8135611865848260208601611800565b91505092915050565b5f806040838503121561188457611883611565565b5b5f83013567ffffffffffffffff8111156118a1576118a0611569565b5b6118ad85828601611841565b92505060206118be858286016115e6565b9150509250929050565b5f602082840312156118dd576118dc611565565b5b5f6118ea848285016115b3565b91505092915050565b6118fc8161158c565b82525050565b5f6020820190506119155f8301846118f3565b92915050565b61192481611693565b811461192e575f80fd5b50565b5f8135905061193f8161191b565b92915050565b5f6020828403121561195a57611959611565565b5b5f61196784828501611931565b91505092915050565b5f806040838503121561198657611985611565565b5b5f611993858286016115b3565b92505060206119a4858286016115b3565b9150509250929050565b6119b781611638565b81146119c1575f80fd5b50565b5f813590506119d2816119ae565b92915050565b5f80604083850312156119ee576119ed611565565b5b5f6119fb858286016119c4565b9250506020611a0c858286016115e6565b9150509250929050565b5f6060820190508181035f830152611a2e8186611504565b9050611a3d602083018561169f565b611a4a604083018461166b565b949350505050565b7f4e487b71000000000000000000000000000000000000000000000000000000005f52602260045260245ffd5b5f6002820490506001821680611a9657607f821691505b602082108103611aa957611aa8611a52565b5b50919050565b7f496e73756666696369656e742062616c616e63650000000000000000000000005f82015250565b5f611ae36014836114d6565b9150611aee82611aaf565b602082019050919050565b5f6020820190508181035f830152611b1081611ad7565b9050919050565b5f819050815f5260205f209050919050565b5f6020601f8301049050919050565b5f82821b905092915050565b5f60088302611b737fffffffffffffffffffffffffffffffffffffffffffffffffffffffffffffffff82611b38565b611b7d8683611b38565b95508019841693508086168417925050509392505050565b5f819050919050565b5f611bb8611bb3611bae846115c7565b611b95565b6115c7565b9050919050565b5f819050919050565b611bd183611b9e565b611be5611bdd82611bbf565b848454611b44565b825550505050565b5f90565b611bf9611bed565b611c04818484611bc8565b505050565b5b81811015611c2757611c1c5f82611bf1565b600181019050611c0a565b5050565b601f821115611c6c57611c3d81611b17565b611c4684611b29565b81016020851015611c55578190505b611c69611c6185611b29565b830182611c09565b50505b505050565b5f82821c905092915050565b5f611c8c5f1984600802611c71565b1980831691505092915050565b5f611ca48383611c7d565b9150826002028217905092915050565b611cbd826114cc565b67ffffffffffffffff811115611cd657611cd561174a565b5b611ce08254611a7f565b611ceb828285611c2b565b5f60209050601f831160018114611d1c575f8415611d0a578287015190505b611d148582611c99565b865550611d7b565b601f198416611d2a86611b17565b5f5b82811015611d5157848901518255600182019150602085019450602081019050611d2c565b86831015611d6e5784890151611d6a601f891682611c7d565b8355505b6001600288020188555050505b505050505050565b7f4e487b71000000000000000000000000000000000000000000000000000000005f52601160045260245ffd5b5f611dba82611693565b915060ff8203611dcd57611dcc611d83565b5b600182019050919050565b7f496e73756666696369656e7420616d6f756e74000000000000000000000000005f82015250565b5f611e0c6013836114d6565b9150611e1782611dd8565b602082019050919050565b5f6020820190508181035f830152611e3981611e00565b9050919050565b7f4974656d206e6f7420666f756e640000000000000000000000000000000000005f82015250565b5f611e74600e836114d6565b9150611e7f82611e40565b602082019050919050565b5f6020820190508181035f830152611ea181611e68565b9050919050565b5f8154611eb481611a7f565b611ebe81866114d6565b9450600182165f8114611ed85760018114611eee57611f20565b60ff198316865281151560200286019350611f20565b611ef785611b17565b5f5b83811015611f1857815481890152600182019150602081019050611ef9565b808801955050505b50505092915050565b5f606082019050611f3c5f83018661169f565b8181036020830152611f4e8185611ea8565b9050611f5d604083018461166b565b949350505050565b5f819050919050565b611f7f611f7a826115c7565b611f65565b82525050565b5f8160601b9050919050565b5f611f9b82611f85565b9050919050565b5f611fac82611f91565b9050919050565b611fc4611fbf8261158c565b611fa2565b82525050565b5f611fd58285611f6e565b602082019150611fe58284611fb3565b6014820191508190509392505050565b7f4e487b71000000000000000000000000000000000000000000000000000000005f52601260045260245ffd5b5f61202c826115c7565b9150612037836115c7565b92508261204757612046611ff5565b5b828206905092915050565b5f61205c826115c7565b9150612067836115c7565b9250828202612075816115c7565b9150828204841483151761208c5761208b611d83565b5b5092915050565b7f776f6e00000000000000000000000000000000000000000000000000000000005f82015250565b5f6120c76003836114d6565b91506120d282612093565b602082019050919050565b5f6060820190506120f05f83018561166b565b6120fd6020830184611643565b818103604083015261210e816120bb565b90509392505050565b7f6c6f7374000000000000000000000000000000000000000000000000000000005f82015250565b5f61214b6004836114d6565b915061215682612117565b602082019050919050565b5f6060820190506121745f83018561166b565b6121816020830184611643565b81810360408301526121928161213f565b90509392505050565b7f596f7527766520616c726561647920636c61696d656420796f75722077656c635f8201527f6f6d6520626f6e75730000000000000000000000000000000000000000000000602082015250565b5f6121f56029836114d6565b91506122008261219b565b604082019050919050565b5f6020820190508181035f830152612222816121e9565b9050919050565b5f60608201905061223c5f8301866118f3565b612249602083018561166b565b612256604083018461166b565b949350505050565b5f612268826115c7565b9150612273836115c7565b925082820190508082111561228b5761228a611d83565b5b9291505056fea2646970667358221220734a6cf9e06dc311b3d7f15bc77b99713861ae9e2851185954254059e2e24ffd64736f6c634300081a0033",
					"opcodes": "PUSH1 0x80 PUSH1 0x40 MSTORE CALLVALUE DUP1 ISZERO PUSH2 0xF JUMPI PUSH0 DUP1 REVERT JUMPDEST POP PUSH1 0x40 MLOAD PUSH2 0x30A0 CODESIZE SUB DUP1 PUSH2 0x30A0 DUP4 CODECOPY DUP2 DUP2 ADD PUSH1 0x40 MSTORE DUP2 ADD SWAP1 PUSH2 0x31 SWAP2 SWAP1 PUSH2 0x9A9 JUMP JUMPDEST DUP2 PUSH1 0x40 MLOAD DUP1 PUSH1 0x40 ADD PUSH1 0x40 MSTORE DUP1 PUSH1 0x5 DUP2 MSTORE PUSH1 0x20 ADD PUSH32 0x446567656E000000000000000000000000000000000000000000000000000000 DUP2 MSTORE POP PUSH1 0x40 MLOAD DUP1 PUSH1 0x40 ADD PUSH1 0x40 MSTORE DUP1 PUSH1 0x3 DUP2 MSTORE PUSH1 0x20 ADD PUSH32 0x44474E0000000000000000000000000000000000000000000000000000000000 DUP2 MSTORE POP DUP2 PUSH1 0x3 SWAP1 DUP2 PUSH2 0xAD SWAP2 SWAP1 PUSH2 0xC18 JUMP JUMPDEST POP DUP1 PUSH1 0x4 SWAP1 DUP2 PUSH2 0xBD SWAP2 SWAP1 PUSH2 0xC18 JUMP JUMPDEST POP POP POP PUSH0 PUSH20 0xFFFFFFFFFFFFFFFFFFFFFFFFFFFFFFFFFFFFFFFF AND DUP2 PUSH20 0xFFFFFFFFFFFFFFFFFFFFFFFFFFFFFFFFFFFFFFFF AND SUB PUSH2 0x130 JUMPI PUSH0 PUSH1 0x40 MLOAD PUSH32 0x1E4FBDF700000000000000000000000000000000000000000000000000000000 DUP2 MSTORE PUSH1 0x4 ADD PUSH2 0x127 SWAP2 SWAP1 PUSH2 0xCF6 JUMP JUMPDEST PUSH1 0x40 MLOAD DUP1 SWAP2 SUB SWAP1 REVERT JUMPDEST PUSH2 0x13F DUP2 PUSH2 0x4CD PUSH1 0x20 SHL PUSH1 0x20 SHR JUMP JUMPDEST POP PUSH2 0x150 DUP3 DUP3 PUSH2 0x590 PUSH1 0x20 SHL PUSH1 0x20 SHR JUMP JUMPDEST PUSH1 0x40 MLOAD DUP1 PUSH1 0x60 ADD PUSH1 0x40 MSTORE DUP1 PUSH1 0x40 MLOAD DUP1 PUSH1 0x40 ADD PUSH1 0x40 MSTORE DUP1 PUSH1 0x10 DUP2 MSTORE PUSH1 0x20 ADD PUSH32 0x4E6F76696365204E6176696761746F7200000000000000000000000000000000 DUP2 MSTORE POP DUP2 MSTORE PUSH1 0x20 ADD PUSH1 0x1 PUSH1 0xFF AND DUP2 MSTORE PUSH1 0x20 ADD PUSH1 0x64 DUP2 MSTORE POP PUSH1 0x6 PUSH0 PUSH1 0x1 PUSH1 0xFF AND DUP2 MSTORE PUSH1 0x20 ADD SWAP1 DUP2 MSTORE PUSH1 0x20 ADD PUSH0 KECCAK256 PUSH0 DUP3 ADD MLOAD DUP2 PUSH0 ADD SWAP1 DUP2 PUSH2 0x1CD SWAP2 SWAP1 PUSH2 0xC18 JUMP JUMPDEST POP PUSH1 0x20 DUP3 ADD MLOAD DUP2 PUSH1 0x1 ADD PUSH0 PUSH2 0x100 EXP DUP2 SLOAD DUP2 PUSH1 0xFF MUL NOT AND SWAP1 DUP4 PUSH1 0xFF AND MUL OR SWAP1 SSTORE POP PUSH1 0x40 DUP3 ADD MLOAD DUP2 PUSH1 0x2 ADD SSTORE SWAP1 POP POP PUSH1 0x40 MLOAD DUP1 PUSH1 0x60 ADD PUSH1 0x40 MSTORE DUP1 PUSH1 0x40 MLOAD DUP1 PUSH1 0x40 ADD PUSH1 0x40 MSTORE DUP1 PUSH1 0xF DUP2 MSTORE PUSH1 0x20 ADD PUSH32 0x4D7974686963204D6176657269636B0000000000000000000000000000000000 DUP2 MSTORE POP DUP2 MSTORE PUSH1 0x20 ADD PUSH1 0x2 PUSH1 0xFF AND DUP2 MSTORE PUSH1 0x20 ADD PUSH2 0x2BC DUP2 MSTORE POP PUSH1 0x6 PUSH0 PUSH1 0x2 PUSH1 0xFF AND DUP2 MSTORE PUSH1 0x20 ADD SWAP1 DUP2 MSTORE PUSH1 0x20 ADD PUSH0 KECCAK256 PUSH0 DUP3 ADD MLOAD DUP2 PUSH0 ADD SWAP1 DUP2 PUSH2 0x279 SWAP2 SWAP1 PUSH2 0xC18 JUMP JUMPDEST POP PUSH1 0x20 DUP3 ADD MLOAD DUP2 PUSH1 0x1 ADD PUSH0 PUSH2 0x100 EXP DUP2 SLOAD DUP2 PUSH1 0xFF MUL NOT AND SWAP1 DUP4 PUSH1 0xFF AND MUL OR SWAP1 SSTORE POP PUSH1 0x40 DUP3 ADD MLOAD DUP2 PUSH1 0x2 ADD SSTORE SWAP1 POP POP PUSH1 0x40 MLOAD DUP1 PUSH1 0x60 ADD PUSH1 0x40 MSTORE DUP1 PUSH1 0x40 MLOAD DUP1 PUSH1 0x40 ADD PUSH1 0x40 MSTORE DUP1 PUSH1 0x11 DUP2 MSTORE PUSH1 0x20 ADD PUSH32 0x43656C65737469616C2043727573686572000000000000000000000000000000 DUP2 MSTORE POP DUP2 MSTORE PUSH1 0x20 ADD PUSH1 0x3 PUSH1 0xFF AND DUP2 MSTORE PUSH1 0x20 ADD PUSH2 0x4B0 DUP2 MSTORE POP PUSH1 0x6 PUSH0 PUSH1 0x3 PUSH1 0xFF AND DUP2 MSTORE PUSH1 0x20 ADD SWAP1 DUP2 MSTORE PUSH1 0x20 ADD PUSH0 KECCAK256 PUSH0 DUP3 ADD MLOAD DUP2 PUSH0 ADD SWAP1 DUP2 PUSH2 0x325 SWAP2 SWAP1 PUSH2 0xC18 JUMP JUMPDEST POP PUSH1 0x20 DUP3 ADD MLOAD DUP2 PUSH1 0x1 ADD PUSH0 PUSH2 0x100 EXP DUP2 SLOAD DUP2 PUSH1 0xFF MUL NOT AND SWAP1 DUP4 PUSH1 0xFF AND MUL OR SWAP1 SSTORE POP PUSH1 0x40 DUP3 ADD MLOAD DUP2 PUSH1 0x2 ADD SSTORE SWAP1 POP POP PUSH1 0x40 MLOAD DUP1 PUSH1 0x60 ADD PUSH1 0x40 MSTORE DUP1 PUSH1 0x40 MLOAD DUP1 PUSH1 0x40 ADD PUSH1 0x40 MSTORE DUP1 PUSH1 0xA DUP2 MSTORE PUSH1 0x20 ADD PUSH32 0x41737472616C2041636500000000000000000000000000000000000000000000 DUP2 MSTORE POP DUP2 MSTORE PUSH1 0x20 ADD PUSH1 0x4 PUSH1 0xFF AND DUP2 MSTORE PUSH1 0x20 ADD PUSH2 0x898 DUP2 MSTORE POP PUSH1 0x6 PUSH0 PUSH1 0x4 PUSH1 0xFF AND DUP2 MSTORE PUSH1 0x20 ADD SWAP1 DUP2 MSTORE PUSH1 0x20 ADD PUSH0 KECCAK256 PUSH0 DUP3 ADD MLOAD DUP2 PUSH0 ADD SWAP1 DUP2 PUSH2 0x3D1 SWAP2 SWAP1 PUSH2 0xC18 JUMP JUMPDEST POP PUSH1 0x20 DUP3 ADD MLOAD DUP2 PUSH1 0x1 ADD PUSH0 PUSH2 0x100 EXP DUP2 SLOAD DUP2 PUSH1 0xFF MUL NOT AND SWAP1 DUP4 PUSH1 0xFF AND MUL OR SWAP1 SSTORE POP PUSH1 0x40 DUP3 ADD MLOAD DUP2 PUSH1 0x2 ADD SSTORE SWAP1 POP POP PUSH1 0x40 MLOAD DUP1 PUSH1 0x60 ADD PUSH1 0x40 MSTORE DUP1 PUSH1 0x40 MLOAD DUP1 PUSH1 0x40 ADD PUSH1 0x40 MSTORE DUP1 PUSH1 0x10 DUP2 MSTORE PUSH1 0x20 ADD PUSH32 0x446976696E6520446F6D696E61746F7200000000000000000000000000000000 DUP2 MSTORE POP DUP2 MSTORE PUSH1 0x20 ADD PUSH1 0x5 PUSH1 0xFF AND DUP2 MSTORE PUSH1 0x20 ADD PUSH2 0x960 DUP2 MSTORE POP PUSH1 0x6 PUSH0 PUSH1 0x5 PUSH1 0xFF AND DUP2 MSTORE PUSH1 0x20 ADD SWAP1 DUP2 MSTORE PUSH1 0x20 ADD PUSH0 KECCAK256 PUSH0 DUP3 ADD MLOAD DUP2 PUSH0 ADD SWAP1 DUP2 PUSH2 0x47D SWAP2 SWAP1 PUSH2 0xC18 JUMP JUMPDEST POP PUSH1 0x20 DUP3 ADD MLOAD DUP2 PUSH1 0x1 ADD PUSH0 PUSH2 0x100 EXP DUP2 SLOAD DUP2 PUSH1 0xFF MUL NOT AND SWAP1 DUP4 PUSH1 0xFF AND MUL OR SWAP1 SSTORE POP PUSH1 0x40 DUP3 ADD MLOAD DUP2 PUSH1 0x2 ADD SSTORE SWAP1 POP POP PUSH1 0x6 PUSH1 0x7 PUSH0 PUSH2 0x100 EXP DUP2 SLOAD DUP2 PUSH1 0xFF MUL NOT AND SWAP1 DUP4 PUSH1 0xFF AND MUL OR SWAP1 SSTORE POP POP POP PUSH2 0xDCC JUMP JUMPDEST PUSH0 PUSH1 0x5 PUSH0 SWAP1 SLOAD SWAP1 PUSH2 0x100 EXP SWAP1 DIV PUSH20 0xFFFFFFFFFFFFFFFFFFFFFFFFFFFFFFFFFFFFFFFF AND SWAP1 POP DUP2 PUSH1 0x5 PUSH0 PUSH2 0x100 EXP DUP2 SLOAD DUP2 PUSH20 0xFFFFFFFFFFFFFFFFFFFFFFFFFFFFFFFFFFFFFFFF MUL NOT AND SWAP1 DUP4 PUSH20 0xFFFFFFFFFFFFFFFFFFFFFFFFFFFFFFFFFFFFFFFF AND MUL OR SWAP1 SSTORE POP DUP2 PUSH20 0xFFFFFFFFFFFFFFFFFFFFFFFFFFFFFFFFFFFFFFFF AND DUP2 PUSH20 0xFFFFFFFFFFFFFFFFFFFFFFFFFFFFFFFFFFFFFFFF AND PUSH32 0x8BE0079C531659141344CD1FD0A4F28419497F9722A3DAAFE3B4186F6B6457E0 PUSH1 0x40 MLOAD PUSH1 0x40 MLOAD DUP1 SWAP2 SUB SWAP1 LOG3 POP POP JUMP JUMPDEST PUSH2 0x59E PUSH2 0x5B2 PUSH1 0x20 SHL PUSH1 0x20 SHR JUMP JUMPDEST PUSH2 0x5AE DUP3 DUP3 PUSH2 0x64B PUSH1 0x20 SHL PUSH1 0x20 SHR JUMP JUMPDEST POP POP JUMP JUMPDEST PUSH2 0x5C0 PUSH2 0x6D0 PUSH1 0x20 SHL PUSH1 0x20 SHR JUMP JUMPDEST PUSH20 0xFFFFFFFFFFFFFFFFFFFFFFFFFFFFFFFFFFFFFFFF AND PUSH2 0x5E4 PUSH2 0x6D7 PUSH1 0x20 SHL PUSH1 0x20 SHR JUMP JUMPDEST PUSH20 0xFFFFFFFFFFFFFFFFFFFFFFFFFFFFFFFFFFFFFFFF AND EQ PUSH2 0x649 JUMPI PUSH2 0x60D PUSH2 0x6D0 PUSH1 0x20 SHL PUSH1 0x20 SHR JUMP JUMPDEST PUSH1 0x40 MLOAD PUSH32 0x118CDAA700000000000000000000000000000000000000000000000000000000 DUP2 MSTORE PUSH1 0x4 ADD PUSH2 0x640 SWAP2 SWAP1 PUSH2 0xCF6 JUMP JUMPDEST PUSH1 0x40 MLOAD DUP1 SWAP2 SUB SWAP1 REVERT JUMPDEST JUMP JUMPDEST PUSH0 PUSH20 0xFFFFFFFFFFFFFFFFFFFFFFFFFFFFFFFFFFFFFFFF AND DUP3 PUSH20 0xFFFFFFFFFFFFFFFFFFFFFFFFFFFFFFFFFFFFFFFF AND SUB PUSH2 0x6BB JUMPI PUSH0 PUSH1 0x40 MLOAD PUSH32 0xEC442F0500000000000000000000000000000000000000000000000000000000 DUP2 MSTORE PUSH1 0x4 ADD PUSH2 0x6B2 SWAP2 SWAP1 PUSH2 0xCF6 JUMP JUMPDEST PUSH1 0x40 MLOAD DUP1 SWAP2 SUB SWAP1 REVERT JUMPDEST PUSH2 0x6CC PUSH0 DUP4 DUP4 PUSH2 0x6FF PUSH1 0x20 SHL PUSH1 0x20 SHR JUMP JUMPDEST POP POP JUMP JUMPDEST PUSH0 CALLER SWAP1 POP SWAP1 JUMP JUMPDEST PUSH0 PUSH1 0x5 PUSH0 SWAP1 SLOAD SWAP1 PUSH2 0x100 EXP SWAP1 DIV PUSH20 0xFFFFFFFFFFFFFFFFFFFFFFFFFFFFFFFFFFFFFFFF AND SWAP1 POP SWAP1 JUMP JUMPDEST PUSH0 PUSH20 0xFFFFFFFFFFFFFFFFFFFFFFFFFFFFFFFFFFFFFFFF AND DUP4 PUSH20 0xFFFFFFFFFFFFFFFFFFFFFFFFFFFFFFFFFFFFFFFF AND SUB PUSH2 0x74F JUMPI DUP1 PUSH1 0x2 PUSH0 DUP3 DUP3 SLOAD PUSH2 0x743 SWAP2 SWAP1 PUSH2 0xD3C JUMP JUMPDEST SWAP3 POP POP DUP2 SWAP1 SSTORE POP PUSH2 0x81D JUMP JUMPDEST PUSH0 DUP1 PUSH0 DUP6 PUSH20 0xFFFFFFFFFFFFFFFFFFFFFFFFFFFFFFFFFFFFFFFF AND PUSH20 0xFFFFFFFFFFFFFFFFFFFFFFFFFFFFFFFFFFFFFFFF AND DUP2 MSTORE PUSH1 0x20 ADD SWAP1 DUP2 MSTORE PUSH1 0x20 ADD PUSH0 KECCAK256 SLOAD SWAP1 POP DUP2 DUP2 LT ISZERO PUSH2 0x7D8 JUMPI DUP4 DUP2 DUP4 PUSH1 0x40 MLOAD PUSH32 0xE450D38C00000000000000000000000000000000000000000000000000000000 DUP2 MSTORE PUSH1 0x4 ADD PUSH2 0x7CF SWAP4 SWAP3 SWAP2 SWAP1 PUSH2 0xD7E JUMP JUMPDEST PUSH1 0x40 MLOAD DUP1 SWAP2 SUB SWAP1 REVERT JUMPDEST DUP2 DUP2 SUB PUSH0 DUP1 DUP7 PUSH20 0xFFFFFFFFFFFFFFFFFFFFFFFFFFFFFFFFFFFFFFFF AND PUSH20 0xFFFFFFFFFFFFFFFFFFFFFFFFFFFFFFFFFFFFFFFF AND DUP2 MSTORE PUSH1 0x20 ADD SWAP1 DUP2 MSTORE PUSH1 0x20 ADD PUSH0 KECCAK256 DUP2 SWAP1 SSTORE POP POP JUMPDEST PUSH0 PUSH20 0xFFFFFFFFFFFFFFFFFFFFFFFFFFFFFFFFFFFFFFFF AND DUP3 PUSH20 0xFFFFFFFFFFFFFFFFFFFFFFFFFFFFFFFFFFFFFFFF AND SUB PUSH2 0x864 JUMPI DUP1 PUSH1 0x2 PUSH0 DUP3 DUP3 SLOAD SUB SWAP3 POP POP DUP2 SWAP1 SSTORE POP PUSH2 0x8AE JUMP JUMPDEST DUP1 PUSH0 DUP1 DUP5 PUSH20 0xFFFFFFFFFFFFFFFFFFFFFFFFFFFFFFFFFFFFFFFF AND PUSH20 0xFFFFFFFFFFFFFFFFFFFFFFFFFFFFFFFFFFFFFFFF AND DUP2 MSTORE PUSH1 0x20 ADD SWAP1 DUP2 MSTORE PUSH1 0x20 ADD PUSH0 KECCAK256 PUSH0 DUP3 DUP3 SLOAD ADD SWAP3 POP POP DUP2 SWAP1 SSTORE POP JUMPDEST DUP2 PUSH20 0xFFFFFFFFFFFFFFFFFFFFFFFFFFFFFFFFFFFFFFFF AND DUP4 PUSH20 0xFFFFFFFFFFFFFFFFFFFFFFFFFFFFFFFFFFFFFFFF AND PUSH32 0xDDF252AD1BE2C89B69C2B068FC378DAA952BA7F163C4A11628F55A4DF523B3EF DUP4 PUSH1 0x40 MLOAD PUSH2 0x90B SWAP2 SWAP1 PUSH2 0xDB3 JUMP JUMPDEST PUSH1 0x40 MLOAD DUP1 SWAP2 SUB SWAP1 LOG3 POP POP POP JUMP JUMPDEST PUSH0 DUP1 REVERT JUMPDEST PUSH0 PUSH20 0xFFFFFFFFFFFFFFFFFFFFFFFFFFFFFFFFFFFFFFFF DUP3 AND SWAP1 POP SWAP2 SWAP1 POP JUMP JUMPDEST PUSH0 PUSH2 0x945 DUP3 PUSH2 0x91C JUMP JUMPDEST SWAP1 POP SWAP2 SWAP1 POP JUMP JUMPDEST PUSH2 0x955 DUP2 PUSH2 0x93B JUMP JUMPDEST DUP2 EQ PUSH2 0x95F JUMPI PUSH0 DUP1 REVERT JUMPDEST POP JUMP JUMPDEST PUSH0 DUP2 MLOAD SWAP1 POP PUSH2 0x970 DUP2 PUSH2 0x94C JUMP JUMPDEST SWAP3 SWAP2 POP POP JUMP JUMPDEST PUSH0 DUP2 SWAP1 POP SWAP2 SWAP1 POP JUMP JUMPDEST PUSH2 0x988 DUP2 PUSH2 0x976 JUMP JUMPDEST DUP2 EQ PUSH2 0x992 JUMPI PUSH0 DUP1 REVERT JUMPDEST POP JUMP JUMPDEST PUSH0 DUP2 MLOAD SWAP1 POP PUSH2 0x9A3 DUP2 PUSH2 0x97F JUMP JUMPDEST SWAP3 SWAP2 POP POP JUMP JUMPDEST PUSH0 DUP1 PUSH1 0x40 DUP4 DUP6 SUB SLT ISZERO PUSH2 0x9BF JUMPI PUSH2 0x9BE PUSH2 0x918 JUMP JUMPDEST JUMPDEST PUSH0 PUSH2 0x9CC DUP6 DUP3 DUP7 ADD PUSH2 0x962 JUMP JUMPDEST SWAP3 POP POP PUSH1 0x20 PUSH2 0x9DD DUP6 DUP3 DUP7 ADD PUSH2 0x995 JUMP JUMPDEST SWAP2 POP POP SWAP3 POP SWAP3 SWAP1 POP JUMP JUMPDEST PUSH0 DUP2 MLOAD SWAP1 POP SWAP2 SWAP1 POP JUMP JUMPDEST PUSH32 0x4E487B7100000000000000000000000000000000000000000000000000000000 PUSH0 MSTORE PUSH1 0x41 PUSH1 0x4 MSTORE PUSH1 0x24 PUSH0 REVERT JUMPDEST PUSH32 0x4E487B7100000000000000000000000000000000000000000000000000000000 PUSH0 MSTORE PUSH1 0x22 PUSH1 0x4 MSTORE PUSH1 0x24 PUSH0 REVERT JUMPDEST PUSH0 PUSH1 0x2 DUP3 DIV SWAP1 POP PUSH1 0x1 DUP3 AND DUP1 PUSH2 0xA62 JUMPI PUSH1 0x7F DUP3 AND SWAP2 POP JUMPDEST PUSH1 0x20 DUP3 LT DUP2 SUB PUSH2 0xA75 JUMPI PUSH2 0xA74 PUSH2 0xA1E JUMP JUMPDEST JUMPDEST POP SWAP2 SWAP1 POP JUMP JUMPDEST PUSH0 DUP2 SWAP1 POP DUP2 PUSH0 MSTORE PUSH1 0x20 PUSH0 KECCAK256 SWAP1 POP SWAP2 SWAP1 POP JUMP JUMPDEST PUSH0 PUSH1 0x20 PUSH1 0x1F DUP4 ADD DIV SWAP1 POP SWAP2 SWAP1 POP JUMP JUMPDEST PUSH0 DUP3 DUP3 SHL SWAP1 POP SWAP3 SWAP2 POP POP JUMP JUMPDEST PUSH0 PUSH1 0x8 DUP4 MUL PUSH2 0xAD7 PUSH32 0xFFFFFFFFFFFFFFFFFFFFFFFFFFFFFFFFFFFFFFFFFFFFFFFFFFFFFFFFFFFFFFFF DUP3 PUSH2 0xA9C JUMP JUMPDEST PUSH2 0xAE1 DUP7 DUP4 PUSH2 0xA9C JUMP JUMPDEST SWAP6 POP DUP1 NOT DUP5 AND SWAP4 POP DUP1 DUP7 AND DUP5 OR SWAP3 POP POP POP SWAP4 SWAP3 POP POP POP JUMP JUMPDEST PUSH0 DUP2 SWAP1 POP SWAP2 SWAP1 POP JUMP JUMPDEST PUSH0 PUSH2 0xB1C PUSH2 0xB17 PUSH2 0xB12 DUP5 PUSH2 0x976 JUMP JUMPDEST PUSH2 0xAF9 JUMP JUMPDEST PUSH2 0x976 JUMP JUMPDEST SWAP1 POP SWAP2 SWAP1 POP JUMP JUMPDEST PUSH0 DUP2 SWAP1 POP SWAP2 SWAP1 POP JUMP JUMPDEST PUSH2 0xB35 DUP4 PUSH2 0xB02 JUMP JUMPDEST PUSH2 0xB49 PUSH2 0xB41 DUP3 PUSH2 0xB23 JUMP JUMPDEST DUP5 DUP5 SLOAD PUSH2 0xAA8 JUMP JUMPDEST DUP3 SSTORE POP POP POP POP JUMP JUMPDEST PUSH0 SWAP1 JUMP JUMPDEST PUSH2 0xB5D PUSH2 0xB51 JUMP JUMPDEST PUSH2 0xB68 DUP2 DUP5 DUP5 PUSH2 0xB2C JUMP JUMPDEST POP POP POP JUMP JUMPDEST JUMPDEST DUP2 DUP2 LT ISZERO PUSH2 0xB8B JUMPI PUSH2 0xB80 PUSH0 DUP3 PUSH2 0xB55 JUMP JUMPDEST PUSH1 0x1 DUP2 ADD SWAP1 POP PUSH2 0xB6E JUMP JUMPDEST POP POP JUMP JUMPDEST PUSH1 0x1F DUP3 GT ISZERO PUSH2 0xBD0 JUMPI PUSH2 0xBA1 DUP2 PUSH2 0xA7B JUMP JUMPDEST PUSH2 0xBAA DUP5 PUSH2 0xA8D JUMP JUMPDEST DUP2 ADD PUSH1 0x20 DUP6 LT ISZERO PUSH2 0xBB9 JUMPI DUP2 SWAP1 POP JUMPDEST PUSH2 0xBCD PUSH2 0xBC5 DUP6 PUSH2 0xA8D JUMP JUMPDEST DUP4 ADD DUP3 PUSH2 0xB6D JUMP JUMPDEST POP POP JUMPDEST POP POP POP JUMP JUMPDEST PUSH0 DUP3 DUP3 SHR SWAP1 POP SWAP3 SWAP2 POP POP JUMP JUMPDEST PUSH0 PUSH2 0xBF0 PUSH0 NOT DUP5 PUSH1 0x8 MUL PUSH2 0xBD5 JUMP JUMPDEST NOT DUP1 DUP4 AND SWAP2 POP POP SWAP3 SWAP2 POP POP JUMP JUMPDEST PUSH0 PUSH2 0xC08 DUP4 DUP4 PUSH2 0xBE1 JUMP JUMPDEST SWAP2 POP DUP3 PUSH1 0x2 MUL DUP3 OR SWAP1 POP SWAP3 SWAP2 POP POP JUMP JUMPDEST PUSH2 0xC21 DUP3 PUSH2 0x9E7 JUMP JUMPDEST PUSH8 0xFFFFFFFFFFFFFFFF DUP2 GT ISZERO PUSH2 0xC3A JUMPI PUSH2 0xC39 PUSH2 0x9F1 JUMP JUMPDEST JUMPDEST PUSH2 0xC44 DUP3 SLOAD PUSH2 0xA4B JUMP JUMPDEST PUSH2 0xC4F DUP3 DUP3 DUP6 PUSH2 0xB8F JUMP JUMPDEST PUSH0 PUSH1 0x20 SWAP1 POP PUSH1 0x1F DUP4 GT PUSH1 0x1 DUP2 EQ PUSH2 0xC80 JUMPI PUSH0 DUP5 ISZERO PUSH2 0xC6E JUMPI DUP3 DUP8 ADD MLOAD SWAP1 POP JUMPDEST PUSH2 0xC78 DUP6 DUP3 PUSH2 0xBFD JUMP JUMPDEST DUP7 SSTORE POP PUSH2 0xCDF JUMP JUMPDEST PUSH1 0x1F NOT DUP5 AND PUSH2 0xC8E DUP7 PUSH2 0xA7B JUMP JUMPDEST PUSH0 JUMPDEST DUP3 DUP2 LT ISZERO PUSH2 0xCB5 JUMPI DUP5 DUP10 ADD MLOAD DUP3 SSTORE PUSH1 0x1 DUP3 ADD SWAP2 POP PUSH1 0x20 DUP6 ADD SWAP5 POP PUSH1 0x20 DUP2 ADD SWAP1 POP PUSH2 0xC90 JUMP JUMPDEST DUP7 DUP4 LT ISZERO PUSH2 0xCD2 JUMPI DUP5 DUP10 ADD MLOAD PUSH2 0xCCE PUSH1 0x1F DUP10 AND DUP3 PUSH2 0xBE1 JUMP JUMPDEST DUP4 SSTORE POP JUMPDEST PUSH1 0x1 PUSH1 0x2 DUP9 MUL ADD DUP9 SSTORE POP POP POP JUMPDEST POP POP POP POP POP POP JUMP JUMPDEST PUSH2 0xCF0 DUP2 PUSH2 0x93B JUMP JUMPDEST DUP3 MSTORE POP POP JUMP JUMPDEST PUSH0 PUSH1 0x20 DUP3 ADD SWAP1 POP PUSH2 0xD09 PUSH0 DUP4 ADD DUP5 PUSH2 0xCE7 JUMP JUMPDEST SWAP3 SWAP2 POP POP JUMP JUMPDEST PUSH32 0x4E487B7100000000000000000000000000000000000000000000000000000000 PUSH0 MSTORE PUSH1 0x11 PUSH1 0x4 MSTORE PUSH1 0x24 PUSH0 REVERT JUMPDEST PUSH0 PUSH2 0xD46 DUP3 PUSH2 0x976 JUMP JUMPDEST SWAP2 POP PUSH2 0xD51 DUP4 PUSH2 0x976 JUMP JUMPDEST SWAP3 POP DUP3 DUP3 ADD SWAP1 POP DUP1 DUP3 GT ISZERO PUSH2 0xD69 JUMPI PUSH2 0xD68 PUSH2 0xD0F JUMP JUMPDEST JUMPDEST SWAP3 SWAP2 POP POP JUMP JUMPDEST PUSH2 0xD78 DUP2 PUSH2 0x976 JUMP JUMPDEST DUP3 MSTORE POP POP JUMP JUMPDEST PUSH0 PUSH1 0x60 DUP3 ADD SWAP1 POP PUSH2 0xD91 PUSH0 DUP4 ADD DUP7 PUSH2 0xCE7 JUMP JUMPDEST PUSH2 0xD9E PUSH1 0x20 DUP4 ADD DUP6 PUSH2 0xD6F JUMP JUMPDEST PUSH2 0xDAB PUSH1 0x40 DUP4 ADD DUP5 PUSH2 0xD6F JUMP JUMPDEST SWAP5 SWAP4 POP POP POP POP JUMP JUMPDEST PUSH0 PUSH1 0x20 DUP3 ADD SWAP1 POP PUSH2 0xDC6 PUSH0 DUP4 ADD DUP5 PUSH2 0xD6F JUMP JUMPDEST SWAP3 SWAP2 POP POP JUMP JUMPDEST PUSH2 0x22C7 DUP1 PUSH2 0xDD9 PUSH0 CODECOPY PUSH0 RETURN INVALID PUSH1 0x80 PUSH1 0x40 MSTORE CALLVALUE DUP1 ISZERO PUSH2 0xF JUMPI PUSH0 DUP1 REVERT JUMPDEST POP PUSH1 0x4 CALLDATASIZE LT PUSH2 0x156 JUMPI PUSH0 CALLDATALOAD PUSH1 0xE0 SHR DUP1 PUSH4 0x715018A6 GT PUSH2 0xC1 JUMPI DUP1 PUSH4 0xAF3BCB7D GT PUSH2 0x7A JUMPI DUP1 PUSH4 0xAF3BCB7D EQ PUSH2 0x39E JUMPI DUP1 PUSH4 0xDD62ED3E EQ PUSH2 0x3BA JUMPI DUP1 PUSH4 0xEA5E65E0 EQ PUSH2 0x3EA JUMPI DUP1 PUSH4 0xF2FDE38B EQ PUSH2 0x406 JUMPI DUP1 PUSH4 0xF5112F87 EQ PUSH2 0x422 JUMPI DUP1 PUSH4 0xFBD1A97B EQ PUSH2 0x42C JUMPI PUSH2 0x156 JUMP JUMPDEST DUP1 PUSH4 0x715018A6 EQ PUSH2 0x2F0 JUMPI DUP1 PUSH4 0x79CC6790 EQ PUSH2 0x2FA JUMPI DUP1 PUSH4 0x7B47EC1A EQ PUSH2 0x316 JUMPI DUP1 PUSH4 0x8DA5CB5B EQ PUSH2 0x332 JUMPI DUP1 PUSH4 0x95D89B41 EQ PUSH2 0x350 JUMPI DUP1 PUSH4 0xA9059CBB EQ PUSH2 0x36E JUMPI PUSH2 0x156 JUMP JUMPDEST DUP1 PUSH4 0x23B872DD GT PUSH2 0x113 JUMPI DUP1 PUSH4 0x23B872DD EQ PUSH2 0x21E JUMPI DUP1 PUSH4 0x313CE567 EQ PUSH2 0x24E JUMPI DUP1 PUSH4 0x40C10F19 EQ PUSH2 0x26C JUMPI DUP1 PUSH4 0x42966C68 EQ PUSH2 0x288 JUMPI DUP1 PUSH4 0x62D6BBDF EQ PUSH2 0x2A4 JUMPI DUP1 PUSH4 0x70A08231 EQ PUSH2 0x2C0 JUMPI PUSH2 0x156 JUMP JUMPDEST DUP1 PUSH4 0x6FDDE03 EQ PUSH2 0x15A JUMPI DUP1 PUSH4 0x95EA7B3 EQ PUSH2 0x178 JUMPI DUP1 PUSH4 0x1072CBEA EQ PUSH2 0x1A8 JUMPI DUP1 PUSH4 0x12065FE0 EQ PUSH2 0x1C4 JUMPI DUP1 PUSH4 0x17D70F7C EQ PUSH2 0x1E2 JUMPI DUP1 PUSH4 0x18160DDD EQ PUSH2 0x200 JUMPI JUMPDEST PUSH0 DUP1 REVERT JUMPDEST PUSH2 0x162 PUSH2 0x45E JUMP JUMPDEST PUSH1 0x40 MLOAD PUSH2 0x16F SWAP2 SWAP1 PUSH2 0x153C JUMP JUMPDEST PUSH1 0x40 MLOAD DUP1 SWAP2 SUB SWAP1 RETURN JUMPDEST PUSH2 0x192 PUSH1 0x4 DUP1 CALLDATASIZE SUB DUP2 ADD SWAP1 PUSH2 0x18D SWAP2 SWAP1 PUSH2 0x15FA JUMP JUMPDEST PUSH2 0x4EE JUMP JUMPDEST PUSH1 0x40 MLOAD PUSH2 0x19F SWAP2 SWAP1 PUSH2 0x1652 JUMP JUMPDEST PUSH1 0x40 MLOAD DUP1 SWAP2 SUB SWAP1 RETURN JUMPDEST PUSH2 0x1C2 PUSH1 0x4 DUP1 CALLDATASIZE SUB DUP2 ADD SWAP1 PUSH2 0x1BD SWAP2 SWAP1 PUSH2 0x15FA JUMP JUMPDEST PUSH2 0x510 JUMP JUMPDEST STOP JUMPDEST PUSH2 0x1CC PUSH2 0x56A JUMP JUMPDEST PUSH1 0x40 MLOAD PUSH2 0x1D9 SWAP2 SWAP1 PUSH2 0x167A JUMP JUMPDEST PUSH1 0x40 MLOAD DUP1 SWAP2 SUB SWAP1 RETURN JUMPDEST PUSH2 0x1EA PUSH2 0x579 JUMP JUMPDEST PUSH1 0x40 MLOAD PUSH2 0x1F7 SWAP2 SWAP1 PUSH2 0x16AE JUMP JUMPDEST PUSH1 0x40 MLOAD DUP1 SWAP2 SUB SWAP1 RETURN JUMPDEST PUSH2 0x208 PUSH2 0x58B JUMP JUMPDEST PUSH1 0x40 MLOAD PUSH2 0x215 SWAP2 SWAP1 PUSH2 0x167A JUMP JUMPDEST PUSH1 0x40 MLOAD DUP1 SWAP2 SUB SWAP1 RETURN JUMPDEST PUSH2 0x238 PUSH1 0x4 DUP1 CALLDATASIZE SUB DUP2 ADD SWAP1 PUSH2 0x233 SWAP2 SWAP1 PUSH2 0x16C7 JUMP JUMPDEST PUSH2 0x594 JUMP JUMPDEST PUSH1 0x40 MLOAD PUSH2 0x245 SWAP2 SWAP1 PUSH2 0x1652 JUMP JUMPDEST PUSH1 0x40 MLOAD DUP1 SWAP2 SUB SWAP1 RETURN JUMPDEST PUSH2 0x256 PUSH2 0x5C2 JUMP JUMPDEST PUSH1 0x40 MLOAD PUSH2 0x263 SWAP2 SWAP1 PUSH2 0x16AE JUMP JUMPDEST PUSH1 0x40 MLOAD DUP1 SWAP2 SUB SWAP1 RETURN JUMPDEST PUSH2 0x286 PUSH1 0x4 DUP1 CALLDATASIZE SUB DUP2 ADD SWAP1 PUSH2 0x281 SWAP2 SWAP1 PUSH2 0x15FA JUMP JUMPDEST PUSH2 0x5C6 JUMP JUMPDEST STOP JUMPDEST PUSH2 0x2A2 PUSH1 0x4 DUP1 CALLDATASIZE SUB DUP2 ADD SWAP1 PUSH2 0x29D SWAP2 SWAP1 PUSH2 0x1717 JUMP JUMPDEST PUSH2 0x5DC JUMP JUMPDEST STOP JUMPDEST PUSH2 0x2BE PUSH1 0x4 DUP1 CALLDATASIZE SUB DUP2 ADD SWAP1 PUSH2 0x2B9 SWAP2 SWAP1 PUSH2 0x186E JUMP JUMPDEST PUSH2 0x5F0 JUMP JUMPDEST STOP JUMPDEST PUSH2 0x2DA PUSH1 0x4 DUP1 CALLDATASIZE SUB DUP2 ADD SWAP1 PUSH2 0x2D5 SWAP2 SWAP1 PUSH2 0x18C8 JUMP JUMPDEST PUSH2 0x6C5 JUMP JUMPDEST PUSH1 0x40 MLOAD PUSH2 0x2E7 SWAP2 SWAP1 PUSH2 0x167A JUMP JUMPDEST PUSH1 0x40 MLOAD DUP1 SWAP2 SUB SWAP1 RETURN JUMPDEST PUSH2 0x2F8 PUSH2 0x70A JUMP JUMPDEST STOP JUMPDEST PUSH2 0x314 PUSH1 0x4 DUP1 CALLDATASIZE SUB DUP2 ADD SWAP1 PUSH2 0x30F SWAP2 SWAP1 PUSH2 0x15FA JUMP JUMPDEST PUSH2 0x71D JUMP JUMPDEST STOP JUMPDEST PUSH2 0x330 PUSH1 0x4 DUP1 CALLDATASIZE SUB DUP2 ADD SWAP1 PUSH2 0x32B SWAP2 SWAP1 PUSH2 0x1717 JUMP JUMPDEST PUSH2 0x73D JUMP JUMPDEST STOP JUMPDEST PUSH2 0x33A PUSH2 0x794 JUMP JUMPDEST PUSH1 0x40 MLOAD PUSH2 0x347 SWAP2 SWAP1 PUSH2 0x1902 JUMP JUMPDEST PUSH1 0x40 MLOAD DUP1 SWAP2 SUB SWAP1 RETURN JUMPDEST PUSH2 0x358 PUSH2 0x7BC JUMP JUMPDEST PUSH1 0x40 MLOAD PUSH2 0x365 SWAP2 SWAP1 PUSH2 0x153C JUMP JUMPDEST PUSH1 0x40 MLOAD DUP1 SWAP2 SUB SWAP1 RETURN JUMPDEST PUSH2 0x388 PUSH1 0x4 DUP1 CALLDATASIZE SUB DUP2 ADD SWAP1 PUSH2 0x383 SWAP2 SWAP1 PUSH2 0x15FA JUMP JUMPDEST PUSH2 0x84C JUMP JUMPDEST PUSH1 0x40 MLOAD PUSH2 0x395 SWAP2 SWAP1 PUSH2 0x1652 JUMP JUMPDEST PUSH1 0x40 MLOAD DUP1 SWAP2 SUB SWAP1 RETURN JUMPDEST PUSH2 0x3B8 PUSH1 0x4 DUP1 CALLDATASIZE SUB DUP2 ADD SWAP1 PUSH2 0x3B3 SWAP2 SWAP1 PUSH2 0x1945 JUMP JUMPDEST PUSH2 0x86E JUMP JUMPDEST STOP JUMPDEST PUSH2 0x3D4 PUSH1 0x4 DUP1 CALLDATASIZE SUB DUP2 ADD SWAP1 PUSH2 0x3CF SWAP2 SWAP1 PUSH2 0x1970 JUMP JUMPDEST PUSH2 0x9D9 JUMP JUMPDEST PUSH1 0x40 MLOAD PUSH2 0x3E1 SWAP2 SWAP1 PUSH2 0x167A JUMP JUMPDEST PUSH1 0x40 MLOAD DUP1 SWAP2 SUB SWAP1 RETURN JUMPDEST PUSH2 0x404 PUSH1 0x4 DUP1 CALLDATASIZE SUB DUP2 ADD SWAP1 PUSH2 0x3FF SWAP2 SWAP1 PUSH2 0x19D8 JUMP JUMPDEST PUSH2 0xA5B JUMP JUMPDEST STOP JUMPDEST PUSH2 0x420 PUSH1 0x4 DUP1 CALLDATASIZE SUB DUP2 ADD SWAP1 PUSH2 0x41B SWAP2 SWAP1 PUSH2 0x18C8 JUMP JUMPDEST PUSH2 0xB6E JUMP JUMPDEST STOP JUMPDEST PUSH2 0x42A PUSH2 0xBF2 JUMP JUMPDEST STOP JUMPDEST PUSH2 0x446 PUSH1 0x4 DUP1 CALLDATASIZE SUB DUP2 ADD SWAP1 PUSH2 0x441 SWAP2 SWAP1 PUSH2 0x1945 JUMP JUMPDEST PUSH2 0xC49 JUMP JUMPDEST PUSH1 0x40 MLOAD PUSH2 0x455 SWAP4 SWAP3 SWAP2 SWAP1 PUSH2 0x1A16 JUMP JUMPDEST PUSH1 0x40 MLOAD DUP1 SWAP2 SUB SWAP1 RETURN JUMPDEST PUSH1 0x60 PUSH1 0x3 DUP1 SLOAD PUSH2 0x46D SWAP1 PUSH2 0x1A7F JUMP JUMPDEST DUP1 PUSH1 0x1F ADD PUSH1 0x20 DUP1 SWAP2 DIV MUL PUSH1 0x20 ADD PUSH1 0x40 MLOAD SWAP1 DUP2 ADD PUSH1 0x40 MSTORE DUP1 SWAP3 SWAP2 SWAP1 DUP2 DUP2 MSTORE PUSH1 0x20 ADD DUP3 DUP1 SLOAD PUSH2 0x499 SWAP1 PUSH2 0x1A7F JUMP JUMPDEST DUP1 ISZERO PUSH2 0x4E4 JUMPI DUP1 PUSH1 0x1F LT PUSH2 0x4BB JUMPI PUSH2 0x100 DUP1 DUP4 SLOAD DIV MUL DUP4 MSTORE SWAP2 PUSH1 0x20 ADD SWAP2 PUSH2 0x4E4 JUMP JUMPDEST DUP3 ADD SWAP2 SWAP1 PUSH0 MSTORE PUSH1 0x20 PUSH0 KECCAK256 SWAP1 JUMPDEST DUP2 SLOAD DUP2 MSTORE SWAP1 PUSH1 0x1 ADD SWAP1 PUSH1 0x20 ADD DUP1 DUP4 GT PUSH2 0x4C7 JUMPI DUP3 SWAP1 SUB PUSH1 0x1F AND DUP3 ADD SWAP2 JUMPDEST POP POP POP POP POP SWAP1 POP SWAP1 JUMP JUMPDEST PUSH0 DUP1 PUSH2 0x4F8 PUSH2 0xD01 JUMP JUMPDEST SWAP1 POP PUSH2 0x505 DUP2 DUP6 DUP6 PUSH2 0xD08 JUMP JUMPDEST PUSH1 0x1 SWAP2 POP POP SWAP3 SWAP2 POP POP JUMP JUMPDEST DUP1 PUSH2 0x51A CALLER PUSH2 0x6C5 JUMP JUMPDEST LT ISZERO PUSH2 0x55B JUMPI PUSH1 0x40 MLOAD PUSH32 0x8C379A000000000000000000000000000000000000000000000000000000000 DUP2 MSTORE PUSH1 0x4 ADD PUSH2 0x552 SWAP1 PUSH2 0x1AF9 JUMP JUMPDEST PUSH1 0x40 MLOAD DUP1 SWAP2 SUB SWAP1 REVERT JUMPDEST PUSH2 0x565 DUP3 DUP3 PUSH2 0x84C JUMP JUMPDEST POP POP POP JUMP JUMPDEST PUSH0 PUSH2 0x574 CALLER PUSH2 0x6C5 JUMP JUMPDEST SWAP1 POP SWAP1 JUMP JUMPDEST PUSH1 0x7 PUSH0 SWAP1 SLOAD SWAP1 PUSH2 0x100 EXP SWAP1 DIV PUSH1 0xFF AND DUP2 JUMP JUMPDEST PUSH0 PUSH1 0x2 SLOAD SWAP1 POP SWAP1 JUMP JUMPDEST PUSH0 DUP1 PUSH2 0x59E PUSH2 0xD01 JUMP JUMPDEST SWAP1 POP PUSH2 0x5AB DUP6 DUP3 DUP6 PUSH2 0xD1A JUMP JUMPDEST PUSH2 0x5B6 DUP6 DUP6 DUP6 PUSH2 0xDAC JUMP JUMPDEST PUSH1 0x1 SWAP2 POP POP SWAP4 SWAP3 POP POP POP JUMP JUMPDEST PUSH0 SWAP1 JUMP JUMPDEST PUSH2 0x5CE PUSH2 0xE9C JUMP JUMPDEST PUSH2 0x5D8 DUP3 DUP3 PUSH2 0xF23 JUMP JUMPDEST POP POP JUMP JUMPDEST PUSH2 0x5ED PUSH2 0x5E7 PUSH2 0xD01 JUMP JUMPDEST DUP3 PUSH2 0xFA2 JUMP JUMPDEST POP JUMP JUMPDEST PUSH2 0x5F8 PUSH2 0xE9C JUMP JUMPDEST PUSH1 0x40 MLOAD DUP1 PUSH1 0x60 ADD PUSH1 0x40 MSTORE DUP1 DUP4 DUP2 MSTORE PUSH1 0x20 ADD PUSH1 0x7 PUSH0 SWAP1 SLOAD SWAP1 PUSH2 0x100 EXP SWAP1 DIV PUSH1 0xFF AND PUSH1 0xFF AND DUP2 MSTORE PUSH1 0x20 ADD DUP3 DUP2 MSTORE POP PUSH1 0x6 PUSH0 PUSH1 0x7 PUSH0 SWAP1 SLOAD SWAP1 PUSH2 0x100 EXP SWAP1 DIV PUSH1 0xFF AND PUSH1 0xFF AND PUSH1 0xFF AND DUP2 MSTORE PUSH1 0x20 ADD SWAP1 DUP2 MSTORE PUSH1 0x20 ADD PUSH0 KECCAK256 PUSH0 DUP3 ADD MLOAD DUP2 PUSH0 ADD SWAP1 DUP2 PUSH2 0x65C SWAP2 SWAP1 PUSH2 0x1CB4 JUMP JUMPDEST POP PUSH1 0x20 DUP3 ADD MLOAD DUP2 PUSH1 0x1 ADD PUSH0 PUSH2 0x100 EXP DUP2 SLOAD DUP2 PUSH1 0xFF MUL NOT AND SWAP1 DUP4 PUSH1 0xFF AND MUL OR SWAP1 SSTORE POP PUSH1 0x40 DUP3 ADD MLOAD DUP2 PUSH1 0x2 ADD SSTORE SWAP1 POP POP PUSH1 0x7 PUSH0 DUP2 DUP2 SWAP1 SLOAD SWAP1 PUSH2 0x100 EXP SWAP1 DIV PUSH1 0xFF AND DUP1 SWAP3 SWAP2 SWAP1 PUSH2 0x6A8 SWAP1 PUSH2 0x1DB0 JUMP JUMPDEST SWAP2 SWAP1 PUSH2 0x100 EXP DUP2 SLOAD DUP2 PUSH1 0xFF MUL NOT AND SWAP1 DUP4 PUSH1 0xFF AND MUL OR SWAP1 SSTORE POP POP POP POP JUMP JUMPDEST PUSH0 DUP1 PUSH0 DUP4 PUSH20 0xFFFFFFFFFFFFFFFFFFFFFFFFFFFFFFFFFFFFFFFF AND PUSH20 0xFFFFFFFFFFFFFFFFFFFFFFFFFFFFFFFFFFFFFFFF AND DUP2 MSTORE PUSH1 0x20 ADD SWAP1 DUP2 MSTORE PUSH1 0x20 ADD PUSH0 KECCAK256 SLOAD SWAP1 POP SWAP2 SWAP1 POP JUMP JUMPDEST PUSH2 0x712 PUSH2 0xE9C JUMP JUMPDEST PUSH2 0x71B PUSH0 PUSH2 0x1021 JUMP JUMPDEST JUMP JUMPDEST PUSH2 0x72F DUP3 PUSH2 0x729 PUSH2 0xD01 JUMP JUMPDEST DUP4 PUSH2 0xD1A JUMP JUMPDEST PUSH2 0x739 DUP3 DUP3 PUSH2 0xFA2 JUMP JUMPDEST POP POP JUMP JUMPDEST DUP1 PUSH2 0x747 CALLER PUSH2 0x6C5 JUMP JUMPDEST LT ISZERO PUSH2 0x788 JUMPI PUSH1 0x40 MLOAD PUSH32 0x8C379A000000000000000000000000000000000000000000000000000000000 DUP2 MSTORE PUSH1 0x4 ADD PUSH2 0x77F SWAP1 PUSH2 0x1E22 JUMP JUMPDEST PUSH1 0x40 MLOAD DUP1 SWAP2 SUB SWAP1 REVERT JUMPDEST PUSH2 0x791 DUP2 PUSH2 0x5DC JUMP JUMPDEST POP JUMP JUMPDEST PUSH0 PUSH1 0x5 PUSH0 SWAP1 SLOAD SWAP1 PUSH2 0x100 EXP SWAP1 DIV PUSH20 0xFFFFFFFFFFFFFFFFFFFFFFFFFFFFFFFFFFFFFFFF AND SWAP1 POP SWAP1 JUMP JUMPDEST PUSH1 0x60 PUSH1 0x4 DUP1 SLOAD PUSH2 0x7CB SWAP1 PUSH2 0x1A7F JUMP JUMPDEST DUP1 PUSH1 0x1F ADD PUSH1 0x20 DUP1 SWAP2 DIV MUL PUSH1 0x20 ADD PUSH1 0x40 MLOAD SWAP1 DUP2 ADD PUSH1 0x40 MSTORE DUP1 SWAP3 SWAP2 SWAP1 DUP2 DUP2 MSTORE PUSH1 0x20 ADD DUP3 DUP1 SLOAD PUSH2 0x7F7 SWAP1 PUSH2 0x1A7F JUMP JUMPDEST DUP1 ISZERO PUSH2 0x842 JUMPI DUP1 PUSH1 0x1F LT PUSH2 0x819 JUMPI PUSH2 0x100 DUP1 DUP4 SLOAD DIV MUL DUP4 MSTORE SWAP2 PUSH1 0x20 ADD SWAP2 PUSH2 0x842 JUMP JUMPDEST DUP3 ADD SWAP2 SWAP1 PUSH0 MSTORE PUSH1 0x20 PUSH0 KECCAK256 SWAP1 JUMPDEST DUP2 SLOAD DUP2 MSTORE SWAP1 PUSH1 0x1 ADD SWAP1 PUSH1 0x20 ADD DUP1 DUP4 GT PUSH2 0x825 JUMPI DUP3 SWAP1 SUB PUSH1 0x1F AND DUP3 ADD SWAP2 JUMPDEST POP POP POP POP POP SWAP1 POP SWAP1 JUMP JUMPDEST PUSH0 DUP1 PUSH2 0x856 PUSH2 0xD01 JUMP JUMPDEST SWAP1 POP PUSH2 0x863 DUP2 DUP6 DUP6 PUSH2 0xDAC JUMP JUMPDEST PUSH1 0x1 SWAP2 POP POP SWAP3 SWAP2 POP POP JUMP JUMPDEST PUSH0 PUSH1 0x6 PUSH0 DUP4 PUSH1 0xFF AND PUSH1 0xFF AND DUP2 MSTORE PUSH1 0x20 ADD SWAP1 DUP2 MSTORE PUSH1 0x20 ADD PUSH0 KECCAK256 PUSH1 0x2 ADD SLOAD SUB PUSH2 0x8CA JUMPI PUSH1 0x40 MLOAD PUSH32 0x8C379A000000000000000000000000000000000000000000000000000000000 DUP2 MSTORE PUSH1 0x4 ADD PUSH2 0x8C1 SWAP1 PUSH2 0x1E8A JUMP JUMPDEST PUSH1 0x40 MLOAD DUP1 SWAP2 SUB SWAP1 REVERT JUMPDEST PUSH1 0x6 PUSH0 DUP3 PUSH1 0xFF AND PUSH1 0xFF AND DUP2 MSTORE PUSH1 0x20 ADD SWAP1 DUP2 MSTORE PUSH1 0x20 ADD PUSH0 KECCAK256 PUSH1 0x2 ADD SLOAD PUSH2 0x8EE CALLER PUSH2 0x6C5 JUMP JUMPDEST LT ISZERO PUSH2 0x92F JUMPI PUSH1 0x40 MLOAD PUSH32 0x8C379A000000000000000000000000000000000000000000000000000000000 DUP2 MSTORE PUSH1 0x4 ADD PUSH2 0x926 SWAP1 PUSH2 0x1AF9 JUMP JUMPDEST PUSH1 0x40 MLOAD DUP1 SWAP2 SUB SWAP1 REVERT JUMPDEST PUSH2 0x952 PUSH1 0x6 PUSH0 DUP4 PUSH1 0xFF AND PUSH1 0xFF AND DUP2 MSTORE PUSH1 0x20 ADD SWAP1 DUP2 MSTORE PUSH1 0x20 ADD PUSH0 KECCAK256 PUSH1 0x2 ADD SLOAD PUSH2 0x5DC JUMP JUMPDEST CALLER PUSH20 0xFFFFFFFFFFFFFFFFFFFFFFFFFFFFFFFFFFFFFFFF AND PUSH32 0x8BEDD141782C49139782BD92BD7A760A0BCB544FFECFD2B25F00366FAE06598E DUP3 PUSH1 0x6 PUSH0 DUP6 PUSH1 0xFF AND PUSH1 0xFF AND DUP2 MSTORE PUSH1 0x20 ADD SWAP1 DUP2 MSTORE PUSH1 0x20 ADD PUSH0 KECCAK256 PUSH0 ADD PUSH1 0x6 PUSH0 DUP7 PUSH1 0xFF AND PUSH1 0xFF AND DUP2 MSTORE PUSH1 0x20 ADD SWAP1 DUP2 MSTORE PUSH1 0x20 ADD PUSH0 KECCAK256 PUSH1 0x2 ADD SLOAD PUSH1 0x40 MLOAD PUSH2 0x9CE SWAP4 SWAP3 SWAP2 SWAP1 PUSH2 0x1F29 JUMP JUMPDEST PUSH1 0x40 MLOAD DUP1 SWAP2 SUB SWAP1 LOG2 POP JUMP JUMPDEST PUSH0 PUSH1 0x1 PUSH0 DUP5 PUSH20 0xFFFFFFFFFFFFFFFFFFFFFFFFFFFFFFFFFFFFFFFF AND PUSH20 0xFFFFFFFFFFFFFFFFFFFFFFFFFFFFFFFFFFFFFFFF AND DUP2 MSTORE PUSH1 0x20 ADD SWAP1 DUP2 MSTORE PUSH1 0x20 ADD PUSH0 KECCAK256 PUSH0 DUP4 PUSH20 0xFFFFFFFFFFFFFFFFFFFFFFFFFFFFFFFFFFFFFFFF AND PUSH20 0xFFFFFFFFFFFFFFFFFFFFFFFFFFFFFFFFFFFFFFFF AND DUP2 MSTORE PUSH1 0x20 ADD SWAP1 DUP2 MSTORE PUSH1 0x20 ADD PUSH0 KECCAK256 SLOAD SWAP1 POP SWAP3 SWAP2 POP POP JUMP JUMPDEST PUSH0 PUSH1 0xA TIMESTAMP CALLER PUSH1 0x40 MLOAD PUSH1 0x20 ADD PUSH2 0xA71 SWAP3 SWAP2 SWAP1 PUSH2 0x1FCA JUMP JUMPDEST PUSH1 0x40 MLOAD PUSH1 0x20 DUP2 DUP4 SUB SUB DUP2 MSTORE SWAP1 PUSH1 0x40 MSTORE DUP1 MLOAD SWAP1 PUSH1 0x20 ADD KECCAK256 PUSH0 SHR PUSH2 0xA93 SWAP2 SWAP1 PUSH2 0x2022 JUMP JUMPDEST SWAP1 POP PUSH1 0x5 DUP2 LT ISZERO ISZERO DUP4 ISZERO ISZERO SUB PUSH2 0xB0F JUMPI PUSH2 0xAB9 CALLER PUSH1 0x2 DUP5 PUSH2 0xAB4 SWAP2 SWAP1 PUSH2 0x2052 JUMP JUMPDEST PUSH2 0xF23 JUMP JUMPDEST CALLER PUSH20 0xFFFFFFFFFFFFFFFFFFFFFFFFFFFFFFFFFFFFFFFF AND PUSH32 0xD04D9689D8E43BC0BACEA67661EF472DCF321F34F08AF72F651AF30C4C866587 DUP3 PUSH1 0x1 PUSH1 0x40 MLOAD PUSH2 0xB02 SWAP3 SWAP2 SWAP1 PUSH2 0x20DD JUMP JUMPDEST PUSH1 0x40 MLOAD DUP1 SWAP2 SUB SWAP1 LOG2 PUSH2 0xB69 JUMP JUMPDEST PUSH2 0xB18 DUP3 PUSH2 0x5DC JUMP JUMPDEST CALLER PUSH20 0xFFFFFFFFFFFFFFFFFFFFFFFFFFFFFFFFFFFFFFFF AND PUSH32 0xD04D9689D8E43BC0BACEA67661EF472DCF321F34F08AF72F651AF30C4C866587 DUP3 PUSH0 PUSH1 0x40 MLOAD PUSH2 0xB60 SWAP3 SWAP2 SWAP1 PUSH2 0x2161 JUMP JUMPDEST PUSH1 0x40 MLOAD DUP1 SWAP2 SUB SWAP1 LOG2 JUMPDEST POP POP POP JUMP JUMPDEST PUSH2 0xB76 PUSH2 0xE9C JUMP JUMPDEST PUSH0 PUSH20 0xFFFFFFFFFFFFFFFFFFFFFFFFFFFFFFFFFFFFFFFF AND DUP2 PUSH20 0xFFFFFFFFFFFFFFFFFFFFFFFFFFFFFFFFFFFFFFFF AND SUB PUSH2 0xBE6 JUMPI PUSH0 PUSH1 0x40 MLOAD PUSH32 0x1E4FBDF700000000000000000000000000000000000000000000000000000000 DUP2 MSTORE PUSH1 0x4 ADD PUSH2 0xBDD SWAP2 SWAP1 PUSH2 0x1902 JUMP JUMPDEST PUSH1 0x40 MLOAD DUP1 SWAP2 SUB SWAP1 REVERT JUMPDEST PUSH2 0xBEF DUP2 PUSH2 0x1021 JUMP JUMPDEST POP JUMP JUMPDEST PUSH0 PUSH2 0xBFC CALLER PUSH2 0x6C5 JUMP JUMPDEST EQ PUSH2 0xC3C JUMPI PUSH1 0x40 MLOAD PUSH32 0x8C379A000000000000000000000000000000000000000000000000000000000 DUP2 MSTORE PUSH1 0x4 ADD PUSH2 0xC33 SWAP1 PUSH2 0x220B JUMP JUMPDEST PUSH1 0x40 MLOAD DUP1 SWAP2 SUB SWAP1 REVERT JUMPDEST PUSH2 0xC47 CALLER PUSH1 0x32 PUSH2 0xF23 JUMP JUMPDEST JUMP JUMPDEST PUSH1 0x6 PUSH1 0x20 MSTORE DUP1 PUSH0 MSTORE PUSH1 0x40 PUSH0 KECCAK256 PUSH0 SWAP2 POP SWAP1 POP DUP1 PUSH0 ADD DUP1 SLOAD PUSH2 0xC68 SWAP1 PUSH2 0x1A7F JUMP JUMPDEST DUP1 PUSH1 0x1F ADD PUSH1 0x20 DUP1 SWAP2 DIV MUL PUSH1 0x20 ADD PUSH1 0x40 MLOAD SWAP1 DUP2 ADD PUSH1 0x40 MSTORE DUP1 SWAP3 SWAP2 SWAP1 DUP2 DUP2 MSTORE PUSH1 0x20 ADD DUP3 DUP1 SLOAD PUSH2 0xC94 SWAP1 PUSH2 0x1A7F JUMP JUMPDEST DUP1 ISZERO PUSH2 0xCDF JUMPI DUP1 PUSH1 0x1F LT PUSH2 0xCB6 JUMPI PUSH2 0x100 DUP1 DUP4 SLOAD DIV MUL DUP4 MSTORE SWAP2 PUSH1 0x20 ADD SWAP2 PUSH2 0xCDF JUMP JUMPDEST DUP3 ADD SWAP2 SWAP1 PUSH0 MSTORE PUSH1 0x20 PUSH0 KECCAK256 SWAP1 JUMPDEST DUP2 SLOAD DUP2 MSTORE SWAP1 PUSH1 0x1 ADD SWAP1 PUSH1 0x20 ADD DUP1 DUP4 GT PUSH2 0xCC2 JUMPI DUP3 SWAP1 SUB PUSH1 0x1F AND DUP3 ADD SWAP2 JUMPDEST POP POP POP POP POP SWAP1 DUP1 PUSH1 0x1 ADD PUSH0 SWAP1 SLOAD SWAP1 PUSH2 0x100 EXP SWAP1 DIV PUSH1 0xFF AND SWAP1 DUP1 PUSH1 0x2 ADD SLOAD SWAP1 POP DUP4 JUMP JUMPDEST PUSH0 CALLER SWAP1 POP SWAP1 JUMP JUMPDEST PUSH2 0xD15 DUP4 DUP4 DUP4 PUSH1 0x1 PUSH2 0x10E4 JUMP JUMPDEST POP POP POP JUMP JUMPDEST PUSH0 PUSH2 0xD25 DUP5 DUP5 PUSH2 0x9D9 JUMP JUMPDEST SWAP1 POP PUSH32 0xFFFFFFFFFFFFFFFFFFFFFFFFFFFFFFFFFFFFFFFFFFFFFFFFFFFFFFFFFFFFFFFF DUP2 EQ PUSH2 0xDA6 JUMPI DUP2 DUP2 LT ISZERO PUSH2 0xD97 JUMPI DUP3 DUP2 DUP4 PUSH1 0x40 MLOAD PUSH32 0xFB8F41B200000000000000000000000000000000000000000000000000000000 DUP2 MSTORE PUSH1 0x4 ADD PUSH2 0xD8E SWAP4 SWAP3 SWAP2 SWAP1 PUSH2 0x2229 JUMP JUMPDEST PUSH1 0x40 MLOAD DUP1 SWAP2 SUB SWAP1 REVERT JUMPDEST PUSH2 0xDA5 DUP5 DUP5 DUP5 DUP5 SUB PUSH0 PUSH2 0x10E4 JUMP JUMPDEST JUMPDEST POP POP POP POP JUMP JUMPDEST PUSH0 PUSH20 0xFFFFFFFFFFFFFFFFFFFFFFFFFFFFFFFFFFFFFFFF AND DUP4 PUSH20 0xFFFFFFFFFFFFFFFFFFFFFFFFFFFFFFFFFFFFFFFF AND SUB PUSH2 0xE1C JUMPI PUSH0 PUSH1 0x40 MLOAD PUSH32 0x96C6FD1E00000000000000000000000000000000000000000000000000000000 DUP2 MSTORE PUSH1 0x4 ADD PUSH2 0xE13 SWAP2 SWAP1 PUSH2 0x1902 JUMP JUMPDEST PUSH1 0x40 MLOAD DUP1 SWAP2 SUB SWAP1 REVERT JUMPDEST PUSH0 PUSH20 0xFFFFFFFFFFFFFFFFFFFFFFFFFFFFFFFFFFFFFFFF AND DUP3 PUSH20 0xFFFFFFFFFFFFFFFFFFFFFFFFFFFFFFFFFFFFFFFF AND SUB PUSH2 0xE8C JUMPI PUSH0 PUSH1 0x40 MLOAD PUSH32 0xEC442F0500000000000000000000000000000000000000000000000000000000 DUP2 MSTORE PUSH1 0x4 ADD PUSH2 0xE83 SWAP2 SWAP1 PUSH2 0x1902 JUMP JUMPDEST PUSH1 0x40 MLOAD DUP1 SWAP2 SUB SWAP1 REVERT JUMPDEST PUSH2 0xE97 DUP4 DUP4 DUP4 PUSH2 0x12B3 JUMP JUMPDEST POP POP POP JUMP JUMPDEST PUSH2 0xEA4 PUSH2 0xD01 JUMP JUMPDEST PUSH20 0xFFFFFFFFFFFFFFFFFFFFFFFFFFFFFFFFFFFFFFFF AND PUSH2 0xEC2 PUSH2 0x794 JUMP JUMPDEST PUSH20 0xFFFFFFFFFFFFFFFFFFFFFFFFFFFFFFFFFFFFFFFF AND EQ PUSH2 0xF21 JUMPI PUSH2 0xEE5 PUSH2 0xD01 JUMP JUMPDEST PUSH1 0x40 MLOAD PUSH32 0x118CDAA700000000000000000000000000000000000000000000000000000000 DUP2 MSTORE PUSH1 0x4 ADD PUSH2 0xF18 SWAP2 SWAP1 PUSH2 0x1902 JUMP JUMPDEST PUSH1 0x40 MLOAD DUP1 SWAP2 SUB SWAP1 REVERT JUMPDEST JUMP JUMPDEST PUSH0 PUSH20 0xFFFFFFFFFFFFFFFFFFFFFFFFFFFFFFFFFFFFFFFF AND DUP3 PUSH20 0xFFFFFFFFFFFFFFFFFFFFFFFFFFFFFFFFFFFFFFFF AND SUB PUSH2 0xF93 JUMPI PUSH0 PUSH1 0x40 MLOAD PUSH32 0xEC442F0500000000000000000000000000000000000000000000000000000000 DUP2 MSTORE PUSH1 0x4 ADD PUSH2 0xF8A SWAP2 SWAP1 PUSH2 0x1902 JUMP JUMPDEST PUSH1 0x40 MLOAD DUP1 SWAP2 SUB SWAP1 REVERT JUMPDEST PUSH2 0xF9E PUSH0 DUP4 DUP4 PUSH2 0x12B3 JUMP JUMPDEST POP POP JUMP JUMPDEST PUSH0 PUSH20 0xFFFFFFFFFFFFFFFFFFFFFFFFFFFFFFFFFFFFFFFF AND DUP3 PUSH20 0xFFFFFFFFFFFFFFFFFFFFFFFFFFFFFFFFFFFFFFFF AND SUB PUSH2 0x1012 JUMPI PUSH0 PUSH1 0x40 MLOAD PUSH32 0x96C6FD1E00000000000000000000000000000000000000000000000000000000 DUP2 MSTORE PUSH1 0x4 ADD PUSH2 0x1009 SWAP2 SWAP1 PUSH2 0x1902 JUMP JUMPDEST PUSH1 0x40 MLOAD DUP1 SWAP2 SUB SWAP1 REVERT JUMPDEST PUSH2 0x101D DUP3 PUSH0 DUP4 PUSH2 0x12B3 JUMP JUMPDEST POP POP JUMP JUMPDEST PUSH0 PUSH1 0x5 PUSH0 SWAP1 SLOAD SWAP1 PUSH2 0x100 EXP SWAP1 DIV PUSH20 0xFFFFFFFFFFFFFFFFFFFFFFFFFFFFFFFFFFFFFFFF AND SWAP1 POP DUP2 PUSH1 0x5 PUSH0 PUSH2 0x100 EXP DUP2 SLOAD DUP2 PUSH20 0xFFFFFFFFFFFFFFFFFFFFFFFFFFFFFFFFFFFFFFFF MUL NOT AND SWAP1 DUP4 PUSH20 0xFFFFFFFFFFFFFFFFFFFFFFFFFFFFFFFFFFFFFFFF AND MUL OR SWAP1 SSTORE POP DUP2 PUSH20 0xFFFFFFFFFFFFFFFFFFFFFFFFFFFFFFFFFFFFFFFF AND DUP2 PUSH20 0xFFFFFFFFFFFFFFFFFFFFFFFFFFFFFFFFFFFFFFFF AND PUSH32 0x8BE0079C531659141344CD1FD0A4F28419497F9722A3DAAFE3B4186F6B6457E0 PUSH1 0x40 MLOAD PUSH1 0x40 MLOAD DUP1 SWAP2 SUB SWAP1 LOG3 POP POP JUMP JUMPDEST PUSH0 PUSH20 0xFFFFFFFFFFFFFFFFFFFFFFFFFFFFFFFFFFFFFFFF AND DUP5 PUSH20 0xFFFFFFFFFFFFFFFFFFFFFFFFFFFFFFFFFFFFFFFF AND SUB PUSH2 0x1154 JUMPI PUSH0 PUSH1 0x40 MLOAD PUSH32 0xE602DF0500000000000000000000000000000000000000000000000000000000 DUP2 MSTORE PUSH1 0x4 ADD PUSH2 0x114B SWAP2 SWAP1 PUSH2 0x1902 JUMP JUMPDEST PUSH1 0x40 MLOAD DUP1 SWAP2 SUB SWAP1 REVERT JUMPDEST PUSH0 PUSH20 0xFFFFFFFFFFFFFFFFFFFFFFFFFFFFFFFFFFFFFFFF AND DUP4 PUSH20 0xFFFFFFFFFFFFFFFFFFFFFFFFFFFFFFFFFFFFFFFF AND SUB PUSH2 0x11C4 JUMPI PUSH0 PUSH1 0x40 MLOAD PUSH32 0x94280D6200000000000000000000000000000000000000000000000000000000 DUP2 MSTORE PUSH1 0x4 ADD PUSH2 0x11BB SWAP2 SWAP1 PUSH2 0x1902 JUMP JUMPDEST PUSH1 0x40 MLOAD DUP1 SWAP2 SUB SWAP1 REVERT JUMPDEST DUP2 PUSH1 0x1 PUSH0 DUP7 PUSH20 0xFFFFFFFFFFFFFFFFFFFFFFFFFFFFFFFFFFFFFFFF AND PUSH20 0xFFFFFFFFFFFFFFFFFFFFFFFFFFFFFFFFFFFFFFFF AND DUP2 MSTORE PUSH1 0x20 ADD SWAP1 DUP2 MSTORE PUSH1 0x20 ADD PUSH0 KECCAK256 PUSH0 DUP6 PUSH20 0xFFFFFFFFFFFFFFFFFFFFFFFFFFFFFFFFFFFFFFFF AND PUSH20 0xFFFFFFFFFFFFFFFFFFFFFFFFFFFFFFFFFFFFFFFF AND DUP2 MSTORE PUSH1 0x20 ADD SWAP1 DUP2 MSTORE PUSH1 0x20 ADD PUSH0 KECCAK256 DUP2 SWAP1 SSTORE POP DUP1 ISZERO PUSH2 0x12AD JUMPI DUP3 PUSH20 0xFFFFFFFFFFFFFFFFFFFFFFFFFFFFFFFFFFFFFFFF AND DUP5 PUSH20 0xFFFFFFFFFFFFFFFFFFFFFFFFFFFFFFFFFFFFFFFF AND PUSH32 0x8C5BE1E5EBEC7D5BD14F71427D1E84F3DD0314C0F7B2291E5B200AC8C7C3B925 DUP5 PUSH1 0x40 MLOAD PUSH2 0x12A4 SWAP2 SWAP1 PUSH2 0x167A JUMP JUMPDEST PUSH1 0x40 MLOAD DUP1 SWAP2 SUB SWAP1 LOG3 JUMPDEST POP POP POP POP JUMP JUMPDEST PUSH0 PUSH20 0xFFFFFFFFFFFFFFFFFFFFFFFFFFFFFFFFFFFFFFFF AND DUP4 PUSH20 0xFFFFFFFFFFFFFFFFFFFFFFFFFFFFFFFFFFFFFFFF AND SUB PUSH2 0x1303 JUMPI DUP1 PUSH1 0x2 PUSH0 DUP3 DUP3 SLOAD PUSH2 0x12F7 SWAP2 SWAP1 PUSH2 0x225E JUMP JUMPDEST SWAP3 POP POP DUP2 SWAP1 SSTORE POP PUSH2 0x13D1 JUMP JUMPDEST PUSH0 DUP1 PUSH0 DUP6 PUSH20 0xFFFFFFFFFFFFFFFFFFFFFFFFFFFFFFFFFFFFFFFF AND PUSH20 0xFFFFFFFFFFFFFFFFFFFFFFFFFFFFFFFFFFFFFFFF AND DUP2 MSTORE PUSH1 0x20 ADD SWAP1 DUP2 MSTORE PUSH1 0x20 ADD PUSH0 KECCAK256 SLOAD SWAP1 POP DUP2 DUP2 LT ISZERO PUSH2 0x138C JUMPI DUP4 DUP2 DUP4 PUSH1 0x40 MLOAD PUSH32 0xE450D38C00000000000000000000000000000000000000000000000000000000 DUP2 MSTORE PUSH1 0x4 ADD PUSH2 0x1383 SWAP4 SWAP3 SWAP2 SWAP1 PUSH2 0x2229 JUMP JUMPDEST PUSH1 0x40 MLOAD DUP1 SWAP2 SUB SWAP1 REVERT JUMPDEST DUP2 DUP2 SUB PUSH0 DUP1 DUP7 PUSH20 0xFFFFFFFFFFFFFFFFFFFFFFFFFFFFFFFFFFFFFFFF AND PUSH20 0xFFFFFFFFFFFFFFFFFFFFFFFFFFFFFFFFFFFFFFFF AND DUP2 MSTORE PUSH1 0x20 ADD SWAP1 DUP2 MSTORE PUSH1 0x20 ADD PUSH0 KECCAK256 DUP2 SWAP1 SSTORE POP POP JUMPDEST PUSH0 PUSH20 0xFFFFFFFFFFFFFFFFFFFFFFFFFFFFFFFFFFFFFFFF AND DUP3 PUSH20 0xFFFFFFFFFFFFFFFFFFFFFFFFFFFFFFFFFFFFFFFF AND SUB PUSH2 0x1418 JUMPI DUP1 PUSH1 0x2 PUSH0 DUP3 DUP3 SLOAD SUB SWAP3 POP POP DUP2 SWAP1 SSTORE POP PUSH2 0x1462 JUMP JUMPDEST DUP1 PUSH0 DUP1 DUP5 PUSH20 0xFFFFFFFFFFFFFFFFFFFFFFFFFFFFFFFFFFFFFFFF AND PUSH20 0xFFFFFFFFFFFFFFFFFFFFFFFFFFFFFFFFFFFFFFFF AND DUP2 MSTORE PUSH1 0x20 ADD SWAP1 DUP2 MSTORE PUSH1 0x20 ADD PUSH0 KECCAK256 PUSH0 DUP3 DUP3 SLOAD ADD SWAP3 POP POP DUP2 SWAP1 SSTORE POP JUMPDEST DUP2 PUSH20 0xFFFFFFFFFFFFFFFFFFFFFFFFFFFFFFFFFFFFFFFF AND DUP4 PUSH20 0xFFFFFFFFFFFFFFFFFFFFFFFFFFFFFFFFFFFFFFFF AND PUSH32 0xDDF252AD1BE2C89B69C2B068FC378DAA952BA7F163C4A11628F55A4DF523B3EF DUP4 PUSH1 0x40 MLOAD PUSH2 0x14BF SWAP2 SWAP1 PUSH2 0x167A JUMP JUMPDEST PUSH1 0x40 MLOAD DUP1 SWAP2 SUB SWAP1 LOG3 POP POP POP JUMP JUMPDEST PUSH0 DUP2 MLOAD SWAP1 POP SWAP2 SWAP1 POP JUMP JUMPDEST PUSH0 DUP3 DUP3 MSTORE PUSH1 0x20 DUP3 ADD SWAP1 POP SWAP3 SWAP2 POP POP JUMP JUMPDEST DUP3 DUP2 DUP4 MCOPY PUSH0 DUP4 DUP4 ADD MSTORE POP POP POP JUMP JUMPDEST PUSH0 PUSH1 0x1F NOT PUSH1 0x1F DUP4 ADD AND SWAP1 POP SWAP2 SWAP1 POP JUMP JUMPDEST PUSH0 PUSH2 0x150E DUP3 PUSH2 0x14CC JUMP JUMPDEST PUSH2 0x1518 DUP2 DUP6 PUSH2 0x14D6 JUMP JUMPDEST SWAP4 POP PUSH2 0x1528 DUP2 DUP6 PUSH1 0x20 DUP7 ADD PUSH2 0x14E6 JUMP JUMPDEST PUSH2 0x1531 DUP2 PUSH2 0x14F4 JUMP JUMPDEST DUP5 ADD SWAP2 POP POP SWAP3 SWAP2 POP POP JUMP JUMPDEST PUSH0 PUSH1 0x20 DUP3 ADD SWAP1 POP DUP2 DUP2 SUB PUSH0 DUP4 ADD MSTORE PUSH2 0x1554 DUP2 DUP5 PUSH2 0x1504 JUMP JUMPDEST SWAP1 POP SWAP3 SWAP2 POP POP JUMP JUMPDEST PUSH0 PUSH1 0x40 MLOAD SWAP1 POP SWAP1 JUMP JUMPDEST PUSH0 DUP1 REVERT JUMPDEST PUSH0 DUP1 REVERT JUMPDEST PUSH0 PUSH20 0xFFFFFFFFFFFFFFFFFFFFFFFFFFFFFFFFFFFFFFFF DUP3 AND SWAP1 POP SWAP2 SWAP1 POP JUMP JUMPDEST PUSH0 PUSH2 0x1596 DUP3 PUSH2 0x156D JUMP JUMPDEST SWAP1 POP SWAP2 SWAP1 POP JUMP JUMPDEST PUSH2 0x15A6 DUP2 PUSH2 0x158C JUMP JUMPDEST DUP2 EQ PUSH2 0x15B0 JUMPI PUSH0 DUP1 REVERT JUMPDEST POP JUMP JUMPDEST PUSH0 DUP2 CALLDATALOAD SWAP1 POP PUSH2 0x15C1 DUP2 PUSH2 0x159D JUMP JUMPDEST SWAP3 SWAP2 POP POP JUMP JUMPDEST PUSH0 DUP2 SWAP1 POP SWAP2 SWAP1 POP JUMP JUMPDEST PUSH2 0x15D9 DUP2 PUSH2 0x15C7 JUMP JUMPDEST DUP2 EQ PUSH2 0x15E3 JUMPI PUSH0 DUP1 REVERT JUMPDEST POP JUMP JUMPDEST PUSH0 DUP2 CALLDATALOAD SWAP1 POP PUSH2 0x15F4 DUP2 PUSH2 0x15D0 JUMP JUMPDEST SWAP3 SWAP2 POP POP JUMP JUMPDEST PUSH0 DUP1 PUSH1 0x40 DUP4 DUP6 SUB SLT ISZERO PUSH2 0x1610 JUMPI PUSH2 0x160F PUSH2 0x1565 JUMP JUMPDEST JUMPDEST PUSH0 PUSH2 0x161D DUP6 DUP3 DUP7 ADD PUSH2 0x15B3 JUMP JUMPDEST SWAP3 POP POP PUSH1 0x20 PUSH2 0x162E DUP6 DUP3 DUP7 ADD PUSH2 0x15E6 JUMP JUMPDEST SWAP2 POP POP SWAP3 POP SWAP3 SWAP1 POP JUMP JUMPDEST PUSH0 DUP2 ISZERO ISZERO SWAP1 POP SWAP2 SWAP1 POP JUMP JUMPDEST PUSH2 0x164C DUP2 PUSH2 0x1638 JUMP JUMPDEST DUP3 MSTORE POP POP JUMP JUMPDEST PUSH0 PUSH1 0x20 DUP3 ADD SWAP1 POP PUSH2 0x1665 PUSH0 DUP4 ADD DUP5 PUSH2 0x1643 JUMP JUMPDEST SWAP3 SWAP2 POP POP JUMP JUMPDEST PUSH2 0x1674 DUP2 PUSH2 0x15C7 JUMP JUMPDEST DUP3 MSTORE POP POP JUMP JUMPDEST PUSH0 PUSH1 0x20 DUP3 ADD SWAP1 POP PUSH2 0x168D PUSH0 DUP4 ADD DUP5 PUSH2 0x166B JUMP JUMPDEST SWAP3 SWAP2 POP POP JUMP JUMPDEST PUSH0 PUSH1 0xFF DUP3 AND SWAP1 POP SWAP2 SWAP1 POP JUMP JUMPDEST PUSH2 0x16A8 DUP2 PUSH2 0x1693 JUMP JUMPDEST DUP3 MSTORE POP POP JUMP JUMPDEST PUSH0 PUSH1 0x20 DUP3 ADD SWAP1 POP PUSH2 0x16C1 PUSH0 DUP4 ADD DUP5 PUSH2 0x169F JUMP JUMPDEST SWAP3 SWAP2 POP POP JUMP JUMPDEST PUSH0 DUP1 PUSH0 PUSH1 0x60 DUP5 DUP7 SUB SLT ISZERO PUSH2 0x16DE JUMPI PUSH2 0x16DD PUSH2 0x1565 JUMP JUMPDEST JUMPDEST PUSH0 PUSH2 0x16EB DUP7 DUP3 DUP8 ADD PUSH2 0x15B3 JUMP JUMPDEST SWAP4 POP POP PUSH1 0x20 PUSH2 0x16FC DUP7 DUP3 DUP8 ADD PUSH2 0x15B3 JUMP JUMPDEST SWAP3 POP POP PUSH1 0x40 PUSH2 0x170D DUP7 DUP3 DUP8 ADD PUSH2 0x15E6 JUMP JUMPDEST SWAP2 POP POP SWAP3 POP SWAP3 POP SWAP3 JUMP JUMPDEST PUSH0 PUSH1 0x20 DUP3 DUP5 SUB SLT ISZERO PUSH2 0x172C JUMPI PUSH2 0x172B PUSH2 0x1565 JUMP JUMPDEST JUMPDEST PUSH0 PUSH2 0x1739 DUP5 DUP3 DUP6 ADD PUSH2 0x15E6 JUMP JUMPDEST SWAP2 POP POP SWAP3 SWAP2 POP POP JUMP JUMPDEST PUSH0 DUP1 REVERT JUMPDEST PUSH0 DUP1 REVERT JUMPDEST PUSH32 0x4E487B7100000000000000000000000000000000000000000000000000000000 PUSH0 MSTORE PUSH1 0x41 PUSH1 0x4 MSTORE PUSH1 0x24 PUSH0 REVERT JUMPDEST PUSH2 0x1780 DUP3 PUSH2 0x14F4 JUMP JUMPDEST DUP2 ADD DUP2 DUP2 LT PUSH8 0xFFFFFFFFFFFFFFFF DUP3 GT OR ISZERO PUSH2 0x179F JUMPI PUSH2 0x179E PUSH2 0x174A JUMP JUMPDEST JUMPDEST DUP1 PUSH1 0x40 MSTORE POP POP POP JUMP JUMPDEST PUSH0 PUSH2 0x17B1 PUSH2 0x155C JUMP JUMPDEST SWAP1 POP PUSH2 0x17BD DUP3 DUP3 PUSH2 0x1777 JUMP JUMPDEST SWAP2 SWAP1 POP JUMP JUMPDEST PUSH0 PUSH8 0xFFFFFFFFFFFFFFFF DUP3 GT ISZERO PUSH2 0x17DC JUMPI PUSH2 0x17DB PUSH2 0x174A JUMP JUMPDEST JUMPDEST PUSH2 0x17E5 DUP3 PUSH2 0x14F4 JUMP JUMPDEST SWAP1 POP PUSH1 0x20 DUP2 ADD SWAP1 POP SWAP2 SWAP1 POP JUMP JUMPDEST DUP3 DUP2 DUP4 CALLDATACOPY PUSH0 DUP4 DUP4 ADD MSTORE POP POP POP JUMP JUMPDEST PUSH0 PUSH2 0x1812 PUSH2 0x180D DUP5 PUSH2 0x17C2 JUMP JUMPDEST PUSH2 0x17A8 JUMP JUMPDEST SWAP1 POP DUP3 DUP2 MSTORE PUSH1 0x20 DUP2 ADD DUP5 DUP5 DUP5 ADD GT ISZERO PUSH2 0x182E JUMPI PUSH2 0x182D PUSH2 0x1746 JUMP JUMPDEST JUMPDEST PUSH2 0x1839 DUP5 DUP3 DUP6 PUSH2 0x17F2 JUMP JUMPDEST POP SWAP4 SWAP3 POP POP POP JUMP JUMPDEST PUSH0 DUP3 PUSH1 0x1F DUP4 ADD SLT PUSH2 0x1855 JUMPI PUSH2 0x1854 PUSH2 0x1742 JUMP JUMPDEST JUMPDEST DUP2 CALLDATALOAD PUSH2 0x1865 DUP5 DUP3 PUSH1 0x20 DUP7 ADD PUSH2 0x1800 JUMP JUMPDEST SWAP2 POP POP SWAP3 SWAP2 POP POP JUMP JUMPDEST PUSH0 DUP1 PUSH1 0x40 DUP4 DUP6 SUB SLT ISZERO PUSH2 0x1884 JUMPI PUSH2 0x1883 PUSH2 0x1565 JUMP JUMPDEST JUMPDEST PUSH0 DUP4 ADD CALLDATALOAD PUSH8 0xFFFFFFFFFFFFFFFF DUP2 GT ISZERO PUSH2 0x18A1 JUMPI PUSH2 0x18A0 PUSH2 0x1569 JUMP JUMPDEST JUMPDEST PUSH2 0x18AD DUP6 DUP3 DUP7 ADD PUSH2 0x1841 JUMP JUMPDEST SWAP3 POP POP PUSH1 0x20 PUSH2 0x18BE DUP6 DUP3 DUP7 ADD PUSH2 0x15E6 JUMP JUMPDEST SWAP2 POP POP SWAP3 POP SWAP3 SWAP1 POP JUMP JUMPDEST PUSH0 PUSH1 0x20 DUP3 DUP5 SUB SLT ISZERO PUSH2 0x18DD JUMPI PUSH2 0x18DC PUSH2 0x1565 JUMP JUMPDEST JUMPDEST PUSH0 PUSH2 0x18EA DUP5 DUP3 DUP6 ADD PUSH2 0x15B3 JUMP JUMPDEST SWAP2 POP POP SWAP3 SWAP2 POP POP JUMP JUMPDEST PUSH2 0x18FC DUP2 PUSH2 0x158C JUMP JUMPDEST DUP3 MSTORE POP POP JUMP JUMPDEST PUSH0 PUSH1 0x20 DUP3 ADD SWAP1 POP PUSH2 0x1915 PUSH0 DUP4 ADD DUP5 PUSH2 0x18F3 JUMP JUMPDEST SWAP3 SWAP2 POP POP JUMP JUMPDEST PUSH2 0x1924 DUP2 PUSH2 0x1693 JUMP JUMPDEST DUP2 EQ PUSH2 0x192E JUMPI PUSH0 DUP1 REVERT JUMPDEST POP JUMP JUMPDEST PUSH0 DUP2 CALLDATALOAD SWAP1 POP PUSH2 0x193F DUP2 PUSH2 0x191B JUMP JUMPDEST SWAP3 SWAP2 POP POP JUMP JUMPDEST PUSH0 PUSH1 0x20 DUP3 DUP5 SUB SLT ISZERO PUSH2 0x195A JUMPI PUSH2 0x1959 PUSH2 0x1565 JUMP JUMPDEST JUMPDEST PUSH0 PUSH2 0x1967 DUP5 DUP3 DUP6 ADD PUSH2 0x1931 JUMP JUMPDEST SWAP2 POP POP SWAP3 SWAP2 POP POP JUMP JUMPDEST PUSH0 DUP1 PUSH1 0x40 DUP4 DUP6 SUB SLT ISZERO PUSH2 0x1986 JUMPI PUSH2 0x1985 PUSH2 0x1565 JUMP JUMPDEST JUMPDEST PUSH0 PUSH2 0x1993 DUP6 DUP3 DUP7 ADD PUSH2 0x15B3 JUMP JUMPDEST SWAP3 POP POP PUSH1 0x20 PUSH2 0x19A4 DUP6 DUP3 DUP7 ADD PUSH2 0x15B3 JUMP JUMPDEST SWAP2 POP POP SWAP3 POP SWAP3 SWAP1 POP JUMP JUMPDEST PUSH2 0x19B7 DUP2 PUSH2 0x1638 JUMP JUMPDEST DUP2 EQ PUSH2 0x19C1 JUMPI PUSH0 DUP1 REVERT JUMPDEST POP JUMP JUMPDEST PUSH0 DUP2 CALLDATALOAD SWAP1 POP PUSH2 0x19D2 DUP2 PUSH2 0x19AE JUMP JUMPDEST SWAP3 SWAP2 POP POP JUMP JUMPDEST PUSH0 DUP1 PUSH1 0x40 DUP4 DUP6 SUB SLT ISZERO PUSH2 0x19EE JUMPI PUSH2 0x19ED PUSH2 0x1565 JUMP JUMPDEST JUMPDEST PUSH0 PUSH2 0x19FB DUP6 DUP3 DUP7 ADD PUSH2 0x19C4 JUMP JUMPDEST SWAP3 POP POP PUSH1 0x20 PUSH2 0x1A0C DUP6 DUP3 DUP7 ADD PUSH2 0x15E6 JUMP JUMPDEST SWAP2 POP POP SWAP3 POP SWAP3 SWAP1 POP JUMP JUMPDEST PUSH0 PUSH1 0x60 DUP3 ADD SWAP1 POP DUP2 DUP2 SUB PUSH0 DUP4 ADD MSTORE PUSH2 0x1A2E DUP2 DUP7 PUSH2 0x1504 JUMP JUMPDEST SWAP1 POP PUSH2 0x1A3D PUSH1 0x20 DUP4 ADD DUP6 PUSH2 0x169F JUMP JUMPDEST PUSH2 0x1A4A PUSH1 0x40 DUP4 ADD DUP5 PUSH2 0x166B JUMP JUMPDEST SWAP5 SWAP4 POP POP POP POP JUMP JUMPDEST PUSH32 0x4E487B7100000000000000000000000000000000000000000000000000000000 PUSH0 MSTORE PUSH1 0x22 PUSH1 0x4 MSTORE PUSH1 0x24 PUSH0 REVERT JUMPDEST PUSH0 PUSH1 0x2 DUP3 DIV SWAP1 POP PUSH1 0x1 DUP3 AND DUP1 PUSH2 0x1A96 JUMPI PUSH1 0x7F DUP3 AND SWAP2 POP JUMPDEST PUSH1 0x20 DUP3 LT DUP2 SUB PUSH2 0x1AA9 JUMPI PUSH2 0x1AA8 PUSH2 0x1A52 JUMP JUMPDEST JUMPDEST POP SWAP2 SWAP1 POP JUMP JUMPDEST PUSH32 0x496E73756666696369656E742062616C616E6365000000000000000000000000 PUSH0 DUP3 ADD MSTORE POP JUMP JUMPDEST PUSH0 PUSH2 0x1AE3 PUSH1 0x14 DUP4 PUSH2 0x14D6 JUMP JUMPDEST SWAP2 POP PUSH2 0x1AEE DUP3 PUSH2 0x1AAF JUMP JUMPDEST PUSH1 0x20 DUP3 ADD SWAP1 POP SWAP2 SWAP1 POP JUMP JUMPDEST PUSH0 PUSH1 0x20 DUP3 ADD SWAP1 POP DUP2 DUP2 SUB PUSH0 DUP4 ADD MSTORE PUSH2 0x1B10 DUP2 PUSH2 0x1AD7 JUMP JUMPDEST SWAP1 POP SWAP2 SWAP1 POP JUMP JUMPDEST PUSH0 DUP2 SWAP1 POP DUP2 PUSH0 MSTORE PUSH1 0x20 PUSH0 KECCAK256 SWAP1 POP SWAP2 SWAP1 POP JUMP JUMPDEST PUSH0 PUSH1 0x20 PUSH1 0x1F DUP4 ADD DIV SWAP1 POP SWAP2 SWAP1 POP JUMP JUMPDEST PUSH0 DUP3 DUP3 SHL SWAP1 POP SWAP3 SWAP2 POP POP JUMP JUMPDEST PUSH0 PUSH1 0x8 DUP4 MUL PUSH2 0x1B73 PUSH32 0xFFFFFFFFFFFFFFFFFFFFFFFFFFFFFFFFFFFFFFFFFFFFFFFFFFFFFFFFFFFFFFFF DUP3 PUSH2 0x1B38 JUMP JUMPDEST PUSH2 0x1B7D DUP7 DUP4 PUSH2 0x1B38 JUMP JUMPDEST SWAP6 POP DUP1 NOT DUP5 AND SWAP4 POP DUP1 DUP7 AND DUP5 OR SWAP3 POP POP POP SWAP4 SWAP3 POP POP POP JUMP JUMPDEST PUSH0 DUP2 SWAP1 POP SWAP2 SWAP1 POP JUMP JUMPDEST PUSH0 PUSH2 0x1BB8 PUSH2 0x1BB3 PUSH2 0x1BAE DUP5 PUSH2 0x15C7 JUMP JUMPDEST PUSH2 0x1B95 JUMP JUMPDEST PUSH2 0x15C7 JUMP JUMPDEST SWAP1 POP SWAP2 SWAP1 POP JUMP JUMPDEST PUSH0 DUP2 SWAP1 POP SWAP2 SWAP1 POP JUMP JUMPDEST PUSH2 0x1BD1 DUP4 PUSH2 0x1B9E JUMP JUMPDEST PUSH2 0x1BE5 PUSH2 0x1BDD DUP3 PUSH2 0x1BBF JUMP JUMPDEST DUP5 DUP5 SLOAD PUSH2 0x1B44 JUMP JUMPDEST DUP3 SSTORE POP POP POP POP JUMP JUMPDEST PUSH0 SWAP1 JUMP JUMPDEST PUSH2 0x1BF9 PUSH2 0x1BED JUMP JUMPDEST PUSH2 0x1C04 DUP2 DUP5 DUP5 PUSH2 0x1BC8 JUMP JUMPDEST POP POP POP JUMP JUMPDEST JUMPDEST DUP2 DUP2 LT ISZERO PUSH2 0x1C27 JUMPI PUSH2 0x1C1C PUSH0 DUP3 PUSH2 0x1BF1 JUMP JUMPDEST PUSH1 0x1 DUP2 ADD SWAP1 POP PUSH2 0x1C0A JUMP JUMPDEST POP POP JUMP JUMPDEST PUSH1 0x1F DUP3 GT ISZERO PUSH2 0x1C6C JUMPI PUSH2 0x1C3D DUP2 PUSH2 0x1B17 JUMP JUMPDEST PUSH2 0x1C46 DUP5 PUSH2 0x1B29 JUMP JUMPDEST DUP2 ADD PUSH1 0x20 DUP6 LT ISZERO PUSH2 0x1C55 JUMPI DUP2 SWAP1 POP JUMPDEST PUSH2 0x1C69 PUSH2 0x1C61 DUP6 PUSH2 0x1B29 JUMP JUMPDEST DUP4 ADD DUP3 PUSH2 0x1C09 JUMP JUMPDEST POP POP JUMPDEST POP POP POP JUMP JUMPDEST PUSH0 DUP3 DUP3 SHR SWAP1 POP SWAP3 SWAP2 POP POP JUMP JUMPDEST PUSH0 PUSH2 0x1C8C PUSH0 NOT DUP5 PUSH1 0x8 MUL PUSH2 0x1C71 JUMP JUMPDEST NOT DUP1 DUP4 AND SWAP2 POP POP SWAP3 SWAP2 POP POP JUMP JUMPDEST PUSH0 PUSH2 0x1CA4 DUP4 DUP4 PUSH2 0x1C7D JUMP JUMPDEST SWAP2 POP DUP3 PUSH1 0x2 MUL DUP3 OR SWAP1 POP SWAP3 SWAP2 POP POP JUMP JUMPDEST PUSH2 0x1CBD DUP3 PUSH2 0x14CC JUMP JUMPDEST PUSH8 0xFFFFFFFFFFFFFFFF DUP2 GT ISZERO PUSH2 0x1CD6 JUMPI PUSH2 0x1CD5 PUSH2 0x174A JUMP JUMPDEST JUMPDEST PUSH2 0x1CE0 DUP3 SLOAD PUSH2 0x1A7F JUMP JUMPDEST PUSH2 0x1CEB DUP3 DUP3 DUP6 PUSH2 0x1C2B JUMP JUMPDEST PUSH0 PUSH1 0x20 SWAP1 POP PUSH1 0x1F DUP4 GT PUSH1 0x1 DUP2 EQ PUSH2 0x1D1C JUMPI PUSH0 DUP5 ISZERO PUSH2 0x1D0A JUMPI DUP3 DUP8 ADD MLOAD SWAP1 POP JUMPDEST PUSH2 0x1D14 DUP6 DUP3 PUSH2 0x1C99 JUMP JUMPDEST DUP7 SSTORE POP PUSH2 0x1D7B JUMP JUMPDEST PUSH1 0x1F NOT DUP5 AND PUSH2 0x1D2A DUP7 PUSH2 0x1B17 JUMP JUMPDEST PUSH0 JUMPDEST DUP3 DUP2 LT ISZERO PUSH2 0x1D51 JUMPI DUP5 DUP10 ADD MLOAD DUP3 SSTORE PUSH1 0x1 DUP3 ADD SWAP2 POP PUSH1 0x20 DUP6 ADD SWAP5 POP PUSH1 0x20 DUP2 ADD SWAP1 POP PUSH2 0x1D2C JUMP JUMPDEST DUP7 DUP4 LT ISZERO PUSH2 0x1D6E JUMPI DUP5 DUP10 ADD MLOAD PUSH2 0x1D6A PUSH1 0x1F DUP10 AND DUP3 PUSH2 0x1C7D JUMP JUMPDEST DUP4 SSTORE POP JUMPDEST PUSH1 0x1 PUSH1 0x2 DUP9 MUL ADD DUP9 SSTORE POP POP POP JUMPDEST POP POP POP POP POP POP JUMP JUMPDEST PUSH32 0x4E487B7100000000000000000000000000000000000000000000000000000000 PUSH0 MSTORE PUSH1 0x11 PUSH1 0x4 MSTORE PUSH1 0x24 PUSH0 REVERT JUMPDEST PUSH0 PUSH2 0x1DBA DUP3 PUSH2 0x1693 JUMP JUMPDEST SWAP2 POP PUSH1 0xFF DUP3 SUB PUSH2 0x1DCD JUMPI PUSH2 0x1DCC PUSH2 0x1D83 JUMP JUMPDEST JUMPDEST PUSH1 0x1 DUP3 ADD SWAP1 POP SWAP2 SWAP1 POP JUMP JUMPDEST PUSH32 0x496E73756666696369656E7420616D6F756E7400000000000000000000000000 PUSH0 DUP3 ADD MSTORE POP JUMP JUMPDEST PUSH0 PUSH2 0x1E0C PUSH1 0x13 DUP4 PUSH2 0x14D6 JUMP JUMPDEST SWAP2 POP PUSH2 0x1E17 DUP3 PUSH2 0x1DD8 JUMP JUMPDEST PUSH1 0x20 DUP3 ADD SWAP1 POP SWAP2 SWAP1 POP JUMP JUMPDEST PUSH0 PUSH1 0x20 DUP3 ADD SWAP1 POP DUP2 DUP2 SUB PUSH0 DUP4 ADD MSTORE PUSH2 0x1E39 DUP2 PUSH2 0x1E00 JUMP JUMPDEST SWAP1 POP SWAP2 SWAP1 POP JUMP JUMPDEST PUSH32 0x4974656D206E6F7420666F756E64000000000000000000000000000000000000 PUSH0 DUP3 ADD MSTORE POP JUMP JUMPDEST PUSH0 PUSH2 0x1E74 PUSH1 0xE DUP4 PUSH2 0x14D6 JUMP JUMPDEST SWAP2 POP PUSH2 0x1E7F DUP3 PUSH2 0x1E40 JUMP JUMPDEST PUSH1 0x20 DUP3 ADD SWAP1 POP SWAP2 SWAP1 POP JUMP JUMPDEST PUSH0 PUSH1 0x20 DUP3 ADD SWAP1 POP DUP2 DUP2 SUB PUSH0 DUP4 ADD MSTORE PUSH2 0x1EA1 DUP2 PUSH2 0x1E68 JUMP JUMPDEST SWAP1 POP SWAP2 SWAP1 POP JUMP JUMPDEST PUSH0 DUP2 SLOAD PUSH2 0x1EB4 DUP2 PUSH2 0x1A7F JUMP JUMPDEST PUSH2 0x1EBE DUP2 DUP7 PUSH2 0x14D6 JUMP JUMPDEST SWAP5 POP PUSH1 0x1 DUP3 AND PUSH0 DUP2 EQ PUSH2 0x1ED8 JUMPI PUSH1 0x1 DUP2 EQ PUSH2 0x1EEE JUMPI PUSH2 0x1F20 JUMP JUMPDEST PUSH1 0xFF NOT DUP4 AND DUP7 MSTORE DUP2 ISZERO ISZERO PUSH1 0x20 MUL DUP7 ADD SWAP4 POP PUSH2 0x1F20 JUMP JUMPDEST PUSH2 0x1EF7 DUP6 PUSH2 0x1B17 JUMP JUMPDEST PUSH0 JUMPDEST DUP4 DUP2 LT ISZERO PUSH2 0x1F18 JUMPI DUP2 SLOAD DUP2 DUP10 ADD MSTORE PUSH1 0x1 DUP3 ADD SWAP2 POP PUSH1 0x20 DUP2 ADD SWAP1 POP PUSH2 0x1EF9 JUMP JUMPDEST DUP1 DUP9 ADD SWAP6 POP POP POP JUMPDEST POP POP POP SWAP3 SWAP2 POP POP JUMP JUMPDEST PUSH0 PUSH1 0x60 DUP3 ADD SWAP1 POP PUSH2 0x1F3C PUSH0 DUP4 ADD DUP7 PUSH2 0x169F JUMP JUMPDEST DUP2 DUP2 SUB PUSH1 0x20 DUP4 ADD MSTORE PUSH2 0x1F4E DUP2 DUP6 PUSH2 0x1EA8 JUMP JUMPDEST SWAP1 POP PUSH2 0x1F5D PUSH1 0x40 DUP4 ADD DUP5 PUSH2 0x166B JUMP JUMPDEST SWAP5 SWAP4 POP POP POP POP JUMP JUMPDEST PUSH0 DUP2 SWAP1 POP SWAP2 SWAP1 POP JUMP JUMPDEST PUSH2 0x1F7F PUSH2 0x1F7A DUP3 PUSH2 0x15C7 JUMP JUMPDEST PUSH2 0x1F65 JUMP JUMPDEST DUP3 MSTORE POP POP JUMP JUMPDEST PUSH0 DUP2 PUSH1 0x60 SHL SWAP1 POP SWAP2 SWAP1 POP JUMP JUMPDEST PUSH0 PUSH2 0x1F9B DUP3 PUSH2 0x1F85 JUMP JUMPDEST SWAP1 POP SWAP2 SWAP1 POP JUMP JUMPDEST PUSH0 PUSH2 0x1FAC DUP3 PUSH2 0x1F91 JUMP JUMPDEST SWAP1 POP SWAP2 SWAP1 POP JUMP JUMPDEST PUSH2 0x1FC4 PUSH2 0x1FBF DUP3 PUSH2 0x158C JUMP JUMPDEST PUSH2 0x1FA2 JUMP JUMPDEST DUP3 MSTORE POP POP JUMP JUMPDEST PUSH0 PUSH2 0x1FD5 DUP3 DUP6 PUSH2 0x1F6E JUMP JUMPDEST PUSH1 0x20 DUP3 ADD SWAP2 POP PUSH2 0x1FE5 DUP3 DUP5 PUSH2 0x1FB3 JUMP JUMPDEST PUSH1 0x14 DUP3 ADD SWAP2 POP DUP2 SWAP1 POP SWAP4 SWAP3 POP POP POP JUMP JUMPDEST PUSH32 0x4E487B7100000000000000000000000000000000000000000000000000000000 PUSH0 MSTORE PUSH1 0x12 PUSH1 0x4 MSTORE PUSH1 0x24 PUSH0 REVERT JUMPDEST PUSH0 PUSH2 0x202C DUP3 PUSH2 0x15C7 JUMP JUMPDEST SWAP2 POP PUSH2 0x2037 DUP4 PUSH2 0x15C7 JUMP JUMPDEST SWAP3 POP DUP3 PUSH2 0x2047 JUMPI PUSH2 0x2046 PUSH2 0x1FF5 JUMP JUMPDEST JUMPDEST DUP3 DUP3 MOD SWAP1 POP SWAP3 SWAP2 POP POP JUMP JUMPDEST PUSH0 PUSH2 0x205C DUP3 PUSH2 0x15C7 JUMP JUMPDEST SWAP2 POP PUSH2 0x2067 DUP4 PUSH2 0x15C7 JUMP JUMPDEST SWAP3 POP DUP3 DUP3 MUL PUSH2 0x2075 DUP2 PUSH2 0x15C7 JUMP JUMPDEST SWAP2 POP DUP3 DUP3 DIV DUP5 EQ DUP4 ISZERO OR PUSH2 0x208C JUMPI PUSH2 0x208B PUSH2 0x1D83 JUMP JUMPDEST JUMPDEST POP SWAP3 SWAP2 POP POP JUMP JUMPDEST PUSH32 0x776F6E0000000000000000000000000000000000000000000000000000000000 PUSH0 DUP3 ADD MSTORE POP JUMP JUMPDEST PUSH0 PUSH2 0x20C7 PUSH1 0x3 DUP4 PUSH2 0x14D6 JUMP JUMPDEST SWAP2 POP PUSH2 0x20D2 DUP3 PUSH2 0x2093 JUMP JUMPDEST PUSH1 0x20 DUP3 ADD SWAP1 POP SWAP2 SWAP1 POP JUMP JUMPDEST PUSH0 PUSH1 0x60 DUP3 ADD SWAP1 POP PUSH2 0x20F0 PUSH0 DUP4 ADD DUP6 PUSH2 0x166B JUMP JUMPDEST PUSH2 0x20FD PUSH1 0x20 DUP4 ADD DUP5 PUSH2 0x1643 JUMP JUMPDEST DUP2 DUP2 SUB PUSH1 0x40 DUP4 ADD MSTORE PUSH2 0x210E DUP2 PUSH2 0x20BB JUMP JUMPDEST SWAP1 POP SWAP4 SWAP3 POP POP POP JUMP JUMPDEST PUSH32 0x6C6F737400000000000000000000000000000000000000000000000000000000 PUSH0 DUP3 ADD MSTORE POP JUMP JUMPDEST PUSH0 PUSH2 0x214B PUSH1 0x4 DUP4 PUSH2 0x14D6 JUMP JUMPDEST SWAP2 POP PUSH2 0x2156 DUP3 PUSH2 0x2117 JUMP JUMPDEST PUSH1 0x20 DUP3 ADD SWAP1 POP SWAP2 SWAP1 POP JUMP JUMPDEST PUSH0 PUSH1 0x60 DUP3 ADD SWAP1 POP PUSH2 0x2174 PUSH0 DUP4 ADD DUP6 PUSH2 0x166B JUMP JUMPDEST PUSH2 0x2181 PUSH1 0x20 DUP4 ADD DUP5 PUSH2 0x1643 JUMP JUMPDEST DUP2 DUP2 SUB PUSH1 0x40 DUP4 ADD MSTORE PUSH2 0x2192 DUP2 PUSH2 0x213F JUMP JUMPDEST SWAP1 POP SWAP4 SWAP3 POP POP POP JUMP JUMPDEST PUSH32 0x596F7527766520616C726561647920636C61696D656420796F75722077656C63 PUSH0 DUP3 ADD MSTORE PUSH32 0x6F6D6520626F6E75730000000000000000000000000000000000000000000000 PUSH1 0x20 DUP3 ADD MSTORE POP JUMP JUMPDEST PUSH0 PUSH2 0x21F5 PUSH1 0x29 DUP4 PUSH2 0x14D6 JUMP JUMPDEST SWAP2 POP PUSH2 0x2200 DUP3 PUSH2 0x219B JUMP JUMPDEST PUSH1 0x40 DUP3 ADD SWAP1 POP SWAP2 SWAP1 POP JUMP JUMPDEST PUSH0 PUSH1 0x20 DUP3 ADD SWAP1 POP DUP2 DUP2 SUB PUSH0 DUP4 ADD MSTORE PUSH2 0x2222 DUP2 PUSH2 0x21E9 JUMP JUMPDEST SWAP1 POP SWAP2 SWAP1 POP JUMP JUMPDEST PUSH0 PUSH1 0x60 DUP3 ADD SWAP1 POP PUSH2 0x223C PUSH0 DUP4 ADD DUP7 PUSH2 0x18F3 JUMP JUMPDEST PUSH2 0x2249 PUSH1 0x20 DUP4 ADD DUP6 PUSH2 0x166B JUMP JUMPDEST PUSH2 0x2256 PUSH1 0x40 DUP4 ADD DUP5 PUSH2 0x166B JUMP JUMPDEST SWAP5 SWAP4 POP POP POP POP JUMP JUMPDEST PUSH0 PUSH2 0x2268 DUP3 PUSH2 0x15C7 JUMP JUMPDEST SWAP2 POP PUSH2 0x2273 DUP4 PUSH2 0x15C7 JUMP JUMPDEST SWAP3 POP DUP3 DUP3 ADD SWAP1 POP DUP1 DUP3 GT ISZERO PUSH2 0x228B JUMPI PUSH2 0x228A PUSH2 0x1D83 JUMP JUMPDEST JUMPDEST SWAP3 SWAP2 POP POP JUMP INVALID LOG2 PUSH5 0x6970667358 0x22 SLT KECCAK256 PUSH20 0x4A6CF9E06DC311B3D7F15BC77B99713861AE9E28 MLOAD XOR MSIZE SLOAD 0x25 BLOCKHASH MSIZE 0xE2 0xE2 0x4F REVERT PUSH5 0x736F6C6343 STOP ADDMOD BYTE STOP CALLER "
				},
				"gasEstimates": {
					"creation": {
						"codeDepositCost": "1780600",
						"executionCost": "infinite",
						"totalCost": "infinite"
					},
					"external": {
						"addItem(string,uint256)": "infinite",
						"allowance(address,address)": "infinite",
						"approve(address,uint256)": "infinite",
						"balanceOf(address)": "2962",
						"burn(uint256)": "infinite",
						"burnFrom(address,uint256)": "infinite",
						"burnToken(uint256)": "infinite",
						"decimals()": "375",
						"getBalance()": "2651",
						"isLessThanFive(bool,uint256)": "infinite",
						"items(uint8)": "infinite",
						"mint(address,uint256)": "infinite",
						"name()": "infinite",
						"owner()": "2604",
						"purchaseItem(uint8)": "infinite",
						"renounceOwnership()": "infinite",
						"symbol()": "infinite",
						"tokenId()": "2578",
						"totalSupply()": "2566",
						"transfer(address,uint256)": "infinite",
						"transferFrom(address,address,uint256)": "infinite",
						"transferOwnership(address)": "infinite",
						"transferToken(address,uint256)": "infinite",
						"welcomeBonus()": "infinite"
					}
				},
				"methodIdentifiers": {
					"addItem(string,uint256)": "62d6bbdf",
					"allowance(address,address)": "dd62ed3e",
					"approve(address,uint256)": "095ea7b3",
					"balanceOf(address)": "70a08231",
					"burn(uint256)": "42966c68",
					"burnFrom(address,uint256)": "79cc6790",
					"burnToken(uint256)": "7b47ec1a",
					"decimals()": "313ce567",
					"getBalance()": "12065fe0",
					"isLessThanFive(bool,uint256)": "ea5e65e0",
					"items(uint8)": "fbd1a97b",
					"mint(address,uint256)": "40c10f19",
					"name()": "06fdde03",
					"owner()": "8da5cb5b",
					"purchaseItem(uint8)": "af3bcb7d",
					"renounceOwnership()": "715018a6",
					"symbol()": "95d89b41",
					"tokenId()": "17d70f7c",
					"totalSupply()": "18160ddd",
					"transfer(address,uint256)": "a9059cbb",
					"transferFrom(address,address,uint256)": "23b872dd",
					"transferOwnership(address)": "f2fde38b",
					"transferToken(address,uint256)": "1072cbea",
					"welcomeBonus()": "f5112f87"
				}
			},
			"storageLayout": {
				"storage": [
					{
						"astId": 307,
						"contract": "contracts/DegenToken.sol:DegenToken",
						"label": "_balances",
						"offset": 0,
						"slot": "0",
						"type": "t_mapping(t_address,t_uint256)"
					},
					{
						"astId": 313,
						"contract": "contracts/DegenToken.sol:DegenToken",
						"label": "_allowances",
						"offset": 0,
						"slot": "1",
						"type": "t_mapping(t_address,t_mapping(t_address,t_uint256))"
					},
					{
						"astId": 315,
						"contract": "contracts/DegenToken.sol:DegenToken",
						"label": "_totalSupply",
						"offset": 0,
						"slot": "2",
						"type": "t_uint256"
					},
					{
						"astId": 317,
						"contract": "contracts/DegenToken.sol:DegenToken",
						"label": "_name",
						"offset": 0,
						"slot": "3",
						"type": "t_string_storage"
					},
					{
						"astId": 319,
						"contract": "contracts/DegenToken.sol:DegenToken",
						"label": "_symbol",
						"offset": 0,
						"slot": "4",
						"type": "t_string_storage"
					},
					{
						"astId": 8,
						"contract": "contracts/DegenToken.sol:DegenToken",
						"label": "_owner",
						"offset": 0,
						"slot": "5",
						"type": "t_address"
					},
					{
						"astId": 1002,
						"contract": "contracts/DegenToken.sol:DegenToken",
						"label": "items",
						"offset": 0,
						"slot": "6",
						"type": "t_mapping(t_uint8,t_struct(Item)997_storage)"
					},
					{
						"astId": 1004,
						"contract": "contracts/DegenToken.sol:DegenToken",
						"label": "tokenId",
						"offset": 0,
						"slot": "7",
						"type": "t_uint8"
					}
				],
				"types": {
					"t_address": {
						"encoding": "inplace",
						"label": "address",
						"numberOfBytes": "20"
					},
					"t_mapping(t_address,t_mapping(t_address,t_uint256))": {
						"encoding": "mapping",
						"key": "t_address",
						"label": "mapping(address => mapping(address => uint256))",
						"numberOfBytes": "32",
						"value": "t_mapping(t_address,t_uint256)"
					},
					"t_mapping(t_address,t_uint256)": {
						"encoding": "mapping",
						"key": "t_address",
						"label": "mapping(address => uint256)",
						"numberOfBytes": "32",
						"value": "t_uint256"
					},
					"t_mapping(t_uint8,t_struct(Item)997_storage)": {
						"encoding": "mapping",
						"key": "t_uint8",
						"label": "mapping(uint8 => struct DegenToken.Item)",
						"numberOfBytes": "32",
						"value": "t_struct(Item)997_storage"
					},
					"t_string_storage": {
						"encoding": "bytes",
						"label": "string",
						"numberOfBytes": "32"
					},
					"t_struct(Item)997_storage": {
						"encoding": "inplace",
						"label": "struct DegenToken.Item",
						"members": [
							{
								"astId": 992,
								"contract": "contracts/DegenToken.sol:DegenToken",
								"label": "name",
								"offset": 0,
								"slot": "0",
								"type": "t_string_storage"
							},
							{
								"astId": 994,
								"contract": "contracts/DegenToken.sol:DegenToken",
								"label": "itemId",
								"offset": 0,
								"slot": "1",
								"type": "t_uint8"
							},
							{
								"astId": 996,
								"contract": "contracts/DegenToken.sol:DegenToken",
								"label": "price",
								"offset": 0,
								"slot": "2",
								"type": "t_uint256"
							}
						],
						"numberOfBytes": "96"
					},
					"t_uint256": {
						"encoding": "inplace",
						"label": "uint256",
						"numberOfBytes": "32"
					},
					"t_uint8": {
						"encoding": "inplace",
						"label": "uint8",
						"numberOfBytes": "1"
					}
				}
			},
			"userdoc": {
				"kind": "user",
				"methods": {},
				"version": 1
			}
		}
	}
}