{
	"contracts/myToken.sol": {
		"myToken": {
			"abi": [
				{
					"inputs": [
						{
							"internalType": "string",
							"name": "_name",
							"type": "string"
						},
						{
							"internalType": "string",
							"name": "_symbol",
							"type": "string"
						},
						{
							"internalType": "uint256",
							"name": "_tokenTotalSupply",
							"type": "uint256"
						}
					],
					"stateMutability": "nonpayable",
					"type": "constructor"
				},
				{
					"anonymous": false,
					"inputs": [
						{
							"indexed": true,
							"internalType": "address",
							"name": "owner",
							"type": "address"
						},
						{
							"indexed": true,
							"internalType": "address",
							"name": "spender",
							"type": "address"
						},
						{
							"indexed": false,
							"internalType": "uint256",
							"name": "value",
							"type": "uint256"
						}
					],
					"name": "Approval",
					"type": "event"
				},
				{
					"anonymous": false,
					"inputs": [
						{
							"indexed": true,
							"internalType": "address",
							"name": "from",
							"type": "address"
						},
						{
							"indexed": true,
							"internalType": "address",
							"name": "to",
							"type": "address"
						},
						{
							"indexed": false,
							"internalType": "uint256",
							"name": "value",
							"type": "uint256"
						}
					],
					"name": "Transfer",
					"type": "event"
				},
				{
					"inputs": [
						{
							"internalType": "address",
							"name": "owner",
							"type": "address"
						},
						{
							"internalType": "address",
							"name": "spender",
							"type": "address"
						}
					],
					"name": "allowance",
					"outputs": [
						{
							"internalType": "uint256",
							"name": "",
							"type": "uint256"
						}
					],
					"stateMutability": "view",
					"type": "function"
				},
				{
					"inputs": [
						{
							"internalType": "address",
							"name": "spender",
							"type": "address"
						},
						{
							"internalType": "uint256",
							"name": "amount",
							"type": "uint256"
						}
					],
					"name": "approve",
					"outputs": [
						{
							"internalType": "bool",
							"name": "",
							"type": "bool"
						}
					],
					"stateMutability": "nonpayable",
					"type": "function"
				},
				{
					"inputs": [
						{
							"internalType": "address",
							"name": "account",
							"type": "address"
						}
					],
					"name": "balanceOf",
					"outputs": [
						{
							"internalType": "uint256",
							"name": "",
							"type": "uint256"
						}
					],
					"stateMutability": "view",
					"type": "function"
				},
				{
					"inputs": [
						{
							"internalType": "uint256",
							"name": "amount",
							"type": "uint256"
						}
					],
					"name": "burn",
					"outputs": [
						{
							"internalType": "bool",
							"name": "",
							"type": "bool"
						}
					],
					"stateMutability": "nonpayable",
					"type": "function"
				},
				{
					"inputs": [],
					"name": "founder",
					"outputs": [
						{
							"internalType": "address",
							"name": "",
							"type": "address"
						}
					],
					"stateMutability": "view",
					"type": "function"
				},
				{
					"inputs": [
						{
							"internalType": "address",
							"name": "recipient",
							"type": "address"
						},
						{
							"internalType": "uint256",
							"name": "amount",
							"type": "uint256"
						}
					],
					"name": "mint",
					"outputs": [
						{
							"internalType": "bool",
							"name": "",
							"type": "bool"
						}
					],
					"stateMutability": "nonpayable",
					"type": "function"
				},
				{
					"inputs": [],
					"name": "name",
					"outputs": [
						{
							"internalType": "string",
							"name": "",
							"type": "string"
						}
					],
					"stateMutability": "view",
					"type": "function"
				},
				{
					"inputs": [],
					"name": "symbol",
					"outputs": [
						{
							"internalType": "string",
							"name": "",
							"type": "string"
						}
					],
					"stateMutability": "view",
					"type": "function"
				},
				{
					"inputs": [],
					"name": "tokenTotalSupply",
					"outputs": [
						{
							"internalType": "uint256",
							"name": "",
							"type": "uint256"
						}
					],
					"stateMutability": "view",
					"type": "function"
				},
				{
					"inputs": [],
					"name": "totalSupply",
					"outputs": [
						{
							"internalType": "uint256",
							"name": "",
							"type": "uint256"
						}
					],
					"stateMutability": "view",
					"type": "function"
				},
				{
					"inputs": [
						{
							"internalType": "address",
							"name": "recipient",
							"type": "address"
						},
						{
							"internalType": "uint256",
							"name": "amount",
							"type": "uint256"
						}
					],
					"name": "transfer",
					"outputs": [
						{
							"internalType": "bool",
							"name": "",
							"type": "bool"
						}
					],
					"stateMutability": "nonpayable",
					"type": "function"
				},
				{
					"inputs": [
						{
							"internalType": "address",
							"name": "sender",
							"type": "address"
						},
						{
							"internalType": "address",
							"name": "recipient",
							"type": "address"
						},
						{
							"internalType": "uint256",
							"name": "amount",
							"type": "uint256"
						}
					],
					"name": "transferFrom",
					"outputs": [
						{
							"internalType": "bool",
							"name": "",
							"type": "bool"
						}
					],
					"stateMutability": "nonpayable",
					"type": "function"
				}
			],
			"devdoc": {
				"events": {
					"Approval(address,address,uint256)": {
						"details": "Emitted when the allowance of a `spender` for an `owner` is set by a call to {approve}. `value` is the new allowance."
					},
					"Transfer(address,address,uint256)": {
						"details": "Emitted when `value` tokens are moved from one account (`from`) to another (`to`). Note that `value` may be zero."
					}
				},
				"kind": "dev",
				"methods": {
					"allowance(address,address)": {
						"details": "Returns the remaining number of tokens that `spender` will be allowed to spend on behalf of `owner` through {transferFrom}. This is zero by default. This value changes when {approve} or {transferFrom} are called."
					},
					"balanceOf(address)": {
						"details": "Returns the value of tokens owned by `account`."
					},
					"totalSupply()": {
						"details": "Returns the value of tokens in existence."
					}
				},
				"version": 1
			},
			"evm": {
				"assembly": "    /* \"contracts/myToken.sol\":135:2868  contract myToken is IERC20 {... */\n  mstore(0x40, 0x80)\n    /* \"contracts/myToken.sol\":396:658  constructor(string memory _name, string memory _symbol, uint _tokenTotalSupply) {... */\n  callvalue\n  dup1\n  iszero\n  tag_1\n  jumpi\n  0x00\n  dup1\n  revert\ntag_1:\n  pop\n  mload(0x40)\n  sub(codesize, bytecodeSize)\n  dup1\n  bytecodeSize\n  dup4\n  codecopy\n  dup2\n  dup2\n  add\n  0x40\n  mstore\n  dup2\n  add\n  swap1\n  tag_2\n  swap2\n  swap1\n  tag_3\n  jump\t// in\ntag_2:\n    /* \"contracts/myToken.sol\":494:499  _name */\n  dup3\n    /* \"contracts/myToken.sol\":487:491  name */\n  0x00\n    /* \"contracts/myToken.sol\":487:499  name = _name */\n  swap1\n  dup2\n  tag_6\n  swap2\n  swap1\n  tag_7\n  jump\t// in\ntag_6:\n  pop\n    /* \"contracts/myToken.sol\":519:526  _symbol */\n  dup2\n    /* \"contracts/myToken.sol\":510:516  symbol */\n  0x01\n    /* \"contracts/myToken.sol\":510:526  symbol = _symbol */\n  swap1\n  dup2\n  tag_8\n  swap2\n  swap1\n  tag_7\n  jump\t// in\ntag_8:\n  pop\n    /* \"contracts/myToken.sol\":547:557  msg.sender */\n  caller\n    /* \"contracts/myToken.sol\":537:544  founder */\n  0x02\n  0x00\n    /* \"contracts/myToken.sol\":537:557  founder = msg.sender */\n  0x0100\n  exp\n  dup2\n  sload\n  dup2\n  0xffffffffffffffffffffffffffffffffffffffff\n  mul\n  not\n  and\n  swap1\n  dup4\n  0xffffffffffffffffffffffffffffffffffffffff\n  and\n  mul\n  or\n  swap1\n  sstore\n  pop\n    /* \"contracts/myToken.sol\":587:604  _tokenTotalSupply */\n  dup1\n    /* \"contracts/myToken.sol\":568:584  tokenTotalSupply */\n  0x03\n    /* \"contracts/myToken.sol\":568:604  tokenTotalSupply = _tokenTotalSupply */\n  dup2\n  swap1\n  sstore\n  pop\n    /* \"contracts/myToken.sol\":634:650  tokenTotalSupply */\n  sload(0x03)\n    /* \"contracts/myToken.sol\":615:623  balances */\n  0x04\n    /* \"contracts/myToken.sol\":615:632  balances[founder] */\n  0x00\n    /* \"contracts/myToken.sol\":624:631  founder */\n  0x02\n  0x00\n  swap1\n  sload\n  swap1\n  0x0100\n  exp\n  swap1\n  div\n  0xffffffffffffffffffffffffffffffffffffffff\n  and\n    /* \"contracts/myToken.sol\":615:632  balances[founder] */\n  0xffffffffffffffffffffffffffffffffffffffff\n  and\n  0xffffffffffffffffffffffffffffffffffffffff\n  and\n  dup2\n  mstore\n  0x20\n  add\n  swap1\n  dup2\n  mstore\n  0x20\n  add\n  0x00\n  keccak256\n    /* \"contracts/myToken.sol\":615:650  balances[founder]= tokenTotalSupply */\n  dup2\n  swap1\n  sstore\n  pop\n    /* \"contracts/myToken.sol\":396:658  constructor(string memory _name, string memory _symbol, uint _tokenTotalSupply) {... */\n  pop\n  pop\n  pop\n    /* \"contracts/myToken.sol\":135:2868  contract myToken is IERC20 {... */\n  jump(tag_9)\n    /* \"#utility.yul\":7:82   */\ntag_10:\n    /* \"#utility.yul\":40:46   */\n  0x00\n    /* \"#utility.yul\":73:75   */\n  0x40\n    /* \"#utility.yul\":67:76   */\n  mload\n    /* \"#utility.yul\":57:76   */\n  swap1\n  pop\n    /* \"#utility.yul\":7:82   */\n  swap1\n  jump\t// out\n    /* \"#utility.yul\":88:205   */\ntag_11:\n    /* \"#utility.yul\":197:198   */\n  0x00\n    /* \"#utility.yul\":194:195   */\n  dup1\n    /* \"#utility.yul\":187:199   */\n  revert\n    /* \"#utility.yul\":211:328   */\ntag_12:\n    /* \"#utility.yul\":320:321   */\n  0x00\n    /* \"#utility.yul\":317:318   */\n  dup1\n    /* \"#utility.yul\":310:322   */\n  revert\n    /* \"#utility.yul\":334:451   */\ntag_13:\n    /* \"#utility.yul\":443:444   */\n  0x00\n    /* \"#utility.yul\":440:441   */\n  dup1\n    /* \"#utility.yul\":433:445   */\n  revert\n    /* \"#utility.yul\":457:574   */\ntag_14:\n    /* \"#utility.yul\":566:567   */\n  0x00\n    /* \"#utility.yul\":563:564   */\n  dup1\n    /* \"#utility.yul\":556:568   */\n  revert\n    /* \"#utility.yul\":580:682   */\ntag_15:\n    /* \"#utility.yul\":621:627   */\n  0x00\n    /* \"#utility.yul\":672:674   */\n  0x1f\n    /* \"#utility.yul\":668:675   */\n  not\n    /* \"#utility.yul\":663:665   */\n  0x1f\n    /* \"#utility.yul\":656:661   */\n  dup4\n    /* \"#utility.yul\":652:666   */\n  add\n    /* \"#utility.yul\":648:676   */\n  and\n    /* \"#utility.yul\":638:676   */\n  swap1\n  pop\n    /* \"#utility.yul\":580:682   */\n  swap2\n  swap1\n  pop\n  jump\t// out\n    /* \"#utility.yul\":688:868   */\ntag_16:\n    /* \"#utility.yul\":736:813   */\n  0x4e487b7100000000000000000000000000000000000000000000000000000000\n    /* \"#utility.yul\":733:734   */\n  0x00\n    /* \"#utility.yul\":726:814   */\n  mstore\n    /* \"#utility.yul\":833:837   */\n  0x41\n    /* \"#utility.yul\":830:831   */\n  0x04\n    /* \"#utility.yul\":823:838   */\n  mstore\n    /* \"#utility.yul\":857:861   */\n  0x24\n    /* \"#utility.yul\":854:855   */\n  0x00\n    /* \"#utility.yul\":847:862   */\n  revert\n    /* \"#utility.yul\":874:1155   */\ntag_17:\n    /* \"#utility.yul\":957:984   */\n  tag_53\n    /* \"#utility.yul\":979:983   */\n  dup3\n    /* \"#utility.yul\":957:984   */\n  tag_15\n  jump\t// in\ntag_53:\n    /* \"#utility.yul\":949:955   */\n  dup2\n    /* \"#utility.yul\":945:985   */\n  add\n    /* \"#utility.yul\":1087:1093   */\n  dup2\n    /* \"#utility.yul\":1075:1085   */\n  dup2\n    /* \"#utility.yul\":1072:1094   */\n  lt\n    /* \"#utility.yul\":1051:1069   */\n  0xffffffffffffffff\n    /* \"#utility.yul\":1039:1049   */\n  dup3\n    /* \"#utility.yul\":1036:1070   */\n  gt\n    /* \"#utility.yul\":1033:1095   */\n  or\n    /* \"#utility.yul\":1030:1118   */\n  iszero\n  tag_54\n  jumpi\n    /* \"#utility.yul\":1098:1116   */\n  tag_55\n  tag_16\n  jump\t// in\ntag_55:\n    /* \"#utility.yul\":1030:1118   */\ntag_54:\n    /* \"#utility.yul\":1138:1148   */\n  dup1\n    /* \"#utility.yul\":1134:1136   */\n  0x40\n    /* \"#utility.yul\":1127:1149   */\n  mstore\n    /* \"#utility.yul\":917:1155   */\n  pop\n    /* \"#utility.yul\":874:1155   */\n  pop\n  pop\n  jump\t// out\n    /* \"#utility.yul\":1161:1290   */\ntag_18:\n    /* \"#utility.yul\":1195:1201   */\n  0x00\n    /* \"#utility.yul\":1222:1242   */\n  tag_57\n  tag_10\n  jump\t// in\ntag_57:\n    /* \"#utility.yul\":1212:1242   */\n  swap1\n  pop\n    /* \"#utility.yul\":1251:1284   */\n  tag_58\n    /* \"#utility.yul\":1279:1283   */\n  dup3\n    /* \"#utility.yul\":1271:1277   */\n  dup3\n    /* \"#utility.yul\":1251:1284   */\n  tag_17\n  jump\t// in\ntag_58:\n    /* \"#utility.yul\":1161:1290   */\n  swap2\n  swap1\n  pop\n  jump\t// out\n    /* \"#utility.yul\":1296:1604   */\ntag_19:\n    /* \"#utility.yul\":1358:1362   */\n  0x00\n    /* \"#utility.yul\":1448:1466   */\n  0xffffffffffffffff\n    /* \"#utility.yul\":1440:1446   */\n  dup3\n    /* \"#utility.yul\":1437:1467   */\n  gt\n    /* \"#utility.yul\":1434:1490   */\n  iszero\n  tag_60\n  jumpi\n    /* \"#utility.yul\":1470:1488   */\n  tag_61\n  tag_16\n  jump\t// in\ntag_61:\n    /* \"#utility.yul\":1434:1490   */\ntag_60:\n    /* \"#utility.yul\":1508:1537   */\n  tag_62\n    /* \"#utility.yul\":1530:1536   */\n  dup3\n    /* \"#utility.yul\":1508:1537   */\n  tag_15\n  jump\t// in\ntag_62:\n    /* \"#utility.yul\":1500:1537   */\n  swap1\n  pop\n    /* \"#utility.yul\":1592:1596   */\n  0x20\n    /* \"#utility.yul\":1586:1590   */\n  dup2\n    /* \"#utility.yul\":1582:1597   */\n  add\n    /* \"#utility.yul\":1574:1597   */\n  swap1\n  pop\n    /* \"#utility.yul\":1296:1604   */\n  swap2\n  swap1\n  pop\n  jump\t// out\n    /* \"#utility.yul\":1610:1749   */\ntag_20:\n    /* \"#utility.yul\":1699:1705   */\n  dup3\n    /* \"#utility.yul\":1694:1697   */\n  dup2\n    /* \"#utility.yul\":1689:1692   */\n  dup4\n    /* \"#utility.yul\":1683:1706   */\n  mcopy\n    /* \"#utility.yul\":1740:1741   */\n  0x00\n    /* \"#utility.yul\":1731:1737   */\n  dup4\n    /* \"#utility.yul\":1726:1729   */\n  dup4\n    /* \"#utility.yul\":1722:1738   */\n  add\n    /* \"#utility.yul\":1715:1742   */\n  mstore\n    /* \"#utility.yul\":1610:1749   */\n  pop\n  pop\n  pop\n  jump\t// out\n    /* \"#utility.yul\":1755:2189   */\ntag_21:\n    /* \"#utility.yul\":1844:1849   */\n  0x00\n    /* \"#utility.yul\":1869:1935   */\n  tag_65\n    /* \"#utility.yul\":1885:1934   */\n  tag_66\n    /* \"#utility.yul\":1927:1933   */\n  dup5\n    /* \"#utility.yul\":1885:1934   */\n  tag_19\n  jump\t// in\ntag_66:\n    /* \"#utility.yul\":1869:1935   */\n  tag_18\n  jump\t// in\ntag_65:\n    /* \"#utility.yul\":1860:1935   */\n  swap1\n  pop\n    /* \"#utility.yul\":1958:1964   */\n  dup3\n    /* \"#utility.yul\":1951:1956   */\n  dup2\n    /* \"#utility.yul\":1944:1965   */\n  mstore\n    /* \"#utility.yul\":1996:2000   */\n  0x20\n    /* \"#utility.yul\":1989:1994   */\n  dup2\n    /* \"#utility.yul\":1985:2001   */\n  add\n    /* \"#utility.yul\":2034:2037   */\n  dup5\n    /* \"#utility.yul\":2025:2031   */\n  dup5\n    /* \"#utility.yul\":2020:2023   */\n  dup5\n    /* \"#utility.yul\":2016:2032   */\n  add\n    /* \"#utility.yul\":2013:2038   */\n  gt\n    /* \"#utility.yul\":2010:2122   */\n  iszero\n  tag_67\n  jumpi\n    /* \"#utility.yul\":2041:2120   */\n  tag_68\n  tag_14\n  jump\t// in\ntag_68:\n    /* \"#utility.yul\":2010:2122   */\ntag_67:\n    /* \"#utility.yul\":2131:2183   */\n  tag_69\n    /* \"#utility.yul\":2176:2182   */\n  dup5\n    /* \"#utility.yul\":2171:2174   */\n  dup3\n    /* \"#utility.yul\":2166:2169   */\n  dup6\n    /* \"#utility.yul\":2131:2183   */\n  tag_20\n  jump\t// in\ntag_69:\n    /* \"#utility.yul\":1850:2189   */\n  pop\n    /* \"#utility.yul\":1755:2189   */\n  swap4\n  swap3\n  pop\n  pop\n  pop\n  jump\t// out\n    /* \"#utility.yul\":2209:2564   */\ntag_22:\n    /* \"#utility.yul\":2276:2281   */\n  0x00\n    /* \"#utility.yul\":2325:2328   */\n  dup3\n    /* \"#utility.yul\":2318:2322   */\n  0x1f\n    /* \"#utility.yul\":2310:2316   */\n  dup4\n    /* \"#utility.yul\":2306:2323   */\n  add\n    /* \"#utility.yul\":2302:2329   */\n  slt\n    /* \"#utility.yul\":2292:2414   */\n  tag_71\n  jumpi\n    /* \"#utility.yul\":2333:2412   */\n  tag_72\n  tag_13\n  jump\t// in\ntag_72:\n    /* \"#utility.yul\":2292:2414   */\ntag_71:\n    /* \"#utility.yul\":2443:2449   */\n  dup2\n    /* \"#utility.yul\":2437:2450   */\n  mload\n    /* \"#utility.yul\":2468:2558   */\n  tag_73\n    /* \"#utility.yul\":2554:2557   */\n  dup5\n    /* \"#utility.yul\":2546:2552   */\n  dup3\n    /* \"#utility.yul\":2539:2543   */\n  0x20\n    /* \"#utility.yul\":2531:2537   */\n  dup7\n    /* \"#utility.yul\":2527:2544   */\n  add\n    /* \"#utility.yul\":2468:2558   */\n  tag_21\n  jump\t// in\ntag_73:\n    /* \"#utility.yul\":2459:2558   */\n  swap2\n  pop\n    /* \"#utility.yul\":2282:2564   */\n  pop\n    /* \"#utility.yul\":2209:2564   */\n  swap3\n  swap2\n  pop\n  pop\n  jump\t// out\n    /* \"#utility.yul\":2570:2647   */\ntag_23:\n    /* \"#utility.yul\":2607:2614   */\n  0x00\n    /* \"#utility.yul\":2636:2641   */\n  dup2\n    /* \"#utility.yul\":2625:2641   */\n  swap1\n  pop\n    /* \"#utility.yul\":2570:2647   */\n  swap2\n  swap1\n  pop\n  jump\t// out\n    /* \"#utility.yul\":2653:2775   */\ntag_24:\n    /* \"#utility.yul\":2726:2750   */\n  tag_76\n    /* \"#utility.yul\":2744:2749   */\n  dup2\n    /* \"#utility.yul\":2726:2750   */\n  tag_23\n  jump\t// in\ntag_76:\n    /* \"#utility.yul\":2719:2724   */\n  dup2\n    /* \"#utility.yul\":2716:2751   */\n  eq\n    /* \"#utility.yul\":2706:2769   */\n  tag_77\n  jumpi\n    /* \"#utility.yul\":2765:2766   */\n  0x00\n    /* \"#utility.yul\":2762:2763   */\n  dup1\n    /* \"#utility.yul\":2755:2767   */\n  revert\n    /* \"#utility.yul\":2706:2769   */\ntag_77:\n    /* \"#utility.yul\":2653:2775   */\n  pop\n  jump\t// out\n    /* \"#utility.yul\":2781:2924   */\ntag_25:\n    /* \"#utility.yul\":2838:2843   */\n  0x00\n    /* \"#utility.yul\":2869:2875   */\n  dup2\n    /* \"#utility.yul\":2863:2876   */\n  mload\n    /* \"#utility.yul\":2854:2876   */\n  swap1\n  pop\n    /* \"#utility.yul\":2885:2918   */\n  tag_79\n    /* \"#utility.yul\":2912:2917   */\n  dup2\n    /* \"#utility.yul\":2885:2918   */\n  tag_24\n  jump\t// in\ntag_79:\n    /* \"#utility.yul\":2781:2924   */\n  swap3\n  swap2\n  pop\n  pop\n  jump\t// out\n    /* \"#utility.yul\":2930:3939   */\ntag_3:\n    /* \"#utility.yul\":3038:3044   */\n  0x00\n    /* \"#utility.yul\":3046:3052   */\n  dup1\n    /* \"#utility.yul\":3054:3060   */\n  0x00\n    /* \"#utility.yul\":3103:3105   */\n  0x60\n    /* \"#utility.yul\":3091:3100   */\n  dup5\n    /* \"#utility.yul\":3082:3089   */\n  dup7\n    /* \"#utility.yul\":3078:3101   */\n  sub\n    /* \"#utility.yul\":3074:3106   */\n  slt\n    /* \"#utility.yul\":3071:3190   */\n  iszero\n  tag_81\n  jumpi\n    /* \"#utility.yul\":3109:3188   */\n  tag_82\n  tag_11\n  jump\t// in\ntag_82:\n    /* \"#utility.yul\":3071:3190   */\ntag_81:\n    /* \"#utility.yul\":3250:3251   */\n  0x00\n    /* \"#utility.yul\":3239:3248   */\n  dup5\n    /* \"#utility.yul\":3235:3252   */\n  add\n    /* \"#utility.yul\":3229:3253   */\n  mload\n    /* \"#utility.yul\":3280:3298   */\n  0xffffffffffffffff\n    /* \"#utility.yul\":3272:3278   */\n  dup2\n    /* \"#utility.yul\":3269:3299   */\n  gt\n    /* \"#utility.yul\":3266:3383   */\n  iszero\n  tag_83\n  jumpi\n    /* \"#utility.yul\":3302:3381   */\n  tag_84\n  tag_12\n  jump\t// in\ntag_84:\n    /* \"#utility.yul\":3266:3383   */\ntag_83:\n    /* \"#utility.yul\":3407:3481   */\n  tag_85\n    /* \"#utility.yul\":3473:3480   */\n  dup7\n    /* \"#utility.yul\":3464:3470   */\n  dup3\n    /* \"#utility.yul\":3453:3462   */\n  dup8\n    /* \"#utility.yul\":3449:3471   */\n  add\n    /* \"#utility.yul\":3407:3481   */\n  tag_22\n  jump\t// in\ntag_85:\n    /* \"#utility.yul\":3397:3481   */\n  swap4\n  pop\n    /* \"#utility.yul\":3200:3491   */\n  pop\n    /* \"#utility.yul\":3551:3553   */\n  0x20\n    /* \"#utility.yul\":3540:3549   */\n  dup5\n    /* \"#utility.yul\":3536:3554   */\n  add\n    /* \"#utility.yul\":3530:3555   */\n  mload\n    /* \"#utility.yul\":3582:3600   */\n  0xffffffffffffffff\n    /* \"#utility.yul\":3574:3580   */\n  dup2\n    /* \"#utility.yul\":3571:3601   */\n  gt\n    /* \"#utility.yul\":3568:3685   */\n  iszero\n  tag_86\n  jumpi\n    /* \"#utility.yul\":3604:3683   */\n  tag_87\n  tag_12\n  jump\t// in\ntag_87:\n    /* \"#utility.yul\":3568:3685   */\ntag_86:\n    /* \"#utility.yul\":3709:3783   */\n  tag_88\n    /* \"#utility.yul\":3775:3782   */\n  dup7\n    /* \"#utility.yul\":3766:3772   */\n  dup3\n    /* \"#utility.yul\":3755:3764   */\n  dup8\n    /* \"#utility.yul\":3751:3773   */\n  add\n    /* \"#utility.yul\":3709:3783   */\n  tag_22\n  jump\t// in\ntag_88:\n    /* \"#utility.yul\":3699:3783   */\n  swap3\n  pop\n    /* \"#utility.yul\":3501:3793   */\n  pop\n    /* \"#utility.yul\":3832:3834   */\n  0x40\n    /* \"#utility.yul\":3858:3922   */\n  tag_89\n    /* \"#utility.yul\":3914:3921   */\n  dup7\n    /* \"#utility.yul\":3905:3911   */\n  dup3\n    /* \"#utility.yul\":3894:3903   */\n  dup8\n    /* \"#utility.yul\":3890:3912   */\n  add\n    /* \"#utility.yul\":3858:3922   */\n  tag_25\n  jump\t// in\ntag_89:\n    /* \"#utility.yul\":3848:3922   */\n  swap2\n  pop\n    /* \"#utility.yul\":3803:3932   */\n  pop\n    /* \"#utility.yul\":2930:3939   */\n  swap3\n  pop\n  swap3\n  pop\n  swap3\n  jump\t// out\n    /* \"#utility.yul\":3945:4044   */\ntag_26:\n    /* \"#utility.yul\":3997:4003   */\n  0x00\n    /* \"#utility.yul\":4031:4036   */\n  dup2\n    /* \"#utility.yul\":4025:4037   */\n  mload\n    /* \"#utility.yul\":4015:4037   */\n  swap1\n  pop\n    /* \"#utility.yul\":3945:4044   */\n  swap2\n  swap1\n  pop\n  jump\t// out\n    /* \"#utility.yul\":4050:4230   */\ntag_27:\n    /* \"#utility.yul\":4098:4175   */\n  0x4e487b7100000000000000000000000000000000000000000000000000000000\n    /* \"#utility.yul\":4095:4096   */\n  0x00\n    /* \"#utility.yul\":4088:4176   */\n  mstore\n    /* \"#utility.yul\":4195:4199   */\n  0x22\n    /* \"#utility.yul\":4192:4193   */\n  0x04\n    /* \"#utility.yul\":4185:4200   */\n  mstore\n    /* \"#utility.yul\":4219:4223   */\n  0x24\n    /* \"#utility.yul\":4216:4217   */\n  0x00\n    /* \"#utility.yul\":4209:4224   */\n  revert\n    /* \"#utility.yul\":4236:4556   */\ntag_28:\n    /* \"#utility.yul\":4280:4286   */\n  0x00\n    /* \"#utility.yul\":4317:4318   */\n  0x02\n    /* \"#utility.yul\":4311:4315   */\n  dup3\n    /* \"#utility.yul\":4307:4319   */\n  div\n    /* \"#utility.yul\":4297:4319   */\n  swap1\n  pop\n    /* \"#utility.yul\":4364:4365   */\n  0x01\n    /* \"#utility.yul\":4358:4362   */\n  dup3\n    /* \"#utility.yul\":4354:4366   */\n  and\n    /* \"#utility.yul\":4385:4403   */\n  dup1\n    /* \"#utility.yul\":4375:4456   */\n  tag_93\n  jumpi\n    /* \"#utility.yul\":4441:4445   */\n  0x7f\n    /* \"#utility.yul\":4433:4439   */\n  dup3\n    /* \"#utility.yul\":4429:4446   */\n  and\n    /* \"#utility.yul\":4419:4446   */\n  swap2\n  pop\n    /* \"#utility.yul\":4375:4456   */\ntag_93:\n    /* \"#utility.yul\":4503:4505   */\n  0x20\n    /* \"#utility.yul\":4495:4501   */\n  dup3\n    /* \"#utility.yul\":4492:4506   */\n  lt\n    /* \"#utility.yul\":4472:4490   */\n  dup2\n    /* \"#utility.yul\":4469:4507   */\n  sub\n    /* \"#utility.yul\":4466:4550   */\n  tag_94\n  jumpi\n    /* \"#utility.yul\":4522:4540   */\n  tag_95\n  tag_27\n  jump\t// in\ntag_95:\n    /* \"#utility.yul\":4466:4550   */\ntag_94:\n    /* \"#utility.yul\":4287:4556   */\n  pop\n    /* \"#utility.yul\":4236:4556   */\n  swap2\n  swap1\n  pop\n  jump\t// out\n    /* \"#utility.yul\":4562:4703   */\ntag_29:\n    /* \"#utility.yul\":4611:4615   */\n  0x00\n    /* \"#utility.yul\":4634:4637   */\n  dup2\n    /* \"#utility.yul\":4626:4637   */\n  swap1\n  pop\n    /* \"#utility.yul\":4657:4660   */\n  dup2\n    /* \"#utility.yul\":4654:4655   */\n  0x00\n    /* \"#utility.yul\":4647:4661   */\n  mstore\n    /* \"#utility.yul\":4691:4695   */\n  0x20\n    /* \"#utility.yul\":4688:4689   */\n  0x00\n    /* \"#utility.yul\":4678:4696   */\n  keccak256\n    /* \"#utility.yul\":4670:4696   */\n  swap1\n  pop\n    /* \"#utility.yul\":4562:4703   */\n  swap2\n  swap1\n  pop\n  jump\t// out\n    /* \"#utility.yul\":4709:4802   */\ntag_30:\n    /* \"#utility.yul\":4746:4752   */\n  0x00\n    /* \"#utility.yul\":4793:4795   */\n  0x20\n    /* \"#utility.yul\":4788:4790   */\n  0x1f\n    /* \"#utility.yul\":4781:4786   */\n  dup4\n    /* \"#utility.yul\":4777:4791   */\n  add\n    /* \"#utility.yul\":4773:4796   */\n  div\n    /* \"#utility.yul\":4763:4796   */\n  swap1\n  pop\n    /* \"#utility.yul\":4709:4802   */\n  swap2\n  swap1\n  pop\n  jump\t// out\n    /* \"#utility.yul\":4808:4915   */\ntag_31:\n    /* \"#utility.yul\":4852:4860   */\n  0x00\n    /* \"#utility.yul\":4902:4907   */\n  dup3\n    /* \"#utility.yul\":4896:4900   */\n  dup3\n    /* \"#utility.yul\":4892:4908   */\n  shl\n    /* \"#utility.yul\":4871:4908   */\n  swap1\n  pop\n    /* \"#utility.yul\":4808:4915   */\n  swap3\n  swap2\n  pop\n  pop\n  jump\t// out\n    /* \"#utility.yul\":4921:5314   */\ntag_32:\n    /* \"#utility.yul\":4990:4996   */\n  0x00\n    /* \"#utility.yul\":5040:5041   */\n  0x08\n    /* \"#utility.yul\":5028:5038   */\n  dup4\n    /* \"#utility.yul\":5024:5042   */\n  mul\n    /* \"#utility.yul\":5063:5160   */\n  tag_100\n    /* \"#utility.yul\":5093:5159   */\n  0xffffffffffffffffffffffffffffffffffffffffffffffffffffffffffffffff\n    /* \"#utility.yul\":5082:5091   */\n  dup3\n    /* \"#utility.yul\":5063:5160   */\n  tag_31\n  jump\t// in\ntag_100:\n    /* \"#utility.yul\":5181:5220   */\n  tag_101\n    /* \"#utility.yul\":5211:5219   */\n  dup7\n    /* \"#utility.yul\":5200:5209   */\n  dup4\n    /* \"#utility.yul\":5181:5220   */\n  tag_31\n  jump\t// in\ntag_101:\n    /* \"#utility.yul\":5169:5220   */\n  swap6\n  pop\n    /* \"#utility.yul\":5253:5257   */\n  dup1\n    /* \"#utility.yul\":5249:5258   */\n  not\n    /* \"#utility.yul\":5242:5247   */\n  dup5\n    /* \"#utility.yul\":5238:5259   */\n  and\n    /* \"#utility.yul\":5229:5259   */\n  swap4\n  pop\n    /* \"#utility.yul\":5302:5306   */\n  dup1\n    /* \"#utility.yul\":5292:5300   */\n  dup7\n    /* \"#utility.yul\":5288:5307   */\n  and\n    /* \"#utility.yul\":5281:5286   */\n  dup5\n    /* \"#utility.yul\":5278:5308   */\n  or\n    /* \"#utility.yul\":5268:5308   */\n  swap3\n  pop\n    /* \"#utility.yul\":4997:5314   */\n  pop\n  pop\n    /* \"#utility.yul\":4921:5314   */\n  swap4\n  swap3\n  pop\n  pop\n  pop\n  jump\t// out\n    /* \"#utility.yul\":5320:5380   */\ntag_33:\n    /* \"#utility.yul\":5348:5351   */\n  0x00\n    /* \"#utility.yul\":5369:5374   */\n  dup2\n    /* \"#utility.yul\":5362:5374   */\n  swap1\n  pop\n    /* \"#utility.yul\":5320:5380   */\n  swap2\n  swap1\n  pop\n  jump\t// out\n    /* \"#utility.yul\":5386:5528   */\ntag_34:\n    /* \"#utility.yul\":5436:5445   */\n  0x00\n    /* \"#utility.yul\":5469:5522   */\n  tag_104\n    /* \"#utility.yul\":5487:5521   */\n  tag_105\n    /* \"#utility.yul\":5496:5520   */\n  tag_106\n    /* \"#utility.yul\":5514:5519   */\n  dup5\n    /* \"#utility.yul\":5496:5520   */\n  tag_23\n  jump\t// in\ntag_106:\n    /* \"#utility.yul\":5487:5521   */\n  tag_33\n  jump\t// in\ntag_105:\n    /* \"#utility.yul\":5469:5522   */\n  tag_23\n  jump\t// in\ntag_104:\n    /* \"#utility.yul\":5456:5522   */\n  swap1\n  pop\n    /* \"#utility.yul\":5386:5528   */\n  swap2\n  swap1\n  pop\n  jump\t// out\n    /* \"#utility.yul\":5534:5609   */\ntag_35:\n    /* \"#utility.yul\":5577:5580   */\n  0x00\n    /* \"#utility.yul\":5598:5603   */\n  dup2\n    /* \"#utility.yul\":5591:5603   */\n  swap1\n  pop\n    /* \"#utility.yul\":5534:5609   */\n  swap2\n  swap1\n  pop\n  jump\t// out\n    /* \"#utility.yul\":5615:5884   */\ntag_36:\n    /* \"#utility.yul\":5725:5764   */\n  tag_109\n    /* \"#utility.yul\":5756:5763   */\n  dup4\n    /* \"#utility.yul\":5725:5764   */\n  tag_34\n  jump\t// in\ntag_109:\n    /* \"#utility.yul\":5786:5877   */\n  tag_110\n    /* \"#utility.yul\":5835:5876   */\n  tag_111\n    /* \"#utility.yul\":5859:5875   */\n  dup3\n    /* \"#utility.yul\":5835:5876   */\n  tag_35\n  jump\t// in\ntag_111:\n    /* \"#utility.yul\":5827:5833   */\n  dup5\n    /* \"#utility.yul\":5820:5824   */\n  dup5\n    /* \"#utility.yul\":5814:5825   */\n  sload\n    /* \"#utility.yul\":5786:5877   */\n  tag_32\n  jump\t// in\ntag_110:\n    /* \"#utility.yul\":5780:5784   */\n  dup3\n    /* \"#utility.yul\":5773:5878   */\n  sstore\n    /* \"#utility.yul\":5691:5884   */\n  pop\n    /* \"#utility.yul\":5615:5884   */\n  pop\n  pop\n  pop\n  jump\t// out\n    /* \"#utility.yul\":5890:5963   */\ntag_37:\n    /* \"#utility.yul\":5935:5938   */\n  0x00\n    /* \"#utility.yul\":5890:5963   */\n  swap1\n  jump\t// out\n    /* \"#utility.yul\":5969:6158   */\ntag_38:\n    /* \"#utility.yul\":6046:6078   */\n  tag_114\n  tag_37\n  jump\t// in\ntag_114:\n    /* \"#utility.yul\":6087:6152   */\n  tag_115\n    /* \"#utility.yul\":6145:6151   */\n  dup2\n    /* \"#utility.yul\":6137:6143   */\n  dup5\n    /* \"#utility.yul\":6131:6135   */\n  dup5\n    /* \"#utility.yul\":6087:6152   */\n  tag_36\n  jump\t// in\ntag_115:\n    /* \"#utility.yul\":6022:6158   */\n  pop\n    /* \"#utility.yul\":5969:6158   */\n  pop\n  pop\n  jump\t// out\n    /* \"#utility.yul\":6164:6350   */\ntag_39:\n    /* \"#utility.yul\":6224:6344   */\ntag_117:\n    /* \"#utility.yul\":6241:6244   */\n  dup2\n    /* \"#utility.yul\":6234:6239   */\n  dup2\n    /* \"#utility.yul\":6231:6245   */\n  lt\n    /* \"#utility.yul\":6224:6344   */\n  iszero\n  tag_119\n  jumpi\n    /* \"#utility.yul\":6295:6334   */\n  tag_120\n    /* \"#utility.yul\":6332:6333   */\n  0x00\n    /* \"#utility.yul\":6325:6330   */\n  dup3\n    /* \"#utility.yul\":6295:6334   */\n  tag_38\n  jump\t// in\ntag_120:\n    /* \"#utility.yul\":6268:6269   */\n  0x01\n    /* \"#utility.yul\":6261:6266   */\n  dup2\n    /* \"#utility.yul\":6257:6270   */\n  add\n    /* \"#utility.yul\":6248:6270   */\n  swap1\n  pop\n    /* \"#utility.yul\":6224:6344   */\n  jump(tag_117)\ntag_119:\n    /* \"#utility.yul\":6164:6350   */\n  pop\n  pop\n  jump\t// out\n    /* \"#utility.yul\":6356:6899   */\ntag_40:\n    /* \"#utility.yul\":6457:6459   */\n  0x1f\n    /* \"#utility.yul\":6452:6455   */\n  dup3\n    /* \"#utility.yul\":6449:6460   */\n  gt\n    /* \"#utility.yul\":6446:6892   */\n  iszero\n  tag_122\n  jumpi\n    /* \"#utility.yul\":6491:6529   */\n  tag_123\n    /* \"#utility.yul\":6523:6528   */\n  dup2\n    /* \"#utility.yul\":6491:6529   */\n  tag_29\n  jump\t// in\ntag_123:\n    /* \"#utility.yul\":6575:6604   */\n  tag_124\n    /* \"#utility.yul\":6593:6603   */\n  dup5\n    /* \"#utility.yul\":6575:6604   */\n  tag_30\n  jump\t// in\ntag_124:\n    /* \"#utility.yul\":6565:6573   */\n  dup2\n    /* \"#utility.yul\":6561:6605   */\n  add\n    /* \"#utility.yul\":6758:6760   */\n  0x20\n    /* \"#utility.yul\":6746:6756   */\n  dup6\n    /* \"#utility.yul\":6743:6761   */\n  lt\n    /* \"#utility.yul\":6740:6789   */\n  iszero\n  tag_125\n  jumpi\n    /* \"#utility.yul\":6779:6787   */\n  dup2\n    /* \"#utility.yul\":6764:6787   */\n  swap1\n  pop\n    /* \"#utility.yul\":6740:6789   */\ntag_125:\n    /* \"#utility.yul\":6802:6882   */\n  tag_126\n    /* \"#utility.yul\":6858:6880   */\n  tag_127\n    /* \"#utility.yul\":6876:6879   */\n  dup6\n    /* \"#utility.yul\":6858:6880   */\n  tag_30\n  jump\t// in\ntag_127:\n    /* \"#utility.yul\":6848:6856   */\n  dup4\n    /* \"#utility.yul\":6844:6881   */\n  add\n    /* \"#utility.yul\":6831:6842   */\n  dup3\n    /* \"#utility.yul\":6802:6882   */\n  tag_39\n  jump\t// in\ntag_126:\n    /* \"#utility.yul\":6461:6892   */\n  pop\n  pop\n    /* \"#utility.yul\":6446:6892   */\ntag_122:\n    /* \"#utility.yul\":6356:6899   */\n  pop\n  pop\n  pop\n  jump\t// out\n    /* \"#utility.yul\":6905:7022   */\ntag_41:\n    /* \"#utility.yul\":6959:6967   */\n  0x00\n    /* \"#utility.yul\":7009:7014   */\n  dup3\n    /* \"#utility.yul\":7003:7007   */\n  dup3\n    /* \"#utility.yul\":6999:7015   */\n  shr\n    /* \"#utility.yul\":6978:7015   */\n  swap1\n  pop\n    /* \"#utility.yul\":6905:7022   */\n  swap3\n  swap2\n  pop\n  pop\n  jump\t// out\n    /* \"#utility.yul\":7028:7197   */\ntag_42:\n    /* \"#utility.yul\":7072:7078   */\n  0x00\n    /* \"#utility.yul\":7105:7156   */\n  tag_130\n    /* \"#utility.yul\":7153:7154   */\n  0x00\n    /* \"#utility.yul\":7149:7155   */\n  not\n    /* \"#utility.yul\":7141:7146   */\n  dup5\n    /* \"#utility.yul\":7138:7139   */\n  0x08\n    /* \"#utility.yul\":7134:7147   */\n  mul\n    /* \"#utility.yul\":7105:7156   */\n  tag_41\n  jump\t// in\ntag_130:\n    /* \"#utility.yul\":7101:7157   */\n  not\n    /* \"#utility.yul\":7186:7190   */\n  dup1\n    /* \"#utility.yul\":7180:7184   */\n  dup4\n    /* \"#utility.yul\":7176:7191   */\n  and\n    /* \"#utility.yul\":7166:7191   */\n  swap2\n  pop\n    /* \"#utility.yul\":7079:7197   */\n  pop\n    /* \"#utility.yul\":7028:7197   */\n  swap3\n  swap2\n  pop\n  pop\n  jump\t// out\n    /* \"#utility.yul\":7202:7497   */\ntag_43:\n    /* \"#utility.yul\":7278:7282   */\n  0x00\n    /* \"#utility.yul\":7424:7453   */\n  tag_132\n    /* \"#utility.yul\":7449:7452   */\n  dup4\n    /* \"#utility.yul\":7443:7447   */\n  dup4\n    /* \"#utility.yul\":7424:7453   */\n  tag_42\n  jump\t// in\ntag_132:\n    /* \"#utility.yul\":7416:7453   */\n  swap2\n  pop\n    /* \"#utility.yul\":7486:7489   */\n  dup3\n    /* \"#utility.yul\":7483:7484   */\n  0x02\n    /* \"#utility.yul\":7479:7490   */\n  mul\n    /* \"#utility.yul\":7473:7477   */\n  dup3\n    /* \"#utility.yul\":7470:7491   */\n  or\n    /* \"#utility.yul\":7462:7491   */\n  swap1\n  pop\n    /* \"#utility.yul\":7202:7497   */\n  swap3\n  swap2\n  pop\n  pop\n  jump\t// out\n    /* \"#utility.yul\":7502:8897   */\ntag_7:\n    /* \"#utility.yul\":7619:7656   */\n  tag_134\n    /* \"#utility.yul\":7652:7655   */\n  dup3\n    /* \"#utility.yul\":7619:7656   */\n  tag_26\n  jump\t// in\ntag_134:\n    /* \"#utility.yul\":7721:7739   */\n  0xffffffffffffffff\n    /* \"#utility.yul\":7713:7719   */\n  dup2\n    /* \"#utility.yul\":7710:7740   */\n  gt\n    /* \"#utility.yul\":7707:7763   */\n  iszero\n  tag_135\n  jumpi\n    /* \"#utility.yul\":7743:7761   */\n  tag_136\n  tag_16\n  jump\t// in\ntag_136:\n    /* \"#utility.yul\":7707:7763   */\ntag_135:\n    /* \"#utility.yul\":7787:7825   */\n  tag_137\n    /* \"#utility.yul\":7819:7823   */\n  dup3\n    /* \"#utility.yul\":7813:7824   */\n  sload\n    /* \"#utility.yul\":7787:7825   */\n  tag_28\n  jump\t// in\ntag_137:\n    /* \"#utility.yul\":7872:7939   */\n  tag_138\n    /* \"#utility.yul\":7932:7938   */\n  dup3\n    /* \"#utility.yul\":7924:7930   */\n  dup3\n    /* \"#utility.yul\":7918:7922   */\n  dup6\n    /* \"#utility.yul\":7872:7939   */\n  tag_40\n  jump\t// in\ntag_138:\n    /* \"#utility.yul\":7966:7967   */\n  0x00\n    /* \"#utility.yul\":7990:7994   */\n  0x20\n    /* \"#utility.yul\":7977:7994   */\n  swap1\n  pop\n    /* \"#utility.yul\":8022:8024   */\n  0x1f\n    /* \"#utility.yul\":8014:8020   */\n  dup4\n    /* \"#utility.yul\":8011:8025   */\n  gt\n    /* \"#utility.yul\":8039:8040   */\n  0x01\n    /* \"#utility.yul\":8034:8652   */\n  dup2\n  eq\n  tag_140\n  jumpi\n    /* \"#utility.yul\":8696:8697   */\n  0x00\n    /* \"#utility.yul\":8713:8719   */\n  dup5\n    /* \"#utility.yul\":8710:8787   */\n  iszero\n  tag_141\n  jumpi\n    /* \"#utility.yul\":8762:8771   */\n  dup3\n    /* \"#utility.yul\":8757:8760   */\n  dup8\n    /* \"#utility.yul\":8753:8772   */\n  add\n    /* \"#utility.yul\":8747:8773   */\n  mload\n    /* \"#utility.yul\":8738:8773   */\n  swap1\n  pop\n    /* \"#utility.yul\":8710:8787   */\ntag_141:\n    /* \"#utility.yul\":8813:8880   */\n  tag_142\n    /* \"#utility.yul\":8873:8879   */\n  dup6\n    /* \"#utility.yul\":8866:8871   */\n  dup3\n    /* \"#utility.yul\":8813:8880   */\n  tag_43\n  jump\t// in\ntag_142:\n    /* \"#utility.yul\":8807:8811   */\n  dup7\n    /* \"#utility.yul\":8800:8881   */\n  sstore\n    /* \"#utility.yul\":8669:8891   */\n  pop\n    /* \"#utility.yul\":8004:8891   */\n  jump(tag_139)\n    /* \"#utility.yul\":8034:8652   */\ntag_140:\n    /* \"#utility.yul\":8086:8090   */\n  0x1f\n    /* \"#utility.yul\":8082:8091   */\n  not\n    /* \"#utility.yul\":8074:8080   */\n  dup5\n    /* \"#utility.yul\":8070:8092   */\n  and\n    /* \"#utility.yul\":8120:8157   */\n  tag_143\n    /* \"#utility.yul\":8152:8156   */\n  dup7\n    /* \"#utility.yul\":8120:8157   */\n  tag_29\n  jump\t// in\ntag_143:\n    /* \"#utility.yul\":8179:8180   */\n  0x00\n    /* \"#utility.yul\":8193:8401   */\ntag_144:\n    /* \"#utility.yul\":8207:8214   */\n  dup3\n    /* \"#utility.yul\":8204:8205   */\n  dup2\n    /* \"#utility.yul\":8201:8215   */\n  lt\n    /* \"#utility.yul\":8193:8401   */\n  iszero\n  tag_146\n  jumpi\n    /* \"#utility.yul\":8286:8295   */\n  dup5\n    /* \"#utility.yul\":8281:8284   */\n  dup10\n    /* \"#utility.yul\":8277:8296   */\n  add\n    /* \"#utility.yul\":8271:8297   */\n  mload\n    /* \"#utility.yul\":8263:8269   */\n  dup3\n    /* \"#utility.yul\":8256:8298   */\n  sstore\n    /* \"#utility.yul\":8337:8338   */\n  0x01\n    /* \"#utility.yul\":8329:8335   */\n  dup3\n    /* \"#utility.yul\":8325:8339   */\n  add\n    /* \"#utility.yul\":8315:8339   */\n  swap2\n  pop\n    /* \"#utility.yul\":8384:8386   */\n  0x20\n    /* \"#utility.yul\":8373:8382   */\n  dup6\n    /* \"#utility.yul\":8369:8387   */\n  add\n    /* \"#utility.yul\":8356:8387   */\n  swap5\n  pop\n    /* \"#utility.yul\":8230:8234   */\n  0x20\n    /* \"#utility.yul\":8227:8228   */\n  dup2\n    /* \"#utility.yul\":8223:8235   */\n  add\n    /* \"#utility.yul\":8218:8235   */\n  swap1\n  pop\n    /* \"#utility.yul\":8193:8401   */\n  jump(tag_144)\ntag_146:\n    /* \"#utility.yul\":8429:8435   */\n  dup7\n    /* \"#utility.yul\":8420:8427   */\n  dup4\n    /* \"#utility.yul\":8417:8436   */\n  lt\n    /* \"#utility.yul\":8414:8593   */\n  iszero\n  tag_147\n  jumpi\n    /* \"#utility.yul\":8487:8496   */\n  dup5\n    /* \"#utility.yul\":8482:8485   */\n  dup10\n    /* \"#utility.yul\":8478:8497   */\n  add\n    /* \"#utility.yul\":8472:8498   */\n  mload\n    /* \"#utility.yul\":8530:8578   */\n  tag_148\n    /* \"#utility.yul\":8572:8576   */\n  0x1f\n    /* \"#utility.yul\":8564:8570   */\n  dup10\n    /* \"#utility.yul\":8560:8577   */\n  and\n    /* \"#utility.yul\":8549:8558   */\n  dup3\n    /* \"#utility.yul\":8530:8578   */\n  tag_42\n  jump\t// in\ntag_148:\n    /* \"#utility.yul\":8522:8528   */\n  dup4\n    /* \"#utility.yul\":8515:8579   */\n  sstore\n    /* \"#utility.yul\":8437:8593   */\n  pop\n    /* \"#utility.yul\":8414:8593   */\ntag_147:\n    /* \"#utility.yul\":8639:8640   */\n  0x01\n    /* \"#utility.yul\":8635:8636   */\n  0x02\n    /* \"#utility.yul\":8627:8633   */\n  dup9\n    /* \"#utility.yul\":8623:8637   */\n  mul\n    /* \"#utility.yul\":8619:8641   */\n  add\n    /* \"#utility.yul\":8613:8617   */\n  dup9\n    /* \"#utility.yul\":8606:8642   */\n  sstore\n    /* \"#utility.yul\":8041:8652   */\n  pop\n  pop\n  pop\n    /* \"#utility.yul\":8004:8891   */\ntag_139:\n  pop\n    /* \"#utility.yul\":7594:8897   */\n  pop\n  pop\n  pop\n    /* \"#utility.yul\":7502:8897   */\n  pop\n  pop\n  jump\t// out\n    /* \"contracts/myToken.sol\":135:2868  contract myToken is IERC20 {... */\ntag_9:\n  dataSize(sub_0)\n  dup1\n  dataOffset(sub_0)\n  0x00\n  codecopy\n  0x00\n  return\nstop\n\nsub_0: assembly {\n        /* \"contracts/myToken.sol\":135:2868  contract myToken is IERC20 {... */\n      mstore(0x40, 0x80)\n      callvalue\n      dup1\n      iszero\n      tag_1\n      jumpi\n      0x00\n      dup1\n      revert\n    tag_1:\n      pop\n      jumpi(tag_2, lt(calldatasize, 0x04))\n      shr(0xe0, calldataload(0x00))\n      dup1\n      0x4d853ee5\n      gt\n      tag_15\n      jumpi\n      dup1\n      0x4d853ee5\n      eq\n      tag_9\n      jumpi\n      dup1\n      0x70a08231\n      eq\n      tag_10\n      jumpi\n      dup1\n      0x95d89b41\n      eq\n      tag_11\n      jumpi\n      dup1\n      0xa9059cbb\n      eq\n      tag_12\n      jumpi\n      dup1\n      0xdd62ed3e\n      eq\n      tag_13\n      jumpi\n      dup1\n      0xf7abab9e\n      eq\n      tag_14\n      jumpi\n      jump(tag_2)\n    tag_15:\n      dup1\n      0x06fdde03\n      eq\n      tag_3\n      jumpi\n      dup1\n      0x095ea7b3\n      eq\n      tag_4\n      jumpi\n      dup1\n      0x18160ddd\n      eq\n      tag_5\n      jumpi\n      dup1\n      0x23b872dd\n      eq\n      tag_6\n      jumpi\n      dup1\n      0x40c10f19\n      eq\n      tag_7\n      jumpi\n      dup1\n      0x42966c68\n      eq\n      tag_8\n      jumpi\n    tag_2:\n      0x00\n      dup1\n      revert\n        /* \"contracts/myToken.sol\":169:187  string public name */\n    tag_3:\n      tag_16\n      tag_17\n      jump\t// in\n    tag_16:\n      mload(0x40)\n      tag_18\n      swap2\n      swap1\n      tag_19\n      jump\t// in\n    tag_18:\n      mload(0x40)\n      dup1\n      swap2\n      sub\n      swap1\n      return\n        /* \"contracts/myToken.sol\":1445:1728  function approve(address spender, uint256 amount) public override returns (bool) {... */\n    tag_4:\n      tag_20\n      0x04\n      dup1\n      calldatasize\n      sub\n      dup2\n      add\n      swap1\n      tag_21\n      swap2\n      swap1\n      tag_22\n      jump\t// in\n    tag_21:\n      tag_23\n      jump\t// in\n    tag_20:\n      mload(0x40)\n      tag_24\n      swap2\n      swap1\n      tag_25\n      jump\t// in\n    tag_24:\n      mload(0x40)\n      dup1\n      swap2\n      sub\n      swap1\n      return\n        /* \"contracts/myToken.sol\":666:770  function totalSupply() public view override returns (uint256) {... */\n    tag_5:\n      tag_26\n      tag_27\n      jump\t// in\n    tag_26:\n      mload(0x40)\n      tag_28\n      swap2\n      swap1\n      tag_29\n      jump\t// in\n    tag_28:\n      mload(0x40)\n      dup1\n      swap2\n      sub\n      swap1\n      return\n        /* \"contracts/myToken.sol\":1736:2263  function transferFrom(address sender, address recipient, uint256 amount) public override returns (bool) {... */\n    tag_6:\n      tag_30\n      0x04\n      dup1\n      calldatasize\n      sub\n      dup2\n      add\n      swap1\n      tag_31\n      swap2\n      swap1\n      tag_32\n      jump\t// in\n    tag_31:\n      tag_33\n      jump\t// in\n    tag_30:\n      mload(0x40)\n      tag_34\n      swap2\n      swap1\n      tag_25\n      jump\t// in\n    tag_34:\n      mload(0x40)\n      dup1\n      swap2\n      sub\n      swap1\n      return\n        /* \"contracts/myToken.sol\":2271:2564  function mint(address recipient, uint256 amount) public returns(bool) {... */\n    tag_7:\n      tag_35\n      0x04\n      dup1\n      calldatasize\n      sub\n      dup2\n      add\n      swap1\n      tag_36\n      swap2\n      swap1\n      tag_22\n      jump\t// in\n    tag_36:\n      tag_37\n      jump\t// in\n    tag_35:\n      mload(0x40)\n      tag_38\n      swap2\n      swap1\n      tag_25\n      jump\t// in\n    tag_38:\n      mload(0x40)\n      dup1\n      swap2\n      sub\n      swap1\n      return\n        /* \"contracts/myToken.sol\":2572:2863  function burn(uint256 amount) public returns(bool) {... */\n    tag_8:\n      tag_39\n      0x04\n      dup1\n      calldatasize\n      sub\n      dup2\n      add\n      swap1\n      tag_40\n      swap2\n      swap1\n      tag_41\n      jump\t// in\n    tag_40:\n      tag_42\n      jump\t// in\n    tag_39:\n      mload(0x40)\n      tag_43\n      swap2\n      swap1\n      tag_25\n      jump\t// in\n    tag_43:\n      mload(0x40)\n      dup1\n      swap2\n      sub\n      swap1\n      return\n        /* \"contracts/myToken.sol\":221:243  address public founder */\n    tag_9:\n      tag_44\n      tag_45\n      jump\t// in\n    tag_44:\n      mload(0x40)\n      tag_46\n      swap2\n      swap1\n      tag_47\n      jump\t// in\n    tag_46:\n      mload(0x40)\n      dup1\n      swap2\n      sub\n      swap1\n      return\n        /* \"contracts/myToken.sol\":778:896  function balanceOf(address account) public view override returns (uint256) {... */\n    tag_10:\n      tag_48\n      0x04\n      dup1\n      calldatasize\n      sub\n      dup2\n      add\n      swap1\n      tag_49\n      swap2\n      swap1\n      tag_50\n      jump\t// in\n    tag_49:\n      tag_51\n      jump\t// in\n    tag_48:\n      mload(0x40)\n      tag_52\n      swap2\n      swap1\n      tag_29\n      jump\t// in\n    tag_52:\n      mload(0x40)\n      dup1\n      swap2\n      sub\n      swap1\n      return\n        /* \"contracts/myToken.sol\":194:214  string public symbol */\n    tag_11:\n      tag_53\n      tag_54\n      jump\t// in\n    tag_53:\n      mload(0x40)\n      tag_55\n      swap2\n      swap1\n      tag_19\n      jump\t// in\n    tag_55:\n      mload(0x40)\n      dup1\n      swap2\n      sub\n      swap1\n      return\n        /* \"contracts/myToken.sol\":904:1287  function transfer(address recipient, uint256 amount) public override returns (bool) {... */\n    tag_12:\n      tag_56\n      0x04\n      dup1\n      calldatasize\n      sub\n      dup2\n      add\n      swap1\n      tag_57\n      swap2\n      swap1\n      tag_22\n      jump\t// in\n    tag_57:\n      tag_58\n      jump\t// in\n    tag_56:\n      mload(0x40)\n      tag_59\n      swap2\n      swap1\n      tag_25\n      jump\t// in\n    tag_59:\n      mload(0x40)\n      dup1\n      swap2\n      sub\n      swap1\n      return\n        /* \"contracts/myToken.sol\":1295:1437  function allowance(address owner, address spender) public view override returns (uint256) {... */\n    tag_13:\n      tag_60\n      0x04\n      dup1\n      calldatasize\n      sub\n      dup2\n      add\n      swap1\n      tag_61\n      swap2\n      swap1\n      tag_62\n      jump\t// in\n    tag_61:\n      tag_63\n      jump\t// in\n    tag_60:\n      mload(0x40)\n      tag_64\n      swap2\n      swap1\n      tag_29\n      jump\t// in\n    tag_64:\n      mload(0x40)\n      dup1\n      swap2\n      sub\n      swap1\n      return\n        /* \"contracts/myToken.sol\":250:281  uint256 public tokenTotalSupply */\n    tag_14:\n      tag_65\n      tag_66\n      jump\t// in\n    tag_65:\n      mload(0x40)\n      tag_67\n      swap2\n      swap1\n      tag_29\n      jump\t// in\n    tag_67:\n      mload(0x40)\n      dup1\n      swap2\n      sub\n      swap1\n      return\n        /* \"contracts/myToken.sol\":169:187  string public name */\n    tag_17:\n      0x00\n      dup1\n      sload\n      tag_68\n      swap1\n      tag_69\n      jump\t// in\n    tag_68:\n      dup1\n      0x1f\n      add\n      0x20\n      dup1\n      swap2\n      div\n      mul\n      0x20\n      add\n      mload(0x40)\n      swap1\n      dup2\n      add\n      0x40\n      mstore\n      dup1\n      swap3\n      swap2\n      swap1\n      dup2\n      dup2\n      mstore\n      0x20\n      add\n      dup3\n      dup1\n      sload\n      tag_70\n      swap1\n      tag_69\n      jump\t// in\n    tag_70:\n      dup1\n      iszero\n      tag_71\n      jumpi\n      dup1\n      0x1f\n      lt\n      tag_72\n      jumpi\n      0x0100\n      dup1\n      dup4\n      sload\n      div\n      mul\n      dup4\n      mstore\n      swap2\n      0x20\n      add\n      swap2\n      jump(tag_71)\n    tag_72:\n      dup3\n      add\n      swap2\n      swap1\n      0x00\n      mstore\n      keccak256(0x00, 0x20)\n      swap1\n    tag_73:\n      dup2\n      sload\n      dup2\n      mstore\n      swap1\n      0x01\n      add\n      swap1\n      0x20\n      add\n      dup1\n      dup4\n      gt\n      tag_73\n      jumpi\n      dup3\n      swap1\n      sub\n      0x1f\n      and\n      dup3\n      add\n      swap2\n    tag_71:\n      pop\n      pop\n      pop\n      pop\n      pop\n      dup2\n      jump\t// out\n        /* \"contracts/myToken.sol\":1445:1728  function approve(address spender, uint256 amount) public override returns (bool) {... */\n    tag_23:\n        /* \"contracts/myToken.sol\":1520:1524  bool */\n      0x00\n        /* \"contracts/myToken.sol\":1552:1553  0 */\n      dup1\n        /* \"contracts/myToken.sol\":1545:1551  amount */\n      dup3\n        /* \"contracts/myToken.sol\":1545:1553  amount>0 */\n      gt\n        /* \"contracts/myToken.sol\":1537:1582  require(amount>0, \"Invalid allowance amount\") */\n      tag_75\n      jumpi\n      mload(0x40)\n      0x08c379a000000000000000000000000000000000000000000000000000000000\n      dup2\n      mstore\n      0x04\n      add\n      tag_76\n      swap1\n      tag_77\n      jump\t// in\n    tag_76:\n      mload(0x40)\n      dup1\n      swap2\n      sub\n      swap1\n      revert\n    tag_75:\n        /* \"contracts/myToken.sol\":1629:1635  amount */\n      dup2\n        /* \"contracts/myToken.sol\":1595:1605  allowances */\n      0x05\n        /* \"contracts/myToken.sol\":1595:1617  allowances[msg.sender] */\n      0x00\n        /* \"contracts/myToken.sol\":1606:1616  msg.sender */\n      caller\n        /* \"contracts/myToken.sol\":1595:1617  allowances[msg.sender] */\n      0xffffffffffffffffffffffffffffffffffffffff\n      and\n      0xffffffffffffffffffffffffffffffffffffffff\n      and\n      dup2\n      mstore\n      0x20\n      add\n      swap1\n      dup2\n      mstore\n      0x20\n      add\n      0x00\n      keccak256\n        /* \"contracts/myToken.sol\":1595:1626  allowances[msg.sender][spender] */\n      0x00\n        /* \"contracts/myToken.sol\":1618:1625  spender */\n      dup6\n        /* \"contracts/myToken.sol\":1595:1626  allowances[msg.sender][spender] */\n      0xffffffffffffffffffffffffffffffffffffffff\n      and\n      0xffffffffffffffffffffffffffffffffffffffff\n      and\n      dup2\n      mstore\n      0x20\n      add\n      swap1\n      dup2\n      mstore\n      0x20\n      add\n      0x00\n      keccak256\n        /* \"contracts/myToken.sol\":1595:1635  allowances[msg.sender][spender] = amount */\n      dup2\n      swap1\n      sstore\n      pop\n        /* \"contracts/myToken.sol\":1682:1689  spender */\n      dup3\n        /* \"contracts/myToken.sol\":1661:1698  Approval(msg.sender, spender, amount) */\n      0xffffffffffffffffffffffffffffffffffffffff\n      and\n        /* \"contracts/myToken.sol\":1670:1680  msg.sender */\n      caller\n        /* \"contracts/myToken.sol\":1661:1698  Approval(msg.sender, spender, amount) */\n      0xffffffffffffffffffffffffffffffffffffffff\n      and\n      0x8c5be1e5ebec7d5bd14f71427d1e84f3dd0314c0f7b2291e5b200ac8c7c3b925\n        /* \"contracts/myToken.sol\":1691:1697  amount */\n      dup5\n        /* \"contracts/myToken.sol\":1661:1698  Approval(msg.sender, spender, amount) */\n      mload(0x40)\n      tag_78\n      swap2\n      swap1\n      tag_29\n      jump\t// in\n    tag_78:\n      mload(0x40)\n      dup1\n      swap2\n      sub\n      swap1\n      log3\n        /* \"contracts/myToken.sol\":1716:1720  true */\n      0x01\n        /* \"contracts/myToken.sol\":1709:1720  return true */\n      swap1\n      pop\n        /* \"contracts/myToken.sol\":1445:1728  function approve(address spender, uint256 amount) public override returns (bool) {... */\n      swap3\n      swap2\n      pop\n      pop\n      jump\t// out\n        /* \"contracts/myToken.sol\":666:770  function totalSupply() public view override returns (uint256) {... */\n    tag_27:\n        /* \"contracts/myToken.sol\":719:726  uint256 */\n      0x00\n        /* \"contracts/myToken.sol\":746:762  tokenTotalSupply */\n      sload(0x03)\n        /* \"contracts/myToken.sol\":739:762  return tokenTotalSupply */\n      swap1\n      pop\n        /* \"contracts/myToken.sol\":666:770  function totalSupply() public view override returns (uint256) {... */\n      swap1\n      jump\t// out\n        /* \"contracts/myToken.sol\":1736:2263  function transferFrom(address sender, address recipient, uint256 amount) public override returns (bool) {... */\n    tag_33:\n        /* \"contracts/myToken.sol\":1834:1838  bool */\n      0x00\n        /* \"contracts/myToken.sol\":1866:1867  0 */\n      dup1\n        /* \"contracts/myToken.sol\":1859:1865  amount */\n      dup3\n        /* \"contracts/myToken.sol\":1859:1867  amount>0 */\n      gt\n        /* \"contracts/myToken.sol\":1851:1896  require(amount>0, \"Invalid allowance amount\") */\n      tag_81\n      jumpi\n      mload(0x40)\n      0x08c379a000000000000000000000000000000000000000000000000000000000\n      dup2\n      mstore\n      0x04\n      add\n      tag_82\n      swap1\n      tag_77\n      jump\t// in\n    tag_82:\n      mload(0x40)\n      dup1\n      swap2\n      sub\n      swap1\n      revert\n    tag_81:\n        /* \"contracts/myToken.sol\":1935:1941  amount */\n      dup2\n        /* \"contracts/myToken.sol\":1915:1923  balances */\n      0x04\n        /* \"contracts/myToken.sol\":1915:1931  balances[sender] */\n      0x00\n        /* \"contracts/myToken.sol\":1924:1930  sender */\n      dup7\n        /* \"contracts/myToken.sol\":1915:1931  balances[sender] */\n      0xffffffffffffffffffffffffffffffffffffffff\n      and\n      0xffffffffffffffffffffffffffffffffffffffff\n      and\n      dup2\n      mstore\n      0x20\n      add\n      swap1\n      dup2\n      mstore\n      0x20\n      add\n      0x00\n      keccak256\n      sload\n        /* \"contracts/myToken.sol\":1915:1941  balances[sender] >= amount */\n      lt\n      iszero\n        /* \"contracts/myToken.sol\":1907:1965  require(balances[sender] >= amount, \"Insufficient supply\") */\n      tag_83\n      jumpi\n      mload(0x40)\n      0x08c379a000000000000000000000000000000000000000000000000000000000\n      dup2\n      mstore\n      0x04\n      add\n      tag_84\n      swap1\n      tag_85\n      jump\t// in\n    tag_84:\n      mload(0x40)\n      dup1\n      swap2\n      sub\n      swap1\n      revert\n    tag_83:\n        /* \"contracts/myToken.sol\":1992:2002  allowances */\n      0x05\n        /* \"contracts/myToken.sol\":1992:2010  allowances[sender] */\n      0x00\n        /* \"contracts/myToken.sol\":2003:2009  sender */\n      dup6\n        /* \"contracts/myToken.sol\":1992:2010  allowances[sender] */\n      0xffffffffffffffffffffffffffffffffffffffff\n      and\n      0xffffffffffffffffffffffffffffffffffffffff\n      and\n      dup2\n      mstore\n      0x20\n      add\n      swap1\n      dup2\n      mstore\n      0x20\n      add\n      0x00\n      keccak256\n        /* \"contracts/myToken.sol\":1992:2021  allowances[sender][recipient] */\n      0x00\n        /* \"contracts/myToken.sol\":2011:2020  recipient */\n      dup5\n        /* \"contracts/myToken.sol\":1992:2021  allowances[sender][recipient] */\n      0xffffffffffffffffffffffffffffffffffffffff\n      and\n      0xffffffffffffffffffffffffffffffffffffffff\n      and\n      dup2\n      mstore\n      0x20\n      add\n      swap1\n      dup2\n      mstore\n      0x20\n      add\n      0x00\n      keccak256\n      sload\n        /* \"contracts/myToken.sol\":1984:1990  amount */\n      dup3\n        /* \"contracts/myToken.sol\":1984:2021  amount<=allowances[sender][recipient] */\n      gt\n      iszero\n        /* \"contracts/myToken.sol\":1976:2052  require(amount<=allowances[sender][recipient], \"This amount is not allowed\") */\n      tag_86\n      jumpi\n      mload(0x40)\n      0x08c379a000000000000000000000000000000000000000000000000000000000\n      dup2\n      mstore\n      0x04\n      add\n      tag_87\n      swap1\n      tag_88\n      jump\t// in\n    tag_87:\n      mload(0x40)\n      dup1\n      swap2\n      sub\n      swap1\n      revert\n    tag_86:\n        /* \"contracts/myToken.sol\":2098:2104  amount */\n      dup2\n        /* \"contracts/myToken.sol\":2065:2075  allowances */\n      0x05\n        /* \"contracts/myToken.sol\":2065:2083  allowances[sender] */\n      0x00\n        /* \"contracts/myToken.sol\":2076:2082  sender */\n      dup7\n        /* \"contracts/myToken.sol\":2065:2083  allowances[sender] */\n      0xffffffffffffffffffffffffffffffffffffffff\n      and\n      0xffffffffffffffffffffffffffffffffffffffff\n      and\n      dup2\n      mstore\n      0x20\n      add\n      swap1\n      dup2\n      mstore\n      0x20\n      add\n      0x00\n      keccak256\n        /* \"contracts/myToken.sol\":2065:2094  allowances[sender][recipient] */\n      0x00\n        /* \"contracts/myToken.sol\":2084:2093  recipient */\n      dup6\n        /* \"contracts/myToken.sol\":2065:2094  allowances[sender][recipient] */\n      0xffffffffffffffffffffffffffffffffffffffff\n      and\n      0xffffffffffffffffffffffffffffffffffffffff\n      and\n      dup2\n      mstore\n      0x20\n      add\n      swap1\n      dup2\n      mstore\n      0x20\n      add\n      0x00\n      keccak256\n      0x00\n        /* \"contracts/myToken.sol\":2065:2104  allowances[sender][recipient] -= amount */\n      dup3\n      dup3\n      sload\n      tag_89\n      swap2\n      swap1\n      tag_90\n      jump\t// in\n    tag_89:\n      swap3\n      pop\n      pop\n      dup2\n      swap1\n      sstore\n      pop\n        /* \"contracts/myToken.sol\":2135:2141  amount */\n      dup2\n        /* \"contracts/myToken.sol\":2115:2123  balances */\n      0x04\n        /* \"contracts/myToken.sol\":2115:2131  balances[sender] */\n      0x00\n        /* \"contracts/myToken.sol\":2124:2130  sender */\n      dup7\n        /* \"contracts/myToken.sol\":2115:2131  balances[sender] */\n      0xffffffffffffffffffffffffffffffffffffffff\n      and\n      0xffffffffffffffffffffffffffffffffffffffff\n      and\n      dup2\n      mstore\n      0x20\n      add\n      swap1\n      dup2\n      mstore\n      0x20\n      add\n      0x00\n      keccak256\n      0x00\n        /* \"contracts/myToken.sol\":2115:2141  balances[sender] -= amount */\n      dup3\n      dup3\n      sload\n      tag_91\n      swap2\n      swap1\n      tag_90\n      jump\t// in\n    tag_91:\n      swap3\n      pop\n      pop\n      dup2\n      swap1\n      sstore\n      pop\n        /* \"contracts/myToken.sol\":2174:2180  amount */\n      dup2\n        /* \"contracts/myToken.sol\":2152:2160  balances */\n      0x04\n        /* \"contracts/myToken.sol\":2152:2171  balances[recipient] */\n      0x00\n        /* \"contracts/myToken.sol\":2161:2170  recipient */\n      dup6\n        /* \"contracts/myToken.sol\":2152:2171  balances[recipient] */\n      0xffffffffffffffffffffffffffffffffffffffff\n      and\n      0xffffffffffffffffffffffffffffffffffffffff\n      and\n      dup2\n      mstore\n      0x20\n      add\n      swap1\n      dup2\n      mstore\n      0x20\n      add\n      0x00\n      keccak256\n      0x00\n        /* \"contracts/myToken.sol\":2152:2180  balances[recipient] +=amount */\n      dup3\n      dup3\n      sload\n      tag_92\n      swap2\n      swap1\n      tag_93\n      jump\t// in\n    tag_92:\n      swap3\n      pop\n      pop\n      dup2\n      swap1\n      sstore\n      pop\n        /* \"contracts/myToken.sol\":2215:2224  recipient */\n      dup3\n        /* \"contracts/myToken.sol\":2198:2233  Transfer(sender, recipient, amount) */\n      0xffffffffffffffffffffffffffffffffffffffff\n      and\n        /* \"contracts/myToken.sol\":2207:2213  sender */\n      dup5\n        /* \"contracts/myToken.sol\":2198:2233  Transfer(sender, recipient, amount) */\n      0xffffffffffffffffffffffffffffffffffffffff\n      and\n      0xddf252ad1be2c89b69c2b068fc378daa952ba7f163c4a11628f55a4df523b3ef\n        /* \"contracts/myToken.sol\":2226:2232  amount */\n      dup5\n        /* \"contracts/myToken.sol\":2198:2233  Transfer(sender, recipient, amount) */\n      mload(0x40)\n      tag_94\n      swap2\n      swap1\n      tag_29\n      jump\t// in\n    tag_94:\n      mload(0x40)\n      dup1\n      swap2\n      sub\n      swap1\n      log3\n        /* \"contracts/myToken.sol\":2251:2255  true */\n      0x01\n        /* \"contracts/myToken.sol\":2244:2255  return true */\n      swap1\n      pop\n        /* \"contracts/myToken.sol\":1736:2263  function transferFrom(address sender, address recipient, uint256 amount) public override returns (bool) {... */\n      swap4\n      swap3\n      pop\n      pop\n      pop\n      jump\t// out\n        /* \"contracts/myToken.sol\":2271:2564  function mint(address recipient, uint256 amount) public returns(bool) {... */\n    tag_37:\n        /* \"contracts/myToken.sol\":2335:2339  bool */\n      0x00\n        /* \"contracts/myToken.sol\":2374:2381  founder */\n      0x02\n      0x00\n      swap1\n      sload\n      swap1\n      0x0100\n      exp\n      swap1\n      div\n      0xffffffffffffffffffffffffffffffffffffffff\n      and\n        /* \"contracts/myToken.sol\":2360:2381  msg.sender == founder */\n      0xffffffffffffffffffffffffffffffffffffffff\n      and\n        /* \"contracts/myToken.sol\":2360:2370  msg.sender */\n      caller\n        /* \"contracts/myToken.sol\":2360:2381  msg.sender == founder */\n      0xffffffffffffffffffffffffffffffffffffffff\n      and\n      eq\n        /* \"contracts/myToken.sol\":2352:2398  require(msg.sender == founder, \"Unauthorized\") */\n      tag_96\n      jumpi\n      mload(0x40)\n      0x08c379a000000000000000000000000000000000000000000000000000000000\n      dup2\n      mstore\n      0x04\n      add\n      tag_97\n      swap1\n      tag_98\n      jump\t// in\n    tag_97:\n      mload(0x40)\n      dup1\n      swap2\n      sub\n      swap1\n      revert\n    tag_96:\n        /* \"contracts/myToken.sol\":2434:2440  amount */\n      dup2\n        /* \"contracts/myToken.sol\":2411:2419  balances */\n      0x04\n        /* \"contracts/myToken.sol\":2411:2430  balances[recipient] */\n      0x00\n        /* \"contracts/myToken.sol\":2420:2429  recipient */\n      dup6\n        /* \"contracts/myToken.sol\":2411:2430  balances[recipient] */\n      0xffffffffffffffffffffffffffffffffffffffff\n      and\n      0xffffffffffffffffffffffffffffffffffffffff\n      and\n      dup2\n      mstore\n      0x20\n      add\n      swap1\n      dup2\n      mstore\n      0x20\n      add\n      0x00\n      keccak256\n      0x00\n        /* \"contracts/myToken.sol\":2411:2440  balances[recipient] += amount */\n      dup3\n      dup3\n      sload\n      tag_99\n      swap2\n      swap1\n      tag_93\n      jump\t// in\n    tag_99:\n      swap3\n      pop\n      pop\n      dup2\n      swap1\n      sstore\n      pop\n        /* \"contracts/myToken.sol\":2471:2477  amount */\n      dup2\n        /* \"contracts/myToken.sol\":2451:2467  tokenTotalSupply */\n      0x03\n      0x00\n        /* \"contracts/myToken.sol\":2451:2477  tokenTotalSupply += amount */\n      dup3\n      dup3\n      sload\n      tag_100\n      swap2\n      swap1\n      tag_93\n      jump\t// in\n    tag_100:\n      swap3\n      pop\n      pop\n      dup2\n      swap1\n      sstore\n      pop\n        /* \"contracts/myToken.sol\":2516:2525  recipient */\n      dup3\n        /* \"contracts/myToken.sol\":2495:2534  Transfer(address(0), recipient, amount) */\n      0xffffffffffffffffffffffffffffffffffffffff\n      and\n        /* \"contracts/myToken.sol\":2512:2513  0 */\n      0x00\n        /* \"contracts/myToken.sol\":2495:2534  Transfer(address(0), recipient, amount) */\n      0xffffffffffffffffffffffffffffffffffffffff\n      and\n      0xddf252ad1be2c89b69c2b068fc378daa952ba7f163c4a11628f55a4df523b3ef\n        /* \"contracts/myToken.sol\":2527:2533  amount */\n      dup5\n        /* \"contracts/myToken.sol\":2495:2534  Transfer(address(0), recipient, amount) */\n      mload(0x40)\n      tag_101\n      swap2\n      swap1\n      tag_29\n      jump\t// in\n    tag_101:\n      mload(0x40)\n      dup1\n      swap2\n      sub\n      swap1\n      log3\n        /* \"contracts/myToken.sol\":2552:2556  true */\n      0x01\n        /* \"contracts/myToken.sol\":2545:2556  return true */\n      swap1\n      pop\n        /* \"contracts/myToken.sol\":2271:2564  function mint(address recipient, uint256 amount) public returns(bool) {... */\n      swap3\n      swap2\n      pop\n      pop\n      jump\t// out\n        /* \"contracts/myToken.sol\":2572:2863  function burn(uint256 amount) public returns(bool) {... */\n    tag_42:\n        /* \"contracts/myToken.sol\":2617:2621  bool */\n      0x00\n        /* \"contracts/myToken.sol\":2664:2670  amount */\n      dup2\n        /* \"contracts/myToken.sol\":2642:2650  balances */\n      0x04\n        /* \"contracts/myToken.sol\":2642:2662  balances[msg.sender] */\n      0x00\n        /* \"contracts/myToken.sol\":2651:2661  msg.sender */\n      caller\n        /* \"contracts/myToken.sol\":2642:2662  balances[msg.sender] */\n      0xffffffffffffffffffffffffffffffffffffffff\n      and\n      0xffffffffffffffffffffffffffffffffffffffff\n      and\n      dup2\n      mstore\n      0x20\n      add\n      swap1\n      dup2\n      mstore\n      0x20\n      add\n      0x00\n      keccak256\n      sload\n        /* \"contracts/myToken.sol\":2642:2670  balances[msg.sender]>=amount */\n      lt\n      iszero\n        /* \"contracts/myToken.sol\":2634:2695  require(balances[msg.sender]>=amount, \"Insufficient balance\") */\n      tag_103\n      jumpi\n      mload(0x40)\n      0x08c379a000000000000000000000000000000000000000000000000000000000\n      dup2\n      mstore\n      0x04\n      add\n      tag_104\n      swap1\n      tag_105\n      jump\t// in\n    tag_104:\n      mload(0x40)\n      dup1\n      swap2\n      sub\n      swap1\n      revert\n    tag_103:\n        /* \"contracts/myToken.sol\":2732:2738  amount */\n      dup2\n        /* \"contracts/myToken.sol\":2708:2716  balances */\n      0x04\n        /* \"contracts/myToken.sol\":2708:2728  balances[msg.sender] */\n      0x00\n        /* \"contracts/myToken.sol\":2717:2727  msg.sender */\n      caller\n        /* \"contracts/myToken.sol\":2708:2728  balances[msg.sender] */\n      0xffffffffffffffffffffffffffffffffffffffff\n      and\n      0xffffffffffffffffffffffffffffffffffffffff\n      and\n      dup2\n      mstore\n      0x20\n      add\n      swap1\n      dup2\n      mstore\n      0x20\n      add\n      0x00\n      keccak256\n      0x00\n        /* \"contracts/myToken.sol\":2708:2738  balances[msg.sender] -= amount */\n      dup3\n      dup3\n      sload\n      tag_106\n      swap2\n      swap1\n      tag_90\n      jump\t// in\n    tag_106:\n      swap3\n      pop\n      pop\n      dup2\n      swap1\n      sstore\n      pop\n        /* \"contracts/myToken.sol\":2769:2775  amount */\n      dup2\n        /* \"contracts/myToken.sol\":2749:2765  tokenTotalSupply */\n      0x03\n      0x00\n        /* \"contracts/myToken.sol\":2749:2775  tokenTotalSupply -= amount */\n      dup3\n      dup3\n      sload\n      tag_107\n      swap2\n      swap1\n      tag_90\n      jump\t// in\n    tag_107:\n      swap3\n      pop\n      pop\n      dup2\n      swap1\n      sstore\n      pop\n        /* \"contracts/myToken.sol\":2822:2823  0 */\n      0x00\n        /* \"contracts/myToken.sol\":2793:2833  Transfer(msg.sender, address(0), amount) */\n      0xffffffffffffffffffffffffffffffffffffffff\n      and\n        /* \"contracts/myToken.sol\":2802:2812  msg.sender */\n      caller\n        /* \"contracts/myToken.sol\":2793:2833  Transfer(msg.sender, address(0), amount) */\n      0xffffffffffffffffffffffffffffffffffffffff\n      and\n      0xddf252ad1be2c89b69c2b068fc378daa952ba7f163c4a11628f55a4df523b3ef\n        /* \"contracts/myToken.sol\":2826:2832  amount */\n      dup5\n        /* \"contracts/myToken.sol\":2793:2833  Transfer(msg.sender, address(0), amount) */\n      mload(0x40)\n      tag_108\n      swap2\n      swap1\n      tag_29\n      jump\t// in\n    tag_108:\n      mload(0x40)\n      dup1\n      swap2\n      sub\n      swap1\n      log3\n        /* \"contracts/myToken.sol\":2851:2855  true */\n      0x01\n        /* \"contracts/myToken.sol\":2844:2855  return true */\n      swap1\n      pop\n        /* \"contracts/myToken.sol\":2572:2863  function burn(uint256 amount) public returns(bool) {... */\n      swap2\n      swap1\n      pop\n      jump\t// out\n        /* \"contracts/myToken.sol\":221:243  address public founder */\n    tag_45:\n      0x02\n      0x00\n      swap1\n      sload\n      swap1\n      0x0100\n      exp\n      swap1\n      div\n      0xffffffffffffffffffffffffffffffffffffffff\n      and\n      dup2\n      jump\t// out\n        /* \"contracts/myToken.sol\":778:896  function balanceOf(address account) public view override returns (uint256) {... */\n    tag_51:\n        /* \"contracts/myToken.sol\":844:851  uint256 */\n      0x00\n        /* \"contracts/myToken.sol\":871:879  balances */\n      0x04\n        /* \"contracts/myToken.sol\":871:888  balances[account] */\n      0x00\n        /* \"contracts/myToken.sol\":880:887  account */\n      dup4\n        /* \"contracts/myToken.sol\":871:888  balances[account] */\n      0xffffffffffffffffffffffffffffffffffffffff\n      and\n      0xffffffffffffffffffffffffffffffffffffffff\n      and\n      dup2\n      mstore\n      0x20\n      add\n      swap1\n      dup2\n      mstore\n      0x20\n      add\n      0x00\n      keccak256\n      sload\n        /* \"contracts/myToken.sol\":864:888  return balances[account] */\n      swap1\n      pop\n        /* \"contracts/myToken.sol\":778:896  function balanceOf(address account) public view override returns (uint256) {... */\n      swap2\n      swap1\n      pop\n      jump\t// out\n        /* \"contracts/myToken.sol\":194:214  string public symbol */\n    tag_54:\n      0x01\n      dup1\n      sload\n      tag_110\n      swap1\n      tag_69\n      jump\t// in\n    tag_110:\n      dup1\n      0x1f\n      add\n      0x20\n      dup1\n      swap2\n      div\n      mul\n      0x20\n      add\n      mload(0x40)\n      swap1\n      dup2\n      add\n      0x40\n      mstore\n      dup1\n      swap3\n      swap2\n      swap1\n      dup2\n      dup2\n      mstore\n      0x20\n      add\n      dup3\n      dup1\n      sload\n      tag_111\n      swap1\n      tag_69\n      jump\t// in\n    tag_111:\n      dup1\n      iszero\n      tag_112\n      jumpi\n      dup1\n      0x1f\n      lt\n      tag_113\n      jumpi\n      0x0100\n      dup1\n      dup4\n      sload\n      div\n      mul\n      dup4\n      mstore\n      swap2\n      0x20\n      add\n      swap2\n      jump(tag_112)\n    tag_113:\n      dup3\n      add\n      swap2\n      swap1\n      0x00\n      mstore\n      keccak256(0x00, 0x20)\n      swap1\n    tag_114:\n      dup2\n      sload\n      dup2\n      mstore\n      swap1\n      0x01\n      add\n      swap1\n      0x20\n      add\n      dup1\n      dup4\n      gt\n      tag_114\n      jumpi\n      dup3\n      swap1\n      sub\n      0x1f\n      and\n      dup3\n      add\n      swap2\n    tag_112:\n      pop\n      pop\n      pop\n      pop\n      pop\n      dup2\n      jump\t// out\n        /* \"contracts/myToken.sol\":904:1287  function transfer(address recipient, uint256 amount) public override returns (bool) {... */\n    tag_58:\n        /* \"contracts/myToken.sol\":982:986  bool */\n      0x00\n        /* \"contracts/myToken.sol\":1014:1015  0 */\n      dup1\n        /* \"contracts/myToken.sol\":1007:1013  amount */\n      dup3\n        /* \"contracts/myToken.sol\":1007:1015  amount>0 */\n      gt\n        /* \"contracts/myToken.sol\":999:1043  require(amount>0, \"Invalid transfer amount\") */\n      tag_116\n      jumpi\n      mload(0x40)\n      0x08c379a000000000000000000000000000000000000000000000000000000000\n      dup2\n      mstore\n      0x04\n      add\n      tag_117\n      swap1\n      tag_118\n      jump\t// in\n    tag_117:\n      mload(0x40)\n      dup1\n      swap2\n      sub\n      swap1\n      revert\n    tag_116:\n        /* \"contracts/myToken.sol\":1086:1092  amount */\n      dup2\n        /* \"contracts/myToken.sol\":1062:1070  balances */\n      0x04\n        /* \"contracts/myToken.sol\":1062:1082  balances[msg.sender] */\n      0x00\n        /* \"contracts/myToken.sol\":1071:1081  msg.sender */\n      caller\n        /* \"contracts/myToken.sol\":1062:1082  balances[msg.sender] */\n      0xffffffffffffffffffffffffffffffffffffffff\n      and\n      0xffffffffffffffffffffffffffffffffffffffff\n      and\n      dup2\n      mstore\n      0x20\n      add\n      swap1\n      dup2\n      mstore\n      0x20\n      add\n      0x00\n      keccak256\n      sload\n        /* \"contracts/myToken.sol\":1062:1092  balances[msg.sender] >= amount */\n      lt\n      iszero\n        /* \"contracts/myToken.sol\":1054:1117  require(balances[msg.sender] >= amount, \"Insufficient balance\") */\n      tag_119\n      jumpi\n      mload(0x40)\n      0x08c379a000000000000000000000000000000000000000000000000000000000\n      dup2\n      mstore\n      0x04\n      add\n      tag_120\n      swap1\n      tag_105\n      jump\t// in\n    tag_120:\n      mload(0x40)\n      dup1\n      swap2\n      sub\n      swap1\n      revert\n    tag_119:\n        /* \"contracts/myToken.sol\":1154:1160  amount */\n      dup2\n        /* \"contracts/myToken.sol\":1130:1138  balances */\n      0x04\n        /* \"contracts/myToken.sol\":1130:1150  balances[msg.sender] */\n      0x00\n        /* \"contracts/myToken.sol\":1139:1149  msg.sender */\n      caller\n        /* \"contracts/myToken.sol\":1130:1150  balances[msg.sender] */\n      0xffffffffffffffffffffffffffffffffffffffff\n      and\n      0xffffffffffffffffffffffffffffffffffffffff\n      and\n      dup2\n      mstore\n      0x20\n      add\n      swap1\n      dup2\n      mstore\n      0x20\n      add\n      0x00\n      keccak256\n      0x00\n        /* \"contracts/myToken.sol\":1130:1160  balances[msg.sender] -= amount */\n      dup3\n      dup3\n      sload\n      tag_121\n      swap2\n      swap1\n      tag_90\n      jump\t// in\n    tag_121:\n      swap3\n      pop\n      pop\n      dup2\n      swap1\n      sstore\n      pop\n        /* \"contracts/myToken.sol\":1194:1200  amount */\n      dup2\n        /* \"contracts/myToken.sol\":1171:1179  balances */\n      0x04\n        /* \"contracts/myToken.sol\":1171:1190  balances[recipient] */\n      0x00\n        /* \"contracts/myToken.sol\":1180:1189  recipient */\n      dup6\n        /* \"contracts/myToken.sol\":1171:1190  balances[recipient] */\n      0xffffffffffffffffffffffffffffffffffffffff\n      and\n      0xffffffffffffffffffffffffffffffffffffffff\n      and\n      dup2\n      mstore\n      0x20\n      add\n      swap1\n      dup2\n      mstore\n      0x20\n      add\n      0x00\n      keccak256\n      0x00\n        /* \"contracts/myToken.sol\":1171:1200  balances[recipient] += amount */\n      dup3\n      dup3\n      sload\n      tag_122\n      swap2\n      swap1\n      tag_93\n      jump\t// in\n    tag_122:\n      swap3\n      pop\n      pop\n      dup2\n      swap1\n      sstore\n      pop\n        /* \"contracts/myToken.sol\":1239:1248  recipient */\n      dup3\n        /* \"contracts/myToken.sol\":1218:1257  Transfer(msg.sender, recipient, amount) */\n      0xffffffffffffffffffffffffffffffffffffffff\n      and\n        /* \"contracts/myToken.sol\":1227:1237  msg.sender */\n      caller\n        /* \"contracts/myToken.sol\":1218:1257  Transfer(msg.sender, recipient, amount) */\n      0xffffffffffffffffffffffffffffffffffffffff\n      and\n      0xddf252ad1be2c89b69c2b068fc378daa952ba7f163c4a11628f55a4df523b3ef\n        /* \"contracts/myToken.sol\":1250:1256  amount */\n      dup5\n        /* \"contracts/myToken.sol\":1218:1257  Transfer(msg.sender, recipient, amount) */\n      mload(0x40)\n      tag_123\n      swap2\n      swap1\n      tag_29\n      jump\t// in\n    tag_123:\n      mload(0x40)\n      dup1\n      swap2\n      sub\n      swap1\n      log3\n        /* \"contracts/myToken.sol\":1275:1279  true */\n      0x01\n        /* \"contracts/myToken.sol\":1268:1279  return true */\n      swap1\n      pop\n        /* \"contracts/myToken.sol\":904:1287  function transfer(address recipient, uint256 amount) public override returns (bool) {... */\n      swap3\n      swap2\n      pop\n      pop\n      jump\t// out\n        /* \"contracts/myToken.sol\":1295:1437  function allowance(address owner, address spender) public view override returns (uint256) {... */\n    tag_63:\n        /* \"contracts/myToken.sol\":1376:1383  uint256 */\n      0x00\n        /* \"contracts/myToken.sol\":1403:1413  allowances */\n      0x05\n        /* \"contracts/myToken.sol\":1403:1420  allowances[owner] */\n      0x00\n        /* \"contracts/myToken.sol\":1414:1419  owner */\n      dup5\n        /* \"contracts/myToken.sol\":1403:1420  allowances[owner] */\n      0xffffffffffffffffffffffffffffffffffffffff\n      and\n      0xffffffffffffffffffffffffffffffffffffffff\n      and\n      dup2\n      mstore\n      0x20\n      add\n      swap1\n      dup2\n      mstore\n      0x20\n      add\n      0x00\n      keccak256\n        /* \"contracts/myToken.sol\":1403:1429  allowances[owner][spender] */\n      0x00\n        /* \"contracts/myToken.sol\":1421:1428  spender */\n      dup4\n        /* \"contracts/myToken.sol\":1403:1429  allowances[owner][spender] */\n      0xffffffffffffffffffffffffffffffffffffffff\n      and\n      0xffffffffffffffffffffffffffffffffffffffff\n      and\n      dup2\n      mstore\n      0x20\n      add\n      swap1\n      dup2\n      mstore\n      0x20\n      add\n      0x00\n      keccak256\n      sload\n        /* \"contracts/myToken.sol\":1396:1429  return allowances[owner][spender] */\n      swap1\n      pop\n        /* \"contracts/myToken.sol\":1295:1437  function allowance(address owner, address spender) public view override returns (uint256) {... */\n      swap3\n      swap2\n      pop\n      pop\n      jump\t// out\n        /* \"contracts/myToken.sol\":250:281  uint256 public tokenTotalSupply */\n    tag_66:\n      sload(0x03)\n      dup2\n      jump\t// out\n        /* \"#utility.yul\":7:106   */\n    tag_125:\n        /* \"#utility.yul\":59:65   */\n      0x00\n        /* \"#utility.yul\":93:98   */\n      dup2\n        /* \"#utility.yul\":87:99   */\n      mload\n        /* \"#utility.yul\":77:99   */\n      swap1\n      pop\n        /* \"#utility.yul\":7:106   */\n      swap2\n      swap1\n      pop\n      jump\t// out\n        /* \"#utility.yul\":112:281   */\n    tag_126:\n        /* \"#utility.yul\":196:207   */\n      0x00\n        /* \"#utility.yul\":230:236   */\n      dup3\n        /* \"#utility.yul\":225:228   */\n      dup3\n        /* \"#utility.yul\":218:237   */\n      mstore\n        /* \"#utility.yul\":270:274   */\n      0x20\n        /* \"#utility.yul\":265:268   */\n      dup3\n        /* \"#utility.yul\":261:275   */\n      add\n        /* \"#utility.yul\":246:275   */\n      swap1\n      pop\n        /* \"#utility.yul\":112:281   */\n      swap3\n      swap2\n      pop\n      pop\n      jump\t// out\n        /* \"#utility.yul\":287:426   */\n    tag_127:\n        /* \"#utility.yul\":376:382   */\n      dup3\n        /* \"#utility.yul\":371:374   */\n      dup2\n        /* \"#utility.yul\":366:369   */\n      dup4\n        /* \"#utility.yul\":360:383   */\n      mcopy\n        /* \"#utility.yul\":417:418   */\n      0x00\n        /* \"#utility.yul\":408:414   */\n      dup4\n        /* \"#utility.yul\":403:406   */\n      dup4\n        /* \"#utility.yul\":399:415   */\n      add\n        /* \"#utility.yul\":392:419   */\n      mstore\n        /* \"#utility.yul\":287:426   */\n      pop\n      pop\n      pop\n      jump\t// out\n        /* \"#utility.yul\":432:534   */\n    tag_128:\n        /* \"#utility.yul\":473:479   */\n      0x00\n        /* \"#utility.yul\":524:526   */\n      0x1f\n        /* \"#utility.yul\":520:527   */\n      not\n        /* \"#utility.yul\":515:517   */\n      0x1f\n        /* \"#utility.yul\":508:513   */\n      dup4\n        /* \"#utility.yul\":504:518   */\n      add\n        /* \"#utility.yul\":500:528   */\n      and\n        /* \"#utility.yul\":490:528   */\n      swap1\n      pop\n        /* \"#utility.yul\":432:534   */\n      swap2\n      swap1\n      pop\n      jump\t// out\n        /* \"#utility.yul\":540:917   */\n    tag_129:\n        /* \"#utility.yul\":628:631   */\n      0x00\n        /* \"#utility.yul\":656:695   */\n      tag_164\n        /* \"#utility.yul\":689:694   */\n      dup3\n        /* \"#utility.yul\":656:695   */\n      tag_125\n      jump\t// in\n    tag_164:\n        /* \"#utility.yul\":711:782   */\n      tag_165\n        /* \"#utility.yul\":775:781   */\n      dup2\n        /* \"#utility.yul\":770:773   */\n      dup6\n        /* \"#utility.yul\":711:782   */\n      tag_126\n      jump\t// in\n    tag_165:\n        /* \"#utility.yul\":704:782   */\n      swap4\n      pop\n        /* \"#utility.yul\":791:856   */\n      tag_166\n        /* \"#utility.yul\":849:855   */\n      dup2\n        /* \"#utility.yul\":844:847   */\n      dup6\n        /* \"#utility.yul\":837:841   */\n      0x20\n        /* \"#utility.yul\":830:835   */\n      dup7\n        /* \"#utility.yul\":826:842   */\n      add\n        /* \"#utility.yul\":791:856   */\n      tag_127\n      jump\t// in\n    tag_166:\n        /* \"#utility.yul\":881:910   */\n      tag_167\n        /* \"#utility.yul\":903:909   */\n      dup2\n        /* \"#utility.yul\":881:910   */\n      tag_128\n      jump\t// in\n    tag_167:\n        /* \"#utility.yul\":876:879   */\n      dup5\n        /* \"#utility.yul\":872:911   */\n      add\n        /* \"#utility.yul\":865:911   */\n      swap2\n      pop\n        /* \"#utility.yul\":632:917   */\n      pop\n        /* \"#utility.yul\":540:917   */\n      swap3\n      swap2\n      pop\n      pop\n      jump\t// out\n        /* \"#utility.yul\":923:1236   */\n    tag_19:\n        /* \"#utility.yul\":1036:1040   */\n      0x00\n        /* \"#utility.yul\":1074:1076   */\n      0x20\n        /* \"#utility.yul\":1063:1072   */\n      dup3\n        /* \"#utility.yul\":1059:1077   */\n      add\n        /* \"#utility.yul\":1051:1077   */\n      swap1\n      pop\n        /* \"#utility.yul\":1123:1132   */\n      dup2\n        /* \"#utility.yul\":1117:1121   */\n      dup2\n        /* \"#utility.yul\":1113:1133   */\n      sub\n        /* \"#utility.yul\":1109:1110   */\n      0x00\n        /* \"#utility.yul\":1098:1107   */\n      dup4\n        /* \"#utility.yul\":1094:1111   */\n      add\n        /* \"#utility.yul\":1087:1134   */\n      mstore\n        /* \"#utility.yul\":1151:1229   */\n      tag_169\n        /* \"#utility.yul\":1224:1228   */\n      dup2\n        /* \"#utility.yul\":1215:1221   */\n      dup5\n        /* \"#utility.yul\":1151:1229   */\n      tag_129\n      jump\t// in\n    tag_169:\n        /* \"#utility.yul\":1143:1229   */\n      swap1\n      pop\n        /* \"#utility.yul\":923:1236   */\n      swap3\n      swap2\n      pop\n      pop\n      jump\t// out\n        /* \"#utility.yul\":1323:1440   */\n    tag_131:\n        /* \"#utility.yul\":1432:1433   */\n      0x00\n        /* \"#utility.yul\":1429:1430   */\n      dup1\n        /* \"#utility.yul\":1422:1434   */\n      revert\n        /* \"#utility.yul\":1569:1695   */\n    tag_133:\n        /* \"#utility.yul\":1606:1613   */\n      0x00\n        /* \"#utility.yul\":1646:1688   */\n      0xffffffffffffffffffffffffffffffffffffffff\n        /* \"#utility.yul\":1639:1644   */\n      dup3\n        /* \"#utility.yul\":1635:1689   */\n      and\n        /* \"#utility.yul\":1624:1689   */\n      swap1\n      pop\n        /* \"#utility.yul\":1569:1695   */\n      swap2\n      swap1\n      pop\n      jump\t// out\n        /* \"#utility.yul\":1701:1797   */\n    tag_134:\n        /* \"#utility.yul\":1738:1745   */\n      0x00\n        /* \"#utility.yul\":1767:1791   */\n      tag_175\n        /* \"#utility.yul\":1785:1790   */\n      dup3\n        /* \"#utility.yul\":1767:1791   */\n      tag_133\n      jump\t// in\n    tag_175:\n        /* \"#utility.yul\":1756:1791   */\n      swap1\n      pop\n        /* \"#utility.yul\":1701:1797   */\n      swap2\n      swap1\n      pop\n      jump\t// out\n        /* \"#utility.yul\":1803:1925   */\n    tag_135:\n        /* \"#utility.yul\":1876:1900   */\n      tag_177\n        /* \"#utility.yul\":1894:1899   */\n      dup2\n        /* \"#utility.yul\":1876:1900   */\n      tag_134\n      jump\t// in\n    tag_177:\n        /* \"#utility.yul\":1869:1874   */\n      dup2\n        /* \"#utility.yul\":1866:1901   */\n      eq\n        /* \"#utility.yul\":1856:1919   */\n      tag_178\n      jumpi\n        /* \"#utility.yul\":1915:1916   */\n      0x00\n        /* \"#utility.yul\":1912:1913   */\n      dup1\n        /* \"#utility.yul\":1905:1917   */\n      revert\n        /* \"#utility.yul\":1856:1919   */\n    tag_178:\n        /* \"#utility.yul\":1803:1925   */\n      pop\n      jump\t// out\n        /* \"#utility.yul\":1931:2070   */\n    tag_136:\n        /* \"#utility.yul\":1977:1982   */\n      0x00\n        /* \"#utility.yul\":2015:2021   */\n      dup2\n        /* \"#utility.yul\":2002:2022   */\n      calldataload\n        /* \"#utility.yul\":1993:2022   */\n      swap1\n      pop\n        /* \"#utility.yul\":2031:2064   */\n      tag_180\n        /* \"#utility.yul\":2058:2063   */\n      dup2\n        /* \"#utility.yul\":2031:2064   */\n      tag_135\n      jump\t// in\n    tag_180:\n        /* \"#utility.yul\":1931:2070   */\n      swap3\n      swap2\n      pop\n      pop\n      jump\t// out\n        /* \"#utility.yul\":2076:2153   */\n    tag_137:\n        /* \"#utility.yul\":2113:2120   */\n      0x00\n        /* \"#utility.yul\":2142:2147   */\n      dup2\n        /* \"#utility.yul\":2131:2147   */\n      swap1\n      pop\n        /* \"#utility.yul\":2076:2153   */\n      swap2\n      swap1\n      pop\n      jump\t// out\n        /* \"#utility.yul\":2159:2281   */\n    tag_138:\n        /* \"#utility.yul\":2232:2256   */\n      tag_183\n        /* \"#utility.yul\":2250:2255   */\n      dup2\n        /* \"#utility.yul\":2232:2256   */\n      tag_137\n      jump\t// in\n    tag_183:\n        /* \"#utility.yul\":2225:2230   */\n      dup2\n        /* \"#utility.yul\":2222:2257   */\n      eq\n        /* \"#utility.yul\":2212:2275   */\n      tag_184\n      jumpi\n        /* \"#utility.yul\":2271:2272   */\n      0x00\n        /* \"#utility.yul\":2268:2269   */\n      dup1\n        /* \"#utility.yul\":2261:2273   */\n      revert\n        /* \"#utility.yul\":2212:2275   */\n    tag_184:\n        /* \"#utility.yul\":2159:2281   */\n      pop\n      jump\t// out\n        /* \"#utility.yul\":2287:2426   */\n    tag_139:\n        /* \"#utility.yul\":2333:2338   */\n      0x00\n        /* \"#utility.yul\":2371:2377   */\n      dup2\n        /* \"#utility.yul\":2358:2378   */\n      calldataload\n        /* \"#utility.yul\":2349:2378   */\n      swap1\n      pop\n        /* \"#utility.yul\":2387:2420   */\n      tag_186\n        /* \"#utility.yul\":2414:2419   */\n      dup2\n        /* \"#utility.yul\":2387:2420   */\n      tag_138\n      jump\t// in\n    tag_186:\n        /* \"#utility.yul\":2287:2426   */\n      swap3\n      swap2\n      pop\n      pop\n      jump\t// out\n        /* \"#utility.yul\":2432:2906   */\n    tag_22:\n        /* \"#utility.yul\":2500:2506   */\n      0x00\n        /* \"#utility.yul\":2508:2514   */\n      dup1\n        /* \"#utility.yul\":2557:2559   */\n      0x40\n        /* \"#utility.yul\":2545:2554   */\n      dup4\n        /* \"#utility.yul\":2536:2543   */\n      dup6\n        /* \"#utility.yul\":2532:2555   */\n      sub\n        /* \"#utility.yul\":2528:2560   */\n      slt\n        /* \"#utility.yul\":2525:2644   */\n      iszero\n      tag_188\n      jumpi\n        /* \"#utility.yul\":2563:2642   */\n      tag_189\n      tag_131\n      jump\t// in\n    tag_189:\n        /* \"#utility.yul\":2525:2644   */\n    tag_188:\n        /* \"#utility.yul\":2683:2684   */\n      0x00\n        /* \"#utility.yul\":2708:2761   */\n      tag_190\n        /* \"#utility.yul\":2753:2760   */\n      dup6\n        /* \"#utility.yul\":2744:2750   */\n      dup3\n        /* \"#utility.yul\":2733:2742   */\n      dup7\n        /* \"#utility.yul\":2729:2751   */\n      add\n        /* \"#utility.yul\":2708:2761   */\n      tag_136\n      jump\t// in\n    tag_190:\n        /* \"#utility.yul\":2698:2761   */\n      swap3\n      pop\n        /* \"#utility.yul\":2654:2771   */\n      pop\n        /* \"#utility.yul\":2810:2812   */\n      0x20\n        /* \"#utility.yul\":2836:2889   */\n      tag_191\n        /* \"#utility.yul\":2881:2888   */\n      dup6\n        /* \"#utility.yul\":2872:2878   */\n      dup3\n        /* \"#utility.yul\":2861:2870   */\n      dup7\n        /* \"#utility.yul\":2857:2879   */\n      add\n        /* \"#utility.yul\":2836:2889   */\n      tag_139\n      jump\t// in\n    tag_191:\n        /* \"#utility.yul\":2826:2889   */\n      swap2\n      pop\n        /* \"#utility.yul\":2781:2899   */\n      pop\n        /* \"#utility.yul\":2432:2906   */\n      swap3\n      pop\n      swap3\n      swap1\n      pop\n      jump\t// out\n        /* \"#utility.yul\":2912:3002   */\n    tag_140:\n        /* \"#utility.yul\":2946:2953   */\n      0x00\n        /* \"#utility.yul\":2989:2994   */\n      dup2\n        /* \"#utility.yul\":2982:2995   */\n      iszero\n        /* \"#utility.yul\":2975:2996   */\n      iszero\n        /* \"#utility.yul\":2964:2996   */\n      swap1\n      pop\n        /* \"#utility.yul\":2912:3002   */\n      swap2\n      swap1\n      pop\n      jump\t// out\n        /* \"#utility.yul\":3008:3117   */\n    tag_141:\n        /* \"#utility.yul\":3089:3110   */\n      tag_194\n        /* \"#utility.yul\":3104:3109   */\n      dup2\n        /* \"#utility.yul\":3089:3110   */\n      tag_140\n      jump\t// in\n    tag_194:\n        /* \"#utility.yul\":3084:3087   */\n      dup3\n        /* \"#utility.yul\":3077:3111   */\n      mstore\n        /* \"#utility.yul\":3008:3117   */\n      pop\n      pop\n      jump\t// out\n        /* \"#utility.yul\":3123:3333   */\n    tag_25:\n        /* \"#utility.yul\":3210:3214   */\n      0x00\n        /* \"#utility.yul\":3248:3250   */\n      0x20\n        /* \"#utility.yul\":3237:3246   */\n      dup3\n        /* \"#utility.yul\":3233:3251   */\n      add\n        /* \"#utility.yul\":3225:3251   */\n      swap1\n      pop\n        /* \"#utility.yul\":3261:3326   */\n      tag_196\n        /* \"#utility.yul\":3323:3324   */\n      0x00\n        /* \"#utility.yul\":3312:3321   */\n      dup4\n        /* \"#utility.yul\":3308:3325   */\n      add\n        /* \"#utility.yul\":3299:3305   */\n      dup5\n        /* \"#utility.yul\":3261:3326   */\n      tag_141\n      jump\t// in\n    tag_196:\n        /* \"#utility.yul\":3123:3333   */\n      swap3\n      swap2\n      pop\n      pop\n      jump\t// out\n        /* \"#utility.yul\":3339:3457   */\n    tag_142:\n        /* \"#utility.yul\":3426:3450   */\n      tag_198\n        /* \"#utility.yul\":3444:3449   */\n      dup2\n        /* \"#utility.yul\":3426:3450   */\n      tag_137\n      jump\t// in\n    tag_198:\n        /* \"#utility.yul\":3421:3424   */\n      dup3\n        /* \"#utility.yul\":3414:3451   */\n      mstore\n        /* \"#utility.yul\":3339:3457   */\n      pop\n      pop\n      jump\t// out\n        /* \"#utility.yul\":3463:3685   */\n    tag_29:\n        /* \"#utility.yul\":3556:3560   */\n      0x00\n        /* \"#utility.yul\":3594:3596   */\n      0x20\n        /* \"#utility.yul\":3583:3592   */\n      dup3\n        /* \"#utility.yul\":3579:3597   */\n      add\n        /* \"#utility.yul\":3571:3597   */\n      swap1\n      pop\n        /* \"#utility.yul\":3607:3678   */\n      tag_200\n        /* \"#utility.yul\":3675:3676   */\n      0x00\n        /* \"#utility.yul\":3664:3673   */\n      dup4\n        /* \"#utility.yul\":3660:3677   */\n      add\n        /* \"#utility.yul\":3651:3657   */\n      dup5\n        /* \"#utility.yul\":3607:3678   */\n      tag_142\n      jump\t// in\n    tag_200:\n        /* \"#utility.yul\":3463:3685   */\n      swap3\n      swap2\n      pop\n      pop\n      jump\t// out\n        /* \"#utility.yul\":3691:4310   */\n    tag_32:\n        /* \"#utility.yul\":3768:3774   */\n      0x00\n        /* \"#utility.yul\":3776:3782   */\n      dup1\n        /* \"#utility.yul\":3784:3790   */\n      0x00\n        /* \"#utility.yul\":3833:3835   */\n      0x60\n        /* \"#utility.yul\":3821:3830   */\n      dup5\n        /* \"#utility.yul\":3812:3819   */\n      dup7\n        /* \"#utility.yul\":3808:3831   */\n      sub\n        /* \"#utility.yul\":3804:3836   */\n      slt\n        /* \"#utility.yul\":3801:3920   */\n      iszero\n      tag_202\n      jumpi\n        /* \"#utility.yul\":3839:3918   */\n      tag_203\n      tag_131\n      jump\t// in\n    tag_203:\n        /* \"#utility.yul\":3801:3920   */\n    tag_202:\n        /* \"#utility.yul\":3959:3960   */\n      0x00\n        /* \"#utility.yul\":3984:4037   */\n      tag_204\n        /* \"#utility.yul\":4029:4036   */\n      dup7\n        /* \"#utility.yul\":4020:4026   */\n      dup3\n        /* \"#utility.yul\":4009:4018   */\n      dup8\n        /* \"#utility.yul\":4005:4027   */\n      add\n        /* \"#utility.yul\":3984:4037   */\n      tag_136\n      jump\t// in\n    tag_204:\n        /* \"#utility.yul\":3974:4037   */\n      swap4\n      pop\n        /* \"#utility.yul\":3930:4047   */\n      pop\n        /* \"#utility.yul\":4086:4088   */\n      0x20\n        /* \"#utility.yul\":4112:4165   */\n      tag_205\n        /* \"#utility.yul\":4157:4164   */\n      dup7\n        /* \"#utility.yul\":4148:4154   */\n      dup3\n        /* \"#utility.yul\":4137:4146   */\n      dup8\n        /* \"#utility.yul\":4133:4155   */\n      add\n        /* \"#utility.yul\":4112:4165   */\n      tag_136\n      jump\t// in\n    tag_205:\n        /* \"#utility.yul\":4102:4165   */\n      swap3\n      pop\n        /* \"#utility.yul\":4057:4175   */\n      pop\n        /* \"#utility.yul\":4214:4216   */\n      0x40\n        /* \"#utility.yul\":4240:4293   */\n      tag_206\n        /* \"#utility.yul\":4285:4292   */\n      dup7\n        /* \"#utility.yul\":4276:4282   */\n      dup3\n        /* \"#utility.yul\":4265:4274   */\n      dup8\n        /* \"#utility.yul\":4261:4283   */\n      add\n        /* \"#utility.yul\":4240:4293   */\n      tag_139\n      jump\t// in\n    tag_206:\n        /* \"#utility.yul\":4230:4293   */\n      swap2\n      pop\n        /* \"#utility.yul\":4185:4303   */\n      pop\n        /* \"#utility.yul\":3691:4310   */\n      swap3\n      pop\n      swap3\n      pop\n      swap3\n      jump\t// out\n        /* \"#utility.yul\":4316:4645   */\n    tag_41:\n        /* \"#utility.yul\":4375:4381   */\n      0x00\n        /* \"#utility.yul\":4424:4426   */\n      0x20\n        /* \"#utility.yul\":4412:4421   */\n      dup3\n        /* \"#utility.yul\":4403:4410   */\n      dup5\n        /* \"#utility.yul\":4399:4422   */\n      sub\n        /* \"#utility.yul\":4395:4427   */\n      slt\n        /* \"#utility.yul\":4392:4511   */\n      iszero\n      tag_208\n      jumpi\n        /* \"#utility.yul\":4430:4509   */\n      tag_209\n      tag_131\n      jump\t// in\n    tag_209:\n        /* \"#utility.yul\":4392:4511   */\n    tag_208:\n        /* \"#utility.yul\":4550:4551   */\n      0x00\n        /* \"#utility.yul\":4575:4628   */\n      tag_210\n        /* \"#utility.yul\":4620:4627   */\n      dup5\n        /* \"#utility.yul\":4611:4617   */\n      dup3\n        /* \"#utility.yul\":4600:4609   */\n      dup6\n        /* \"#utility.yul\":4596:4618   */\n      add\n        /* \"#utility.yul\":4575:4628   */\n      tag_139\n      jump\t// in\n    tag_210:\n        /* \"#utility.yul\":4565:4628   */\n      swap2\n      pop\n        /* \"#utility.yul\":4521:4638   */\n      pop\n        /* \"#utility.yul\":4316:4645   */\n      swap3\n      swap2\n      pop\n      pop\n      jump\t// out\n        /* \"#utility.yul\":4651:4769   */\n    tag_143:\n        /* \"#utility.yul\":4738:4762   */\n      tag_212\n        /* \"#utility.yul\":4756:4761   */\n      dup2\n        /* \"#utility.yul\":4738:4762   */\n      tag_134\n      jump\t// in\n    tag_212:\n        /* \"#utility.yul\":4733:4736   */\n      dup3\n        /* \"#utility.yul\":4726:4763   */\n      mstore\n        /* \"#utility.yul\":4651:4769   */\n      pop\n      pop\n      jump\t// out\n        /* \"#utility.yul\":4775:4997   */\n    tag_47:\n        /* \"#utility.yul\":4868:4872   */\n      0x00\n        /* \"#utility.yul\":4906:4908   */\n      0x20\n        /* \"#utility.yul\":4895:4904   */\n      dup3\n        /* \"#utility.yul\":4891:4909   */\n      add\n        /* \"#utility.yul\":4883:4909   */\n      swap1\n      pop\n        /* \"#utility.yul\":4919:4990   */\n      tag_214\n        /* \"#utility.yul\":4987:4988   */\n      0x00\n        /* \"#utility.yul\":4976:4985   */\n      dup4\n        /* \"#utility.yul\":4972:4989   */\n      add\n        /* \"#utility.yul\":4963:4969   */\n      dup5\n        /* \"#utility.yul\":4919:4990   */\n      tag_143\n      jump\t// in\n    tag_214:\n        /* \"#utility.yul\":4775:4997   */\n      swap3\n      swap2\n      pop\n      pop\n      jump\t// out\n        /* \"#utility.yul\":5003:5332   */\n    tag_50:\n        /* \"#utility.yul\":5062:5068   */\n      0x00\n        /* \"#utility.yul\":5111:5113   */\n      0x20\n        /* \"#utility.yul\":5099:5108   */\n      dup3\n        /* \"#utility.yul\":5090:5097   */\n      dup5\n        /* \"#utility.yul\":5086:5109   */\n      sub\n        /* \"#utility.yul\":5082:5114   */\n      slt\n        /* \"#utility.yul\":5079:5198   */\n      iszero\n      tag_216\n      jumpi\n        /* \"#utility.yul\":5117:5196   */\n      tag_217\n      tag_131\n      jump\t// in\n    tag_217:\n        /* \"#utility.yul\":5079:5198   */\n    tag_216:\n        /* \"#utility.yul\":5237:5238   */\n      0x00\n        /* \"#utility.yul\":5262:5315   */\n      tag_218\n        /* \"#utility.yul\":5307:5314   */\n      dup5\n        /* \"#utility.yul\":5298:5304   */\n      dup3\n        /* \"#utility.yul\":5287:5296   */\n      dup6\n        /* \"#utility.yul\":5283:5305   */\n      add\n        /* \"#utility.yul\":5262:5315   */\n      tag_136\n      jump\t// in\n    tag_218:\n        /* \"#utility.yul\":5252:5315   */\n      swap2\n      pop\n        /* \"#utility.yul\":5208:5325   */\n      pop\n        /* \"#utility.yul\":5003:5332   */\n      swap3\n      swap2\n      pop\n      pop\n      jump\t// out\n        /* \"#utility.yul\":5338:5812   */\n    tag_62:\n        /* \"#utility.yul\":5406:5412   */\n      0x00\n        /* \"#utility.yul\":5414:5420   */\n      dup1\n        /* \"#utility.yul\":5463:5465   */\n      0x40\n        /* \"#utility.yul\":5451:5460   */\n      dup4\n        /* \"#utility.yul\":5442:5449   */\n      dup6\n        /* \"#utility.yul\":5438:5461   */\n      sub\n        /* \"#utility.yul\":5434:5466   */\n      slt\n        /* \"#utility.yul\":5431:5550   */\n      iszero\n      tag_220\n      jumpi\n        /* \"#utility.yul\":5469:5548   */\n      tag_221\n      tag_131\n      jump\t// in\n    tag_221:\n        /* \"#utility.yul\":5431:5550   */\n    tag_220:\n        /* \"#utility.yul\":5589:5590   */\n      0x00\n        /* \"#utility.yul\":5614:5667   */\n      tag_222\n        /* \"#utility.yul\":5659:5666   */\n      dup6\n        /* \"#utility.yul\":5650:5656   */\n      dup3\n        /* \"#utility.yul\":5639:5648   */\n      dup7\n        /* \"#utility.yul\":5635:5657   */\n      add\n        /* \"#utility.yul\":5614:5667   */\n      tag_136\n      jump\t// in\n    tag_222:\n        /* \"#utility.yul\":5604:5667   */\n      swap3\n      pop\n        /* \"#utility.yul\":5560:5677   */\n      pop\n        /* \"#utility.yul\":5716:5718   */\n      0x20\n        /* \"#utility.yul\":5742:5795   */\n      tag_223\n        /* \"#utility.yul\":5787:5794   */\n      dup6\n        /* \"#utility.yul\":5778:5784   */\n      dup3\n        /* \"#utility.yul\":5767:5776   */\n      dup7\n        /* \"#utility.yul\":5763:5785   */\n      add\n        /* \"#utility.yul\":5742:5795   */\n      tag_136\n      jump\t// in\n    tag_223:\n        /* \"#utility.yul\":5732:5795   */\n      swap2\n      pop\n        /* \"#utility.yul\":5687:5805   */\n      pop\n        /* \"#utility.yul\":5338:5812   */\n      swap3\n      pop\n      swap3\n      swap1\n      pop\n      jump\t// out\n        /* \"#utility.yul\":5818:5998   */\n    tag_144:\n        /* \"#utility.yul\":5866:5943   */\n      0x4e487b7100000000000000000000000000000000000000000000000000000000\n        /* \"#utility.yul\":5863:5864   */\n      0x00\n        /* \"#utility.yul\":5856:5944   */\n      mstore\n        /* \"#utility.yul\":5963:5967   */\n      0x22\n        /* \"#utility.yul\":5960:5961   */\n      0x04\n        /* \"#utility.yul\":5953:5968   */\n      mstore\n        /* \"#utility.yul\":5987:5991   */\n      0x24\n        /* \"#utility.yul\":5984:5985   */\n      0x00\n        /* \"#utility.yul\":5977:5992   */\n      revert\n        /* \"#utility.yul\":6004:6324   */\n    tag_69:\n        /* \"#utility.yul\":6048:6054   */\n      0x00\n        /* \"#utility.yul\":6085:6086   */\n      0x02\n        /* \"#utility.yul\":6079:6083   */\n      dup3\n        /* \"#utility.yul\":6075:6087   */\n      div\n        /* \"#utility.yul\":6065:6087   */\n      swap1\n      pop\n        /* \"#utility.yul\":6132:6133   */\n      0x01\n        /* \"#utility.yul\":6126:6130   */\n      dup3\n        /* \"#utility.yul\":6122:6134   */\n      and\n        /* \"#utility.yul\":6153:6171   */\n      dup1\n        /* \"#utility.yul\":6143:6224   */\n      tag_226\n      jumpi\n        /* \"#utility.yul\":6209:6213   */\n      0x7f\n        /* \"#utility.yul\":6201:6207   */\n      dup3\n        /* \"#utility.yul\":6197:6214   */\n      and\n        /* \"#utility.yul\":6187:6214   */\n      swap2\n      pop\n        /* \"#utility.yul\":6143:6224   */\n    tag_226:\n        /* \"#utility.yul\":6271:6273   */\n      0x20\n        /* \"#utility.yul\":6263:6269   */\n      dup3\n        /* \"#utility.yul\":6260:6274   */\n      lt\n        /* \"#utility.yul\":6240:6258   */\n      dup2\n        /* \"#utility.yul\":6237:6275   */\n      sub\n        /* \"#utility.yul\":6234:6318   */\n      tag_227\n      jumpi\n        /* \"#utility.yul\":6290:6308   */\n      tag_228\n      tag_144\n      jump\t// in\n    tag_228:\n        /* \"#utility.yul\":6234:6318   */\n    tag_227:\n        /* \"#utility.yul\":6055:6324   */\n      pop\n        /* \"#utility.yul\":6004:6324   */\n      swap2\n      swap1\n      pop\n      jump\t// out\n        /* \"#utility.yul\":6330:6504   */\n    tag_145:\n        /* \"#utility.yul\":6470:6496   */\n      0x496e76616c696420616c6c6f77616e636520616d6f756e740000000000000000\n        /* \"#utility.yul\":6466:6467   */\n      0x00\n        /* \"#utility.yul\":6458:6464   */\n      dup3\n        /* \"#utility.yul\":6454:6468   */\n      add\n        /* \"#utility.yul\":6447:6497   */\n      mstore\n        /* \"#utility.yul\":6330:6504   */\n      pop\n      jump\t// out\n        /* \"#utility.yul\":6510:6876   */\n    tag_146:\n        /* \"#utility.yul\":6652:6655   */\n      0x00\n        /* \"#utility.yul\":6673:6740   */\n      tag_231\n        /* \"#utility.yul\":6737:6739   */\n      0x18\n        /* \"#utility.yul\":6732:6735   */\n      dup4\n        /* \"#utility.yul\":6673:6740   */\n      tag_126\n      jump\t// in\n    tag_231:\n        /* \"#utility.yul\":6666:6740   */\n      swap2\n      pop\n        /* \"#utility.yul\":6749:6842   */\n      tag_232\n        /* \"#utility.yul\":6838:6841   */\n      dup3\n        /* \"#utility.yul\":6749:6842   */\n      tag_145\n      jump\t// in\n    tag_232:\n        /* \"#utility.yul\":6867:6869   */\n      0x20\n        /* \"#utility.yul\":6862:6865   */\n      dup3\n        /* \"#utility.yul\":6858:6870   */\n      add\n        /* \"#utility.yul\":6851:6870   */\n      swap1\n      pop\n        /* \"#utility.yul\":6510:6876   */\n      swap2\n      swap1\n      pop\n      jump\t// out\n        /* \"#utility.yul\":6882:7301   */\n    tag_77:\n        /* \"#utility.yul\":7048:7052   */\n      0x00\n        /* \"#utility.yul\":7086:7088   */\n      0x20\n        /* \"#utility.yul\":7075:7084   */\n      dup3\n        /* \"#utility.yul\":7071:7089   */\n      add\n        /* \"#utility.yul\":7063:7089   */\n      swap1\n      pop\n        /* \"#utility.yul\":7135:7144   */\n      dup2\n        /* \"#utility.yul\":7129:7133   */\n      dup2\n        /* \"#utility.yul\":7125:7145   */\n      sub\n        /* \"#utility.yul\":7121:7122   */\n      0x00\n        /* \"#utility.yul\":7110:7119   */\n      dup4\n        /* \"#utility.yul\":7106:7123   */\n      add\n        /* \"#utility.yul\":7099:7146   */\n      mstore\n        /* \"#utility.yul\":7163:7294   */\n      tag_234\n        /* \"#utility.yul\":7289:7293   */\n      dup2\n        /* \"#utility.yul\":7163:7294   */\n      tag_146\n      jump\t// in\n    tag_234:\n        /* \"#utility.yul\":7155:7294   */\n      swap1\n      pop\n        /* \"#utility.yul\":6882:7301   */\n      swap2\n      swap1\n      pop\n      jump\t// out\n        /* \"#utility.yul\":7307:7476   */\n    tag_147:\n        /* \"#utility.yul\":7447:7468   */\n      0x496e73756666696369656e7420737570706c7900000000000000000000000000\n        /* \"#utility.yul\":7443:7444   */\n      0x00\n        /* \"#utility.yul\":7435:7441   */\n      dup3\n        /* \"#utility.yul\":7431:7445   */\n      add\n        /* \"#utility.yul\":7424:7469   */\n      mstore\n        /* \"#utility.yul\":7307:7476   */\n      pop\n      jump\t// out\n        /* \"#utility.yul\":7482:7848   */\n    tag_148:\n        /* \"#utility.yul\":7624:7627   */\n      0x00\n        /* \"#utility.yul\":7645:7712   */\n      tag_237\n        /* \"#utility.yul\":7709:7711   */\n      0x13\n        /* \"#utility.yul\":7704:7707   */\n      dup4\n        /* \"#utility.yul\":7645:7712   */\n      tag_126\n      jump\t// in\n    tag_237:\n        /* \"#utility.yul\":7638:7712   */\n      swap2\n      pop\n        /* \"#utility.yul\":7721:7814   */\n      tag_238\n        /* \"#utility.yul\":7810:7813   */\n      dup3\n        /* \"#utility.yul\":7721:7814   */\n      tag_147\n      jump\t// in\n    tag_238:\n        /* \"#utility.yul\":7839:7841   */\n      0x20\n        /* \"#utility.yul\":7834:7837   */\n      dup3\n        /* \"#utility.yul\":7830:7842   */\n      add\n        /* \"#utility.yul\":7823:7842   */\n      swap1\n      pop\n        /* \"#utility.yul\":7482:7848   */\n      swap2\n      swap1\n      pop\n      jump\t// out\n        /* \"#utility.yul\":7854:8273   */\n    tag_85:\n        /* \"#utility.yul\":8020:8024   */\n      0x00\n        /* \"#utility.yul\":8058:8060   */\n      0x20\n        /* \"#utility.yul\":8047:8056   */\n      dup3\n        /* \"#utility.yul\":8043:8061   */\n      add\n        /* \"#utility.yul\":8035:8061   */\n      swap1\n      pop\n        /* \"#utility.yul\":8107:8116   */\n      dup2\n        /* \"#utility.yul\":8101:8105   */\n      dup2\n        /* \"#utility.yul\":8097:8117   */\n      sub\n        /* \"#utility.yul\":8093:8094   */\n      0x00\n        /* \"#utility.yul\":8082:8091   */\n      dup4\n        /* \"#utility.yul\":8078:8095   */\n      add\n        /* \"#utility.yul\":8071:8118   */\n      mstore\n        /* \"#utility.yul\":8135:8266   */\n      tag_240\n        /* \"#utility.yul\":8261:8265   */\n      dup2\n        /* \"#utility.yul\":8135:8266   */\n      tag_148\n      jump\t// in\n    tag_240:\n        /* \"#utility.yul\":8127:8266   */\n      swap1\n      pop\n        /* \"#utility.yul\":7854:8273   */\n      swap2\n      swap1\n      pop\n      jump\t// out\n        /* \"#utility.yul\":8279:8455   */\n    tag_149:\n        /* \"#utility.yul\":8419:8447   */\n      0x5468697320616d6f756e74206973206e6f7420616c6c6f776564000000000000\n        /* \"#utility.yul\":8415:8416   */\n      0x00\n        /* \"#utility.yul\":8407:8413   */\n      dup3\n        /* \"#utility.yul\":8403:8417   */\n      add\n        /* \"#utility.yul\":8396:8448   */\n      mstore\n        /* \"#utility.yul\":8279:8455   */\n      pop\n      jump\t// out\n        /* \"#utility.yul\":8461:8827   */\n    tag_150:\n        /* \"#utility.yul\":8603:8606   */\n      0x00\n        /* \"#utility.yul\":8624:8691   */\n      tag_243\n        /* \"#utility.yul\":8688:8690   */\n      0x1a\n        /* \"#utility.yul\":8683:8686   */\n      dup4\n        /* \"#utility.yul\":8624:8691   */\n      tag_126\n      jump\t// in\n    tag_243:\n        /* \"#utility.yul\":8617:8691   */\n      swap2\n      pop\n        /* \"#utility.yul\":8700:8793   */\n      tag_244\n        /* \"#utility.yul\":8789:8792   */\n      dup3\n        /* \"#utility.yul\":8700:8793   */\n      tag_149\n      jump\t// in\n    tag_244:\n        /* \"#utility.yul\":8818:8820   */\n      0x20\n        /* \"#utility.yul\":8813:8816   */\n      dup3\n        /* \"#utility.yul\":8809:8821   */\n      add\n        /* \"#utility.yul\":8802:8821   */\n      swap1\n      pop\n        /* \"#utility.yul\":8461:8827   */\n      swap2\n      swap1\n      pop\n      jump\t// out\n        /* \"#utility.yul\":8833:9252   */\n    tag_88:\n        /* \"#utility.yul\":8999:9003   */\n      0x00\n        /* \"#utility.yul\":9037:9039   */\n      0x20\n        /* \"#utility.yul\":9026:9035   */\n      dup3\n        /* \"#utility.yul\":9022:9040   */\n      add\n        /* \"#utility.yul\":9014:9040   */\n      swap1\n      pop\n        /* \"#utility.yul\":9086:9095   */\n      dup2\n        /* \"#utility.yul\":9080:9084   */\n      dup2\n        /* \"#utility.yul\":9076:9096   */\n      sub\n        /* \"#utility.yul\":9072:9073   */\n      0x00\n        /* \"#utility.yul\":9061:9070   */\n      dup4\n        /* \"#utility.yul\":9057:9074   */\n      add\n        /* \"#utility.yul\":9050:9097   */\n      mstore\n        /* \"#utility.yul\":9114:9245   */\n      tag_246\n        /* \"#utility.yul\":9240:9244   */\n      dup2\n        /* \"#utility.yul\":9114:9245   */\n      tag_150\n      jump\t// in\n    tag_246:\n        /* \"#utility.yul\":9106:9245   */\n      swap1\n      pop\n        /* \"#utility.yul\":8833:9252   */\n      swap2\n      swap1\n      pop\n      jump\t// out\n        /* \"#utility.yul\":9258:9438   */\n    tag_151:\n        /* \"#utility.yul\":9306:9383   */\n      0x4e487b7100000000000000000000000000000000000000000000000000000000\n        /* \"#utility.yul\":9303:9304   */\n      0x00\n        /* \"#utility.yul\":9296:9384   */\n      mstore\n        /* \"#utility.yul\":9403:9407   */\n      0x11\n        /* \"#utility.yul\":9400:9401   */\n      0x04\n        /* \"#utility.yul\":9393:9408   */\n      mstore\n        /* \"#utility.yul\":9427:9431   */\n      0x24\n        /* \"#utility.yul\":9424:9425   */\n      0x00\n        /* \"#utility.yul\":9417:9432   */\n      revert\n        /* \"#utility.yul\":9444:9638   */\n    tag_90:\n        /* \"#utility.yul\":9484:9488   */\n      0x00\n        /* \"#utility.yul\":9504:9524   */\n      tag_249\n        /* \"#utility.yul\":9522:9523   */\n      dup3\n        /* \"#utility.yul\":9504:9524   */\n      tag_137\n      jump\t// in\n    tag_249:\n        /* \"#utility.yul\":9499:9524   */\n      swap2\n      pop\n        /* \"#utility.yul\":9538:9558   */\n      tag_250\n        /* \"#utility.yul\":9556:9557   */\n      dup4\n        /* \"#utility.yul\":9538:9558   */\n      tag_137\n      jump\t// in\n    tag_250:\n        /* \"#utility.yul\":9533:9558   */\n      swap3\n      pop\n        /* \"#utility.yul\":9582:9583   */\n      dup3\n        /* \"#utility.yul\":9579:9580   */\n      dup3\n        /* \"#utility.yul\":9575:9584   */\n      sub\n        /* \"#utility.yul\":9567:9584   */\n      swap1\n      pop\n        /* \"#utility.yul\":9606:9607   */\n      dup2\n        /* \"#utility.yul\":9600:9604   */\n      dup2\n        /* \"#utility.yul\":9597:9608   */\n      gt\n        /* \"#utility.yul\":9594:9631   */\n      iszero\n      tag_251\n      jumpi\n        /* \"#utility.yul\":9611:9629   */\n      tag_252\n      tag_151\n      jump\t// in\n    tag_252:\n        /* \"#utility.yul\":9594:9631   */\n    tag_251:\n        /* \"#utility.yul\":9444:9638   */\n      swap3\n      swap2\n      pop\n      pop\n      jump\t// out\n        /* \"#utility.yul\":9644:9835   */\n    tag_93:\n        /* \"#utility.yul\":9684:9687   */\n      0x00\n        /* \"#utility.yul\":9703:9723   */\n      tag_254\n        /* \"#utility.yul\":9721:9722   */\n      dup3\n        /* \"#utility.yul\":9703:9723   */\n      tag_137\n      jump\t// in\n    tag_254:\n        /* \"#utility.yul\":9698:9723   */\n      swap2\n      pop\n        /* \"#utility.yul\":9737:9757   */\n      tag_255\n        /* \"#utility.yul\":9755:9756   */\n      dup4\n        /* \"#utility.yul\":9737:9757   */\n      tag_137\n      jump\t// in\n    tag_255:\n        /* \"#utility.yul\":9732:9757   */\n      swap3\n      pop\n        /* \"#utility.yul\":9780:9781   */\n      dup3\n        /* \"#utility.yul\":9777:9778   */\n      dup3\n        /* \"#utility.yul\":9773:9782   */\n      add\n        /* \"#utility.yul\":9766:9782   */\n      swap1\n      pop\n        /* \"#utility.yul\":9801:9804   */\n      dup1\n        /* \"#utility.yul\":9798:9799   */\n      dup3\n        /* \"#utility.yul\":9795:9805   */\n      gt\n        /* \"#utility.yul\":9792:9828   */\n      iszero\n      tag_256\n      jumpi\n        /* \"#utility.yul\":9808:9826   */\n      tag_257\n      tag_151\n      jump\t// in\n    tag_257:\n        /* \"#utility.yul\":9792:9828   */\n    tag_256:\n        /* \"#utility.yul\":9644:9835   */\n      swap3\n      swap2\n      pop\n      pop\n      jump\t// out\n        /* \"#utility.yul\":9841:10003   */\n    tag_152:\n        /* \"#utility.yul\":9981:9995   */\n      0x556e617574686f72697a65640000000000000000000000000000000000000000\n        /* \"#utility.yul\":9977:9978   */\n      0x00\n        /* \"#utility.yul\":9969:9975   */\n      dup3\n        /* \"#utility.yul\":9965:9979   */\n      add\n        /* \"#utility.yul\":9958:9996   */\n      mstore\n        /* \"#utility.yul\":9841:10003   */\n      pop\n      jump\t// out\n        /* \"#utility.yul\":10009:10375   */\n    tag_153:\n        /* \"#utility.yul\":10151:10154   */\n      0x00\n        /* \"#utility.yul\":10172:10239   */\n      tag_260\n        /* \"#utility.yul\":10236:10238   */\n      0x0c\n        /* \"#utility.yul\":10231:10234   */\n      dup4\n        /* \"#utility.yul\":10172:10239   */\n      tag_126\n      jump\t// in\n    tag_260:\n        /* \"#utility.yul\":10165:10239   */\n      swap2\n      pop\n        /* \"#utility.yul\":10248:10341   */\n      tag_261\n        /* \"#utility.yul\":10337:10340   */\n      dup3\n        /* \"#utility.yul\":10248:10341   */\n      tag_152\n      jump\t// in\n    tag_261:\n        /* \"#utility.yul\":10366:10368   */\n      0x20\n        /* \"#utility.yul\":10361:10364   */\n      dup3\n        /* \"#utility.yul\":10357:10369   */\n      add\n        /* \"#utility.yul\":10350:10369   */\n      swap1\n      pop\n        /* \"#utility.yul\":10009:10375   */\n      swap2\n      swap1\n      pop\n      jump\t// out\n        /* \"#utility.yul\":10381:10800   */\n    tag_98:\n        /* \"#utility.yul\":10547:10551   */\n      0x00\n        /* \"#utility.yul\":10585:10587   */\n      0x20\n        /* \"#utility.yul\":10574:10583   */\n      dup3\n        /* \"#utility.yul\":10570:10588   */\n      add\n        /* \"#utility.yul\":10562:10588   */\n      swap1\n      pop\n        /* \"#utility.yul\":10634:10643   */\n      dup2\n        /* \"#utility.yul\":10628:10632   */\n      dup2\n        /* \"#utility.yul\":10624:10644   */\n      sub\n        /* \"#utility.yul\":10620:10621   */\n      0x00\n        /* \"#utility.yul\":10609:10618   */\n      dup4\n        /* \"#utility.yul\":10605:10622   */\n      add\n        /* \"#utility.yul\":10598:10645   */\n      mstore\n        /* \"#utility.yul\":10662:10793   */\n      tag_263\n        /* \"#utility.yul\":10788:10792   */\n      dup2\n        /* \"#utility.yul\":10662:10793   */\n      tag_153\n      jump\t// in\n    tag_263:\n        /* \"#utility.yul\":10654:10793   */\n      swap1\n      pop\n        /* \"#utility.yul\":10381:10800   */\n      swap2\n      swap1\n      pop\n      jump\t// out\n        /* \"#utility.yul\":10806:10976   */\n    tag_154:\n        /* \"#utility.yul\":10946:10968   */\n      0x496e73756666696369656e742062616c616e6365000000000000000000000000\n        /* \"#utility.yul\":10942:10943   */\n      0x00\n        /* \"#utility.yul\":10934:10940   */\n      dup3\n        /* \"#utility.yul\":10930:10944   */\n      add\n        /* \"#utility.yul\":10923:10969   */\n      mstore\n        /* \"#utility.yul\":10806:10976   */\n      pop\n      jump\t// out\n        /* \"#utility.yul\":10982:11348   */\n    tag_155:\n        /* \"#utility.yul\":11124:11127   */\n      0x00\n        /* \"#utility.yul\":11145:11212   */\n      tag_266\n        /* \"#utility.yul\":11209:11211   */\n      0x14\n        /* \"#utility.yul\":11204:11207   */\n      dup4\n        /* \"#utility.yul\":11145:11212   */\n      tag_126\n      jump\t// in\n    tag_266:\n        /* \"#utility.yul\":11138:11212   */\n      swap2\n      pop\n        /* \"#utility.yul\":11221:11314   */\n      tag_267\n        /* \"#utility.yul\":11310:11313   */\n      dup3\n        /* \"#utility.yul\":11221:11314   */\n      tag_154\n      jump\t// in\n    tag_267:\n        /* \"#utility.yul\":11339:11341   */\n      0x20\n        /* \"#utility.yul\":11334:11337   */\n      dup3\n        /* \"#utility.yul\":11330:11342   */\n      add\n        /* \"#utility.yul\":11323:11342   */\n      swap1\n      pop\n        /* \"#utility.yul\":10982:11348   */\n      swap2\n      swap1\n      pop\n      jump\t// out\n        /* \"#utility.yul\":11354:11773   */\n    tag_105:\n        /* \"#utility.yul\":11520:11524   */\n      0x00\n        /* \"#utility.yul\":11558:11560   */\n      0x20\n        /* \"#utility.yul\":11547:11556   */\n      dup3\n        /* \"#utility.yul\":11543:11561   */\n      add\n        /* \"#utility.yul\":11535:11561   */\n      swap1\n      pop\n        /* \"#utility.yul\":11607:11616   */\n      dup2\n        /* \"#utility.yul\":11601:11605   */\n      dup2\n        /* \"#utility.yul\":11597:11617   */\n      sub\n        /* \"#utility.yul\":11593:11594   */\n      0x00\n        /* \"#utility.yul\":11582:11591   */\n      dup4\n        /* \"#utility.yul\":11578:11595   */\n      add\n        /* \"#utility.yul\":11571:11618   */\n      mstore\n        /* \"#utility.yul\":11635:11766   */\n      tag_269\n        /* \"#utility.yul\":11761:11765   */\n      dup2\n        /* \"#utility.yul\":11635:11766   */\n      tag_155\n      jump\t// in\n    tag_269:\n        /* \"#utility.yul\":11627:11766   */\n      swap1\n      pop\n        /* \"#utility.yul\":11354:11773   */\n      swap2\n      swap1\n      pop\n      jump\t// out\n        /* \"#utility.yul\":11779:11952   */\n    tag_156:\n        /* \"#utility.yul\":11919:11944   */\n      0x496e76616c6964207472616e7366657220616d6f756e74000000000000000000\n        /* \"#utility.yul\":11915:11916   */\n      0x00\n        /* \"#utility.yul\":11907:11913   */\n      dup3\n        /* \"#utility.yul\":11903:11917   */\n      add\n        /* \"#utility.yul\":11896:11945   */\n      mstore\n        /* \"#utility.yul\":11779:11952   */\n      pop\n      jump\t// out\n        /* \"#utility.yul\":11958:12324   */\n    tag_157:\n        /* \"#utility.yul\":12100:12103   */\n      0x00\n        /* \"#utility.yul\":12121:12188   */\n      tag_272\n        /* \"#utility.yul\":12185:12187   */\n      0x17\n        /* \"#utility.yul\":12180:12183   */\n      dup4\n        /* \"#utility.yul\":12121:12188   */\n      tag_126\n      jump\t// in\n    tag_272:\n        /* \"#utility.yul\":12114:12188   */\n      swap2\n      pop\n        /* \"#utility.yul\":12197:12290   */\n      tag_273\n        /* \"#utility.yul\":12286:12289   */\n      dup3\n        /* \"#utility.yul\":12197:12290   */\n      tag_156\n      jump\t// in\n    tag_273:\n        /* \"#utility.yul\":12315:12317   */\n      0x20\n        /* \"#utility.yul\":12310:12313   */\n      dup3\n        /* \"#utility.yul\":12306:12318   */\n      add\n        /* \"#utility.yul\":12299:12318   */\n      swap1\n      pop\n        /* \"#utility.yul\":11958:12324   */\n      swap2\n      swap1\n      pop\n      jump\t// out\n        /* \"#utility.yul\":12330:12749   */\n    tag_118:\n        /* \"#utility.yul\":12496:12500   */\n      0x00\n        /* \"#utility.yul\":12534:12536   */\n      0x20\n        /* \"#utility.yul\":12523:12532   */\n      dup3\n        /* \"#utility.yul\":12519:12537   */\n      add\n        /* \"#utility.yul\":12511:12537   */\n      swap1\n      pop\n        /* \"#utility.yul\":12583:12592   */\n      dup2\n        /* \"#utility.yul\":12577:12581   */\n      dup2\n        /* \"#utility.yul\":12573:12593   */\n      sub\n        /* \"#utility.yul\":12569:12570   */\n      0x00\n        /* \"#utility.yul\":12558:12567   */\n      dup4\n        /* \"#utility.yul\":12554:12571   */\n      add\n        /* \"#utility.yul\":12547:12594   */\n      mstore\n        /* \"#utility.yul\":12611:12742   */\n      tag_275\n        /* \"#utility.yul\":12737:12741   */\n      dup2\n        /* \"#utility.yul\":12611:12742   */\n      tag_157\n      jump\t// in\n    tag_275:\n        /* \"#utility.yul\":12603:12742   */\n      swap1\n      pop\n        /* \"#utility.yul\":12330:12749   */\n      swap2\n      swap1\n      pop\n      jump\t// out\n\n    auxdata: 0xa2646970667358221220252e4be256a9f60b7ff4b9936fe90d79e409881ac0cc01acdcf7c0a1485bcbdd64736f6c634300081a0033\n}\n",
				"bytecode": {
					"linkReferences": {},
					"object": "608060405234801561000f575f80fd5b506040516119e43803806119e483398181016040528101906100319190610284565b825f908161003f9190610510565b50816001908161004f9190610510565b503360025f6101000a81548173ffffffffffffffffffffffffffffffffffffffff021916908373ffffffffffffffffffffffffffffffffffffffff1602179055508060038190555060035460045f60025f9054906101000a900473ffffffffffffffffffffffffffffffffffffffff1673ffffffffffffffffffffffffffffffffffffffff1673ffffffffffffffffffffffffffffffffffffffff1681526020019081526020015f20819055505050506105df565b5f604051905090565b5f80fd5b5f80fd5b5f80fd5b5f80fd5b5f601f19601f8301169050919050565b7f4e487b71000000000000000000000000000000000000000000000000000000005f52604160045260245ffd5b6101638261011d565b810181811067ffffffffffffffff821117156101825761018161012d565b5b80604052505050565b5f610194610104565b90506101a0828261015a565b919050565b5f67ffffffffffffffff8211156101bf576101be61012d565b5b6101c88261011d565b9050602081019050919050565b8281835e5f83830152505050565b5f6101f56101f0846101a5565b61018b565b90508281526020810184848401111561021157610210610119565b5b61021c8482856101d5565b509392505050565b5f82601f83011261023857610237610115565b5b81516102488482602086016101e3565b91505092915050565b5f819050919050565b61026381610251565b811461026d575f80fd5b50565b5f8151905061027e8161025a565b92915050565b5f805f6060848603121561029b5761029a61010d565b5b5f84015167ffffffffffffffff8111156102b8576102b7610111565b5b6102c486828701610224565b935050602084015167ffffffffffffffff8111156102e5576102e4610111565b5b6102f186828701610224565b925050604061030286828701610270565b9150509250925092565b5f81519050919050565b7f4e487b71000000000000000000000000000000000000000000000000000000005f52602260045260245ffd5b5f600282049050600182168061035a57607f821691505b60208210810361036d5761036c610316565b5b50919050565b5f819050815f5260205f209050919050565b5f6020601f8301049050919050565b5f82821b905092915050565b5f600883026103cf7fffffffffffffffffffffffffffffffffffffffffffffffffffffffffffffffff82610394565b6103d98683610394565b95508019841693508086168417925050509392505050565b5f819050919050565b5f61041461040f61040a84610251565b6103f1565b610251565b9050919050565b5f819050919050565b61042d836103fa565b6104416104398261041b565b8484546103a0565b825550505050565b5f90565b610455610449565b610460818484610424565b505050565b5b81811015610483576104785f8261044d565b600181019050610466565b5050565b601f8211156104c85761049981610373565b6104a284610385565b810160208510156104b1578190505b6104c56104bd85610385565b830182610465565b50505b505050565b5f82821c905092915050565b5f6104e85f19846008026104cd565b1980831691505092915050565b5f61050083836104d9565b9150826002028217905092915050565b6105198261030c565b67ffffffffffffffff8111156105325761053161012d565b5b61053c8254610343565b610547828285610487565b5f60209050601f831160018114610578575f8415610566578287015190505b61057085826104f5565b8655506105d7565b601f19841661058686610373565b5f5b828110156105ad57848901518255600182019150602085019450602081019050610588565b868310156105ca57848901516105c6601f8916826104d9565b8355505b6001600288020188555050505b505050505050565b6113f8806105ec5f395ff3fe608060405234801561000f575f80fd5b50600436106100b2575f3560e01c80634d853ee51161006f5780634d853ee5146101b257806370a08231146101d057806395d89b4114610200578063a9059cbb1461021e578063dd62ed3e1461024e578063f7abab9e1461027e576100b2565b806306fdde03146100b6578063095ea7b3146100d457806318160ddd1461010457806323b872dd1461012257806340c10f191461015257806342966c6814610182575b5f80fd5b6100be61029c565b6040516100cb9190610e0c565b60405180910390f35b6100ee60048036038101906100e99190610ebd565b610327565b6040516100fb9190610f15565b60405180910390f35b61010c610456565b6040516101199190610f3d565b60405180910390f35b61013c60048036038101906101379190610f56565b61045f565b6040516101499190610f15565b60405180910390f35b61016c60048036038101906101679190610ebd565b610781565b6040516101799190610f15565b60405180910390f35b61019c60048036038101906101979190610fa6565b6108eb565b6040516101a99190610f15565b60405180910390f35b6101ba610a45565b6040516101c79190610fe0565b60405180910390f35b6101ea60048036038101906101e59190610ff9565b610a6a565b6040516101f79190610f3d565b60405180910390f35b610208610ab0565b6040516102159190610e0c565b60405180910390f35b61023860048036038101906102339190610ebd565b610b3c565b6040516102459190610f15565b60405180910390f35b61026860048036038101906102639190611024565b610d14565b6040516102759190610f3d565b60405180910390f35b610286610d96565b6040516102939190610f3d565b60405180910390f35b5f80546102a89061108f565b80601f01602080910402602001604051908101604052809291908181526020018280546102d49061108f565b801561031f5780601f106102f65761010080835404028352916020019161031f565b820191905f5260205f20905b81548152906001019060200180831161030257829003601f168201915b505050505081565b5f80821161036a576040517f08c379a000000000000000000000000000000000000000000000000000000000815260040161036190611109565b60405180910390fd5b8160055f3373ffffffffffffffffffffffffffffffffffffffff1673ffffffffffffffffffffffffffffffffffffffff1681526020019081526020015f205f8573ffffffffffffffffffffffffffffffffffffffff1673ffffffffffffffffffffffffffffffffffffffff1681526020019081526020015f20819055508273ffffffffffffffffffffffffffffffffffffffff163373ffffffffffffffffffffffffffffffffffffffff167f8c5be1e5ebec7d5bd14f71427d1e84f3dd0314c0f7b2291e5b200ac8c7c3b925846040516104449190610f3d565b60405180910390a36001905092915050565b5f600354905090565b5f8082116104a2576040517f08c379a000000000000000000000000000000000000000000000000000000000815260040161049990611109565b60405180910390fd5b8160045f8673ffffffffffffffffffffffffffffffffffffffff1673ffffffffffffffffffffffffffffffffffffffff1681526020019081526020015f20541015610522576040517f08c379a000000000000000000000000000000000000000000000000000000000815260040161051990611171565b60405180910390fd5b60055f8573ffffffffffffffffffffffffffffffffffffffff1673ffffffffffffffffffffffffffffffffffffffff1681526020019081526020015f205f8473ffffffffffffffffffffffffffffffffffffffff1673ffffffffffffffffffffffffffffffffffffffff1681526020019081526020015f20548211156105dd576040517f08c379a00000000000000000000000000000000000000000000000000000000081526004016105d4906111d9565b60405180910390fd5b8160055f8673ffffffffffffffffffffffffffffffffffffffff1673ffffffffffffffffffffffffffffffffffffffff1681526020019081526020015f205f8573ffffffffffffffffffffffffffffffffffffffff1673ffffffffffffffffffffffffffffffffffffffff1681526020019081526020015f205f8282546106649190611224565b925050819055508160045f8673ffffffffffffffffffffffffffffffffffffffff1673ffffffffffffffffffffffffffffffffffffffff1681526020019081526020015f205f8282546106b79190611224565b925050819055508160045f8573ffffffffffffffffffffffffffffffffffffffff1673ffffffffffffffffffffffffffffffffffffffff1681526020019081526020015f205f82825461070a9190611257565b925050819055508273ffffffffffffffffffffffffffffffffffffffff168473ffffffffffffffffffffffffffffffffffffffff167fddf252ad1be2c89b69c2b068fc378daa952ba7f163c4a11628f55a4df523b3ef8460405161076e9190610f3d565b60405180910390a3600190509392505050565b5f60025f9054906101000a900473ffffffffffffffffffffffffffffffffffffffff1673ffffffffffffffffffffffffffffffffffffffff163373ffffffffffffffffffffffffffffffffffffffff1614610811576040517f08c379a0000000000000000000000000000000000000000000000000000000008152600401610808906112d4565b60405180910390fd5b8160045f8573ffffffffffffffffffffffffffffffffffffffff1673ffffffffffffffffffffffffffffffffffffffff1681526020019081526020015f205f82825461085d9190611257565b925050819055508160035f8282546108759190611257565b925050819055508273ffffffffffffffffffffffffffffffffffffffff165f73ffffffffffffffffffffffffffffffffffffffff167fddf252ad1be2c89b69c2b068fc378daa952ba7f163c4a11628f55a4df523b3ef846040516108d99190610f3d565b60405180910390a36001905092915050565b5f8160045f3373ffffffffffffffffffffffffffffffffffffffff1673ffffffffffffffffffffffffffffffffffffffff1681526020019081526020015f2054101561096c576040517f08c379a00000000000000000000000000000000000000000000000000000000081526004016109639061133c565b60405180910390fd5b8160045f3373ffffffffffffffffffffffffffffffffffffffff1673ffffffffffffffffffffffffffffffffffffffff1681526020019081526020015f205f8282546109b89190611224565b925050819055508160035f8282546109d09190611224565b925050819055505f73ffffffffffffffffffffffffffffffffffffffff163373ffffffffffffffffffffffffffffffffffffffff167fddf252ad1be2c89b69c2b068fc378daa952ba7f163c4a11628f55a4df523b3ef84604051610a349190610f3d565b60405180910390a360019050919050565b60025f9054906101000a900473ffffffffffffffffffffffffffffffffffffffff1681565b5f60045f8373ffffffffffffffffffffffffffffffffffffffff1673ffffffffffffffffffffffffffffffffffffffff1681526020019081526020015f20549050919050565b60018054610abd9061108f565b80601f0160208091040260200160405190810160405280929190818152602001828054610ae99061108f565b8015610b345780601f10610b0b57610100808354040283529160200191610b34565b820191905f5260205f20905b815481529060010190602001808311610b1757829003601f168201915b505050505081565b5f808211610b7f576040517f08c379a0000000000000000000000000000000000000000000000000000000008152600401610b76906113a4565b60405180910390fd5b8160045f3373ffffffffffffffffffffffffffffffffffffffff1673ffffffffffffffffffffffffffffffffffffffff1681526020019081526020015f20541015610bff576040517f08c379a0000000000000000000000000000000000000000000000000000000008152600401610bf69061133c565b60405180910390fd5b8160045f3373ffffffffffffffffffffffffffffffffffffffff1673ffffffffffffffffffffffffffffffffffffffff1681526020019081526020015f205f828254610c4b9190611224565b925050819055508160045f8573ffffffffffffffffffffffffffffffffffffffff1673ffffffffffffffffffffffffffffffffffffffff1681526020019081526020015f205f828254610c9e9190611257565b925050819055508273ffffffffffffffffffffffffffffffffffffffff163373ffffffffffffffffffffffffffffffffffffffff167fddf252ad1be2c89b69c2b068fc378daa952ba7f163c4a11628f55a4df523b3ef84604051610d029190610f3d565b60405180910390a36001905092915050565b5f60055f8473ffffffffffffffffffffffffffffffffffffffff1673ffffffffffffffffffffffffffffffffffffffff1681526020019081526020015f205f8373ffffffffffffffffffffffffffffffffffffffff1673ffffffffffffffffffffffffffffffffffffffff1681526020019081526020015f2054905092915050565b60035481565b5f81519050919050565b5f82825260208201905092915050565b8281835e5f83830152505050565b5f601f19601f8301169050919050565b5f610dde82610d9c565b610de88185610da6565b9350610df8818560208601610db6565b610e0181610dc4565b840191505092915050565b5f6020820190508181035f830152610e248184610dd4565b905092915050565b5f80fd5b5f73ffffffffffffffffffffffffffffffffffffffff82169050919050565b5f610e5982610e30565b9050919050565b610e6981610e4f565b8114610e73575f80fd5b50565b5f81359050610e8481610e60565b92915050565b5f819050919050565b610e9c81610e8a565b8114610ea6575f80fd5b50565b5f81359050610eb781610e93565b92915050565b5f8060408385031215610ed357610ed2610e2c565b5b5f610ee085828601610e76565b9250506020610ef185828601610ea9565b9150509250929050565b5f8115159050919050565b610f0f81610efb565b82525050565b5f602082019050610f285f830184610f06565b92915050565b610f3781610e8a565b82525050565b5f602082019050610f505f830184610f2e565b92915050565b5f805f60608486031215610f6d57610f6c610e2c565b5b5f610f7a86828701610e76565b9350506020610f8b86828701610e76565b9250506040610f9c86828701610ea9565b9150509250925092565b5f60208284031215610fbb57610fba610e2c565b5b5f610fc884828501610ea9565b91505092915050565b610fda81610e4f565b82525050565b5f602082019050610ff35f830184610fd1565b92915050565b5f6020828403121561100e5761100d610e2c565b5b5f61101b84828501610e76565b91505092915050565b5f806040838503121561103a57611039610e2c565b5b5f61104785828601610e76565b925050602061105885828601610e76565b9150509250929050565b7f4e487b71000000000000000000000000000000000000000000000000000000005f52602260045260245ffd5b5f60028204905060018216806110a657607f821691505b6020821081036110b9576110b8611062565b5b50919050565b7f496e76616c696420616c6c6f77616e636520616d6f756e7400000000000000005f82015250565b5f6110f3601883610da6565b91506110fe826110bf565b602082019050919050565b5f6020820190508181035f830152611120816110e7565b9050919050565b7f496e73756666696369656e7420737570706c79000000000000000000000000005f82015250565b5f61115b601383610da6565b915061116682611127565b602082019050919050565b5f6020820190508181035f8301526111888161114f565b9050919050565b7f5468697320616d6f756e74206973206e6f7420616c6c6f7765640000000000005f82015250565b5f6111c3601a83610da6565b91506111ce8261118f565b602082019050919050565b5f6020820190508181035f8301526111f0816111b7565b9050919050565b7f4e487b71000000000000000000000000000000000000000000000000000000005f52601160045260245ffd5b5f61122e82610e8a565b915061123983610e8a565b9250828203905081811115611251576112506111f7565b5b92915050565b5f61126182610e8a565b915061126c83610e8a565b9250828201905080821115611284576112836111f7565b5b92915050565b7f556e617574686f72697a656400000000000000000000000000000000000000005f82015250565b5f6112be600c83610da6565b91506112c98261128a565b602082019050919050565b5f6020820190508181035f8301526112eb816112b2565b9050919050565b7f496e73756666696369656e742062616c616e63650000000000000000000000005f82015250565b5f611326601483610da6565b9150611331826112f2565b602082019050919050565b5f6020820190508181035f8301526113538161131a565b9050919050565b7f496e76616c6964207472616e7366657220616d6f756e740000000000000000005f82015250565b5f61138e601783610da6565b91506113998261135a565b602082019050919050565b5f6020820190508181035f8301526113bb81611382565b905091905056fea2646970667358221220252e4be256a9f60b7ff4b9936fe90d79e409881ac0cc01acdcf7c0a1485bcbdd64736f6c634300081a0033",
					"opcodes": "PUSH1 0x80 PUSH1 0x40 MSTORE CALLVALUE DUP1 ISZERO PUSH2 0xF JUMPI PUSH0 DUP1 REVERT JUMPDEST POP PUSH1 0x40 MLOAD PUSH2 0x19E4 CODESIZE SUB DUP1 PUSH2 0x19E4 DUP4 CODECOPY DUP2 DUP2 ADD PUSH1 0x40 MSTORE DUP2 ADD SWAP1 PUSH2 0x31 SWAP2 SWAP1 PUSH2 0x284 JUMP JUMPDEST DUP3 PUSH0 SWAP1 DUP2 PUSH2 0x3F SWAP2 SWAP1 PUSH2 0x510 JUMP JUMPDEST POP DUP2 PUSH1 0x1 SWAP1 DUP2 PUSH2 0x4F SWAP2 SWAP1 PUSH2 0x510 JUMP JUMPDEST POP CALLER PUSH1 0x2 PUSH0 PUSH2 0x100 EXP DUP2 SLOAD DUP2 PUSH20 0xFFFFFFFFFFFFFFFFFFFFFFFFFFFFFFFFFFFFFFFF MUL NOT AND SWAP1 DUP4 PUSH20 0xFFFFFFFFFFFFFFFFFFFFFFFFFFFFFFFFFFFFFFFF AND MUL OR SWAP1 SSTORE POP DUP1 PUSH1 0x3 DUP2 SWAP1 SSTORE POP PUSH1 0x3 SLOAD PUSH1 0x4 PUSH0 PUSH1 0x2 PUSH0 SWAP1 SLOAD SWAP1 PUSH2 0x100 EXP SWAP1 DIV PUSH20 0xFFFFFFFFFFFFFFFFFFFFFFFFFFFFFFFFFFFFFFFF AND PUSH20 0xFFFFFFFFFFFFFFFFFFFFFFFFFFFFFFFFFFFFFFFF AND PUSH20 0xFFFFFFFFFFFFFFFFFFFFFFFFFFFFFFFFFFFFFFFF AND DUP2 MSTORE PUSH1 0x20 ADD SWAP1 DUP2 MSTORE PUSH1 0x20 ADD PUSH0 KECCAK256 DUP2 SWAP1 SSTORE POP POP POP POP PUSH2 0x5DF JUMP JUMPDEST PUSH0 PUSH1 0x40 MLOAD SWAP1 POP SWAP1 JUMP JUMPDEST PUSH0 DUP1 REVERT JUMPDEST PUSH0 DUP1 REVERT JUMPDEST PUSH0 DUP1 REVERT JUMPDEST PUSH0 DUP1 REVERT JUMPDEST PUSH0 PUSH1 0x1F NOT PUSH1 0x1F DUP4 ADD AND SWAP1 POP SWAP2 SWAP1 POP JUMP JUMPDEST PUSH32 0x4E487B7100000000000000000000000000000000000000000000000000000000 PUSH0 MSTORE PUSH1 0x41 PUSH1 0x4 MSTORE PUSH1 0x24 PUSH0 REVERT JUMPDEST PUSH2 0x163 DUP3 PUSH2 0x11D JUMP JUMPDEST DUP2 ADD DUP2 DUP2 LT PUSH8 0xFFFFFFFFFFFFFFFF DUP3 GT OR ISZERO PUSH2 0x182 JUMPI PUSH2 0x181 PUSH2 0x12D JUMP JUMPDEST JUMPDEST DUP1 PUSH1 0x40 MSTORE POP POP POP JUMP JUMPDEST PUSH0 PUSH2 0x194 PUSH2 0x104 JUMP JUMPDEST SWAP1 POP PUSH2 0x1A0 DUP3 DUP3 PUSH2 0x15A JUMP JUMPDEST SWAP2 SWAP1 POP JUMP JUMPDEST PUSH0 PUSH8 0xFFFFFFFFFFFFFFFF DUP3 GT ISZERO PUSH2 0x1BF JUMPI PUSH2 0x1BE PUSH2 0x12D JUMP JUMPDEST JUMPDEST PUSH2 0x1C8 DUP3 PUSH2 0x11D JUMP JUMPDEST SWAP1 POP PUSH1 0x20 DUP2 ADD SWAP1 POP SWAP2 SWAP1 POP JUMP JUMPDEST DUP3 DUP2 DUP4 MCOPY PUSH0 DUP4 DUP4 ADD MSTORE POP POP POP JUMP JUMPDEST PUSH0 PUSH2 0x1F5 PUSH2 0x1F0 DUP5 PUSH2 0x1A5 JUMP JUMPDEST PUSH2 0x18B JUMP JUMPDEST SWAP1 POP DUP3 DUP2 MSTORE PUSH1 0x20 DUP2 ADD DUP5 DUP5 DUP5 ADD GT ISZERO PUSH2 0x211 JUMPI PUSH2 0x210 PUSH2 0x119 JUMP JUMPDEST JUMPDEST PUSH2 0x21C DUP5 DUP3 DUP6 PUSH2 0x1D5 JUMP JUMPDEST POP SWAP4 SWAP3 POP POP POP JUMP JUMPDEST PUSH0 DUP3 PUSH1 0x1F DUP4 ADD SLT PUSH2 0x238 JUMPI PUSH2 0x237 PUSH2 0x115 JUMP JUMPDEST JUMPDEST DUP2 MLOAD PUSH2 0x248 DUP5 DUP3 PUSH1 0x20 DUP7 ADD PUSH2 0x1E3 JUMP JUMPDEST SWAP2 POP POP SWAP3 SWAP2 POP POP JUMP JUMPDEST PUSH0 DUP2 SWAP1 POP SWAP2 SWAP1 POP JUMP JUMPDEST PUSH2 0x263 DUP2 PUSH2 0x251 JUMP JUMPDEST DUP2 EQ PUSH2 0x26D JUMPI PUSH0 DUP1 REVERT JUMPDEST POP JUMP JUMPDEST PUSH0 DUP2 MLOAD SWAP1 POP PUSH2 0x27E DUP2 PUSH2 0x25A JUMP JUMPDEST SWAP3 SWAP2 POP POP JUMP JUMPDEST PUSH0 DUP1 PUSH0 PUSH1 0x60 DUP5 DUP7 SUB SLT ISZERO PUSH2 0x29B JUMPI PUSH2 0x29A PUSH2 0x10D JUMP JUMPDEST JUMPDEST PUSH0 DUP5 ADD MLOAD PUSH8 0xFFFFFFFFFFFFFFFF DUP2 GT ISZERO PUSH2 0x2B8 JUMPI PUSH2 0x2B7 PUSH2 0x111 JUMP JUMPDEST JUMPDEST PUSH2 0x2C4 DUP7 DUP3 DUP8 ADD PUSH2 0x224 JUMP JUMPDEST SWAP4 POP POP PUSH1 0x20 DUP5 ADD MLOAD PUSH8 0xFFFFFFFFFFFFFFFF DUP2 GT ISZERO PUSH2 0x2E5 JUMPI PUSH2 0x2E4 PUSH2 0x111 JUMP JUMPDEST JUMPDEST PUSH2 0x2F1 DUP7 DUP3 DUP8 ADD PUSH2 0x224 JUMP JUMPDEST SWAP3 POP POP PUSH1 0x40 PUSH2 0x302 DUP7 DUP3 DUP8 ADD PUSH2 0x270 JUMP JUMPDEST SWAP2 POP POP SWAP3 POP SWAP3 POP SWAP3 JUMP JUMPDEST PUSH0 DUP2 MLOAD SWAP1 POP SWAP2 SWAP1 POP JUMP JUMPDEST PUSH32 0x4E487B7100000000000000000000000000000000000000000000000000000000 PUSH0 MSTORE PUSH1 0x22 PUSH1 0x4 MSTORE PUSH1 0x24 PUSH0 REVERT JUMPDEST PUSH0 PUSH1 0x2 DUP3 DIV SWAP1 POP PUSH1 0x1 DUP3 AND DUP1 PUSH2 0x35A JUMPI PUSH1 0x7F DUP3 AND SWAP2 POP JUMPDEST PUSH1 0x20 DUP3 LT DUP2 SUB PUSH2 0x36D JUMPI PUSH2 0x36C PUSH2 0x316 JUMP JUMPDEST JUMPDEST POP SWAP2 SWAP1 POP JUMP JUMPDEST PUSH0 DUP2 SWAP1 POP DUP2 PUSH0 MSTORE PUSH1 0x20 PUSH0 KECCAK256 SWAP1 POP SWAP2 SWAP1 POP JUMP JUMPDEST PUSH0 PUSH1 0x20 PUSH1 0x1F DUP4 ADD DIV SWAP1 POP SWAP2 SWAP1 POP JUMP JUMPDEST PUSH0 DUP3 DUP3 SHL SWAP1 POP SWAP3 SWAP2 POP POP JUMP JUMPDEST PUSH0 PUSH1 0x8 DUP4 MUL PUSH2 0x3CF PUSH32 0xFFFFFFFFFFFFFFFFFFFFFFFFFFFFFFFFFFFFFFFFFFFFFFFFFFFFFFFFFFFFFFFF DUP3 PUSH2 0x394 JUMP JUMPDEST PUSH2 0x3D9 DUP7 DUP4 PUSH2 0x394 JUMP JUMPDEST SWAP6 POP DUP1 NOT DUP5 AND SWAP4 POP DUP1 DUP7 AND DUP5 OR SWAP3 POP POP POP SWAP4 SWAP3 POP POP POP JUMP JUMPDEST PUSH0 DUP2 SWAP1 POP SWAP2 SWAP1 POP JUMP JUMPDEST PUSH0 PUSH2 0x414 PUSH2 0x40F PUSH2 0x40A DUP5 PUSH2 0x251 JUMP JUMPDEST PUSH2 0x3F1 JUMP JUMPDEST PUSH2 0x251 JUMP JUMPDEST SWAP1 POP SWAP2 SWAP1 POP JUMP JUMPDEST PUSH0 DUP2 SWAP1 POP SWAP2 SWAP1 POP JUMP JUMPDEST PUSH2 0x42D DUP4 PUSH2 0x3FA JUMP JUMPDEST PUSH2 0x441 PUSH2 0x439 DUP3 PUSH2 0x41B JUMP JUMPDEST DUP5 DUP5 SLOAD PUSH2 0x3A0 JUMP JUMPDEST DUP3 SSTORE POP POP POP POP JUMP JUMPDEST PUSH0 SWAP1 JUMP JUMPDEST PUSH2 0x455 PUSH2 0x449 JUMP JUMPDEST PUSH2 0x460 DUP2 DUP5 DUP5 PUSH2 0x424 JUMP JUMPDEST POP POP POP JUMP JUMPDEST JUMPDEST DUP2 DUP2 LT ISZERO PUSH2 0x483 JUMPI PUSH2 0x478 PUSH0 DUP3 PUSH2 0x44D JUMP JUMPDEST PUSH1 0x1 DUP2 ADD SWAP1 POP PUSH2 0x466 JUMP JUMPDEST POP POP JUMP JUMPDEST PUSH1 0x1F DUP3 GT ISZERO PUSH2 0x4C8 JUMPI PUSH2 0x499 DUP2 PUSH2 0x373 JUMP JUMPDEST PUSH2 0x4A2 DUP5 PUSH2 0x385 JUMP JUMPDEST DUP2 ADD PUSH1 0x20 DUP6 LT ISZERO PUSH2 0x4B1 JUMPI DUP2 SWAP1 POP JUMPDEST PUSH2 0x4C5 PUSH2 0x4BD DUP6 PUSH2 0x385 JUMP JUMPDEST DUP4 ADD DUP3 PUSH2 0x465 JUMP JUMPDEST POP POP JUMPDEST POP POP POP JUMP JUMPDEST PUSH0 DUP3 DUP3 SHR SWAP1 POP SWAP3 SWAP2 POP POP JUMP JUMPDEST PUSH0 PUSH2 0x4E8 PUSH0 NOT DUP5 PUSH1 0x8 MUL PUSH2 0x4CD JUMP JUMPDEST NOT DUP1 DUP4 AND SWAP2 POP POP SWAP3 SWAP2 POP POP JUMP JUMPDEST PUSH0 PUSH2 0x500 DUP4 DUP4 PUSH2 0x4D9 JUMP JUMPDEST SWAP2 POP DUP3 PUSH1 0x2 MUL DUP3 OR SWAP1 POP SWAP3 SWAP2 POP POP JUMP JUMPDEST PUSH2 0x519 DUP3 PUSH2 0x30C JUMP JUMPDEST PUSH8 0xFFFFFFFFFFFFFFFF DUP2 GT ISZERO PUSH2 0x532 JUMPI PUSH2 0x531 PUSH2 0x12D JUMP JUMPDEST JUMPDEST PUSH2 0x53C DUP3 SLOAD PUSH2 0x343 JUMP JUMPDEST PUSH2 0x547 DUP3 DUP3 DUP6 PUSH2 0x487 JUMP JUMPDEST PUSH0 PUSH1 0x20 SWAP1 POP PUSH1 0x1F DUP4 GT PUSH1 0x1 DUP2 EQ PUSH2 0x578 JUMPI PUSH0 DUP5 ISZERO PUSH2 0x566 JUMPI DUP3 DUP8 ADD MLOAD SWAP1 POP JUMPDEST PUSH2 0x570 DUP6 DUP3 PUSH2 0x4F5 JUMP JUMPDEST DUP7 SSTORE POP PUSH2 0x5D7 JUMP JUMPDEST PUSH1 0x1F NOT DUP5 AND PUSH2 0x586 DUP7 PUSH2 0x373 JUMP JUMPDEST PUSH0 JUMPDEST DUP3 DUP2 LT ISZERO PUSH2 0x5AD JUMPI DUP5 DUP10 ADD MLOAD DUP3 SSTORE PUSH1 0x1 DUP3 ADD SWAP2 POP PUSH1 0x20 DUP6 ADD SWAP5 POP PUSH1 0x20 DUP2 ADD SWAP1 POP PUSH2 0x588 JUMP JUMPDEST DUP7 DUP4 LT ISZERO PUSH2 0x5CA JUMPI DUP5 DUP10 ADD MLOAD PUSH2 0x5C6 PUSH1 0x1F DUP10 AND DUP3 PUSH2 0x4D9 JUMP JUMPDEST DUP4 SSTORE POP JUMPDEST PUSH1 0x1 PUSH1 0x2 DUP9 MUL ADD DUP9 SSTORE POP POP POP JUMPDEST POP POP POP POP POP POP JUMP JUMPDEST PUSH2 0x13F8 DUP1 PUSH2 0x5EC PUSH0 CODECOPY PUSH0 RETURN INVALID PUSH1 0x80 PUSH1 0x40 MSTORE CALLVALUE DUP1 ISZERO PUSH2 0xF JUMPI PUSH0 DUP1 REVERT JUMPDEST POP PUSH1 0x4 CALLDATASIZE LT PUSH2 0xB2 JUMPI PUSH0 CALLDATALOAD PUSH1 0xE0 SHR DUP1 PUSH4 0x4D853EE5 GT PUSH2 0x6F JUMPI DUP1 PUSH4 0x4D853EE5 EQ PUSH2 0x1B2 JUMPI DUP1 PUSH4 0x70A08231 EQ PUSH2 0x1D0 JUMPI DUP1 PUSH4 0x95D89B41 EQ PUSH2 0x200 JUMPI DUP1 PUSH4 0xA9059CBB EQ PUSH2 0x21E JUMPI DUP1 PUSH4 0xDD62ED3E EQ PUSH2 0x24E JUMPI DUP1 PUSH4 0xF7ABAB9E EQ PUSH2 0x27E JUMPI PUSH2 0xB2 JUMP JUMPDEST DUP1 PUSH4 0x6FDDE03 EQ PUSH2 0xB6 JUMPI DUP1 PUSH4 0x95EA7B3 EQ PUSH2 0xD4 JUMPI DUP1 PUSH4 0x18160DDD EQ PUSH2 0x104 JUMPI DUP1 PUSH4 0x23B872DD EQ PUSH2 0x122 JUMPI DUP1 PUSH4 0x40C10F19 EQ PUSH2 0x152 JUMPI DUP1 PUSH4 0x42966C68 EQ PUSH2 0x182 JUMPI JUMPDEST PUSH0 DUP1 REVERT JUMPDEST PUSH2 0xBE PUSH2 0x29C JUMP JUMPDEST PUSH1 0x40 MLOAD PUSH2 0xCB SWAP2 SWAP1 PUSH2 0xE0C JUMP JUMPDEST PUSH1 0x40 MLOAD DUP1 SWAP2 SUB SWAP1 RETURN JUMPDEST PUSH2 0xEE PUSH1 0x4 DUP1 CALLDATASIZE SUB DUP2 ADD SWAP1 PUSH2 0xE9 SWAP2 SWAP1 PUSH2 0xEBD JUMP JUMPDEST PUSH2 0x327 JUMP JUMPDEST PUSH1 0x40 MLOAD PUSH2 0xFB SWAP2 SWAP1 PUSH2 0xF15 JUMP JUMPDEST PUSH1 0x40 MLOAD DUP1 SWAP2 SUB SWAP1 RETURN JUMPDEST PUSH2 0x10C PUSH2 0x456 JUMP JUMPDEST PUSH1 0x40 MLOAD PUSH2 0x119 SWAP2 SWAP1 PUSH2 0xF3D JUMP JUMPDEST PUSH1 0x40 MLOAD DUP1 SWAP2 SUB SWAP1 RETURN JUMPDEST PUSH2 0x13C PUSH1 0x4 DUP1 CALLDATASIZE SUB DUP2 ADD SWAP1 PUSH2 0x137 SWAP2 SWAP1 PUSH2 0xF56 JUMP JUMPDEST PUSH2 0x45F JUMP JUMPDEST PUSH1 0x40 MLOAD PUSH2 0x149 SWAP2 SWAP1 PUSH2 0xF15 JUMP JUMPDEST PUSH1 0x40 MLOAD DUP1 SWAP2 SUB SWAP1 RETURN JUMPDEST PUSH2 0x16C PUSH1 0x4 DUP1 CALLDATASIZE SUB DUP2 ADD SWAP1 PUSH2 0x167 SWAP2 SWAP1 PUSH2 0xEBD JUMP JUMPDEST PUSH2 0x781 JUMP JUMPDEST PUSH1 0x40 MLOAD PUSH2 0x179 SWAP2 SWAP1 PUSH2 0xF15 JUMP JUMPDEST PUSH1 0x40 MLOAD DUP1 SWAP2 SUB SWAP1 RETURN JUMPDEST PUSH2 0x19C PUSH1 0x4 DUP1 CALLDATASIZE SUB DUP2 ADD SWAP1 PUSH2 0x197 SWAP2 SWAP1 PUSH2 0xFA6 JUMP JUMPDEST PUSH2 0x8EB JUMP JUMPDEST PUSH1 0x40 MLOAD PUSH2 0x1A9 SWAP2 SWAP1 PUSH2 0xF15 JUMP JUMPDEST PUSH1 0x40 MLOAD DUP1 SWAP2 SUB SWAP1 RETURN JUMPDEST PUSH2 0x1BA PUSH2 0xA45 JUMP JUMPDEST PUSH1 0x40 MLOAD PUSH2 0x1C7 SWAP2 SWAP1 PUSH2 0xFE0 JUMP JUMPDEST PUSH1 0x40 MLOAD DUP1 SWAP2 SUB SWAP1 RETURN JUMPDEST PUSH2 0x1EA PUSH1 0x4 DUP1 CALLDATASIZE SUB DUP2 ADD SWAP1 PUSH2 0x1E5 SWAP2 SWAP1 PUSH2 0xFF9 JUMP JUMPDEST PUSH2 0xA6A JUMP JUMPDEST PUSH1 0x40 MLOAD PUSH2 0x1F7 SWAP2 SWAP1 PUSH2 0xF3D JUMP JUMPDEST PUSH1 0x40 MLOAD DUP1 SWAP2 SUB SWAP1 RETURN JUMPDEST PUSH2 0x208 PUSH2 0xAB0 JUMP JUMPDEST PUSH1 0x40 MLOAD PUSH2 0x215 SWAP2 SWAP1 PUSH2 0xE0C JUMP JUMPDEST PUSH1 0x40 MLOAD DUP1 SWAP2 SUB SWAP1 RETURN JUMPDEST PUSH2 0x238 PUSH1 0x4 DUP1 CALLDATASIZE SUB DUP2 ADD SWAP1 PUSH2 0x233 SWAP2 SWAP1 PUSH2 0xEBD JUMP JUMPDEST PUSH2 0xB3C JUMP JUMPDEST PUSH1 0x40 MLOAD PUSH2 0x245 SWAP2 SWAP1 PUSH2 0xF15 JUMP JUMPDEST PUSH1 0x40 MLOAD DUP1 SWAP2 SUB SWAP1 RETURN JUMPDEST PUSH2 0x268 PUSH1 0x4 DUP1 CALLDATASIZE SUB DUP2 ADD SWAP1 PUSH2 0x263 SWAP2 SWAP1 PUSH2 0x1024 JUMP JUMPDEST PUSH2 0xD14 JUMP JUMPDEST PUSH1 0x40 MLOAD PUSH2 0x275 SWAP2 SWAP1 PUSH2 0xF3D JUMP JUMPDEST PUSH1 0x40 MLOAD DUP1 SWAP2 SUB SWAP1 RETURN JUMPDEST PUSH2 0x286 PUSH2 0xD96 JUMP JUMPDEST PUSH1 0x40 MLOAD PUSH2 0x293 SWAP2 SWAP1 PUSH2 0xF3D JUMP JUMPDEST PUSH1 0x40 MLOAD DUP1 SWAP2 SUB SWAP1 RETURN JUMPDEST PUSH0 DUP1 SLOAD PUSH2 0x2A8 SWAP1 PUSH2 0x108F JUMP JUMPDEST DUP1 PUSH1 0x1F ADD PUSH1 0x20 DUP1 SWAP2 DIV MUL PUSH1 0x20 ADD PUSH1 0x40 MLOAD SWAP1 DUP2 ADD PUSH1 0x40 MSTORE DUP1 SWAP3 SWAP2 SWAP1 DUP2 DUP2 MSTORE PUSH1 0x20 ADD DUP3 DUP1 SLOAD PUSH2 0x2D4 SWAP1 PUSH2 0x108F JUMP JUMPDEST DUP1 ISZERO PUSH2 0x31F JUMPI DUP1 PUSH1 0x1F LT PUSH2 0x2F6 JUMPI PUSH2 0x100 DUP1 DUP4 SLOAD DIV MUL DUP4 MSTORE SWAP2 PUSH1 0x20 ADD SWAP2 PUSH2 0x31F JUMP JUMPDEST DUP3 ADD SWAP2 SWAP1 PUSH0 MSTORE PUSH1 0x20 PUSH0 KECCAK256 SWAP1 JUMPDEST DUP2 SLOAD DUP2 MSTORE SWAP1 PUSH1 0x1 ADD SWAP1 PUSH1 0x20 ADD DUP1 DUP4 GT PUSH2 0x302 JUMPI DUP3 SWAP1 SUB PUSH1 0x1F AND DUP3 ADD SWAP2 JUMPDEST POP POP POP POP POP DUP2 JUMP JUMPDEST PUSH0 DUP1 DUP3 GT PUSH2 0x36A JUMPI PUSH1 0x40 MLOAD PUSH32 0x8C379A000000000000000000000000000000000000000000000000000000000 DUP2 MSTORE PUSH1 0x4 ADD PUSH2 0x361 SWAP1 PUSH2 0x1109 JUMP JUMPDEST PUSH1 0x40 MLOAD DUP1 SWAP2 SUB SWAP1 REVERT JUMPDEST DUP2 PUSH1 0x5 PUSH0 CALLER PUSH20 0xFFFFFFFFFFFFFFFFFFFFFFFFFFFFFFFFFFFFFFFF AND PUSH20 0xFFFFFFFFFFFFFFFFFFFFFFFFFFFFFFFFFFFFFFFF AND DUP2 MSTORE PUSH1 0x20 ADD SWAP1 DUP2 MSTORE PUSH1 0x20 ADD PUSH0 KECCAK256 PUSH0 DUP6 PUSH20 0xFFFFFFFFFFFFFFFFFFFFFFFFFFFFFFFFFFFFFFFF AND PUSH20 0xFFFFFFFFFFFFFFFFFFFFFFFFFFFFFFFFFFFFFFFF AND DUP2 MSTORE PUSH1 0x20 ADD SWAP1 DUP2 MSTORE PUSH1 0x20 ADD PUSH0 KECCAK256 DUP2 SWAP1 SSTORE POP DUP3 PUSH20 0xFFFFFFFFFFFFFFFFFFFFFFFFFFFFFFFFFFFFFFFF AND CALLER PUSH20 0xFFFFFFFFFFFFFFFFFFFFFFFFFFFFFFFFFFFFFFFF AND PUSH32 0x8C5BE1E5EBEC7D5BD14F71427D1E84F3DD0314C0F7B2291E5B200AC8C7C3B925 DUP5 PUSH1 0x40 MLOAD PUSH2 0x444 SWAP2 SWAP1 PUSH2 0xF3D JUMP JUMPDEST PUSH1 0x40 MLOAD DUP1 SWAP2 SUB SWAP1 LOG3 PUSH1 0x1 SWAP1 POP SWAP3 SWAP2 POP POP JUMP JUMPDEST PUSH0 PUSH1 0x3 SLOAD SWAP1 POP SWAP1 JUMP JUMPDEST PUSH0 DUP1 DUP3 GT PUSH2 0x4A2 JUMPI PUSH1 0x40 MLOAD PUSH32 0x8C379A000000000000000000000000000000000000000000000000000000000 DUP2 MSTORE PUSH1 0x4 ADD PUSH2 0x499 SWAP1 PUSH2 0x1109 JUMP JUMPDEST PUSH1 0x40 MLOAD DUP1 SWAP2 SUB SWAP1 REVERT JUMPDEST DUP2 PUSH1 0x4 PUSH0 DUP7 PUSH20 0xFFFFFFFFFFFFFFFFFFFFFFFFFFFFFFFFFFFFFFFF AND PUSH20 0xFFFFFFFFFFFFFFFFFFFFFFFFFFFFFFFFFFFFFFFF AND DUP2 MSTORE PUSH1 0x20 ADD SWAP1 DUP2 MSTORE PUSH1 0x20 ADD PUSH0 KECCAK256 SLOAD LT ISZERO PUSH2 0x522 JUMPI PUSH1 0x40 MLOAD PUSH32 0x8C379A000000000000000000000000000000000000000000000000000000000 DUP2 MSTORE PUSH1 0x4 ADD PUSH2 0x519 SWAP1 PUSH2 0x1171 JUMP JUMPDEST PUSH1 0x40 MLOAD DUP1 SWAP2 SUB SWAP1 REVERT JUMPDEST PUSH1 0x5 PUSH0 DUP6 PUSH20 0xFFFFFFFFFFFFFFFFFFFFFFFFFFFFFFFFFFFFFFFF AND PUSH20 0xFFFFFFFFFFFFFFFFFFFFFFFFFFFFFFFFFFFFFFFF AND DUP2 MSTORE PUSH1 0x20 ADD SWAP1 DUP2 MSTORE PUSH1 0x20 ADD PUSH0 KECCAK256 PUSH0 DUP5 PUSH20 0xFFFFFFFFFFFFFFFFFFFFFFFFFFFFFFFFFFFFFFFF AND PUSH20 0xFFFFFFFFFFFFFFFFFFFFFFFFFFFFFFFFFFFFFFFF AND DUP2 MSTORE PUSH1 0x20 ADD SWAP1 DUP2 MSTORE PUSH1 0x20 ADD PUSH0 KECCAK256 SLOAD DUP3 GT ISZERO PUSH2 0x5DD JUMPI PUSH1 0x40 MLOAD PUSH32 0x8C379A000000000000000000000000000000000000000000000000000000000 DUP2 MSTORE PUSH1 0x4 ADD PUSH2 0x5D4 SWAP1 PUSH2 0x11D9 JUMP JUMPDEST PUSH1 0x40 MLOAD DUP1 SWAP2 SUB SWAP1 REVERT JUMPDEST DUP2 PUSH1 0x5 PUSH0 DUP7 PUSH20 0xFFFFFFFFFFFFFFFFFFFFFFFFFFFFFFFFFFFFFFFF AND PUSH20 0xFFFFFFFFFFFFFFFFFFFFFFFFFFFFFFFFFFFFFFFF AND DUP2 MSTORE PUSH1 0x20 ADD SWAP1 DUP2 MSTORE PUSH1 0x20 ADD PUSH0 KECCAK256 PUSH0 DUP6 PUSH20 0xFFFFFFFFFFFFFFFFFFFFFFFFFFFFFFFFFFFFFFFF AND PUSH20 0xFFFFFFFFFFFFFFFFFFFFFFFFFFFFFFFFFFFFFFFF AND DUP2 MSTORE PUSH1 0x20 ADD SWAP1 DUP2 MSTORE PUSH1 0x20 ADD PUSH0 KECCAK256 PUSH0 DUP3 DUP3 SLOAD PUSH2 0x664 SWAP2 SWAP1 PUSH2 0x1224 JUMP JUMPDEST SWAP3 POP POP DUP2 SWAP1 SSTORE POP DUP2 PUSH1 0x4 PUSH0 DUP7 PUSH20 0xFFFFFFFFFFFFFFFFFFFFFFFFFFFFFFFFFFFFFFFF AND PUSH20 0xFFFFFFFFFFFFFFFFFFFFFFFFFFFFFFFFFFFFFFFF AND DUP2 MSTORE PUSH1 0x20 ADD SWAP1 DUP2 MSTORE PUSH1 0x20 ADD PUSH0 KECCAK256 PUSH0 DUP3 DUP3 SLOAD PUSH2 0x6B7 SWAP2 SWAP1 PUSH2 0x1224 JUMP JUMPDEST SWAP3 POP POP DUP2 SWAP1 SSTORE POP DUP2 PUSH1 0x4 PUSH0 DUP6 PUSH20 0xFFFFFFFFFFFFFFFFFFFFFFFFFFFFFFFFFFFFFFFF AND PUSH20 0xFFFFFFFFFFFFFFFFFFFFFFFFFFFFFFFFFFFFFFFF AND DUP2 MSTORE PUSH1 0x20 ADD SWAP1 DUP2 MSTORE PUSH1 0x20 ADD PUSH0 KECCAK256 PUSH0 DUP3 DUP3 SLOAD PUSH2 0x70A SWAP2 SWAP1 PUSH2 0x1257 JUMP JUMPDEST SWAP3 POP POP DUP2 SWAP1 SSTORE POP DUP3 PUSH20 0xFFFFFFFFFFFFFFFFFFFFFFFFFFFFFFFFFFFFFFFF AND DUP5 PUSH20 0xFFFFFFFFFFFFFFFFFFFFFFFFFFFFFFFFFFFFFFFF AND PUSH32 0xDDF252AD1BE2C89B69C2B068FC378DAA952BA7F163C4A11628F55A4DF523B3EF DUP5 PUSH1 0x40 MLOAD PUSH2 0x76E SWAP2 SWAP1 PUSH2 0xF3D JUMP JUMPDEST PUSH1 0x40 MLOAD DUP1 SWAP2 SUB SWAP1 LOG3 PUSH1 0x1 SWAP1 POP SWAP4 SWAP3 POP POP POP JUMP JUMPDEST PUSH0 PUSH1 0x2 PUSH0 SWAP1 SLOAD SWAP1 PUSH2 0x100 EXP SWAP1 DIV PUSH20 0xFFFFFFFFFFFFFFFFFFFFFFFFFFFFFFFFFFFFFFFF AND PUSH20 0xFFFFFFFFFFFFFFFFFFFFFFFFFFFFFFFFFFFFFFFF AND CALLER PUSH20 0xFFFFFFFFFFFFFFFFFFFFFFFFFFFFFFFFFFFFFFFF AND EQ PUSH2 0x811 JUMPI PUSH1 0x40 MLOAD PUSH32 0x8C379A000000000000000000000000000000000000000000000000000000000 DUP2 MSTORE PUSH1 0x4 ADD PUSH2 0x808 SWAP1 PUSH2 0x12D4 JUMP JUMPDEST PUSH1 0x40 MLOAD DUP1 SWAP2 SUB SWAP1 REVERT JUMPDEST DUP2 PUSH1 0x4 PUSH0 DUP6 PUSH20 0xFFFFFFFFFFFFFFFFFFFFFFFFFFFFFFFFFFFFFFFF AND PUSH20 0xFFFFFFFFFFFFFFFFFFFFFFFFFFFFFFFFFFFFFFFF AND DUP2 MSTORE PUSH1 0x20 ADD SWAP1 DUP2 MSTORE PUSH1 0x20 ADD PUSH0 KECCAK256 PUSH0 DUP3 DUP3 SLOAD PUSH2 0x85D SWAP2 SWAP1 PUSH2 0x1257 JUMP JUMPDEST SWAP3 POP POP DUP2 SWAP1 SSTORE POP DUP2 PUSH1 0x3 PUSH0 DUP3 DUP3 SLOAD PUSH2 0x875 SWAP2 SWAP1 PUSH2 0x1257 JUMP JUMPDEST SWAP3 POP POP DUP2 SWAP1 SSTORE POP DUP3 PUSH20 0xFFFFFFFFFFFFFFFFFFFFFFFFFFFFFFFFFFFFFFFF AND PUSH0 PUSH20 0xFFFFFFFFFFFFFFFFFFFFFFFFFFFFFFFFFFFFFFFF AND PUSH32 0xDDF252AD1BE2C89B69C2B068FC378DAA952BA7F163C4A11628F55A4DF523B3EF DUP5 PUSH1 0x40 MLOAD PUSH2 0x8D9 SWAP2 SWAP1 PUSH2 0xF3D JUMP JUMPDEST PUSH1 0x40 MLOAD DUP1 SWAP2 SUB SWAP1 LOG3 PUSH1 0x1 SWAP1 POP SWAP3 SWAP2 POP POP JUMP JUMPDEST PUSH0 DUP2 PUSH1 0x4 PUSH0 CALLER PUSH20 0xFFFFFFFFFFFFFFFFFFFFFFFFFFFFFFFFFFFFFFFF AND PUSH20 0xFFFFFFFFFFFFFFFFFFFFFFFFFFFFFFFFFFFFFFFF AND DUP2 MSTORE PUSH1 0x20 ADD SWAP1 DUP2 MSTORE PUSH1 0x20 ADD PUSH0 KECCAK256 SLOAD LT ISZERO PUSH2 0x96C JUMPI PUSH1 0x40 MLOAD PUSH32 0x8C379A000000000000000000000000000000000000000000000000000000000 DUP2 MSTORE PUSH1 0x4 ADD PUSH2 0x963 SWAP1 PUSH2 0x133C JUMP JUMPDEST PUSH1 0x40 MLOAD DUP1 SWAP2 SUB SWAP1 REVERT JUMPDEST DUP2 PUSH1 0x4 PUSH0 CALLER PUSH20 0xFFFFFFFFFFFFFFFFFFFFFFFFFFFFFFFFFFFFFFFF AND PUSH20 0xFFFFFFFFFFFFFFFFFFFFFFFFFFFFFFFFFFFFFFFF AND DUP2 MSTORE PUSH1 0x20 ADD SWAP1 DUP2 MSTORE PUSH1 0x20 ADD PUSH0 KECCAK256 PUSH0 DUP3 DUP3 SLOAD PUSH2 0x9B8 SWAP2 SWAP1 PUSH2 0x1224 JUMP JUMPDEST SWAP3 POP POP DUP2 SWAP1 SSTORE POP DUP2 PUSH1 0x3 PUSH0 DUP3 DUP3 SLOAD PUSH2 0x9D0 SWAP2 SWAP1 PUSH2 0x1224 JUMP JUMPDEST SWAP3 POP POP DUP2 SWAP1 SSTORE POP PUSH0 PUSH20 0xFFFFFFFFFFFFFFFFFFFFFFFFFFFFFFFFFFFFFFFF AND CALLER PUSH20 0xFFFFFFFFFFFFFFFFFFFFFFFFFFFFFFFFFFFFFFFF AND PUSH32 0xDDF252AD1BE2C89B69C2B068FC378DAA952BA7F163C4A11628F55A4DF523B3EF DUP5 PUSH1 0x40 MLOAD PUSH2 0xA34 SWAP2 SWAP1 PUSH2 0xF3D JUMP JUMPDEST PUSH1 0x40 MLOAD DUP1 SWAP2 SUB SWAP1 LOG3 PUSH1 0x1 SWAP1 POP SWAP2 SWAP1 POP JUMP JUMPDEST PUSH1 0x2 PUSH0 SWAP1 SLOAD SWAP1 PUSH2 0x100 EXP SWAP1 DIV PUSH20 0xFFFFFFFFFFFFFFFFFFFFFFFFFFFFFFFFFFFFFFFF AND DUP2 JUMP JUMPDEST PUSH0 PUSH1 0x4 PUSH0 DUP4 PUSH20 0xFFFFFFFFFFFFFFFFFFFFFFFFFFFFFFFFFFFFFFFF AND PUSH20 0xFFFFFFFFFFFFFFFFFFFFFFFFFFFFFFFFFFFFFFFF AND DUP2 MSTORE PUSH1 0x20 ADD SWAP1 DUP2 MSTORE PUSH1 0x20 ADD PUSH0 KECCAK256 SLOAD SWAP1 POP SWAP2 SWAP1 POP JUMP JUMPDEST PUSH1 0x1 DUP1 SLOAD PUSH2 0xABD SWAP1 PUSH2 0x108F JUMP JUMPDEST DUP1 PUSH1 0x1F ADD PUSH1 0x20 DUP1 SWAP2 DIV MUL PUSH1 0x20 ADD PUSH1 0x40 MLOAD SWAP1 DUP2 ADD PUSH1 0x40 MSTORE DUP1 SWAP3 SWAP2 SWAP1 DUP2 DUP2 MSTORE PUSH1 0x20 ADD DUP3 DUP1 SLOAD PUSH2 0xAE9 SWAP1 PUSH2 0x108F JUMP JUMPDEST DUP1 ISZERO PUSH2 0xB34 JUMPI DUP1 PUSH1 0x1F LT PUSH2 0xB0B JUMPI PUSH2 0x100 DUP1 DUP4 SLOAD DIV MUL DUP4 MSTORE SWAP2 PUSH1 0x20 ADD SWAP2 PUSH2 0xB34 JUMP JUMPDEST DUP3 ADD SWAP2 SWAP1 PUSH0 MSTORE PUSH1 0x20 PUSH0 KECCAK256 SWAP1 JUMPDEST DUP2 SLOAD DUP2 MSTORE SWAP1 PUSH1 0x1 ADD SWAP1 PUSH1 0x20 ADD DUP1 DUP4 GT PUSH2 0xB17 JUMPI DUP3 SWAP1 SUB PUSH1 0x1F AND DUP3 ADD SWAP2 JUMPDEST POP POP POP POP POP DUP2 JUMP JUMPDEST PUSH0 DUP1 DUP3 GT PUSH2 0xB7F JUMPI PUSH1 0x40 MLOAD PUSH32 0x8C379A000000000000000000000000000000000000000000000000000000000 DUP2 MSTORE PUSH1 0x4 ADD PUSH2 0xB76 SWAP1 PUSH2 0x13A4 JUMP JUMPDEST PUSH1 0x40 MLOAD DUP1 SWAP2 SUB SWAP1 REVERT JUMPDEST DUP2 PUSH1 0x4 PUSH0 CALLER PUSH20 0xFFFFFFFFFFFFFFFFFFFFFFFFFFFFFFFFFFFFFFFF AND PUSH20 0xFFFFFFFFFFFFFFFFFFFFFFFFFFFFFFFFFFFFFFFF AND DUP2 MSTORE PUSH1 0x20 ADD SWAP1 DUP2 MSTORE PUSH1 0x20 ADD PUSH0 KECCAK256 SLOAD LT ISZERO PUSH2 0xBFF JUMPI PUSH1 0x40 MLOAD PUSH32 0x8C379A000000000000000000000000000000000000000000000000000000000 DUP2 MSTORE PUSH1 0x4 ADD PUSH2 0xBF6 SWAP1 PUSH2 0x133C JUMP JUMPDEST PUSH1 0x40 MLOAD DUP1 SWAP2 SUB SWAP1 REVERT JUMPDEST DUP2 PUSH1 0x4 PUSH0 CALLER PUSH20 0xFFFFFFFFFFFFFFFFFFFFFFFFFFFFFFFFFFFFFFFF AND PUSH20 0xFFFFFFFFFFFFFFFFFFFFFFFFFFFFFFFFFFFFFFFF AND DUP2 MSTORE PUSH1 0x20 ADD SWAP1 DUP2 MSTORE PUSH1 0x20 ADD PUSH0 KECCAK256 PUSH0 DUP3 DUP3 SLOAD PUSH2 0xC4B SWAP2 SWAP1 PUSH2 0x1224 JUMP JUMPDEST SWAP3 POP POP DUP2 SWAP1 SSTORE POP DUP2 PUSH1 0x4 PUSH0 DUP6 PUSH20 0xFFFFFFFFFFFFFFFFFFFFFFFFFFFFFFFFFFFFFFFF AND PUSH20 0xFFFFFFFFFFFFFFFFFFFFFFFFFFFFFFFFFFFFFFFF AND DUP2 MSTORE PUSH1 0x20 ADD SWAP1 DUP2 MSTORE PUSH1 0x20 ADD PUSH0 KECCAK256 PUSH0 DUP3 DUP3 SLOAD PUSH2 0xC9E SWAP2 SWAP1 PUSH2 0x1257 JUMP JUMPDEST SWAP3 POP POP DUP2 SWAP1 SSTORE POP DUP3 PUSH20 0xFFFFFFFFFFFFFFFFFFFFFFFFFFFFFFFFFFFFFFFF AND CALLER PUSH20 0xFFFFFFFFFFFFFFFFFFFFFFFFFFFFFFFFFFFFFFFF AND PUSH32 0xDDF252AD1BE2C89B69C2B068FC378DAA952BA7F163C4A11628F55A4DF523B3EF DUP5 PUSH1 0x40 MLOAD PUSH2 0xD02 SWAP2 SWAP1 PUSH2 0xF3D JUMP JUMPDEST PUSH1 0x40 MLOAD DUP1 SWAP2 SUB SWAP1 LOG3 PUSH1 0x1 SWAP1 POP SWAP3 SWAP2 POP POP JUMP JUMPDEST PUSH0 PUSH1 0x5 PUSH0 DUP5 PUSH20 0xFFFFFFFFFFFFFFFFFFFFFFFFFFFFFFFFFFFFFFFF AND PUSH20 0xFFFFFFFFFFFFFFFFFFFFFFFFFFFFFFFFFFFFFFFF AND DUP2 MSTORE PUSH1 0x20 ADD SWAP1 DUP2 MSTORE PUSH1 0x20 ADD PUSH0 KECCAK256 PUSH0 DUP4 PUSH20 0xFFFFFFFFFFFFFFFFFFFFFFFFFFFFFFFFFFFFFFFF AND PUSH20 0xFFFFFFFFFFFFFFFFFFFFFFFFFFFFFFFFFFFFFFFF AND DUP2 MSTORE PUSH1 0x20 ADD SWAP1 DUP2 MSTORE PUSH1 0x20 ADD PUSH0 KECCAK256 SLOAD SWAP1 POP SWAP3 SWAP2 POP POP JUMP JUMPDEST PUSH1 0x3 SLOAD DUP2 JUMP JUMPDEST PUSH0 DUP2 MLOAD SWAP1 POP SWAP2 SWAP1 POP JUMP JUMPDEST PUSH0 DUP3 DUP3 MSTORE PUSH1 0x20 DUP3 ADD SWAP1 POP SWAP3 SWAP2 POP POP JUMP JUMPDEST DUP3 DUP2 DUP4 MCOPY PUSH0 DUP4 DUP4 ADD MSTORE POP POP POP JUMP JUMPDEST PUSH0 PUSH1 0x1F NOT PUSH1 0x1F DUP4 ADD AND SWAP1 POP SWAP2 SWAP1 POP JUMP JUMPDEST PUSH0 PUSH2 0xDDE DUP3 PUSH2 0xD9C JUMP JUMPDEST PUSH2 0xDE8 DUP2 DUP6 PUSH2 0xDA6 JUMP JUMPDEST SWAP4 POP PUSH2 0xDF8 DUP2 DUP6 PUSH1 0x20 DUP7 ADD PUSH2 0xDB6 JUMP JUMPDEST PUSH2 0xE01 DUP2 PUSH2 0xDC4 JUMP JUMPDEST DUP5 ADD SWAP2 POP POP SWAP3 SWAP2 POP POP JUMP JUMPDEST PUSH0 PUSH1 0x20 DUP3 ADD SWAP1 POP DUP2 DUP2 SUB PUSH0 DUP4 ADD MSTORE PUSH2 0xE24 DUP2 DUP5 PUSH2 0xDD4 JUMP JUMPDEST SWAP1 POP SWAP3 SWAP2 POP POP JUMP JUMPDEST PUSH0 DUP1 REVERT JUMPDEST PUSH0 PUSH20 0xFFFFFFFFFFFFFFFFFFFFFFFFFFFFFFFFFFFFFFFF DUP3 AND SWAP1 POP SWAP2 SWAP1 POP JUMP JUMPDEST PUSH0 PUSH2 0xE59 DUP3 PUSH2 0xE30 JUMP JUMPDEST SWAP1 POP SWAP2 SWAP1 POP JUMP JUMPDEST PUSH2 0xE69 DUP2 PUSH2 0xE4F JUMP JUMPDEST DUP2 EQ PUSH2 0xE73 JUMPI PUSH0 DUP1 REVERT JUMPDEST POP JUMP JUMPDEST PUSH0 DUP2 CALLDATALOAD SWAP1 POP PUSH2 0xE84 DUP2 PUSH2 0xE60 JUMP JUMPDEST SWAP3 SWAP2 POP POP JUMP JUMPDEST PUSH0 DUP2 SWAP1 POP SWAP2 SWAP1 POP JUMP JUMPDEST PUSH2 0xE9C DUP2 PUSH2 0xE8A JUMP JUMPDEST DUP2 EQ PUSH2 0xEA6 JUMPI PUSH0 DUP1 REVERT JUMPDEST POP JUMP JUMPDEST PUSH0 DUP2 CALLDATALOAD SWAP1 POP PUSH2 0xEB7 DUP2 PUSH2 0xE93 JUMP JUMPDEST SWAP3 SWAP2 POP POP JUMP JUMPDEST PUSH0 DUP1 PUSH1 0x40 DUP4 DUP6 SUB SLT ISZERO PUSH2 0xED3 JUMPI PUSH2 0xED2 PUSH2 0xE2C JUMP JUMPDEST JUMPDEST PUSH0 PUSH2 0xEE0 DUP6 DUP3 DUP7 ADD PUSH2 0xE76 JUMP JUMPDEST SWAP3 POP POP PUSH1 0x20 PUSH2 0xEF1 DUP6 DUP3 DUP7 ADD PUSH2 0xEA9 JUMP JUMPDEST SWAP2 POP POP SWAP3 POP SWAP3 SWAP1 POP JUMP JUMPDEST PUSH0 DUP2 ISZERO ISZERO SWAP1 POP SWAP2 SWAP1 POP JUMP JUMPDEST PUSH2 0xF0F DUP2 PUSH2 0xEFB JUMP JUMPDEST DUP3 MSTORE POP POP JUMP JUMPDEST PUSH0 PUSH1 0x20 DUP3 ADD SWAP1 POP PUSH2 0xF28 PUSH0 DUP4 ADD DUP5 PUSH2 0xF06 JUMP JUMPDEST SWAP3 SWAP2 POP POP JUMP JUMPDEST PUSH2 0xF37 DUP2 PUSH2 0xE8A JUMP JUMPDEST DUP3 MSTORE POP POP JUMP JUMPDEST PUSH0 PUSH1 0x20 DUP3 ADD SWAP1 POP PUSH2 0xF50 PUSH0 DUP4 ADD DUP5 PUSH2 0xF2E JUMP JUMPDEST SWAP3 SWAP2 POP POP JUMP JUMPDEST PUSH0 DUP1 PUSH0 PUSH1 0x60 DUP5 DUP7 SUB SLT ISZERO PUSH2 0xF6D JUMPI PUSH2 0xF6C PUSH2 0xE2C JUMP JUMPDEST JUMPDEST PUSH0 PUSH2 0xF7A DUP7 DUP3 DUP8 ADD PUSH2 0xE76 JUMP JUMPDEST SWAP4 POP POP PUSH1 0x20 PUSH2 0xF8B DUP7 DUP3 DUP8 ADD PUSH2 0xE76 JUMP JUMPDEST SWAP3 POP POP PUSH1 0x40 PUSH2 0xF9C DUP7 DUP3 DUP8 ADD PUSH2 0xEA9 JUMP JUMPDEST SWAP2 POP POP SWAP3 POP SWAP3 POP SWAP3 JUMP JUMPDEST PUSH0 PUSH1 0x20 DUP3 DUP5 SUB SLT ISZERO PUSH2 0xFBB JUMPI PUSH2 0xFBA PUSH2 0xE2C JUMP JUMPDEST JUMPDEST PUSH0 PUSH2 0xFC8 DUP5 DUP3 DUP6 ADD PUSH2 0xEA9 JUMP JUMPDEST SWAP2 POP POP SWAP3 SWAP2 POP POP JUMP JUMPDEST PUSH2 0xFDA DUP2 PUSH2 0xE4F JUMP JUMPDEST DUP3 MSTORE POP POP JUMP JUMPDEST PUSH0 PUSH1 0x20 DUP3 ADD SWAP1 POP PUSH2 0xFF3 PUSH0 DUP4 ADD DUP5 PUSH2 0xFD1 JUMP JUMPDEST SWAP3 SWAP2 POP POP JUMP JUMPDEST PUSH0 PUSH1 0x20 DUP3 DUP5 SUB SLT ISZERO PUSH2 0x100E JUMPI PUSH2 0x100D PUSH2 0xE2C JUMP JUMPDEST JUMPDEST PUSH0 PUSH2 0x101B DUP5 DUP3 DUP6 ADD PUSH2 0xE76 JUMP JUMPDEST SWAP2 POP POP SWAP3 SWAP2 POP POP JUMP JUMPDEST PUSH0 DUP1 PUSH1 0x40 DUP4 DUP6 SUB SLT ISZERO PUSH2 0x103A JUMPI PUSH2 0x1039 PUSH2 0xE2C JUMP JUMPDEST JUMPDEST PUSH0 PUSH2 0x1047 DUP6 DUP3 DUP7 ADD PUSH2 0xE76 JUMP JUMPDEST SWAP3 POP POP PUSH1 0x20 PUSH2 0x1058 DUP6 DUP3 DUP7 ADD PUSH2 0xE76 JUMP JUMPDEST SWAP2 POP POP SWAP3 POP SWAP3 SWAP1 POP JUMP JUMPDEST PUSH32 0x4E487B7100000000000000000000000000000000000000000000000000000000 PUSH0 MSTORE PUSH1 0x22 PUSH1 0x4 MSTORE PUSH1 0x24 PUSH0 REVERT JUMPDEST PUSH0 PUSH1 0x2 DUP3 DIV SWAP1 POP PUSH1 0x1 DUP3 AND DUP1 PUSH2 0x10A6 JUMPI PUSH1 0x7F DUP3 AND SWAP2 POP JUMPDEST PUSH1 0x20 DUP3 LT DUP2 SUB PUSH2 0x10B9 JUMPI PUSH2 0x10B8 PUSH2 0x1062 JUMP JUMPDEST JUMPDEST POP SWAP2 SWAP1 POP JUMP JUMPDEST PUSH32 0x496E76616C696420616C6C6F77616E636520616D6F756E740000000000000000 PUSH0 DUP3 ADD MSTORE POP JUMP JUMPDEST PUSH0 PUSH2 0x10F3 PUSH1 0x18 DUP4 PUSH2 0xDA6 JUMP JUMPDEST SWAP2 POP PUSH2 0x10FE DUP3 PUSH2 0x10BF JUMP JUMPDEST PUSH1 0x20 DUP3 ADD SWAP1 POP SWAP2 SWAP1 POP JUMP JUMPDEST PUSH0 PUSH1 0x20 DUP3 ADD SWAP1 POP DUP2 DUP2 SUB PUSH0 DUP4 ADD MSTORE PUSH2 0x1120 DUP2 PUSH2 0x10E7 JUMP JUMPDEST SWAP1 POP SWAP2 SWAP1 POP JUMP JUMPDEST PUSH32 0x496E73756666696369656E7420737570706C7900000000000000000000000000 PUSH0 DUP3 ADD MSTORE POP JUMP JUMPDEST PUSH0 PUSH2 0x115B PUSH1 0x13 DUP4 PUSH2 0xDA6 JUMP JUMPDEST SWAP2 POP PUSH2 0x1166 DUP3 PUSH2 0x1127 JUMP JUMPDEST PUSH1 0x20 DUP3 ADD SWAP1 POP SWAP2 SWAP1 POP JUMP JUMPDEST PUSH0 PUSH1 0x20 DUP3 ADD SWAP1 POP DUP2 DUP2 SUB PUSH0 DUP4 ADD MSTORE PUSH2 0x1188 DUP2 PUSH2 0x114F JUMP JUMPDEST SWAP1 POP SWAP2 SWAP1 POP JUMP JUMPDEST PUSH32 0x5468697320616D6F756E74206973206E6F7420616C6C6F776564000000000000 PUSH0 DUP3 ADD MSTORE POP JUMP JUMPDEST PUSH0 PUSH2 0x11C3 PUSH1 0x1A DUP4 PUSH2 0xDA6 JUMP JUMPDEST SWAP2 POP PUSH2 0x11CE DUP3 PUSH2 0x118F JUMP JUMPDEST PUSH1 0x20 DUP3 ADD SWAP1 POP SWAP2 SWAP1 POP JUMP JUMPDEST PUSH0 PUSH1 0x20 DUP3 ADD SWAP1 POP DUP2 DUP2 SUB PUSH0 DUP4 ADD MSTORE PUSH2 0x11F0 DUP2 PUSH2 0x11B7 JUMP JUMPDEST SWAP1 POP SWAP2 SWAP1 POP JUMP JUMPDEST PUSH32 0x4E487B7100000000000000000000000000000000000000000000000000000000 PUSH0 MSTORE PUSH1 0x11 PUSH1 0x4 MSTORE PUSH1 0x24 PUSH0 REVERT JUMPDEST PUSH0 PUSH2 0x122E DUP3 PUSH2 0xE8A JUMP JUMPDEST SWAP2 POP PUSH2 0x1239 DUP4 PUSH2 0xE8A JUMP JUMPDEST SWAP3 POP DUP3 DUP3 SUB SWAP1 POP DUP2 DUP2 GT ISZERO PUSH2 0x1251 JUMPI PUSH2 0x1250 PUSH2 0x11F7 JUMP JUMPDEST JUMPDEST SWAP3 SWAP2 POP POP JUMP JUMPDEST PUSH0 PUSH2 0x1261 DUP3 PUSH2 0xE8A JUMP JUMPDEST SWAP2 POP PUSH2 0x126C DUP4 PUSH2 0xE8A JUMP JUMPDEST SWAP3 POP DUP3 DUP3 ADD SWAP1 POP DUP1 DUP3 GT ISZERO PUSH2 0x1284 JUMPI PUSH2 0x1283 PUSH2 0x11F7 JUMP JUMPDEST JUMPDEST SWAP3 SWAP2 POP POP JUMP JUMPDEST PUSH32 0x556E617574686F72697A65640000000000000000000000000000000000000000 PUSH0 DUP3 ADD MSTORE POP JUMP JUMPDEST PUSH0 PUSH2 0x12BE PUSH1 0xC DUP4 PUSH2 0xDA6 JUMP JUMPDEST SWAP2 POP PUSH2 0x12C9 DUP3 PUSH2 0x128A JUMP JUMPDEST PUSH1 0x20 DUP3 ADD SWAP1 POP SWAP2 SWAP1 POP JUMP JUMPDEST PUSH0 PUSH1 0x20 DUP3 ADD SWAP1 POP DUP2 DUP2 SUB PUSH0 DUP4 ADD MSTORE PUSH2 0x12EB DUP2 PUSH2 0x12B2 JUMP JUMPDEST SWAP1 POP SWAP2 SWAP1 POP JUMP JUMPDEST PUSH32 0x496E73756666696369656E742062616C616E6365000000000000000000000000 PUSH0 DUP3 ADD MSTORE POP JUMP JUMPDEST PUSH0 PUSH2 0x1326 PUSH1 0x14 DUP4 PUSH2 0xDA6 JUMP JUMPDEST SWAP2 POP PUSH2 0x1331 DUP3 PUSH2 0x12F2 JUMP JUMPDEST PUSH1 0x20 DUP3 ADD SWAP1 POP SWAP2 SWAP1 POP JUMP JUMPDEST PUSH0 PUSH1 0x20 DUP3 ADD SWAP1 POP DUP2 DUP2 SUB PUSH0 DUP4 ADD MSTORE PUSH2 0x1353 DUP2 PUSH2 0x131A JUMP JUMPDEST SWAP1 POP SWAP2 SWAP1 POP JUMP JUMPDEST PUSH32 0x496E76616C6964207472616E7366657220616D6F756E74000000000000000000 PUSH0 DUP3 ADD MSTORE POP JUMP JUMPDEST PUSH0 PUSH2 0x138E PUSH1 0x17 DUP4 PUSH2 0xDA6 JUMP JUMPDEST SWAP2 POP PUSH2 0x1399 DUP3 PUSH2 0x135A JUMP JUMPDEST PUSH1 0x20 DUP3 ADD SWAP1 POP SWAP2 SWAP1 POP JUMP JUMPDEST PUSH0 PUSH1 0x20 DUP3 ADD SWAP1 POP DUP2 DUP2 SUB PUSH0 DUP4 ADD MSTORE PUSH2 0x13BB DUP2 PUSH2 0x1382 JUMP JUMPDEST SWAP1 POP SWAP2 SWAP1 POP JUMP INVALID LOG2 PUSH5 0x6970667358 0x22 SLT KECCAK256 0x25 0x2E 0x4B 0xE2 JUMP 0xA9 0xF6 SIGNEXTEND PUSH32 0xF4B9936FE90D79E409881AC0CC01ACDCF7C0A1485BCBDD64736F6C634300081A STOP CALLER "
				},
				"gasEstimates": {
					"creation": {
						"codeDepositCost": "1022400",
						"executionCost": "infinite",
						"totalCost": "infinite"
					},
					"external": {
						"allowance(address,address)": "infinite",
						"approve(address,uint256)": "infinite",
						"balanceOf(address)": "2851",
						"burn(uint256)": "infinite",
						"founder()": "2508",
						"mint(address,uint256)": "infinite",
						"name()": "infinite",
						"symbol()": "infinite",
						"tokenTotalSupply()": "2535",
						"totalSupply()": "2477",
						"transfer(address,uint256)": "infinite",
						"transferFrom(address,address,uint256)": "infinite"
					}
				},
				"methodIdentifiers": {
					"allowance(address,address)": "dd62ed3e",
					"approve(address,uint256)": "095ea7b3",
					"balanceOf(address)": "70a08231",
					"burn(uint256)": "42966c68",
					"founder()": "4d853ee5",
					"mint(address,uint256)": "40c10f19",
					"name()": "06fdde03",
					"symbol()": "95d89b41",
					"tokenTotalSupply()": "f7abab9e",
					"totalSupply()": "18160ddd",
					"transfer(address,uint256)": "a9059cbb",
					"transferFrom(address,address,uint256)": "23b872dd"
				}
			},
			"storageLayout": {
				"storage": [
					{
						"astId": 85,
						"contract": "contracts/myToken.sol:myToken",
						"label": "name",
						"offset": 0,
						"slot": "0",
						"type": "t_string_storage"
					},
					{
						"astId": 87,
						"contract": "contracts/myToken.sol:myToken",
						"label": "symbol",
						"offset": 0,
						"slot": "1",
						"type": "t_string_storage"
					},
					{
						"astId": 89,
						"contract": "contracts/myToken.sol:myToken",
						"label": "founder",
						"offset": 0,
						"slot": "2",
						"type": "t_address"
					},
					{
						"astId": 91,
						"contract": "contracts/myToken.sol:myToken",
						"label": "tokenTotalSupply",
						"offset": 0,
						"slot": "3",
						"type": "t_uint256"
					},
					{
						"astId": 95,
						"contract": "contracts/myToken.sol:myToken",
						"label": "balances",
						"offset": 0,
						"slot": "4",
						"type": "t_mapping(t_address,t_uint256)"
					},
					{
						"astId": 101,
						"contract": "contracts/myToken.sol:myToken",
						"label": "allowances",
						"offset": 0,
						"slot": "5",
						"type": "t_mapping(t_address,t_mapping(t_address,t_uint256))"
					}
				],
				"types": {
					"t_address": {
						"encoding": "inplace",
						"label": "address",
						"numberOfBytes": "20"
					},
					"t_mapping(t_address,t_mapping(t_address,t_uint256))": {
						"encoding": "mapping",
						"key": "t_address",
						"label": "mapping(address => mapping(address => uint256))",
						"numberOfBytes": "32",
						"value": "t_mapping(t_address,t_uint256)"
					},
					"t_mapping(t_address,t_uint256)": {
						"encoding": "mapping",
						"key": "t_address",
						"label": "mapping(address => uint256)",
						"numberOfBytes": "32",
						"value": "t_uint256"
					},
					"t_string_storage": {
						"encoding": "bytes",
						"label": "string",
						"numberOfBytes": "32"
					},
					"t_uint256": {
						"encoding": "inplace",
						"label": "uint256",
						"numberOfBytes": "32"
					}
				}
			},
			"userdoc": {
				"kind": "user",
				"methods": {},
				"version": 1
			}
		}
	}
}